:100000000C9470010C94A1010C94A1010C94A10119
:100010000C94A1010C94A1010C94A1010C94A101D8
:100020000C94A1010C94A1010C94A1010C94A101C8
:100030000C94A1010C94290B0C94A1010C94A10126
:100040000C94A1010C94A1010C94A1010C94A101A8
:100050000C94A1010C94A1010C94A1010C94770AB9
:100060000C94A1010C94F1030C94C7030C94A1010E
:100070000C94A1010C94A1010C94A1010C94A10178
:100080000C94A1010C94A1010C94A1010C94A10168
:100090000C949D030C9473030C94A1010C94A10186
:1000A0000C94A1010C94A1010C94A1010C94A10148
:1000B0000C94A1010C94A1010C94A1010C94A10138
:1000C0000C94A1010C94A1010C94A1010C94A10128
:1000D0000C94A1010C94A1010C94A1010C94A10118
:1000E0000C94A1019A089D088C0890089408D408E3
:1000F000A108A508AB08AF08B308B908BD08C10836
:10010000D408C708CB08CF084D095209570961091F
:100110006B09E40975097D0985098F099909A30906
:10012000B209BC09E409C609D009DA090C94990995
:100130000C94CF080C94B3080C948C080C941F02F8
:100140000C9466020C9475090C94C7080C94AF08C3
:100150000C94AB080C944D090C94DA090C94B90872
:100160000C94D0090C94A3090C948F090C94610988
:100170000C949D080C9440080C940C120C94BD082F
:100180000C9490080C949A080C94C6090C94BC0921
:100190000C94A5080C9485090C94CB080C941C12A3
:1001A0000C94BC010C94A1080C946B090C94DE0116
:1001B0000C94D4080C9457090C94D0010C94B209F7
:1001C0000C94E4090C94C1080C9452090C947D0918
:1001D0000C949408020102102020080810204010FE
:1001E00020408002010201080402010102040810FB
:1001F0002040808040201008040201800402018019
:100200004020100804020108040201010204081041
:1002100020408001020408102040800000220025B8
:100220000028002B002E00310034000201000005E0
:100230000108010B01050505050705080808080266
:100240000202020A0A08080404040401010101016F
:100250000101010303030303030303040707070C5E
:100260000C0C0C0C0C0C0C02020202060606060614
:100270000606060B0B0B0B0B0B0B0B0000210024CF
:100280000027002A002D0030003300010100000487
:100290000107010A0100000A0B02090C0D0E0807F4
:1002A0000304010000000000000000000000000046
:1002B000000000000000000000000000000000003E
:1002C00000121110000000000000000000000000FB
:1002D0000000000000000000000000001C120C12D2
:1002E00011241FBECFEFD1E2DEBFCDBF00E00CBFB7
:1002F00012E0A0E0B2E0ECE3FDE200E00BBF02C0E0
:1003000007900D92A236B107D9F724E0A2E6B2E039
:1003100001C01D92A634B207E1F711E0CFE6D1E0AB
:1003200000E006C021970109802FFE010E945215AE
:10033000CE36D10780E00807A9F70E949E0B0C94E7
:100340008C160C940000FC01A089B1898C91A689BF
:10035000B78982FD0FC09C91818D8F5F8F73228D35
:10036000821749F0218DDF01A20FB11D5D969C938C
:10037000818F08958C910895FC01918D828D98173D
:1003800061F0828DDF01A80FB11D5D968C91928D79
:100390009F5F9F73928F90E008958FEF9FEF089576
:1003A000FC01918D828D981731F0828DE80FF11D3F
:1003B000858D90E008958FEF9FEF0895FC01918D5A
:1003C000228D892F90E0805C9F4F821B91098F7353
:1003D0009927089583EC92E00E94DE0121E0892BA9
:1003E00009F420E0822F089580E693E00E94DE0168
:1003F00021E0892B09F420E0822F0895FC01848DEF
:10040000DF01A80FB11DA35ABF4F2C91848D90E03E
:1004100001968F739927848FA689B7892C93A08919
:10042000B1898C9180648C93938D848D981306C0D0
:100430000288F389E02D80818F7D80830895EF927B
:10044000FF920F931F93CF93DF93EC0181E0888F8E
:100450009B8D8C8D981305C0E889F989808185FD75
:1004600024C0F62E0B8D10E00F5F1F4F0F73112766
:10047000E02E8C8DE8120CC00FB607FCFACFE8898D
:10048000F989808185FFF5CFCE010E94FE01F1CF71
:100490008B8DFE01E80FF11DE35AFF4FF0820B8FA9
:1004A000EA89FB898081806207C0EE89FF896083C9
:1004B000E889F98980818064808381E090E0DF9120
:1004C000CF911F910F91FF90EF900895CF93DF93FD
:1004D000EC01888D8823C9F0EA89FB89808185FD3C
:1004E00005C0A889B9898C9186FD0FC00FB607FC9D
:1004F000F5CF808185FFF2CFA889B9898C9185FFDE
:10050000EDCFCE010E94FE01E7CFDF91CF9108959C
:1005100080E090E0892B21F00E94F401811121C03C
:1005200080E090E0892B21F00E94EA0181111CC03B
:1005300080E090E0892B41F080E090E0892B21F071
:100540000E940000811113C080E090E0892BA1F08F
:1005500080E090E0892B81F00E94000081110AC0A8
:1005600008950E940000DCCF0E940000E1CF0E94AD
:100570000000EACF0C94000008958CE00E94E50A88
:1005800061E08CE00C946B084F925F926F927F92C7
:100590008F929F92AF92BF92CF92DF92EF92FF9293
:1005A000CF93DF93CDB7DEB728970FB6F894DEBFB1
:1005B0000FBECDBFC090C102D090C2020D2C000C66
:1005C000EE08FF0888EEC80E83E0D81EE11CF11C7F
:1005D000AFEFB0E0A70196010E94701320ED822ECC
:1005E00027E0922EA12CB12CA50194010E94511359
:1005F00029833A834B835C83A981BA81B0936902D2
:10060000A0936802A1E0BFEFA70196010E947E13AC
:10061000A50194010E945113DA01C90181509F4F35
:10062000AF4FBF4F8D839E83AF83B8879093670290
:1006300080936602C090BF02D090C0020D2C000CC7
:10064000EE08FF0898EEC90E93E0D91EE11CF11CDC
:10065000AFEFB0E0A70196010E947013A5019401CD
:100660000E94511329013A013093650220936402DC
:10067000A1E0BFEFA70196010E947E13A50194019E
:100680000E94511369017A01AFEFCA0ED11CE11C1F
:10069000F11CD0926302C092620269817A8189E082
:1006A0000E9424096D817E818AE00E942409B201A2
:1006B00086E00E942409B60185E028960FB6F894DA
:1006C000DEBF0FBECDBFDF91CF91FF90EF90DF90E7
:1006D000CF90BF90AF909F908F907F906F905F90E2
:1006E0004F900C9424091F920F920FB60F92112471
:1006F0000BB60F922F933F934F935F936F937F931C
:100700008F939F93AF93BF93EF93FF9383EC92E00C
:100710000E94FE01FF91EF91BF91AF919F918F9148
:100720007F916F915F914F913F912F910F900BBEF1
:100730000F900FBE0F901F9018951F920F920FB63B
:100740000F9211240BB60F922F933F934F935F9309
:100750006F937F938F939F93AF93BF93EF93FF9389
:1007600083EC92E00E94A301FF91EF91BF91AF91C2
:100770009F918F917F916F915F914F913F912F91B9
:100780000F900BBE0F900FBE0F901F9018951F92E9
:100790000F920FB60F9211240BB60F922F933F9327
:1007A0004F935F936F937F938F939F93AF93BF9379
:1007B000EF93FF9380E693E00E94FE01FF91EF919B
:1007C000BF91AF919F918F917F916F915F914F9169
:1007D0003F912F910F900BBE0F900FBE0F901F9067
:1007E00018951F920F920FB60F9211240BB60F920D
:1007F0002F933F934F935F936F937F938F939F9329
:10080000AF93BF93EF93FF9380E693E00E94A30121
:10081000FF91EF91BF91AF919F918F917F916F91D8
:100820005F914F913F912F910F900BBE0F900FBE94
:100830000F901F9018950E948716109238041092FE
:10084000370422273327281B390B30933604209393
:1008500035049093C2028093C1029093C0028093AA
:10086000BF0208950F931F93CF93DF93CDB7DEB7E9
:1008700029970FB6F894DEBF0FBECDBF8091050457
:1008800090910604892B09F4A1C00E940C0A0091E2
:100890000B0410910C0420910D0430910E04DC0126
:1008A000CB01801B910BA20BB30BC297A105B10525
:1008B00060F3F89480910104909102049A838983F3
:1008C000E0910504F0910604DF011196808189878B
:1008D0009091FD03E0910F04F091100480911104B8
:1008E000992309F42EC09081982B98879081809548
:1008F00089238F838F818C8388E08B8358856F81D8
:1009000049853B812C8189819A81508347FD252F20
:100910003A952083262F39F0441F00C000006083E1
:10092000000000C0F2CF38E04D91608300000197D5
:1009300061F7F0931004E0930F0449873B832C8305
:1009400038C09081982B98879081809589238F83D8
:100950008F818E8388E08D8358856F8149853D81A5
:100960002E8189819A81508347FD252F00C000C0C8
:10097000208300C000C000C000C000C06083000031
:10098000262F3A9541F0441F000000C000C000C06F
:1009900000C000C0E8CF38E04D9100C0608300C0C7
:1009A000019709F7F0931004E0930F0449873D8302
:1009B0002E839A83898378940E940C0A60930B0497
:1009C00070930C0480930D0490930E0429960FB637
:1009D000F894DEBF0FBECDBFDF91CF911F910F9175
:1009E00008958F929F92AF92BF92CF92DF92EF9233
:1009F000FF922091FF03309100048217930708F0C3
:100A000052C04B01AA24BB24E82DC52ED62EE72EBA
:100A1000FF24FC2D342F20910404222361F0829EB8
:100A200040011124E92DC29E60011124FD2D429F39
:100A3000D00111243B2FF0900A04E0900704A0910C
:100A40000504B0910604FE1008C0AC01440F551F08
:100A5000840F951F8A0F9B1F14C0880F991F880F42
:100A6000991F8A0F9B1F472F552766277727DC0181
:100A7000AF0DB11D222321F0429FA0011124452F6B
:100A80004C9320910704DC01A20FB11DEC9320913F
:100A90000804DC01A20FB11DFC9320910904FC01A4
:100AA000E20FF11D3083FF90EF90DF90CF90BF9069
:100AB000AF909F908F9008958F929F92AF92BF9228
:100AC000CF92DF92EF92FF92CF93209120022C30B1
:100AD00021F02F3F09F0CAC204C0E4EDF1E0C49157
:100AE000E7C02CE020932002E4EDF1E0C491CF3F79
:100AF00009F4BCC2C23009F472C04CF5CC2309F42D
:100B000051C0C13009F0D4C0109280001092810011
:100B10002091810028602093810020918100216034
:100B200020938100E1E4F2E0E491F0E0EE0FFF1F9A
:100B3000E55EFD4F2591349130931D0420931C04F4
:100B4000E1EEF1E0E491E0931B04C1E0B3C0C430F6
:100B500009F48BC00CF466C0C53009F0A9C010922E
:100B60002001109221012091210128602093210170
:100B700020912101216020932101E1E4F2E0E49140
:100B8000F0E0EE0FFF1FE55EFD4F259134913093AD
:100B9000140420931304E1EEF1E0E491E0931204D5
:100BA000C5E088C014BC15BC24B5226024BD25B5A1
:100BB000216025BDE1E4F2E0E491F0E0EE0FFF1FDB
:100BC000E55EFD4F259134913093200420931F045E
:100BD000E1EEF1E0E491E0931E04C0E06BC01092FE
:100BE000B0001092B1002091B00022602093B000BC
:100BF0002091B10021602093B100E1E4F2E0E491A2
:100C0000F0E0EE0FFF1FE55EFD4F2591349130932C
:100C1000BA022093B902E1EEF1E0E491E093B80268
:100C2000C2E048C010929000109291002091910073
:100C300028602093910020919100216020939100E1
:100C4000E1E4F2E0E491F0E0EE0FFF1FE55EFD4F1E
:100C50002591349130931A0420931904E1EEF1E0C8
:100C6000E491E0931804C3E025C01092A000109214
:100C7000A1002091A10028602093A1002091A10053
:100C800021602093A100E1E4F2E0E491F0E0EE0FB6
:100C9000FF1FE55EFD4F259134913093170420939B
:100CA0001604E1EEF1E0E491E0931504C4E002C023
:100CB000C7FDDCC16C0161E08CE00E94E808E12C1A
:100CC000F12C8C2F8D7F09F0A9C060E072E18AE7DA
:100CD00090E0A70196010E94511349015A01BA01FF
:100CE000A90141505109610971094F3F5105610541
:100CF000710509F008F445C060E472E48FE090E00B
:100D0000A70196010E945113BA01A901415051094E
:100D100061097109C230E9F44F3F51056105710560
:100D200009F008F4A1C160E970ED83E090E0A7014B
:100D300096010E945113BA01A9014150510961095C
:100D400071094F3F51056105710509F0A8F583E070
:100D50005EC04F3F510561057105A9F0A0F068E440
:100D600078EE81E090E0A70196010E945113BA014C
:100D7000A9014150510961097109CC2309F423C12A
:100D80006BC181E001C082E0CC2389F040C0D50175
:100D9000C4012AE0B595A795979587952A95D1F72F
:100DA000AC01BD01415051096109710985E095B55A
:100DB000987F892B85BD8CC068E478EE81E090E057
:100DC000A70196010E945113BA01A901415051098E
:100DD000610971094F3F51056105710509F008F47A
:100DE000F0C064E274EF80E090E0A70196010E94F9
:100DF0005113BA01A90141505109610971094F3FCD
:100E000051056105710511F008F0FCC085E0909175
:100E1000B100987F892B8093B10049C060E072E1F6
:100E20008AE790E0A70196010E945113BA01A90137
:100E300041505109610971094115510581E0680767
:100E4000710580F068E478EE81E090E0A7019601FA
:100E50000E945113BA01A901415051096109710958
:100E600083E001C081E0C13039F490918100987F26
:100E7000892B809381003EC0C33039F4909191005A
:100E8000987F892B809391005DC0C43039F4909194
:100E9000A100987F892B8093A10069C0C53039F4E7
:100EA00090912101987F892B8093210175C0C230D8
:100EB000B1F134F4CC2361F0C13009F0D7C01AC0CD
:100EC000C43009F454C0F4F1C53009F465C0CEC093
:100ED00047BD8FEF9FEFDC01809331049093320484
:100EE000A0933304B093340480916E0082608093A9
:100EF0006E00BCC050938900409388008FEF9FEF35
:100F0000DC0180932D0490932E04A0932F04B093C2
:100F1000300480916F00826080936F00A7C040937F
:100F2000B3008FEF9FEFDC018093BB029093BC0274
:100F3000A093BD02B093BE02809170008260809346
:100F4000700094C050939900409398008FEF9FEFEA
:100F5000DC018093290490932A04A0932B04B0937E
:100F60002C04809171008260809371007FC0509347
:100F7000A9004093A8008FEF9FEFDC018093250428
:100F800090932604A0932704B093280480917200C4
:100F90008260809372006AC05093290140932801B7
:100FA0008FEF9FEFDC018093210490932204A093A4
:100FB0002304B093240480917300826080937300B3
:100FC00055C084E024CF4F3F510561057105C1F044
:100FD000B8F062E17AE780E090E0A70196010E9414
:100FE0005113BA01A90141505109610971094F3FDB
:100FF00051056105710511F008F0C9CE84E0D7CE26
:1010000083E0D5CE62E17AE780E090E0A701960127
:101010000E945113BA01A901415051096109710996
:101020004F3F510561057105A9F0A0F0D501C4013C
:101030003AE0B595A795979587953A95D1F7AC0184
:10104000BD014150510961097109CC2309F4AECEAB
:1010500087E0DDCE86E098CE4F3F510561057105F2
:1010600009F080F684E090CE82E0D1CECF91FF905F
:10107000EF90DF90CF90BF90AF909F908F900895AA
:10108000CF92DF92EF92FF920F931F93CF93DF9354
:101090006C017A018B01C0E0D0E0CE15DF0589F04C
:1010A000D8016D918D01D601ED91FC910190F081F7
:1010B000E02DC6011995892B11F47E0102C02196FD
:1010C000ECCFC701DF91CF911F910F91FF90EF906F
:1010D000DF90CF900895362F90E0FC01EB56FD4F46
:1010E0004491FC01EB52FE4F2491FC01EB5CFD4F5F
:1010F0009491992309F46BC0442309F455C050E03E
:10110000FA013197E231F10508F04EC08827EE5818
:10111000FF4F8F4F0C945215809180008F7707C03E
:10112000809180008F7D03C080918000877F8093B5
:1011300080003AC084B58F7702C084B58F7D84BDAE
:1011400033C08091B0008F7703C08091B0008F7D55
:101150008093B00029C0809190008F7707C0809164
:1011600090008F7D03C080919000877F80939000D6
:101170001BC08091A0008F7707C08091A0008F7D59
:1011800003C08091A000877F8093A0000DC0809154
:1011900020018F7707C0809120018F7D03C080914F
:1011A0002001877F80932001E92FF0E0EE0FFF1FE1
:1011B000E55EFD4FA591B4918FB7F894EC91311194
:1011C00003C020952E2301C02E2B2C938FBF089592
:1011D000CF93DF9390E0FC01EB52FE4F2491FC0192
:1011E000EB5CFD4F8491882361F190E0880F991F9B
:1011F000FC01E558FD4FC591D491FC01E55EFD4F22
:10120000A591B491611109C09FB7F8948881209588
:1012100082238883EC912E230BC0623061F49FB748
:10122000F8943881822F809583238883EC912E2B2C
:101230002C939FBF06C08FB7F894E8812E2B28838C
:101240008FBFDF91CF9108951F93CF93DF93182F16
:10125000EB0161E00E94E808209711F460E004C00F
:10126000CF3FD10539F461E0812FDF91CF911F91FC
:101270000C946B08E12FF0E0EB56FD4FE4914E2FFC
:1012800050E0FA013197E231F10508F09DC088275E
:10129000EC57FF4F8F4F0C94521584B5806884BD76
:1012A000C7BD97C084B5806284BDC8BD92C080911F
:1012B0008000806880938000D0938900C09388006C
:1012C00088C080918000806280938000D0938B00E2
:1012D000C0938A007EC080918000886080938000E7
:1012E000D0938D00C0938C0074C08091B000806852
:1012F0008093B000C093B3006CC08091B000806256
:101300008093B000C093B40064C080919000806866
:1013100080939000D0939900C09398005AC0809118
:101320009000806280939000D0939B00C0939A00BD
:1013300050C080919000886080939000D0939D0071
:10134000C0939C0046C08091A00080688093A0005C
:101350008091A0008F7B8093A000D093A900C093C0
:10136000A80037C08091A00080628093A000D09335
:10137000AB00C093AA002DC08091A000886080932C
:10138000A000D093AD00C093AC0023C08091200199
:10139000806880932001D0932901C093280119C04F
:1013A00080912001806280932001D0932B01C09313
:1013B0002A010FC080912001886080932001D09382
:1013C0002D01C0932C0105C0C038D1050CF04BCFC6
:1013D00045CFDF91CF911F910895863308F0865352
:1013E00090917B00282F2870977F922B90937B0001
:1013F0008770806480937C0080917A008064809301
:101400007A0080917A0086FDFCCF8091780020914F
:10141000790090E0922B08953FB7F89480913E04B4
:1014200090913F04A0914004B091410426B5A89B3F
:1014300005C02F3F19F00196A11DB11D3FBFBA2F66
:10144000A92F982F8827820F911DA11DB11DBC01C6
:10145000CD0142E0660F771F881F991F4A95D1F78B
:1014600008958F929F92AF92BF92CF92DF92EF92A8
:10147000FF926B017C010E940C0A4B015C01C114BC
:10148000D104E104F104F1F00E940C0ADC01CB016B
:1014900088199909AA09BB09883E9340A105B1059D
:1014A00070F321E0C21AD108E108F10888EE880E35
:1014B00083E0981EA11CB11CC114D104E104F10405
:1014C00019F7DDCFFF90EF90DF90CF90BF90AF90F6
:1014D0009F908F9008952FB7F89460913A0470917F
:1014E0003B0480913C0490913D042FBF08951F92CE
:1014F0000F920FB60F9211242F933F938F939F93C8
:10150000AF93BF9380913A0490913B04A0913C0427
:10151000B0913D043091390423E0230F2D3720F49E
:101520000196A11DB11D05C026E8230F0296A11D3D
:10153000B11D2093390480933A0490933B04A09307
:101540003C04B0933D0480913E0490913F04A091EF
:101550004004B09141040196A11DB11D80933E0449
:1015600090933F04A0934004B0934104BF91AF9186
:101570009F918F913F912F910F900FBE0F901F90D1
:101580001895CF93DF9300D01F92CDB7DEB76115CA
:1015900071058105910579F09B01AC0169833A835E
:1015A0004B835C830E94441329813A814B815C8187
:1015B0000E94511303C060E070E0CB010F900F90C8
:1015C0000F900F90DF91CF91089590912002981382
:1015D0003DC0E4EDF1E0E4919FEF90932002E23012
:1015E000C9F050F4EE2399F0E13081F590916F004D
:1015F0009D7F90936F002AC0E43019F1E0F0E53050
:1016000029F5909173009D7F909373001FC01092F5
:101610006E001CC0909170009D7F9093700091E0CF
:101620009093B0009091B100987F94609093B10036
:101630001092B3000BC0909171009D7F9093710048
:1016400005C0909172009D7F9093720060E00C94B1
:101650006B081F920F920FB60F9211240BB60F92C8
:101660002F933F934F935F936F937F938F939F93AA
:10167000AF93BF93EF93FF938091BB029091BC0215
:10168000A091BD02B091BE02892B8A2B8B2B51F108
:101690008091B802E091B902F091BA029081892755
:1016A00080838091BB029091BC02A091BD02B09159
:1016B000BE02181619061A061B06C4F48091BB0256
:1016C0009091BC02A091BD02B091BE020197A10908
:1016D000B1098093BB029093BC02A093BD02B0936A
:1016E000BE0204C0809120020E94E50AFF91EF91A2
:1016F000BF91AF919F918F917F916F915F914F912A
:101700003F912F910F900BBE0F900FBE0F901F9027
:1017100018956115710579F0FB0101900020E9F73A
:101720003197AF01461B570BDC01ED91FC91028014
:10173000F381E02D199480E090E00895CF93DF933A
:10174000CDB7DEB7A9970FB6F894DEBF0FBECDBFF9
:10175000789484B5826084BD84B5816084BD85B58C
:10176000826085BD85B5816085BD80916E00816098
:1017700080936E001092810080918100826080933E
:101780008100809181008160809381008091800040
:101790008160809380008091B10084608093B1006B
:1017A0008091B00081608093B00080919100826050
:1017B000809391008091910081608093910080914D
:1017C00090008160809390008091A100826080935E
:1017D000A1008091A10081608093A1008091A00070
:1017E00081608093A000809121018260809321011B
:1017F000809121018160809321018091200181608D
:101800008093200180917A00846080937A00809197
:101810007A00826080937A0080917A008160809360
:101820007A0080917A00806880937A001092C100DB
:10183000E0917003F091710322E02083E0916C034A
:10184000F0916D031082E0916E03F0916F038FECC5
:10185000808310927803E0917403F091750396E011
:101860009083E0917203F0917303808180618083A3
:10187000E0917203F0917303808188608083E0912E
:101880007203F0917303808180688083E09172031A
:10189000F091730380818F7D8083E091D302F0917A
:1018A000D4022083E091CF02F091D0028DE08083BA
:1018B000E091D102F091D20284E080831092DB02A9
:1018C000E091D702F091D8029083E091D502F09197
:1018D000D602808180618083E091D502F091D602AA
:1018E000808188608083E091D502F091D60280816A
:1018F00080688083E091D502F091D60280818F7D4F
:10190000808368EB7BE080E090E00E94310A60E039
:101910008DE30E94E80860E08CE30E94E80860E044
:101920008BE30E94E80860E08AE30E94E8087AE01E
:10193000E72EF12C64E670E080E090E00E94310A2E
:1019400002E712E06BE2C62E62E0D62EB2E00A3762
:101950001B07A9F0D6018C91B2E0CB0ED11C0E94DE
:10196000ED09F80120813181820F931F97FD0196C7
:1019700095958795D8018D939D938D01E7CFE1E0F3
:10198000EE1AF108B9F661E089E00E94E80861E02A
:101990008AE00E94E80861E086E00E94E80861E0D1
:1019A00085E00E94E80860E087E30E94E80860E0C4
:1019B00086E30E94E80862E088E30E94E80868EE97
:1019C00073E080E090E00E94310A87E30E94ED0915
:1019D0008C01909371028093700286E30E94ED095E
:1019E00090936F0280936E02000F111F10936D028F
:1019F00000936C029C01220F331F30936B022093E3
:101A00006A0261E08CE00E94E8088CE00E94E50A2E
:101A100061E08CE00E946B088091030487FD08C0A0
:101A200061E00E94E80860E0809103040E946B0876
:101A300081E08093FE030E94BD0200E010E04CE3D1
:101A400054E664E670E0C8010E94F1040F5F1F4F86
:101A500008301105A1F70E943204BAE04B2E512C38
:101A6000612C712C22242394312C61E070E080E001
:101A700090E00E94310A0E946B0A6B017C012AE708
:101A800032E03FA32EA33BA32AA38BE292E09DA3C7
:101A90008CA3EAA1FBA1E258F24009F48CC0AAA1F0
:101AA000BBA16D917C91072E000C880B990B0E94B5
:101AB00059144B015C01ECA1FDA180813296FDA37C
:101AC000ECA30E94ED098C012AE939E949E55FE3BD
:101AD000C501B4010E94E5140E94281480E090E042
:101AE0000E9457144B015C01B801110F880B990B30
:101AF0000E94591428E939E949E15EE30E94E5149E
:101B00009B01AC01C501B4010E94B5130E942114D0
:101B1000AAA1BBA16D937D93BBA3AAA34B01770F91
:101B2000AA08BB08B7FE26C0E0916003F0916103EC
:101B30000190F081E02D6DE280E693E01995222777
:101B40003327A901281939094A095B0919A28E010D
:101B50000F5D1F4FCA01B901A30192010E948313B7
:101B6000605DF80162938F01211531054105510532
:101B700089F715C0A501940119A28E010F5D1F4FB1
:101B8000CA01B901A30192010E948313605DD801CB
:101B90006E938D01211531054105510589F7B80175
:101BA00080E693E00E94890B63E472E080E693E0B4
:101BB0000E94890B6ECF65E472E080E693E00E949C
:101BC000890BE2E7F2E010E080E090E0AEA1BFA177
:101BD0006D917D91BFA3AEA341915191440F551FCB
:101BE00021E030E04617570714F020E030E0082EDF
:101BF00001C0220F0A94EAF7122B01968430910556
:101C000029F71093B3028091B4029091B502A0918C
:101C1000B602B091B702A7019601281B390B4A0BF7
:101C20005B0B243131054105510508F4F2C3C09224
:101C3000B402D092B502E092B602F092B7020091DF
:101C40001E0210911F020230110509F4B0C224F4E3
:101C50000130110551F0DDC30830110509F416C239
:101C60000031110509F4D3C1D4C30E946B0AC0909E
:101C7000A002D090A102E090A202F090A302DC01A9
:101C8000CB018C199D09AE09BF0988379105A105C3
:101C9000B10510F10E946B0A6093A0027093A1023B
:101CA0008093A2029093A302209116023091170212
:101CB0008091A4029091A502820F931F9093A50298
:101CC0008093A4020197069718F031952195310968
:101CD000309317022093160260E9E62E62E0F62E9A
:101CE000C12CD12C28E730E08091A4029091A5026C
:101CF000C816D90621F4D7012D933C9314C0F701DF
:101D0000808191818A30910534F08A30F1E09F071B
:101D10002CF40A9705C080E090E002C08FEF90E0BD
:101D2000D7018D939C93F7018081F2E0EF0EF11CB7
:101D300090E0A0E0B0E05C01992488244427582F6B
:101D4000692F7A2F482959296A297B29482B592B31
:101D50006A2B7B2BC60128A739A70E94F1044FEFFD
:101D6000C41AD40A28A539A558E0C516D10409F02B
:101D7000BBCF0E9432040E946B0A6B017C01A090D1
:101D80008602B090870281E0A816B10409F455C01C
:101D900092E0A916B10409F4CFC0AB2809F01CC128
:101DA00080E090E00E941D040E94C40280918202A3
:101DB00090918302A0918402B0918502B701A6019F
:101DC000481B590B6A0B7B0B80910A0290910B0206
:101DD000A0910C02B0910D0284179507A607B707D2
:101DE00008F0FAC0C0928202D0928302E09284028C
:101DF000F092850268E97AE380E090E00E94C10AEF
:101E0000DC01CB0188579C4EAF4FBF4F80930A0235
:101E100090930B02A0930C02B0930D0260ED77E05B
:101E200080E090E00E94C10A683E73408105910500
:101E30000CF078C081E090E07AC080910802909127
:101E4000090240E951E0849F9001859F300D949FE5
:101E5000300D11243093C2022093C10240E75EEF9F
:101E6000849F9001859F300D949F300D11243093F5
:101E7000C0022093BF020E94C4028091820290910E
:101E80008302A0918402B0918502B701A601481B8C
:101E9000590B6A0B7B0B8091040290910502A09173
:101EA0000602B091070284179507A607B70708F046
:101EB00093C0C0928202D0928302E0928402F09298
:101EC000850260ED77E080E090E00E94C10ADC01CD
:101ED000CB0188519C4FAF4FBF4F8093040290932A
:101EE0000502A0930602B093070260ED77E080E060
:101EF00090E00E94C10A683E7340810591051CF480
:101F0000AA24AA94BA2CB0920902A092080268EE00
:101F100073E080E090E00E94C10A6536710581059A
:101F200091051CF482E090E002C080E090E0909384
:101F300087028093860250C086E09FEF0E941D04B6
:101F40000E94C4028091820290918302A091840237
:101F5000B0918502B701A601481B590B6A0B7B0B98
:101F60008091000290910102A0910202B0910302BF
:101F700084179507A607B70778F5C0928202D0921A
:101F80008302E0928402F092850260ED77E080E0C7
:101F900090E00E94C10ADC01CB0188519C4FAF4FF9
:101FA000BF4F8093000290930102A0930202B0936E
:101FB000030268EE73E080E090E00E94C10A21E035
:101FC00030E0653671058105910514F020E030E0C0
:101FD00030938702209386028091B3028F3009F4F8
:101FE00018C28D7F813011F40FEF1FEF10931D0287
:101FF00000931C020E946B0A6093AF027093B002C0
:102000008093B1029093B20280E190E03AC00E94C6
:102010006B0A0091AF021091B0022091B102309191
:10202000B202DC01CB01801B910BA20BB30B883EEB
:102030009340A105B10528F48AEF90E00E941D04A9
:1020400060C068EB7BE080E090E00E94C10ADC01A8
:10205000CB0188519C4FAF4FBF4F80931802909394
:102060001902A0931A02B0931B020E946B0A60939C
:10207000AB027093AC028093AD029093AE0288E005
:1020800090E090931F0280931E02C3C10E946B0ACE
:102090000091AB021091AC022091AD023091AE02E2
:1020A000DC01CB01801B910BA20BB30B009118023A
:1020B0001091190220911A0230911B02801791078A
:1020C000A207B30708F580911C0290911D0240E918
:1020D00051E0849F9001859F300D949F300D112415
:1020E0003093C2022093C10240E75EEF849F9001CB
:1020F000859F300D949F300D11243093C0022093A2
:10210000BF020E94C40285C168EB7BE080E090E0E2
:102110000E94C10ADC01CB0188519C4FAF4FBF4FD9
:102120008093180290931902A0931A02B0931B0295
:1021300068EE73E080E090E00E94C10A64367105A9
:10214000810591051CF081E090E002C082E090E002
:1021500090931F0280931E02029709F05AC180E0FB
:1021600090E00E941D040E94C4020E946B0A6093CA
:10217000A7027093A8028093A9029093AA020AE092
:1021800010E068E472E083EC92E00E94890B65E461
:1021900072E083EC92E00E94890B6AE070E080E0DC
:1021A00090E00E94310A0150110959F732C10E9492
:1021B0006B0A6B017C0180918C0290918D02A09141
:1021C0008E02B0918F02B701A601481B590B6A0B12
:1021D0007B0B8091120290911302A0911402B09196
:1021E0001502481759076A077B0730F10E9444130C
:1021F00024E630E040E050E00E9451136093120268
:10220000709313028093140290931502C0928C0273
:10221000D0928D02E0928E02F0928F0268EB7BE00A
:1022200080E090E00E94C10ADC01CB0188519C4F04
:10223000AF4FBF4F0E945C05809188029091890248
:10224000A0918A02B0918B02B701A601481B590BDD
:102250006A0B7B0B80910E0290910F02A0911002ED
:10226000B0911102481759076A077B0758F10E947D
:1022700044132CED35E040E050E00E945113DC01A6
:10228000CB014496A11DB11D80930E0290930F02C5
:10229000A0931002B0931102C0928802D0928902DA
:1022A000E0928A02F0928B0268EB7BE080E090E0A3
:1022B0000E94C10ADC01CB0188519C4FAF4FBF4F38
:1022C0000E945C050E946B0A4B015C018091A60292
:1022D000811130C01092A5021092A4023092170210
:1022E0002092160290E9E92E92E0F92E00E010E02B
:1022F000D7011D921D927D0140E05FEF60E070E02C
:10230000C8010E94F1040F5F1F4F0830110581F7CB
:102310000E94320481E08093A60264E572E080E6C8
:1023200093E00E94890B65E472E080E693E00E94EE
:10233000890B6FC0E12CF12C0091A4021091A50231
:10234000E016F10639F440E050E06FEF70E0C701AD
:102350000E94F104BFEFEB1AFB0AE8E0EE16F1046D
:1023600059F70E9432048091A0029091A102A0919D
:10237000A202B091A302A5019401281B390B4A0BBC
:102380005B0BDA01C901803D9740A105B10508F456
:1023900040C08092A0029092A102A092A202B092AC
:1023A000A3020F5F1F4F1093A5020093A4020830F1
:1023B000110578F11092A6021092A5021092A402C3
:1023C000309217022092160280E9E82E82E0F82E61
:1023D00000E010E0D7011D921D927D0140E050E029
:1023E000BA01C8010E94F1040F5F1F4F08301105A8
:1023F00089F70E9432040E94BD0260ED77E080E020
:1024000090E00E94310A30921F0220921E020E9428
:10241000BD020E94880229CB809105049091060498
:10242000009711F00E94EF158091030487FD03C00F
:1024300060E00C94E80808951092C6021092C5025C
:1024400048EE53E060E070E04093C7025093C8024A
:102450006093C9027093CA0287E392E09093C4022A
:102460008093C3022DEC30E03093D0022093CF0252
:102470002CEC30E03093D2022093D10228EC30E0F3
:102480003093D4022093D30229EC30E03093D6026B
:102490002093D5022AEC30E03093D8022093D70263
:1024A0002EEC30E03093DA022093D9021092DC0255
:1024B0001092DD021092DE021092DF02109263038E
:1024C0001092620340936403509365036093660324
:1024D00070936703909361038093600385EC90E0B1
:1024E00090936D0380936C0384EC90E090936F0362
:1024F00080936E0380EC90E090937103809370035F
:1025000081EC90E0909373038093720382EC90E0EF
:10251000909375038093740386EC90E09093770317
:10252000809376031092790310927A0310927B03C2
:1025300010927C031092FE031092040410920B047C
:1025400010920C0410920D0410920E0481E08093FE
:102550000A04809307041092080492E090930904FF
:102560008093FD0388E190E090930204809301043E
:102570000E945A159093060480930504009761F019
:1025800028E1FC0111922A95E9F788E090E0909308
:1025900000048093FF0308C010920204109201040B
:1025A000109200041092FF0387E08093030480914F
:1025B000FE03882341F061E087E00E94E80860E0C4
:1025C00087E00E946B08ECE3F2E0E491F0E0EE0FAC
:1025D000FF1FE55EFD4F85919491909310048093C9
:1025E0000F04ECEDF1E0E491E093110408958F9273
:1025F0009F92AF92BF92CF92DF92EF92FF92CF93D2
:10260000DF93EC01688179818A819B816115710575
:102610008105910521F464E279ED8BE597E02DE1E8
:1026200033EF41E050E00E94511349015A019B01F0
:10263000AC01A7EAB1E40E9470136B017C01ACEE1F
:10264000B4EFA50194010E947E13DC01CB018C0D37
:102650009D1DAE1DBF1DB7FF03C00197A109B04866
:1026600088839983AA83BB83BC01CD019F77DF91C7
:10267000CF91FF90EF90DF90CF90BF90AF909F9061
:102680008F9008950C94F71281E292E00C94F71267
:10269000609321027093220280932302909324027C
:1026A0000895052E97FB1EF400940E94681357FDB1
:1026B00007D00E94831307FC03D04EF40C946813D8
:1026C00050954095309521953F4F4F4F5F4F08955E
:1026D00090958095709561957F4F8F4F9F4F08958E
:1026E0000E94A513A59F900DB49F900DA49F800DEF
:1026F000911D11240895B7FF0C9470130E9470135C
:10270000821B930B0895A1E21A2EAA1BBB1BFD018D
:102710000DC0AA1FBB1FEE1FFF1FA217B307E407C0
:10272000F50720F0A21BB30BE40BF50B661F771F18
:10273000881F991F1A9469F76095709580959095F8
:102740009B01AC01BD01CF010895A29FB001B39FD1
:10275000C001A39F700D811D1124911DB29F700DAA
:10276000811D1124911D08955058BB27AA270E944E
:10277000CC130C94AB140E949D1438F00E94A41446
:1027800020F039F49F3F19F426F40C949A140EF4B7
:10279000E095E7FB0C949414E92F0E94BC1458F3C5
:1027A000BA17620773078407950720F079F4A6F536
:1027B0000C94DE140EF4E0950B2EBA2FA02D0B0115
:1027C000B90190010C01CA01A0011124FF27591B76
:1027D00099F0593F50F4503E68F11A16F040A22F7C
:1027E000232F342F4427585FF3CF469537952795ED
:1027F000A795F0405395C9F77EF41F16BA0B620BEC
:10280000730B840BBAF09150A1F0FF0FBB1F661F32
:10281000771F881FC2F70EC0BA0F621F731F841F75
:1028200048F4879577956795B795F7959E3F08F09B
:10283000B0CF9395880F08F09927EE0F979587955D
:1028400008950E9428146894B1110C94DF1408951F
:102850000E94C41488F09F5798F0B92F9927B75158
:10286000B0F0E1F0660F771F881F991F1AF0BA9534
:10287000C9F714C0B13091F00E94DE14B1E00895A0
:102880000C94DE14672F782F8827B85F39F0B93F92
:10289000CCF3869577956795B395D9F73EF49095E7
:1028A0008095709561957F4F8F4F9F4F0895E89465
:1028B00009C097FB3EF490958095709561957F4F88
:1028C0008F4F9F4F9923A9F0F92F96E9BB27939536
:1028D000F695879577956795B795F111F8CFFAF446
:1028E000BB0F11F460FF1BC06F5F7F4F8F4F9F4F77
:1028F00016C0882311F096E911C0772321F09EE8D5
:10290000872F762F05C0662371F096E8862F70E03A
:1029100060E02AF09A95660F771F881FDAF7880F14
:102920009695879597F9089597F99F6780E870E0E5
:1029300060E008959FEF80EC089500240A94161635
:10294000170618060906089500240A94121613069D
:10295000140605060895092E0394000C11F488232B
:1029600052F0BB0F40F4BF2B11F460FF04C06F5F47
:102970007F4F8F4F9F4F089557FD9058440F551F1D
:1029800059F05F3F71F04795880F97FB991F61F0F1
:102990009F3F79F087950895121613061406551F68
:1029A000F2CF4695F1DF08C0161617061806991FD4
:1029B000F1CF86957105610508940895E894BB27C9
:1029C00066277727CB0197F908950E94F8140C9495
:1029D000AB140E949D1438F00E94A41420F095239B
:1029E00011F00C9494140C949A1411240C94DF1488
:1029F0000E94BC1470F3959FC1F3950F50E0551FD2
:102A0000629FF001729FBB27F00DB11D639FAA2743
:102A1000F00DB11DAA1F649F6627B00DA11D661F92
:102A2000829F2227B00DA11D621F739FB00DA11DB3
:102A3000621F839FA00D611D221F749F3327A00D6D
:102A4000611D231F849F600D211D822F762F6A2F09
:102A500011249F5750409AF0F1F088234AF0EE0F6E
:102A6000FF1FBB1F661F771F881F91505040A9F79B
:102A70009E3F510580F00C9494140C94DF145F3F3A
:102A8000E4F3983ED4F3869577956795B795F795D7
:102A9000E7959F5FC1F7FE2B880F911D969587954F
:102AA00097F90895EE0FFF1F881F8BBF0790F691CF
:102AB000E02D1994CF93DF938230910510F482E0DA
:102AC00090E0E0914404F091450420E030E0C0E063
:102AD000D0E0309711F14081518148175907C0F07B
:102AE0004817590761F482819381209719F09B83DD
:102AF0008A832BC0909345048093440426C02115FB
:102B0000310519F04217530718F49A01BE01DF018D
:102B1000EF010280F381E02DDCCF2115310509F1B1
:102B2000281B390B2430310590F412968D919C911D
:102B300013976115710521F0FB019383828304C013
:102B40009093450480934404FD01329644C0FD01F6
:102B5000E20FF31F81939193225031092D933C93FF
:102B60003AC02091420430914304232B41F4209138
:102B7000270230912802309343042093420420918D
:102B80002502309126022115310541F42DB73EB7BB
:102B90004091290250912A02241B350BE0914204F6
:102BA000F0914304E217F307A0F42E1B3F0B281704
:102BB000390778F0AC014E5F5F4F2417350748F0B6
:102BC0004E0F5F1F509343044093420481939193AF
:102BD00002C0E0E0F0E0CF01DF91CF9108950F93C4
:102BE0001F93CF93DF93009709F48CC0FC013297B9
:102BF00013821282009144041091450401151105BD
:102C000081F420813181820F931F20914204309101
:102C100043042817390779F5F0934304E0934204FD
:102C200071C0D80140E050E0AE17BF0750F41296D3
:102C30002D913C911397AD012115310509F1D90171
:102C4000F3CF9D01DA013383228360817181860F86
:102C5000971F8217930769F4EC0128813981260FA9
:102C6000371F2E5F3F4F318320838A819B8193835F
:102C70008283452B29F4F0934504E093440442C039
:102C80001396FC93EE931297ED01499159919E0191
:102C9000240F351FE217F30771F480819181840FAF
:102CA000951F029611969C938E9382819381139621
:102CB0009C938E931297E0E0F0E0D80112968D91EC
:102CC0009C911397009719F0F8018C01F6CF8D9124
:102CD0009C9198012E5F3F4F820F931F20914204D9
:102CE000309143042817390769F4309729F410927A
:102CF00045041092440402C01382128210934304CC
:102D000000934204DF91CF911F910F91089581E0CC
:102D100090E0F8940C948C1611E0CFE6D1E000E03E
:102D200006C0802FFE010E9452152196011DC0375A
:0C2D3000D10780E00807A9F7F894FFCF56
:102D3C00E8030000E8030000010010270000E8038E
:102D4C000000E80300000100D007000001000100B2
:102D5C00FF010000000000460480003D003C003BE9
:102D6C00003A00000000001F024008DE01BC01D048
:102D7C0001660209000D0A00444F574E4C4F414466
:102D8C00494E47007265736574696E67206C6564A3
:022D9C007300C2
:00000001FF
