:100000000C9481000C94B2000C94B2000C94B200D9
:100010000C94B2000C94B2000C94B2000C94B20098
:100020000C94B2000C94B2000C94B2000C94B20088
:100030000C94B2000C94B2000C94B2000C94B20078
:100040000C94B2000C94B2000C94B2000C94B20068
:100050000C94B2000C94B2000C94B2000C94710297
:100060000C94B2000C9439030C940F030C94B2005E
:100070000C94B2000C94B2000C94B2000C94B20038
:100080000C94B2000C94B2000C94B2000C94B20028
:100090000C94E5020C94BB020C94B2000C94B200D8
:1000A0000C94B2000C94B2000C94B2000C94B20008
:1000B0000C94B2000C94B2000C94B2000C94B200F8
:1000C0000C94B2000C94B2000C94B2000C94B200E8
:1000D0000C94B2000C94B2000C94B2000C94B200D8
:1000E0000C94B2000C9431010C94C7010C9463037E
:1000F0000C94D9000C941D010C943F010C948001C8
:10010000630311241FBECFEFD1E2DEBFCDBF00E0FD
:100110000CBF12E0A0E0B2E0EEE5FAE000E00BBFB9
:1001200002C007900D92A431B107D9F723E0A4E1F2
:10013000B2E001C01D92AA35B207E1F710E0C1E8B4
:10014000D0E000E006C021970109802FFE010E9447
:100150002005C038D10780E00807A9F70E94B60340
:100160000C942D050C9400003FB7F89480911C026C
:1001700090911D02A0911E02B0911F0226B5A89B6E
:1001800005C02F3F19F00196A11DB11D3FBFBA2F29
:10019000A92F982F8827820F911DA11DB11DBC0189
:1001A000CD0142E0660F771F881F991F4A95D1F74E
:1001B0000895CF92DF92EF92FF920F931F93CF9308
:1001C000DF936C017A018B01C0E0D0E0CE15DF0532
:1001D00089F0D8016D918D01D601ED91FC910190CE
:1001E000F081E02DC6011995892B11F47E0102C022
:1001F0002196ECCFC701DF91CF911F910F91FF9016
:10020000EF90DF90CF900895FC01A089B1898C9187
:10021000A689B78982FD0FC09C91818D8F5F8F73F6
:10022000228D821749F0218DDF01A20FB11D5D964D
:100230009C93818F08958C910895FC01918D828DFE
:10024000981761F0828DDF01A80FB11D5D968C912A
:10025000928D9F5F9F73928F90E008958FEF9FEF35
:100260000895FC01918D828D981731F0828DE80FF1
:10027000F11D858D90E008958FEF9FEF0895FC01AB
:10028000918D228D892F90E0805C9F4F821B910978
:100290008F739927089580E292E00E943F0121E048
:1002A000892B09F420E0822F08958DEB92E00E94C3
:1002B0003F0121E0892B09F420E0822F0895FC0101
:1002C000848DDF01A80FB11DA35ABF4F2C91848DDF
:1002D00090E001968F739927848FA689B7892C9314
:1002E000A089B1898C9180648C93938D848D9813AF
:1002F00006C00288F389E02D80818F7D8083089578
:10030000EF92FF920F931F93CF93DF93EC0181E065
:10031000888F9B8D8C8D981305C0E889F989808121
:1003200085FD24C0F62E0B8D10E00F5F1F4F0F735D
:100330001127E02E8C8DE8120CC00FB607FCFACF07
:10034000E889F989808185FFF5CFCE010E945F01A0
:10035000F1CF8B8DFE01E80FF11DE35AFF4FF082C4
:100360000B8FEA89FB898081806207C0EE89FF8953
:100370006083E889F98980818064808381E090E0EE
:10038000DF91CF911F910F91FF90EF900895CF9340
:10039000DF93EC01888D8823C9F0EA89FB8980818D
:1003A00085FD05C0A889B9898C9186FD0FC00FB65F
:1003B00007FCF5CF808185FFF2CFA889B9898C91A0
:1003C00085FFEDCFCE010E945F01E7CFDF91CF9196
:1003D000089580E090E0892B21F00E945501811161
:1003E00021C080E090E0892B21F00E944B01811117
:1003F0001CC080E090E0892B41F080E090E0892BE8
:1004000021F00E940000811113C080E090E0892B50
:10041000A1F080E090E0892B81F00E940000811122
:100420000AC008950E940000DCCF0E940000E1CFC6
:100430000E940000EACF0C94000008958F929F92D2
:10044000AF92BF920F931F93CF93DF93CDB7DEB7D9
:10045000A1970FB6F894DEBF0FBECDBF19A24230F0
:1004600008F44AE08E010F5D1F4F842E912CA12CC1
:10047000B12CA50194010E94FE04E62FB901CA0126
:1004800001501109EA3014F4E05D01C0E95CD801C3
:10049000EC93232B242B252B61F70115110571F00B
:1004A000F80101900020E9F73197AF01401B510B93
:1004B000B8018DEB92E00E94D90002C080E090E08C
:1004C000A1960FB6F894DEBF0FBECDBFDF91CF91DE
:1004D0001F910F91BF90AF909F908F9008950E94B1
:1004E00028051F920F920FB60F9211242F933F935E
:1004F0008F939F93AF93BF938091180290911902AD
:10050000A0911A02B0911B023091170223E0230F31
:100510002D3720F40196A11DB11D05C026E8230F3B
:100520000296A11DB11D209317028093180290938B
:100530001902A0931A02B0931B0280911C029091A1
:100540001D02A0911E02B0911F020196A11DB11DB6
:1005500080931C0290931D02A0931E02B0931F0271
:10056000BF91AF919F918F913F912F910F900FBEAF
:100570000F901F9018951F920F920FB60F92112493
:100580000BB60F922F933F934F935F936F937F938D
:100590008F939F93AF93BF93EF93FF9380E292E08B
:1005A0000E945F01FF91EF91BF91AF919F918F9159
:1005B0007F916F915F914F913F912F910F900BBE63
:1005C0000F900FBE0F901F9018951F920F920FB6AD
:1005D0000F9211240BB60F922F933F934F935F937B
:1005E0006F937F938F939F93AF93BF93EF93FF93FB
:1005F00080E292E00E940401FF91EF91BF91AF91E0
:100600009F918F917F916F915F914F913F912F912A
:100610000F900BBE0F900FBE0F901F9018951F925A
:100620000F920FB60F9211240BB60F922F933F9398
:100630004F935F936F937F938F939F93AF93BF93EA
:10064000EF93FF938DEB92E00E945F01FF91EF919A
:10065000BF91AF919F918F917F916F915F914F91DA
:100660003F912F910F900BBE0F900FBE0F901F90D8
:1006700018951F920F920FB60F9211240BB60F927E
:100680002F933F934F935F936F937F938F939F939A
:10069000AF93BF93EF93FF938DEB92E00E94040121
:1006A000FF91EF91BF91AF919F918F917F916F914A
:1006B0005F914F913F912F910F900BBE0F900FBE06
:1006C0000F901F901895E0E2F2E01382128248EE3C
:1006D00053E060E070E0448355836683778384E071
:1006E00092E0918380832DEC30E0358724872CECD9
:1006F00030E03787268728EC30E0318B208B29ECDF
:1007000030E0338B228B2AEC30E0358B248B2EECBF
:1007100030E0378B268B118E128E138E148EEDEBFC
:10072000F2E0138212824483558366837783918338
:10073000808385EC90E09587848784EC90E09787B0
:10074000868780EC90E0918B808B81EC90E0938B9E
:10075000828B82EC90E0958B848B86EC90E0978B7B
:10076000868B118E128E138E148E0895789484B514
:10077000826084BD84B5816084BD85B5826085BD9D
:1007800085B5816085BD80916E00816080936E002B
:10079000109281008091810082608093810080911D
:1007A00081008160809381008091800081608093CE
:1007B00080008091B10084608093B1008091B0008E
:1007C00081608093B000809191008260809391005D
:1007D0008091910081608093910080919000816070
:1007E000809390008091A10082608093A10080910D
:1007F000A10081608093A1008091A000816080931E
:10080000A0008091210182608093210180912101CB
:10081000816080932101809120018160809320017B
:1008200080917A00846080937A0080917A0082605F
:1008300080937A0080917A00816080937A00809121
:100840007A00806880937A001092C100E091CD0216
:10085000F091CE0222E02083E091C902F091CA0219
:100860001082E091CB02F091CC028FEC8083109249
:10087000D502E091D102F091D20296E09083E0910E
:10088000CF02F091D002808180618083E091CF021D
:10089000F091D002808188608083E091CF02F09156
:1008A000D002808180688083E091CF02F091D002F5
:1008B00080818F7D8083E0913002F091310220832E
:1008C000E0912C02F0912D028DE08083E0912E02C8
:1008D000F0912F0284E0808310923802E09134027C
:1008E000F09135029083E0913202F09133028081E1
:1008F00080618083E0913202F091330280818860D0
:100900008083E0913202F09133028081806880839D
:10091000E0913202F091330280818F7D80831092CA
:100920001602F09016026F2D80E292E00E94800184
:10093000F394F09216020E94B4004B015C018AE02D
:10094000C82ED12CE12CF12C0E94B400DC01CB018B
:1009500088199909AA09BB09883E9340A105B105E8
:1009600058F021E0C21AD108E108F10888EE880E9B
:1009700083E0981EA11CB11CC114D104E104F10450
:1009800019F780E292E00E943F01181619067CF5E3
:1009900080E292E00E941D01909315028093140260
:1009A0006C01990FEE08FF08F7FE14C0E091BD023C
:1009B000F091BE020190F081E02D6DE28DEB92E0AE
:1009C000199566277727CB016C197D098E099F0938
:1009D0004AE003C04AE0C701B6010E941E0242E09D
:1009E00050E060E172E08DEB92E00E94D90010923D
:1009F0001502109214020E94E90193CFA1E21A2E6F
:100A0000AA1BBB1BFD010DC0AA1FBB1FEE1FFF1FB2
:100A1000A217B307E407F50720F0A21BB30BE40B02
:100A2000F50B661F771F881F991F1A9469F7609549
:100A30007095809590959B01AC01BD01CF01089503
:100A4000EE0FFF1F881F8BBF0790F691E02D1994C2
:0E0A500081E090E0F8940C942D05F894FFCF0F
:100A5E00000000008001D9003F011D013101C701D6
:040A6E000D0A00006D
:00000001FF
