:100000000C945E000C9486000C9486000C94860080
:100010000C9486000C9486000C9486000C94860048
:100020000C9486000C9486000C9486000C94860038
:100030000C9486000C9486000C9486000C94860028
:100040000C942E020C9486000C949E020C94780260
:100050000C9486000C9486000C9486000C94860008
:100060000C9486000C9486000000000024002700F9
:100070002A0000000008000201000003040700003D
:10008000000000000000010204081020408001026E
:1000900004081020010204081020000000002500C0
:1000A00028002B00040404040404040402020202D5
:1000B0000202030303030303D002BF0511241FBE82
:1000C000CFEFD8E0DEBFCDBF11E0A0E0B1E0E8ECBB
:1000D000FEE002C005900D92A631B107D9F722E0EB
:1000E000A6E1B1E001C01D92A531B207E1F710E031
:1000F000CDE5D0E004C02197FE010E941006CC356A
:10010000D107C9F70E946F030C9457070C940000A5
:1001100090E0FC01EE58FF4F3491FC01EA57FF4F8D
:100120002491FC01EC55FF4FE491EE2309F43BC010
:10013000332339F1333091F038F43130A9F03230D3
:1001400001F584B58F7D12C0373091F03830A1F0C1
:100150003430B9F4809180008F7D03C0809180009D
:100160008F77809380000DC084B58F7784BD09C0E0
:100170008091B0008F7703C08091B0008F7D809315
:10018000B000F0E0EE0FFF1FE656FF4FA591B491CF
:100190008FB7F894EC91611103C020952E2301C014
:1001A0002E2B2C938FBF0895CF93DF9390E0FC010B
:1001B000EA57FF4F2491FC01EC55FF4F84918823AF
:1001C00061F190E0880F991FFC01E859FF4FC5913C
:1001D000D491FC01E656FF4FA591B491611109C07D
:1001E0009FB7F8948881209582238883EC912E23F1
:1001F0000BC0623061F49FB7F8943881822F8095EC
:1002000083238883EC912E2B2C939FBF06C08FB73E
:10021000F894E8812E2B28838FBFDF91CF9108952A
:100220003FB7F89480915B0190915C01A0915D01D2
:10023000B0915E0126B5A89B05C02F3F19F001962D
:10024000A11DB11D3FBFBA2FA92F982F8827820F5C
:10025000911DA11DB11DBC01CD0142E0660F771FAC
:10026000881F991F4A95D1F70895CF92DF92EF9298
:10027000FF920F931F93CF93DF936C017A018B0151
:10028000C0E0D0E0CE15DF0589F0D8016D918D0179
:10029000D601ED91FC910190F081E02DC601099508
:1002A000892B11F47E0102C02196ECCFC701DF91AA
:1002B000CF911F910F91FF90EF90DF90CF90089515
:1002C000FC01918D828D981761F0828DDF01A80F5E
:1002D000B11D5D968C91928D9F5F9F73928F90E080
:1002E00008958FEF9FEF0895FC01918D828D9817EF
:1002F00031F0828DE80FF11D858D90E008958FEF2C
:100300009FEF0895FC01918D228D892F90E0805CF4
:100310009F4F821B91098F73992708958FE591E074
:100320000E94820121E0892B09F420E0822F0895A8
:10033000FC01848DDF01A80FB11DA35ABF4F2C9182
:10034000848D90E001968F739927848FA689B78951
:100350002C93A089B1898C9180648C93938D848D2A
:10036000981306C00288F389E02D80818F7D8083F9
:100370000895EF92FF920F931F93CF93DF93EC01B9
:1003800081E0888F9B8D8C8D981305C0E889F98951
:10039000808185FD24C0F62E0B8D10E00F5F1F4F6E
:1003A0000F731127E02E8C8DE8120CC00FB607FCDE
:1003B000FACFE889F989808185FFF5CFCE010E94C7
:1003C0009801F1CF8B8DFE01E80FF11DE35AFF4F2D
:1003D000F0820B8FEA89FB898081806207C0EE89F9
:1003E000FF896083E889F98980818064808381E066
:1003F00090E0DF91CF911F910F91FF90EF900895C2
:10040000CF93DF93EC01888D8823C9F0EA89FB89BB
:10041000808185FD05C0A889B9898C9186FD0FC0B2
:100420000FB607FCF5CF808185FFF2CFA889B98987
:100430008C9185FFEDCFCE010E949801E7CFDF912F
:10044000CF91089580E090E0892B29F00E948E01E1
:1004500081110C94000008950E9452071F920F9280
:100460000FB60F9211242F933F938F939F93AF93C7
:10047000BF938091570190915801A0915901B0917B
:100480005A013091560123E0230F2D3720F40196B5
:10049000A11DB11D05C026E8230F0296A11DB11DA7
:1004A000209356018093570190935801A0935901CE
:1004B000B0935A0180915B0190915C01A0915D0124
:1004C000B0915E010196A11DB11D80935B019093D7
:1004D0005C01A0935D01B0935E01BF91AF919F91CC
:1004E0008F913F912F910F900FBE0F901F901895F5
:1004F0001F920F920FB60F9211242F933F934F9399
:100500005F936F937F938F939F93AF93BF93EF937B
:10051000FF938FE591E00E949801FF91EF91BF91C9
:10052000AF919F918F917F916F915F914F913F918B
:100530002F910F900FBE0F901F9018951F920F9242
:100540000FB60F9211242F938F939F93EF93FF93E6
:10055000E0916F01F09170018081E0917501F0915F
:10056000760182FD12C09081809178018F5F8F7338
:1005700020917901821751F0E0917801F0E0E15A81
:10058000FE4F958F8093780101C08081FF91EF919C
:100590009F918F912F910F900FBE0F901F901895E4
:1005A000109262011092610188EE93E0A0E0B0E049
:1005B0008093630190936401A0936501B0936601F9
:1005C0008AE091E09093600180935F0185EC90E078
:1005D00090936C0180936B0184EC90E090936E019A
:1005E00080936D0180EC90E09093700180936F0197
:1005F00081EC90E0909372018093710182EC90E025
:10060000909374018093730186EC90E0909376014F
:1006100080937501109278011092790110927A01FD
:1006200010927B011092FD011092030210920A02B7
:1006300010920B0210920C0210920D0281E0809336
:100640000902809306021092070292E0909308023A
:100650008093FC018EEA90E0909301028093000267
:100660000E9425069093050280930402009761F092
:100670002EEAFC0111922A95E9F78AE390E0909323
:10068000FF018093FE0108C0109201021092000247
:100690001092FF011092FE0186E080930202809189
:1006A000FD01882341F061E086E00E94D40060E013
:1006B00086E00E948800EAEAF0E0E491F0E0EE0FC4
:1006C000FF1FE656FF4F8591949190930F02809300
:1006D0000E02ECE8F0E0E491E09310020895CF936D
:1006E000DF93CDB7DEB72F970FB6F894DEBF0FBEFE
:1006F000CDBF789484B5826084BD84B5816084BDAB
:1007000085B5826085BD85B5816085BD80916E00AF
:10071000816080936E0010928100809181008260E0
:10072000809381008091810081608093810080911D
:1007300080008160809380008091B100846080930C
:10074000B1008091B00081608093B00080917A0008
:10075000846080937A0080917A00826080937A002E
:1007600080917A00816080937A0080917A0080681D
:1007700080937A001092C100E0916F01F0917001B6
:1007800082E08083E0916B01F0916C011082E09136
:100790006D01F0916E0180E1808310927701E0910C
:1007A0007301F091740186E08083E0917101F09112
:1007B0007201808180618083E0917101F09172010A
:1007C000808188608083E0917101F0917201808165
:1007D00080688083E0917101F091720180818F7D4A
:1007E00080838091020287FD08C061E00E94D400EE
:1007F00060E0809102020E94880081E08093FD0108
:1008000060910302613421F12091040230910502CC
:10081000615031F070E08FEF90E40E94CF0502C08C
:1008200060E070E0F9014091000250910102CF01B7
:10083000821B930B8417950740F44081469FC001AB
:10084000479F900D11249193EECF81E48093030292
:1008500061E08DE00E94D40060E08DE00E9488009D
:100860008FB7F894C0905701D0905801E09059018B
:10087000F0905A018FBF2091520130915301409165
:10088000540150915501AFEFB0E00E940506672F6B
:10089000782F892F99272AE330E040E050E00E942A
:1008A000E3058B017093510160935001F6E12F2E07
:1008B000F1E03F2E20E030E01F861E8680E090E0D1
:1008C00061E08017910709F060E0862E8194D101E4
:1008D0008D921D016091FE017091FF0186179707AF
:1008E00008F067C0482C512C612C712CB62CA52C1B
:1008F000942C88248A869B86AC86BD8652019924D6
:1009000088244A855B856C857D85842A952AA62A5C
:10091000B72A84289528A628B72825016624772495
:1009200077276B2D5A2D492D4A875B876C877D87EA
:100930007A85682DB0910302BB2391F0EB2FF0E094
:10094000E49DB001E59D700DF49D700D1124472EBE
:100950005A855B9FB00111248B9E40011124692DA3
:10096000B0910902B0900602E0910402F0910502F4
:10097000BB1105C0AE85BF85EA0FFB1F07C0E20FA4
:10098000F31F5F01AB0EB11CD5011C92B0910602A2
:100990005F01AB0EB11CD5014C92A09107024F0133
:1009A0008A0E911CD4017C9370910802E70FF11D0F
:1009B000608301964E855F854D5F5F4F5F874E87F1
:1009C0002C5F3F4F8A33910509F07ACF8091040262
:1009D00090910502892B09F4A1C00E94100180901A
:1009E0000A0290900B02A0900C02B0900D02DC0164
:1009F000CB0188199909AA09BB09C297A105B105BC
:100A000060F3F89480910002909101029A838983A7
:100A1000E0910402F0910502DF011196808189873F
:100A20009091FC01E0910E02F0910F028091100272
:100A3000992309F42EC09081982B988790818095F6
:100A400089238F838F818C8358E05B8358856F81E6
:100A500049853B812C8189819A81508347FD252FCF
:100A60003A952083262F39F0441F00C00000608390
:100A7000000000C0F2CF38E04D9160830000019784
:100A800061F7F0930F02E0930E0249873B832C83BA
:100A900038C09081982B98879081809589238F8387
:100AA0008F818E8368E06D8358856F8149853D8194
:100AB0002E8189819A81508347FD252F00C000C077
:100AC000208300C000C000C000C000C060830000E0
:100AD000262F3A9541F0441F000000C000C000C01E
:100AE00000C000C0E8CF38E04D9100C0608300C076
:100AF000019709F7F0930F02E0930E0249873D83B7
:100B00002E839A83898378940E94100160930A024D
:100B100070930B0280930C0290930D0261E08DE0C4
:100B20000E9488002FB7F894809157019091580146
:100B3000A0915901B0915A012FBF8C199D09AE099E
:100B4000BF090597A105B10568F380915201909105
:100B50005301A0915401B09155010196A11DB11D01
:100B60008093520190935301A0935401B093550187
:100B700060E08DE00E9488000E94220271CE809188
:100B8000040290910502009711F00E94BA0680912C
:100B9000020287FD03C060E00C94D4000895AA1BF4
:100BA000BB1B51E107C0AA1FBB1FA617B70710F058
:100BB000A61BB70B881F991F5A95A9F7809590958A
:100BC000BC01CD010895A1E21A2EAA1BBB1BFD0199
:100BD0000DC0AA1FBB1FEE1FFF1FA217B307E4071C
:100BE000F50720F0A21BB30BE40BF50B661F771F74
:100BF000881F991F1A9469F7609570958095909554
:100C00009B01AC01BD01CF0108950E941606A59F6E
:100C1000900DB49F900DA49F800D911D11240895F7
:100C2000EE0FFF1F0590F491E02D0994A29FB001F3
:100C3000B39FC001A39F700D811D1124911DB29F10
:100C4000700D811D1124911D0895CF93DF93823083
:100C5000910510F482E090E0E0911302F09114020B
:100C600020E030E0C0E0D0E0309711F140815181C8
:100C700048175907C0F04817590761F482819381DA
:100C8000209719F09B838A832BC090931402809342
:100C9000130226C02115310519F04217530718F425
:100CA0009A01BE01DF01EF010280F381E02DDCCF6C
:100CB0002115310509F1281B390B2430310590F439
:100CC00012968D919C9113976115710521F0FB018E
:100CD0009383828304C09093140280931302FD01D6
:100CE000329644C0FD01E20FF31F8193919322508D
:100CF00031092D933C933AC0209111023091120298
:100D0000232B41F420910201309103013093120210
:100D1000209311022091000130910101211531052C
:100D200041F42DB73EB74091040150910501241BB9
:100D3000350BE0911102F0911202E217F307A0F4D3
:100D40002E1B3F0B2817390778F0AC014E5F5F4F21
:100D50002417350748F04E0F5F1F5093120240933F
:100D600011028193919302C0E0E0F0E0CF01DF91A6
:100D7000CF9108950F931F93CF93DF93009709F4BA
:100D80008CC0FC01329713821282009113021091E1
:100D900014020115110581F420813181820F931F06
:100DA00020911102309112022817390779F5F0933A
:100DB0001202E093110271C0D80140E050E0AE177A
:100DC000BF0750F412962D913C911397AD01211558
:100DD000310509F1D901F3CF9D01DA013383228373
:100DE00060817181860F971F8217930769F4EC0168
:100DF00028813981260F371F2E5F3F4F3183208393
:100E00008A819B8193838283452B29F4F09314027A
:100E1000E093130242C01396FC93EE931297ED01F8
:100E2000499159919E01240F351FE217F30771F480
:100E300080819181840F951F029611969C938E93C9
:100E40008281938113969C938E931297E0E0F0E059
:100E5000D80112968D919C911397009719F0F80183
:100E60008C01F6CF8D919C9198012E5F3F4F820FA0
:100E7000931F20911102309112022817390769F44B
:100E8000309729F4109214021092130202C01382B8
:100E900012821093120200931102DF91CF911F91E1
:100EA0000F91089581E090E0F8940C94570710E0BA
:100EB000CDE5D0E004C0FE010E9410062196CE359B
:080EC000D107C9F7F894FFCF38
:100EC80000001502800000000000B9013501820110
:060ED8006001740100023C
:00000001FF
