:100000000C945E000C9486000C9486000C94860080
:100010000C9486000C9486000C9486000C94860048
:100020000C9486000C9486000C9486000C94860038
:100030000C9486000C9486000C9486000C94860028
:100040000C942E020C9486000C949E020C94780260
:100050000C9486000C9486000C9486000C94860008
:100060000C9486000C9486000000000024002700F9
:100070002A0000000008000201000003040700003D
:10008000000000000000010204081020408001026E
:1000900004081020010204081020000000002500C0
:1000A00028002B00040404040404040402020202D5
:1000B0000202030303030303D002070611241FBE39
:1000C000CFEFD8E0DEBFCDBF11E0A0E0B1E0ECEAB9
:1000D000FFE002C005900D92A831B107D9F722E0E8
:1000E000A8E1B1E001C01D92AD31B207E1F710E027
:1000F000CDE5D0E004C02197FE010E949106CC35E9
:10010000D107C9F70E947B030C94C9070C94000027
:1001100090E0FC01EE58FF4F3491FC01EA57FF4F8D
:100120002491FC01EC55FF4FE491EE2309F43BC010
:10013000332339F1333091F038F43130A9F03230D3
:1001400001F584B58F7D12C0373091F03830A1F0C1
:100150003430B9F4809180008F7D03C0809180009D
:100160008F77809380000DC084B58F7784BD09C0E0
:100170008091B0008F7703C08091B0008F7D809315
:10018000B000F0E0EE0FFF1FE656FF4FA591B491CF
:100190008FB7F894EC91611103C020952E2301C014
:1001A0002E2B2C938FBF0895CF93DF9390E0FC010B
:1001B000EA57FF4F2491FC01EC55FF4F84918823AF
:1001C00061F190E0880F991FFC01E859FF4FC5913C
:1001D000D491FC01E656FF4FA591B491611109C07D
:1001E0009FB7F8948881209582238883EC912E23F1
:1001F0000BC0623061F49FB7F8943881822F8095EC
:1002000083238883EC912E2B2C939FBF06C08FB73E
:10021000F894E8812E2B28838FBFDF91CF9108952A
:100220003FB7F89480915F0190916001A0916101C6
:10023000B091620126B5A89B05C02F3F19F0019629
:10024000A11DB11D3FBFBA2FA92F982F8827820F5C
:10025000911DA11DB11DBC01CD0142E0660F771FAC
:10026000881F991F4A95D1F70895CF92DF92EF9298
:10027000FF920F931F93CF93DF936C017A018B0151
:10028000C0E0D0E0CE15DF0589F0D8016D918D0179
:10029000D601ED91FC910190F081E02DC601099508
:1002A000892B11F47E0102C02196ECCFC701DF91AA
:1002B000CF911F910F91FF90EF90DF90CF90089515
:1002C000FC01918D828D981761F0828DDF01A80F5E
:1002D000B11D5D968C91928D9F5F9F73928F90E080
:1002E00008958FEF9FEF0895FC01918D828D9817EF
:1002F00031F0828DE80FF11D858D90E008958FEF2C
:100300009FEF0895FC01918D228D892F90E0805CF4
:100310009F4F821B91098F739927089583E691E07F
:100320000E94820121E0892B09F420E0822F0895A8
:10033000FC01848DDF01A80FB11DA35ABF4F2C9182
:10034000848D90E001968F739927848FA689B78951
:100350002C93A089B1898C9180648C93938D848D2A
:10036000981306C00288F389E02D80818F7D8083F9
:100370000895EF92FF920F931F93CF93DF93EC01B9
:1003800081E0888F9B8D8C8D981305C0E889F98951
:10039000808185FD24C0F62E0B8D10E00F5F1F4F6E
:1003A0000F731127E02E8C8DE8120CC00FB607FCDE
:1003B000FACFE889F989808185FFF5CFCE010E94C7
:1003C0009801F1CF8B8DFE01E80FF11DE35AFF4F2D
:1003D000F0820B8FEA89FB898081806207C0EE89F9
:1003E000FF896083E889F98980818064808381E066
:1003F00090E0DF91CF911F910F91FF90EF900895C2
:10040000CF93DF93EC01888D8823C9F0EA89FB89BB
:10041000808185FD05C0A889B9898C9186FD0FC0B2
:100420000FB607FCF5CF808185FFF2CFA889B98987
:100430008C9185FFEDCFCE010E949801E7CFDF912F
:10044000CF91089580E090E0892B29F00E948E01E1
:1004500081110C94000008950E94C4071F920F920E
:100460000FB60F9211242F933F938F939F93AF93C7
:10047000BF9380915B0190915C01A0915D01B0916F
:100480005E0130915A0123E0230F2D3720F40196AD
:10049000A11DB11D05C026E8230F0296A11DB11DA7
:1004A00020935A0180935B0190935C01A0935D01BE
:1004B000B0935E0180915F0190916001A091610114
:1004C000B09162010196A11DB11D80935F019093CF
:1004D0006001A0936101B0936201BF91AF919F91C0
:1004E0008F913F912F910F900FBE0F901F901895F5
:1004F0001F920F920FB60F9211242F933F934F9399
:100500005F936F937F938F939F93AF93BF93EF937B
:10051000FF9383E691E00E949801FF91EF91BF91D4
:10052000AF919F918F917F916F915F914F913F918B
:100530002F910F900FBE0F901F9018951F920F9242
:100540000FB60F9211242F938F939F93EF93FF93E6
:10055000E0917301F09174018081E0917901F09153
:100560007A0182FD12C0908180917C018F5F8F7330
:1005700020917D01821751F0E0917C01F0E0ED596E
:10058000FE4F958F80937C0101C08081FF91EF9198
:100590009F918F912F910F900FBE0F901F901895E4
:1005A000109266011092650188EE93E0A0E0B0E041
:1005B0008093670190936801A0936901B0936A01E9
:1005C0008BE091E0909364018093630185EC90E06F
:1005D0009093700180936F0184EC90E0909372018E
:1005E0008093710180EC90E090937401809373018B
:1005F00081EC90E0909376018093750182EC90E01D
:10060000909378018093770186EC90E090937A0143
:100610008093790110927C0110927D0110927E01ED
:1006200010927F011092050210920B02109212029A
:1006300010921302109214021092150281E080931E
:10064000110280930E0210920F0292E0909310021A
:100650008093040288EA90E0909309028093080254
:100660000E94970690930D0280930C02009761F010
:1006700028EAFC0111922A95E9F788E390E090932B
:1006800007028093060208C0109209021092080225
:10069000109207021092060286E080930A0280916F
:1006A0000502882341F061E086E00E94D40060E00A
:1006B00086E00E948800EAEAF0E0E491F0E0EE0FC4
:1006C000FF1FE656FF4F85919491909317028093F8
:1006D0001602ECE8F0E0E491E093180280E790E085
:1006E000A0E0B0E08093000290930102A093020288
:1006F000B09303020895CF93DF93CDB7DEB767972A
:100700000FB6F894DEBF0FBECDBF789484B582607B
:1007100084BD84B5816084BD85B5826085BD85B5A5
:10072000816085BD80916E00816080936E00109223
:10073000810080918100826080938100809181009E
:10074000816080938100809180008160809380002F
:100750008091B10084608093B1008091B00081608D
:100760008093B00080917A00846080937A008091B9
:100770007A00826080937A0080917A008160809311
:100780007A0080917A00806880937A001092C1008C
:10079000E0917301F091740182E08083E0916F0138
:1007A000F09170011082E0917101F091720180E18D
:1007B000808310927B01E0917701F091780186E0CF
:1007C0008083E0917501F091760180818061808362
:1007D000E0917501F0917601808188608083E091DD
:1007E0007501F0917601808180688083E0917501C8
:1007F000F091760180818F7D808380910A0287FD50
:1008000008C061E00E94D40060E080910A020E946A
:10081000880081E08093050260910B02613421F130
:1008200020910C0230910D02615031F070E08FEF99
:1008300090E40E947D0602C060E070E0F901409102
:10084000080250910902CF01821B930B8417950770
:1008500040F44081469FC001479F900D1124919321
:10086000EECF81E480930B0261E08DE00E94D40022
:1008700060E08DE00E9488008FB7F894C0905B0123
:10088000D0905C01E0905D01F0905E018FBF80919F
:10089000560190915701A0915801B091590126013C
:1008A0003701481A590A6A0A7B0AC301B2010E9439
:1008B00017062EE63BED4EE851E40E94540618164A
:1008C0000CF074C1C0925601D0925701E0925801C9
:1008D000F0925901809154019091550120910001AD
:1008E000222381F021E0873391050CF020E0209352
:1008F000000187339105B4F49C012F5F3F4F3F8B7C
:100900002E8B17C021E0181619060CF420E0209356
:100910000001181619065CF4AC01415051095F8BB7
:100920004E8B07C087E390E09F8B8E8B02C01F8A9F
:100930001E8AAE89BF89B0935501A09354010CE182
:1009400011E040E050E060E070E020E030E0E1E005
:100950004E885F882415350509F0E0E08E2E8194DD
:10096000D8018D928D01E0910602F09107022E17B9
:100970003F0708F068C0482C512C612C712CB62C14
:10098000A52C942C8824D201992788278829992975
:10099000AA29BB294C015D0184289528A628B728DF
:1009A0002501662477244A8A5B8A6C8A7D8ABB2764
:1009B000AB2D9A2D892D8E879F87A88BB98B2E847E
:1009C000782C30900B02311002C04A8815C0A32D3C
:1009D000B0E04A885B88A49DF001A59DF00DB49D10
:1009E000F00D11244F2E5E84539CF00111242F2E04
:1009F000839C40011124792CA0911102B0910E0228
:100A0000E0910C02F0910D02AB1303C0E60FF71F4B
:100A100007C0E40FF51F4F018A0E911CD4011C92F0
:100A2000A0910E025F01AA0EB11CD5014C92A091BB
:100A30000F02CF018A0F911DDC012C92A0911002B0
:100A4000EA0FF11D70822F5F3F4F6D5F7F4F4C5F4C
:100A50005F4F2833310509F07ACF80910C029091D5
:100A60000D02892B09F4A2C00E941001009112020C
:100A7000109113022091140230911502DC01CB0178
:100A8000801B910BA20BB30BC297A105B10560F3BC
:100A9000F89480910802909109029A838983E091E9
:100AA0000C02F0910D02DF011196808189879091EF
:100AB0000402E0911602F091170280911802992326
:100AC00009F42EC09081982B988790818095892376
:100AD0008F838F818C8398E09B8358856F814985B4
:100AE0003B812C8189819A81508347FD252F3A953E
:100AF0002083262F39F0441F00C0000060830000CF
:100B000000C0F2CF38E04D9160830000019761F79B
:100B1000F0931702E093160249873B832C8339C078
:100B20009081982B98879081809589238F838F81DE
:100B30008E8388E0482E4D8258856F8149853D819E
:100B40002E8189819A81508347FD252F00C000C0E6
:100B5000208300C000C000C000C000C0608300004F
:100B6000262F3A9541F0441F000000C000C000C08D
:100B700000C000C0E8CF38E04D9100C0608300C0E5
:100B8000019709F7F0931702E093160249873D8316
:100B90002E839A83898378940E94100160931202B5
:100BA00070931302809314029093150261E08DE01C
:100BB0000E9488002FB7F89480915B0190915C01AE
:100BC000A0915D01B0915E012FBF8C199D09AE0906
:100BD000BF090297A105B10568F3809118019091B2
:100BE0001901A0911A01B0911B010196A11DB11D1F
:100BF0008093180190931901A0931A01B0931B01DF
:100C000060E08DE00E9488000E94220235CE809133
:100C10000C0290910D02009711F00E942C07809118
:100C20000A0287FD03C060E00C94D4000895E894A4
:100C300009C097FB3EF490958095709561957F4F24
:100C40008F4F9F4F9923A9F0F92F96E9BB279395D2
:100C5000F695879577956795B795F111F8CFFAF4E2
:100C6000BB0F11F460FF1BC06F5F7F4F8F4F9F4F13
:100C700016C0882311F096E911C0772321F09EE871
:100C8000872F762F05C0662371F096E8862F70E0D7
:100C900060E02AF09A95660F771F881FDAF7880FB1
:100CA0009695879597F908950E94590608F48FEF55
:100CB0000895990F0008550FAA0BE0E8FEEF1616ED
:100CC0001706E807F907C0F012161306E407F50740
:100CD00098F0621B730B840B950B39F40A2661F0B4
:100CE000232B242B252B21F408950A2609F4A14057
:100CF000A6958FEF811D811D0895AA1BBB1B51E195
:100D000007C0AA1FBB1FA617B70710F0A61BB70B7B
:100D1000881F991F5A95A9F780959095BC01CD0120
:100D20000895EE0FFF1F0590F491E02D0994CF93E5
:100D3000DF938230910510F482E090E0E0911B0295
:100D4000F0911C0220E030E0C0E0D0E0309711F1DB
:100D50004081518148175907C0F04817590761F47D
:100D600082819381209719F09B838A832BC0909373
:100D70001C0280931B0226C02115310519F0421771
:100D8000530718F49A01BE01DF01EF010280F381DD
:100D9000E02DDCCF2115310509F1281B390B24305A
:100DA000310590F412968D919C9113976115710500
:100DB00021F0FB019383828304C090931C028093F3
:100DC0001B02FD01329644C0FD01E20FF31F819327
:100DD0009193225031092D933C933AC020911902EE
:100DE00030911A02232B41F4209103013091040128
:100DF00030931A02209319022091010130910201CF
:100E00002115310541F42DB73EB7409105015091B0
:100E10000601241B350BE0911902F0911A02E2172A
:100E2000F307A0F42E1B3F0B2817390778F0AC010D
:100E30004E5F5F4F2417350748F04E0F5F1F5093EA
:100E40001A02409319028193919302C0E0E0F0E00E
:100E5000CF01DF91CF9108950F931F93CF93DF932D
:100E6000009709F48CC0FC01329713821282009122
:100E70001B0210911C020115110581F420813181A2
:100E8000820F931F2091190230911A0228173907F7
:100E900079F5F0931A02E093190271C0D80140E08D
:100EA00050E0AE17BF0750F412962D913C91139766
:100EB000AD012115310509F1D901F3CF9D01DA0109
:100EC0003383228360817181860F971F8217930776
:100ED00069F4EC0128813981260F371F2E5F3F4FBF
:100EE000318320838A819B8193838283452B29F4DC
:100EF000F0931C02E0931B0242C01396FC93EE9306
:100F00001297ED01499159919E01240F351FE21767
:100F1000F30771F480819181840F951F02961196D9
:100F20009C938E938281938113969C938E931297B8
:100F3000E0E0F0E0D80112968D919C911397009714
:100F400019F0F8018C01F6CF8D919C9198012E5FDC
:100F50003F4F820F931F2091190230911A022817D8
:100F6000390769F4309729F410921C0210921B0281
:100F700002C01382128210931A0200931902DF91A9
:100F8000CF911F910F91089581E090E0F8940C9417
:100F9000C90710E0CDE5D0E004C0FE010E94910633
:0C0FA0002196CE35D107C9F7F894FFCF99
:100FAC000100001D02800000000000B90135018223
:080FBC00016001740100020054
:00000001FF
