:100000000C945E000C9486000C9486000C94860080
:100010000C9486000C9486000C9486000C94860048
:100020000C9486000C9486000C9486000C94860038
:100030000C9486000C9486000C9486000C94860028
:100040000C9445020C9486000C94B5020C948F021B
:100050000C9486000C9486000C9486000C94860008
:100060000C9486000C9486000000000024002700F9
:100070002A0000000008000201000003040700003D
:10008000000000000000010204081020408001026E
:1000900004081020010204081020000000002500C0
:1000A00028002B00040404040404040402020202D5
:1000B0000202030303030303E7028C0611241FBE9D
:1000C000CFEFD8E0DEBFCDBF11E0A0E0B1E0EAEEB7
:1000D000F2E102C005900D92AC31B107D9F722E0F0
:1000E000ACE1B1E001C01D92A132B207E1F710E02E
:1000F000CDE5D0E004C02197FE010E943008CC3548
:10010000D107C9F70E9492030C9468090C9400006F
:1001100090E0FC01EE58FF4F3491FC01EA57FF4F8D
:100120002491FC01EC55FF4FE491EE2309F43BC010
:10013000332339F1333091F038F43130A9F03230D3
:1001400001F584B58F7D12C0373091F03830A1F0C1
:100150003430B9F4809180008F7D03C0809180009D
:100160008F77809380000DC084B58F7784BD09C0E0
:100170008091B0008F7703C08091B0008F7D809315
:10018000B000F0E0EE0FFF1FE656FF4FA591B491CF
:100190008FB7F894EC91611103C020952E2301C014
:1001A0002E2B2C938FBF0895CF93DF9390E0FC010B
:1001B000EA57FF4F2491FC01EC55FF4F84918823AF
:1001C00061F190E0880F991FFC01E859FF4FC5913C
:1001D000D491FC01E656FF4FA591B491611109C07D
:1001E0009FB7F8948881209582238883EC912E23F1
:1001F0000BC0623061F49FB7F8943881822F8095EC
:1002000083238883EC912E2B2C939FBF06C08FB73E
:10021000F894E8812E2B28838FBFDF91CF9108952A
:100220008E3008F08E508770806480937C008091BF
:100230007A00806480937A0080917A0086FDFCCFFA
:10024000809178002091790090E0922B08953FB73B
:10025000F8948091630190916401A0916501B0913F
:10026000660126B5A89B05C02F3F19F00196A11D78
:10027000B11D3FBFBA2FA92F982F8827820F911D3C
:10028000A11DB11DBC01CD0142E0660F771F881F83
:10029000991F4A95D1F70895CF92DF92EF92FF927E
:1002A0000F931F93CF93DF936C017A018B01C0E012
:1002B000D0E0CE15DF0589F0D8016D918D01D60112
:1002C000ED91FC910190F081E02DC6010995892BFB
:1002D00011F47E0102C02196ECCFC701DF91CF91CE
:1002E0001F910F91FF90EF90DF90CF900895FC0148
:1002F000918D828D981761F0828DDF01A80FB11D5D
:100300005D968C91928D9F5F9F73928F90E0089580
:100310008FEF9FEF0895FC01918D828D981731F03A
:10032000828DE80FF11D858D90E008958FEF9FEF8E
:100330000895FC01918D228D892F90E0805C9F4F64
:10034000821B91098F739927089587E691E00E9497
:10035000990121E0892B09F420E0822F0895FC0106
:10036000848DDF01A80FB11DA35ABF4F2C91848D3E
:1003700090E001968F739927848FA689B7892C9373
:10038000A089B1898C9180648C93938D848D98130E
:1003900006C00288F389E02D80818F7D80830895D7
:1003A000EF92FF920F931F93CF93DF93EC0181E0C5
:1003B000888F9B8D8C8D981305C0E889F989808181
:1003C00085FD24C0F62E0B8D10E00F5F1F4F0F73BD
:1003D0001127E02E8C8DE8120CC00FB607FCFACF67
:1003E000E889F989808185FFF5CFCE010E94AF01B0
:1003F000F1CF8B8DFE01E80FF11DE35AFF4FF08224
:100400000B8FEA89FB898081806207C0EE89FF89B2
:100410006083E889F98980818064808381E090E04D
:10042000DF91CF911F910F91FF90EF900895CF939F
:10043000DF93EC01888D8823C9F0EA89FB898081EC
:1004400085FD05C0A889B9898C9186FD0FC00FB6BE
:1004500007FCF5CF808185FFF2CFA889B9898C91FF
:1004600085FFEDCFCE010E94AF01E7CFDF91CF91A5
:10047000089580E090E0892B29F00E94A501811168
:100480000C94000008950E9463091F920F920FB60A
:100490000F9211242F933F938F939F93AF93BF930A
:1004A00080915F0190916001A0916101B091620122
:1004B00030915E0123E0230F2D3720F40196A11D1A
:1004C000B11D05C026E8230F0296A11DB11D209382
:1004D0005E0180935F0190936001A0936101B093EE
:1004E00062018091630190916401A0916501B091D6
:1004F00066010196A11DB11D809363019093640173
:10050000A0936501B0936601BF91AF919F918F91C8
:100510003F912F910F900FBE0F901F9018951F9233
:100520000F920FB60F9211242F933F934F935F9327
:100530006F937F938F939F93AF93BF93EF93FF93AB
:1005400087E691E00E94AF01FF91EF91BF91AF91DB
:100550009F918F917F916F915F914F913F912F91DB
:100560000F900FBE0F901F9018951F920F920FB60D
:100570000F9211242F938F939F93EF93FF93E0910A
:100580007701F09178018081E0917D01F0917E0109
:1005900082FD12C09081809180018F5F8F732091C6
:1005A0008101821751F0E0918001F0E0E959FE4F9E
:1005B000958F8093800101C08081FF91EF919F9181
:1005C0008F912F910F900FBE0F901F901895109242
:1005D0006A011092690188EE93E0A0E0B0E0809398
:1005E0006B0190936C01A0936D01B0936E018FE04D
:1005F00091E0909368018093670185EC90E090937F
:1006000074018093730184EC90E090937601809361
:10061000750180EC90E0909378018093770181ECF4
:1006200090E090937A018093790182EC90E090932E
:100630007C0180937B0186EC90E090937E01809317
:100640007D0110928001109281011092820110921E
:1006500083011092090210920F021092160210925A
:100660001702109218021092190281E0809315026D
:10067000809312021092130292E0909314028093DE
:10068000080288EA90E090930D0280930C020E9489
:1006900036089093110280931002009761F028EAC7
:1006A000FC0111922A95E9F788E390E090930B0200
:1006B00080930A0208C010920D0210920C02109250
:1006C0000B0210920A0286E080930E0280910902CA
:1006D000882341F061E086E00E94D40060E086E07B
:1006E0000E948800EAEAF0E0E491F0E0EE0FFF1FDC
:1006F000E656FF4F8591949190931B0280931A02C6
:10070000ECE8F0E0E491E0931C0288E390E0A0E0E4
:10071000B0E08093040290930502A0930602B09388
:1007200007020895CF93DF93CDB7DEB769970FB671
:10073000F894DEBF0FBECDBF789484B5826084BDCF
:1007400084B5816084BD85B5826085BD85B58160D5
:1007500085BD80916E00816080936E001092810053
:10076000809181008260809381008091810081600E
:1007700080938100809180008160809380008091CF
:10078000B10084608093B1008091B000816080935B
:10079000B00080917A00846080937A0080917A0022
:1007A000826080937A0080917A00816080937A00E1
:1007B00080917A00806880937A001092C100E09165
:1007C0007701F091780182E08083E0917301F091EC
:1007D00074011082E0917501F091760180E18083CF
:1007E00010927F01E0917B01F0917C0186E0808393
:1007F000E0917901F0917A01808180618083E091BC
:100800007901F0917A01808188608083E09179019B
:10081000F0917A01808180688083E0917901F09184
:100820007A0180818F7D808380910E0287FD08C0D0
:1008300061E00E94D40060E080910E020E94880076
:1008400081E08093090260910F02613421F12091CF
:10085000100230911102615031F070E08FEF90E49E
:100860000E94150802C060E070E0F90140910C029E
:1008700050910D02CF01821B930B8417950740F412
:100880004081469FC001479F900D11249193EECF68
:1008900081E480930F0261E08DE00E94D40060E06B
:1008A0008DE00E94880008E0412C64E0562E612C07
:1008B000712C8FB7F894C0905F01D0906001E090E8
:1008C0006101F09062018FBF80915A0190915B01AC
:1008D000A0915C01B0915D0146015701881A990A07
:1008E000AA0ABB0AC501B4010E945E074B015C0164
:1008F0006091030170910401072E000C880B990B85
:100900000E9460079B01AC0160E070E68AE697E414
:100910000E94EC0620E030E040E652E40E94EC0643
:100920009B01AC01C501B4010E94EC0718160CF044
:10093000A0C1C0925A01D0925B01E0925C01F0929A
:100940005D01209158013091590180910001882367
:1009500069F081E0273331050CF080E080930001DD
:100960002733310584F42F5F3F4F12C081E0121608
:1009700013060CF480E0809300011216130634F481
:100980002150310905C027E330E002C020E030E00B
:10099000309359012093580140E251E05B874A8728
:1009A000598B488B212C312C1B8A1A8A198E188E50
:1009B000888D998D8217930721F0A889B9898C9128
:1009C00001C08FEFE889F9898193F98BE88B6091F9
:1009D0000A0270910B02888C998C8616970608F093
:1009E00072C0882E912CA12CB12C7A2D692D582DF6
:1009F00044274C875D876E877F87C40177276627EA
:100A0000DC01CB014C855D856E857F85842B952B24
:100A1000A62BB72B88299929AA29BB294D01AA24DD
:100A2000BB248C8A9D8AAE8ABF8A492F5A2F6B2F8E
:100A300077274C875D876E877F877C85682F10912D
:100A40000F02111102C08C8814C0E12FF0E08C88D5
:100A50009D88E89DB001E99D700DF89D700D1124F1
:100A6000872E9C84919EB0011124819FC001112486
:100A7000692FE0911502F09112028091100290917D
:100A80001102EF1305C0AA88BB888A0D9B1D07C001
:100A9000820D931DAC014E0F511DFA011082E091A1
:100AA0001202DC01AE0FB11DFD018082E091130244
:100AB0004C018E0E911CF401708370911402FC01A4
:100AC000E70FF11D6083488D598D4F5F5F4F598F40
:100AD000488F6A897B896D5F7F4F7B8B6A8B74E05F
:100AE000270E311C4833510509F062CF20910101D6
:100AF000309102013327AA85BB858C9190E0821B3F
:100B0000930B97FD07C08F3F910529F024F08FEFDD
:100B100090E001C080E0EA85FB858193FB87EA874E
:100B2000E855F14041F78091100290911102892B14
:100B300009F49FC00E94270180901602909017022E
:100B4000A0901802B0901902DC01CB018819990914
:100B5000AA09BB09C297A105B10560F3F894809179
:100B60000C0290910D029A838983E0911002F0911A
:100B70001102DF0111968081898790910802E0912E
:100B80001A02F0911B0280911C02992309F42DC0D6
:100B90009081982B98879081809589238F838F816E
:100BA0008C830B8358856F8149853B812C8189819A
:100BB0009A81508347FD252F3A952083262F39F0BF
:100BC000441F00C000006083000000C0F2CF38E086
:100BD0004D9160830000019761F7F0931B02E09351
:100BE0001A0249873B832C8337C09081982B9887C2
:100BF0009081809589238F838F818E830D83588583
:100C00006F8149853D812E8189819A81508347FD7D
:100C1000252F00C000C0208300C000C000C000C05D
:100C200000C060830000262F3A9541F0441F000069
:100C300000C000C000C000C000C0E8CF38E04D9147
:100C400000C0608300C0019709F7F0931B02E09396
:100C50001A0249873D832E839A83898378940E9460
:100C600027016093160270931702809318029093E5
:100C700019028FE00E9410012FEF30E0DC010E948A
:100C80002908A30192010E949C063093020120933F
:100C900001018EE00E94100124E432E0DC010E9498
:100CA0002908A30192010E949C06DA01C901449619
:100CB000A11DB11D909304018093030161E08DE0BB
:100CC0000E9488002FB7F89480915F019091600195
:100CD000A0916101B09162012FBF8C159D05AE05F9
:100CE000BF0581F380911C0190911D01A0911E010F
:100CF000B0911F010196A11DB11D80931C0190931D
:100D00001D01A0931E01B0931F0160E08DE00E94C1
:100D100088000E943902CDCD80911002909111027D
:100D2000009711F00E94CB0880910E0287FD03C04E
:100D300060E00C94D4000895052E97FB1EF40094F7
:100D40000E94B30657FD07D00E94BB0607FC03D0E4
:100D50004EF40C94B30650954095309521953F4F35
:100D60004F4F5F4F089590958095709561957F4F97
:100D70008F4F9F4F0895A1E21A2EAA1BBB1BFD01A6
:100D80000DC0AA1FBB1FEE1FFF1FA217B307E4076A
:100D9000F50720F0A21BB30BE40BF50B661F771FC2
:100DA000881F991F1A9469F76095709580959095A2
:100DB0009B01AC01BD01CF010895A29FB001B39F7B
:100DC000C001A39F700D811D1124911DB29F700D54
:100DD000811D1124911D08950E9400070C94B207F3
:100DE0000E94AB0758F00E94A40740F029F45F3F2F
:100DF00029F00C949B0751110C94E6070C94A10761
:100E00000E94C30768F39923B1F3552391F3951B0F
:100E1000550BBB27AA2762177307840738F09F5F1B
:100E20005F4F220F331F441FAA1FA9F335D00E2E88
:100E30003AF0E0E832D091505040E695001CCAF7F5
:100E40002BD0FE2F29D0660F771F881FBB1F2617B8
:100E500037074807AB07B0E809F0BB0B802DBF018F
:100E6000FF2793585F4F3AF09E3F510578F00C945E
:100E70009B070C94E6075F3FE4F3983ED4F3869516
:100E800077956795B795F7959F5FC9F7880F911D7F
:100E90009695879597F90895E1E0660F771F881F6B
:100EA000BB1F621773078407BA0720F0621B730B1E
:100EB000840BBA0BEE1F88F7E0950895E89409C0FB
:100EC00097FB3EF490958095709561957F4F8F4F7D
:100ED0009F4F9923A9F0F92F96E9BB279395F69593
:100EE000879577956795B795F111F8CFFAF4BB0F11
:100EF00011F460FF1BC06F5F7F4F8F4F9F4F16C075
:100F0000882311F096E911C0772321F09EE8872FFE
:100F1000762F05C0662371F096E8862F70E060E0BA
:100F20002AF09A95660F771F881FDAF7880F969533
:100F3000879597F9089597F99F6780E870E060E0DA
:100F400008959FEF80EC089500240A941616170662
:100F500018060906089500240A94121613061406AA
:100F600005060895092E0394000C11F4882352F00D
:100F7000BB0F40F4BF2B11F460FF04C06F5F7F4FC5
:100F80008F4F9F4F089557FD9058440F551F59F0AC
:100F90005F3F71F04795880F97FB991F61F09F3F66
:100FA00079F087950895121613061406551FF2CF8F
:100FB0004695F1DF08C0161617061806991FF1CFDF
:100FC00086957105610508940895E894BB27662706
:100FD0007727CB0197F908950E94F10708F48FEF66
:100FE0000895990F0008550FAA0BE0E8FEEF1616BA
:100FF0001706E807F907C0F012161306E407F5070D
:1010000098F0621B730B840B950B39F40A2661F080
:10101000232B242B252B21F408950A2609F4A14023
:10102000A6958FEF811D811D0895AA1BBB1B51E161
:1010300007C0AA1FBB1FA617B70710F0A61BB70B48
:10104000881F991F5A95A9F780959095BC01CD01ED
:1010500008950E94DD06B7FF0895821B930B089543
:10106000EE0FFF1F0590F491E02D0994CF93DF93CD
:101070008230910510F482E090E0E0911F02F0913F
:10108000200220E030E0C0E0D0E0309711F1408154
:10109000518148175907C0F04817590761F48281F8
:1010A0009381209719F09B838A832BC09093200211
:1010B00080931F0226C02115310519F042175307EE
:1010C00018F49A01BE01DF01EF010280F381E02DE7
:1010D000DCCF2115310509F1281B390B24303105EE
:1010E00090F412968D919C9113976115710521F0E2
:1010F000FB019383828304C09093200280931F029C
:10110000FD01329644C0FD01E20FF31F81939193DC
:10111000225031092D933C933AC020911D02309109
:101120001E02232B41F420910701309108013093D6
:101130001E0220931D022091050130910601211508
:10114000310541F42DB73EB74091090150910A0194
:10115000241B350BE0911D02F0911E02E217F307EC
:10116000A0F42E1B3F0B2817390778F0AC014E5F17
:101170005F4F2417350748F04E0F5F1F50931E0234
:1011800040931D028193919302C0E0E0F0E0CF0113
:10119000DF91CF9108950F931F93CF93DF93009723
:1011A00009F48CC0FC0132971382128200911F0255
:1011B000109120020115110581F420813181820FE7
:1011C000931F20911D0230911E022817390779F5CF
:1011D000F0931E02E0931D0271C0D80140E050E080
:1011E000AE17BF0750F412962D913C911397AD01A5
:1011F0002115310509F1D901F3CF9D01DA013383BE
:10120000228360817181860F971F8217930769F48B
:10121000EC0128813981260F371F2E5F3F4F318324
:1012200020838A819B8193838283452B29F4F093C9
:101230002002E0931F0242C01396FC93EE93129794
:10124000ED01499159919E01240F351FE217F307D3
:1012500071F480819181840F951F029611969C9361
:101260008E938281938113969C938E931297E0E0E4
:10127000F0E0D80112968D919C911397009719F088
:10128000F8018C01F6CF8D919C9198012E5F3F4F14
:10129000820F931F20911D0230911E0228173907DB
:1012A00069F4309729F41092200210921F0202C0B4
:1012B0001382128210931E0200931D02DF91CF91C0
:1012C0001F910F91089581E090E0F8940C946809C3
:1012D00010E0CDE5D0E004C0FE010E943008219668
:0A12E000CE35D107C9F7F894FFCF0F
:1012EA00010A003C0000002102800000000000D03A
:0C12FA00014C01990177018B01170200E3
:00000001FF
