:100000000C946C010C949D010C949D010C949D0129
:100010000C949D010C949D010C949D010C949D01E8
:100020000C949D010C949D010C949D010C949D01D8
:100030000C949D010C949D010C949D010C949D01C8
:100040000C949D010C949D010C949D010C949D01B8
:100050000C949D010C949D010C949D010C945105F0
:100060000C949D010C94C5050C949B050C949D016A
:100070000C949D010C949D010C949D010C949D0188
:100080000C949D010C949D010C949D010C949D0178
:100090000C949D010C949D010C949D010C949D0168
:1000A0000C949D010C949D010C949D010C949D0158
:1000B0000C949D010C949D010C949D010C949D0148
:1000C0000C949D010C949D010C949D010C949D0138
:1000D0000C949D010C949D010C949D010C949D0128
:1000E0000C949D01D901DC01CB01CF01D301130296
:1000F000E001E401EA01EE01F201F801FC01000275
:10010000130206020A020E028C0291029602A0025B
:10011000AA022303B402BC02C402CE02D802E20245
:10012000F102FB02230305030F0319030C94F102F0
:100130000C94E0010C94FC010C94D8020C94CB01BB
:100140000C940F030C94FB020C94F8010C94B40271
:100150000C942E040C94D5030C942A080C940002E1
:100160000C94E9030C94AA030C94E2020C940E0282
:100170000C9491020C9419030C94AA020C948C0216
:100180000C9406020C94EA010C94E4010C942303F1
:100190000C94F2010C94BC020C940A020C9413020D
:1001A0000C94CF010C94CE020C94F7030C94D30161
:1001B0000C9496020C9475040C94D9010C94C4020E
:1001C0000C9405030C94A0020C94DC010C94EE0139
:1001D00000002100240027002A002D0030003300F9
:1001E00001010000040107010A01000022002500AE
:1001F00028002B002E003100340002010000050110
:1002000008010B0105050505070508080808020295
:1002100002020A0A080804040404010101010101A0
:1002200001010303030303030303040707070C0C83
:100230000C0C0C0C0C0C020202020606060606064A
:1002400006060B0B0B0B0B0B0B0B010210202008EF
:100250000810204010204080020102010804020121
:100260000102040810204080804020100804020190
:1002700080040201804020100804020108040201E9
:100280000102040810204080010204081020408070
:1002900000000A0B02090C0D0E0807030401000000
:1002A000000000000000000000000000000000004E
:1002B000000000000000000000000000121110000B
:1002C000000000000000000000000000000000002E
:1002D0000000000000002A0811241FBECFEFD1E269
:1002E000DEBFCDBF00E00CBF12E0A0E0B2E0E0EB6B
:1002F000F1E100E00BBF02C007900D92A031B10701
:10030000D9F722E0A0E1B2E001C01D92AE3CB207F5
:10031000E1F711E0CCE6D1E000E006C02197010949
:10032000802FFE010E94BA08CB36D10780E0080773
:10033000A9F70E94FB050C94D6080C940000E091EC
:100340003102F09132020190F081E02D682F81E3BB
:1003500092E01994362F90E0FC01E057FD4F449154
:10036000FC01E65BFD4F2491FC01EC5FFD4F949195
:10037000992309F46BC0442309F455C050E0FA01F5
:100380003197E231F10508F04EC08827EE58FF4F53
:100390008F4F0C94BA08809180008F7707C08091AE
:1003A00080008F7D03C080918000877F80938000D4
:1003B0003AC084B58F7702C084B58F7D84BD33C0C9
:1003C0008091B0008F7703C08091B0008F7D8093C3
:1003D000B00029C0809190008F7707C08091900075
:1003E0008F7D03C080919000877F809390001BC019
:1003F0008091A0008F7707C08091A0008F7D03C0FF
:100400008091A000877F8093A0000DC08091200183
:100410008F7707C0809120018F7D03C080912001DC
:10042000877F80932001E92FF0E0EE0FFF1FE65158
:10043000FE4FA591B4918FB7F894EC91311103C0A0
:1004400020952E2301C02E2B2C938FBF0895CF9380
:10045000DF9390E0FC01E65BFD4F2491FC01EC5F33
:10046000FD4F8491882361F190E0880F991FFC0172
:10047000E053FE4FC591D491FC01E651FE4FA5918A
:10048000B491611109C09FB7F894888120958223A7
:100490008883EC912E230BC0623061F49FB7F894EF
:1004A0003881822F809583238883EC912E2B2C9387
:1004B0009FBF06C08FB7F894E8812E2B28838FBF8B
:1004C000DF91CF9108951F93CF93DF93182FEB0106
:1004D00061E00E942702209711F460E004C0CF3F42
:1004E000D10539F461E0812FDF91CF911F910C94F8
:1004F000AA01E12FF0E0E057FD4FE4914E2F50E0CC
:10050000FA013197E231F10508F09DC08827EC57D8
:10051000FF4F8F4F0C94BA0884B5806884BDC7BD67
:1005200097C084B5806284BDC8BD92C080918000B0
:10053000806880938000D0938900C093880088C031
:1005400080918000806280938000D0938B00C09364
:100550008A007EC080918000886080938000D09364
:100560008D00C0938C0074C08091B000806880932F
:10057000B000C093B3006CC08091B00080628093E3
:10058000B000C093B40064C08091900080688093F4
:100590009000D0939900C09398005AC08091900029
:1005A000806280939000D0939B00C0939A0050C0CB
:1005B00080919000886080939000D0939D00C093BC
:1005C0009C0046C08091A00080688093A00080912C
:1005D000A0008F7B8093A000D093A900C093A800B7
:1005E00037C08091A00080628093A000D093AB00C0
:1005F000C093AA002DC08091A00088608093A000C5
:10060000D093AD00C093AC0023C0809120018068DE
:1006100080932001D0932901C093280119C08091B3
:100620002001806280932001D0932B01C0932A0186
:100630000FC080912001886080932001D0932D010C
:10064000C0932C0105C0C038D1050CF04BCF45CF6D
:10065000DF91CF911F910895863308F086539091D2
:100660007B00282F2870977F922B90937B008770B8
:10067000806480937C0080917A00806480937A000B
:1006800080917A0086FDFCCF8091780020917900DE
:1006900090E0922B08953FB7F89480912D029091AD
:1006A0002E02A0912F02B091300226B5A89B05C062
:1006B0002F3F19F00196A11DB11D3FBFBA2FA92FE1
:1006C000982F8827820F911DA11DB11DBC01CD015E
:1006D00042E0660F771F881F991F4A95D1F708954A
:1006E0008F929F92AF92BF92CF92DF92EF92FF9242
:1006F0006B017C010E944B034B015C01C114D104CE
:10070000E104F104F1F00E944B03DC01CB018819F4
:100710009909AA09BB09883E9340A105B10570F368
:1007200021E0C21AD108E108F10888EE880E83E0C2
:10073000981EA11CB11CC114D104E104F10419F7E5
:10074000DDCFFF90EF90DF90CF90BF90AF909F9064
:100750008F900895CF92DF92EF92FF920F931F93A5
:10076000CF93DF936C017A018B01C0E0D0E0CE150E
:10077000DF0589F0D8016D918D01D601ED91FC91D5
:100780000190F081E02DC6011995892B11F47E01AD
:1007900002C02196ECCFC701DF91CF911F910F913D
:1007A000FF90EF90DF90CF900895FC01918D828DA6
:1007B000981761F0828DDF01A80FB11D5D968C91B5
:1007C000928D9F5F9F73928F90E008958FEF9FEFC0
:1007D0000895FC01918D828D981731F0828DE80F7C
:1007E000F11D858D90E008958FEF9FEF0895FC0136
:1007F000918D228D892F90E0805C9F4F821B910903
:100800008F739927089581E392E00E94F70321E016
:10081000892B09F420E0822F0895FC01848DDF01EB
:10082000A80FB11DA35ABF4F2C91848D90E0019663
:100830008F739927848FA689B7892C93A089B18952
:100840008C9180648C93938D848D981306C002885C
:10085000F389E02D80818F7D80830895EF92FF9250
:100860000F931F93CF93DF93EC0181E0888F9B8DD3
:100870008C8D981305C0E889F989808185FD24C095
:10088000F62E0B8D10E00F5F1F4F0F731127E02E18
:100890008C8DE8120CC00FB607FCFACFE889F989F5
:1008A000808185FFF5CFCE010E940D04F1CF8B8DA5
:1008B000FE01E80FF11DE35AFF4FF0820B8FEA892A
:1008C000FB898081806207C0EE89FF896083E889A7
:1008D000F98980818064808381E090E0DF91CF910D
:1008E0001F910F91FF90EF900895CF93DF93EC014C
:1008F000888D8823C9F0EA89FB89808185FD05C040
:10090000A889B9898C9186FD0FC00FB607FCF5CF79
:10091000808185FFF2CFA889B9898C9185FFEDCFC1
:10092000CE010E940D04E7CFDF91CF91089580E0C2
:1009300090E0892B21F00E940304811125C080E002
:1009400090E0892B41F080E090E0892B21F00E941B
:10095000000081111CC080E090E0892B41F080E014
:1009600090E0892B21F00E940000811113C080E0EB
:1009700090E0892BA1F080E090E0892B81F00E942B
:10098000000081110AC008950E940000D8CF0E9483
:100990000000E1CF0E940000EACF0C94000008950F
:1009A0008F929F92AF92BF920F931F93CF93DF933B
:1009B000CDB7DEB7A1970FB6F894DEBF0FBECDBF9F
:1009C00019A2423008F44AE08E010F5D1F4F842EB9
:1009D000912CA12CB12CA50194010E948908E62F2D
:1009E000B901CA0101501109EA3014F4E05D01C0F7
:1009F000E95CD801EC93232B242B252B61F70115FF
:100A0000110571F0F80101900020E9F73197AF016D
:100A1000401B510BB80181E392E00E94AA0302C07F
:100A200080E090E0A1960FB6F894DEBF0FBECDBF78
:100A3000DF91CF911F910F91BF90AF909F908F90BA
:100A40000895CF92DF92EF92FF92CF93DF936C01E4
:100A5000990FEE08FF08F7FE17C08DE20E949F0174
:100A6000EC0166277727CB016C197D098E099F0958
:100A70004AE00E94D0048C0F9D1FDF91CF91FF9020
:100A8000EF90DF90CF9008954AE0C701B601DF9163
:100A9000CF91FF90EF90DF90CF900C94D0040E9404
:100AA000D1081F920F920FB60F9211242F933F93EC
:100AB0008F939F93AF93BF938091290290912A02C5
:100AC000A0912B02B0912C023091280223E0230F39
:100AD0002D3720F40196A11DB11D05C026E8230F76
:100AE0000296A11DB11D20932802809329029093A4
:100AF0002A02A0932B02B0932C0280912D02909198
:100B00002E02A0912F02B09130020196A11DB11DBD
:100B100080932D0290932E02A0932F02B093300267
:100B2000BF91AF919F918F913F912F910F900FBEE9
:100B30000F901F9018951F920F920FB60F921124CD
:100B40000BB60F922F933F934F935F936F937F93C7
:100B50008F939F93AF93BF93EF93FF9381E392E0C3
:100B60000E940D04FF91EF91BF91AF919F918F91E2
:100B70007F916F915F914F913F912F910F900BBE9D
:100B80000F900FBE0F901F9018951F920F920FB6E7
:100B90000F9211240BB60F922F938F939F93EF9385
:100BA000FF93E0914102F09142028081E09147027F
:100BB000F091480282FD12C0908180914A028F5FBD
:100BC0008F7320914B02821751F0E0914A02F0E0BE
:100BD000EF5CFD4F958F80934A0201C08081FF91A9
:100BE000EF919F918F912F910F900BBE0F900FBEA1
:100BF0000F901F901895CF93DF9300D01F92CDB721
:100C0000DEB7789484B5826084BD84B5816084BD8C
:100C100085B5826085BD85B5816085BD80916E009A
:100C2000816080936E0010928100809181008260CB
:100C30008093810080918100816080938100809108
:100C400080008160809380008091B10084608093F7
:100C5000B1008091B00081608093B00080919100DC
:100C600082608093910080919100816080939100D7
:100C7000809190008160809390008091A1008260BB
:100C80008093A1008091A10081608093A100809158
:100C9000A00081608093A0008091210182608093F8
:100CA00021018091210181608093210180912001A7
:100CB00081608093200180917A00846080937A0023
:100CC00080917A00826080937A0080917A008160BE
:100CD00080937A0080917A00806880937A001092E5
:100CE000C100E0914102F091420282E08083E091F4
:100CF0003D02F0913E021082E0913F02F0914002ED
:100D00008FEC808310924902E0914502F0914602F7
:100D100086E08083E0914302F0914402808180610B
:100D20008083E0914302F091440280818860808357
:100D3000E0914302F0914402808180688083E091D9
:100D40004302F091440280818F7D808361E089E0DD
:100D50000E94270261E08AE00E94270261E085E0AC
:100D60000E94270261E086E00E94270260E087E39C
:100D70000E94270260E086E30E94270262E088E387
:100D80000E94270268EE73E080E090E00E9470030A
:100D900087E30E942C037C0190931302809312023C
:100DA00086E30E942C039093110280931002EE0CB4
:100DB000FF1CF0921B02E0921A029C01220F331FCB
:100DC000309317022093160250EDC52E57E0D52E12
:100DD000E12CF12C61E070E080E090E00E94700373
:100DE00080901A0290901B02092C000CAA08BB08E4
:100DF00087E30E942C0320ED37E0DC010E94CA0843
:100E0000A50194010E94570857FD25C087E30E9461
:100E10002C0320ED37E0DC010E94CA08A5019401F3
:100E20000E945708213D374041055105BCF487E336
:100E30000E942C0320ED37E0DC010E94CA08A501C6
:100E400094010E945708DA01C901885E9340A10904
:100E5000B1098C0105C008E11CEF02C008EE13E0E7
:100E600010931902009318028090160290901702B6
:100E7000092C000CAA08BB0886E30E942C039C01E5
:100E8000A0E3B8EF0E94C208A50194010E94570890
:100E90002033384F4F4F5F4F24F186E30E942C03DD
:100EA0009C01A0E3B8EF0E94C208A50194010E9432
:100EB00057081216130614061506B4F086E30E94AE
:100EC0002C039C01A0E3B8EF0E94C208A501940185
:100ED0000E945708DA01C90188519C4FAF4FBF4F9C
:100EE00005C088E19CEF02C088EE93E09093150264
:100EF000809314022801481A590A509227024092FE
:100F000026029195819591094C01801A910A90923F
:100F1000210280922002052C000C66087708E8EE7A
:100F20004E0EE3E05E1E611C711CAFE7B0E0A30152
:100F300092010E947608A70196010E945708298312
:100F40003A834B835C8389819A81909325028093B5
:100F50002402A1E8BFEFA30192010E948408A70127
:100F600096010E945708DA01C90181589F4FAF4F7F
:100F7000BF4F9093230280932202092C000CAA08F1
:100F8000BB0898EE890E93E0991EA11CB11CAFE737
:100F9000B0E0A50194010E947608A70196010E9485
:100FA000570830931F0220931E02A1E8BFEFA5014E
:100FB00094010E948408A70196010E945708DA0153
:100FC000C90181589F4FAF4FBF4F90931D0280932F
:100FD0001C0289819A810E94210589E00E949F015B
:100FE00080912202909123020E94210589E00E94B3
:100FF0009F0180911E0290911F020E94210589E0AD
:101000000E949F0180911C0290911D020E94210567
:101010008AE00E949F01609124027091250289E07C
:101020000E94630260912202709123028AE00E9472
:10103000630260911E0270911F0285E00E946302AC
:1010400060911C0270911D0286E00E9463020E9462
:101050009704C0CEE1E3F2E01382128288EE93E0BF
:10106000A0E0B0E084839583A683B78384E092E018
:101070009183808385EC90E09587848784EC90E071
:101080009787868780EC90E0918B808B81EC90E055
:10109000938B828B82EC90E0958B848B86EC90E036
:1010A000978B868B118E128E138E148E0895052EBB
:1010B00097FB1EF400940E946E0857FD07D00E9413
:1010C000890807FC03D04EF40C946E0850954095A7
:1010D000309521953F4F4F4F5F4F089590958095E4
:1010E000709561957F4F8F4F9F4F08950E94AB0879
:1010F000A59F900DB49F900DA49F800D911D11246C
:101100000895B7FF0C9476080E947608821B930B13
:101110000895A1E21A2EAA1BBB1BFD010DC0AA1F38
:10112000BB1FEE1FFF1FA217B307E407F50720F050
:10113000A21BB30BE40BF50B661F771F881F991FCB
:101140001A9469F760957095809590959B01AC0114
:10115000BD01CF010895A29FB001B39FC001A39F1D
:10116000700D811D1124911DB29F700D811D1124E0
:10117000911D0895EE0FFF1F881F8BBF0790F691FA
:10118000E02D19940E94AB08332312F48A1B9B0BA9
:101190000C94CC080E94AB08B7FF0895821B930BF8
:1011A000089581E090E0F8940C94D608F894FFCF6D
:1011B000000000002E04AA03F703D503E903750419
:00000001FF
