:100000000C9485010C94B6010C94B6010C94B601C5
:100010000C94B6010C94B6010C94B6010C94B60184
:100020000C94B6010C94B6010C94B6010C94B60174
:100030000C94B6010C94B6010C94B6010C94B60164
:100040000C94B6010C94B6010C94B6010C94B60154
:100050000C94B6010C94B6010C94B6010C94FD06F8
:100060000C94B6010C9471070C9447070C94B601DC
:100070000C94B6010C94B6010C94B6010C94B60124
:100080000C94B6010C94B6010C94B6010C94B60114
:100090000C94B6010C94B6010C94B6010C94B60104
:1000A0000C94B6010C94B6010C94B6010C94B601F4
:1000B0000C94B6010C94B6010C94B6010C94B601E4
:1000C0000C94B6010C94B6010C94B6010C94B601D4
:1000D0000C94B6010C94B6010C94B6010C94B601C4
:1000E0000C94B601FC01FF01EE01F201F6013602AB
:1000F000030207020D02110215021B021F02230256
:10010000360229022D023102AF02B402B902C30243
:10011000CD024603D702DF02E702F102FB0205032C
:1001200014031E034603280332033C03540A620AE5
:100130006F0A620A6F0A6F0A6F0A620A590A540A42
:100140006F0A540A590A540A590A0C94A7070C94C6
:10015000C3020C9411020C943C030C9489050C947A
:10016000CD020C9429020C942D020C94AF020C9435
:100170001E030C94F2010C94FB020C94F1020C94FB
:100180000D020C941B020C94F8030C9407020C94BF
:10019000FF010C9428030C94CD030C94D7020C940B
:1001A00014030C9432030C9446030C94DF020C9459
:1001B000FC010C94590A0C9498040C946F0A0C944A
:1001C000B9020C941A040C94540A0C94E7020C948F
:1001D000620A0C94B4020C940C040C9423020C9448
:1001E000F6010C9405030C9451040C9431020C9408
:1001F00036020C9403020C9415020C941F020C940A
:10020000EE0100002100240027002A002D0030000C
:10021000330001010000040107010A01000022006F
:10022000250028002B002E003100340002010000C0
:10023000050108010B010505050507050808080863
:10024000020202020A0A080804040404010101016E
:100250000101010103030303030303030407070769
:100260000C0C0C0C0C0C0C0C02020202060606060E
:10027000060606060B0B0B0B0B0B0B0B01021020DB
:1002800020080810204010204080020102010804CC
:100290000201010204081020408080402010080460
:1002A00002018004020180402010080402010804B9
:1002B00002010102040810204080010204081020FD
:1002C000408000000A0B02090C0D0E080703040110
:1002D000000000000000000000000000000000001E
:1002E00000000000000000000000000000001211EB
:1002F00010000000000000000000000000000000EE
:100300000000000000000000A70711241FBECFEF6F
:10031000D1E2DEBFCDBF00E00CBF12E0A0E0B2E052
:10032000ECE1F9E100E00BBF02C007900D92A637A7
:10033000B107D9F723E0A6E7B2E001C01D92AD35C1
:10034000B207E1F711E0C5E8D1E000E006C021976F
:100350000109802FFE010E947F0CC438D10780E084
:100360000807A9F70E94F2070C948C0C0C9400006B
:100370001092A7021092A60222273327281B390BBE
:100380003093A5022093A4029093A3028093A2022B
:100390009093A1028093A0020895362F90E0FC0173
:1003A000EE53FD4F4491FC01E458FD4F2491FC01B4
:1003B000EA5CFD4F9491992309F46BC0442309F43E
:1003C00055C050E0FA013197E231F10508F04EC016
:1003D0008827EE58FF4F8F4F0C947F0C8091800040
:1003E0008F7707C0809180008F7D03C0809180004F
:1003F000877F809380003AC084B58F7702C084B530
:100400008F7D84BD33C08091B0008F7703C0809111
:10041000B0008F7D8093B00029C0809190008F77CD
:1004200007C0809190008F7D03C080919000877FEE
:10043000809390001BC08091A0008F7707C08091AF
:10044000A0008F7D03C08091A000877F8093A000D3
:100450000DC0809120018F7707C0809120018F7D92
:1004600003C080912001877F80932001E92FF0E075
:10047000EE0FFF1FE45EFD4FA591B4918FB7F89486
:10048000EC91311103C020952E2301C02E2B2C930B
:100490008FBF0895CF93DF9390E0FC01E458FD4FA8
:1004A0002491FC01EA5CFD4F8491882361F190E086
:1004B000880F991FFC01EE5FFD4FC591D491FC019F
:1004C000E45EFD4FA591B491611109C09FB7F89406
:1004D0008881209582238883EC912E230BC0623083
:1004E00061F49FB7F8943881822F809583238883A5
:1004F000EC912E2B2C939FBF06C08FB7F894E88108
:100500002E2B28838FBFDF91CF9108951F93CF9318
:10051000DF93182FEB0161E00E944A02209711F44B
:1005200060E004C0CF3FD10539F461E0812FDF9155
:10053000CF911F910C94CD01E12FF0E0EE53FD4FD0
:10054000E4914E2F50E0FA013197E231F10508F0C5
:100550009DC08827EC57FF4F8F4F0C947F0C84B5BC
:10056000806884BDC7BD97C084B5806284BDC8BDA6
:1005700092C080918000806880938000D093890031
:10058000C093880088C08091800080628093800042
:10059000D0938B00C0938A007EC0809180008860D9
:1005A00080938000D0938D00C0938C0074C08091A4
:1005B000B00080688093B000C093B3006CC080919D
:1005C000B00080628093B000C093B40064C080919A
:1005D0009000806880939000D0939900C093980019
:1005E0005AC080919000806280939000D0939B00CD
:1005F000C0939A0050C080919000886080939000D2
:10060000D0939D00C0939C0046C08091A00080685C
:100610008093A0008091A0008F7B8093A000D09356
:10062000A900C093A80037C08091A0008062809389
:10063000A000D093AB00C093AA002DC08091A00071
:1006400088608093A000D093AD00C093AC0023C01D
:1006500080912001806880932001D0932901C0936C
:10066000280119C080912001806280932001D093DD
:100670002B01C0932A010FC08091200188608093D4
:100680002001D0932D01C0932C0105C0C038D105A5
:100690000CF04BCF45CFDF91CF911F91089586335A
:1006A00008F0865390917B00282F2870977F922B1B
:1006B00090937B008770806480937C0080917A00A7
:1006C000806480937A0080917A0086FDFCCF8091CF
:1006D00078002091790090E0922B08953FB7F8942C
:1006E00080919C0290919D02A0919E02B0919F02E8
:1006F00026B5A89B05C02F3F19F00196A11DB11D7D
:100700003FBFBA2FA92F982F8827820F911DA11DB7
:10071000B11DBC01CD0142E0660F771F881F991FF4
:100720004A95D1F708958F929F92AF92BF92CF9240
:10073000DF92EF92FF926B017C010E946E034B01EE
:100740005C01C114D104E104F104F1F00E946E03D4
:10075000DC01CB0188199909AA09BB09883E93409D
:10076000A105B10570F321E0C21AD108E108F10832
:1007700088EE880E83E0981EA11CB11CC114D10420
:10078000E104F10419F7DDCFFF90EF90DF90CF90F7
:10079000BF90AF909F908F900895CF92DF92EF928D
:1007A000FF920F931F93CF93DF936C017A018B011C
:1007B000C0E0D0E0CE15DF0589F0D8016D918D0144
:1007C000D601ED91FC910190F081E02DC6011995C3
:1007D000892B11F47E0102C02196ECCFC701DF9175
:1007E000CF911F910F91FF90EF90DF90CF900895E0
:1007F000FC01918D828D981761F0828DDF01A80F29
:10080000B11D5D968C91928D9F5F9F73928F90E04A
:1008100008958FEF9FEF0895FC01918D828D9817B9
:1008200031F0828DE80FF11D858D90E008958FEFF6
:100830009FEF0895FC01918D228D892F90E0805CBF
:100840009F4F821B91098F739927089588EA92E040
:100850000E941A0421E0892B09F420E0822F0895D8
:10086000FC01848DDF01A80FB11DA35ABF4F2C914D
:10087000848D90E001968F739927848FA689B7891C
:100880002C93A089B1898C9180648C93938D848DF5
:10089000981306C00288F389E02D80818F7D8083C4
:1008A0000895EF92FF920F931F93CF93DF93EC0184
:1008B00081E0888F9B8D8C8D981305C0E889F9891C
:1008C000808185FD24C0F62E0B8D10E00F5F1F4F39
:1008D0000F731127E02E8C8DE8120CC00FB607FCA9
:1008E000FACFE889F989808185FFF5CFCE010E9492
:1008F0003004F1CF8B8DFE01E80FF11DE35AFF4F5D
:10090000F0820B8FEA89FB898081806207C0EE89C3
:10091000FF896083E889F98980818064808381E030
:1009200090E0DF91CF911F910F91FF90EF9008958C
:10093000CF93DF93EC01888D8823C9F0EA89FB8986
:10094000808185FD05C0A889B9898C9186FD0FC07D
:100950000FB607FCF5CF808185FFF2CFA889B98952
:100960008C9185FFEDCFCE010E943004E7CFDF915F
:10097000CF91089580E090E0892B21F00E94260419
:10098000811125C080E090E0892B41F080E090E06B
:10099000892B21F00E94000081111CC080E090E0B2
:1009A000892B41F080E090E0892B21F00E9400002B
:1009B000811113C080E090E0892BA1F080E090E0ED
:1009C000892B81F00E94000081110AC008950E94C5
:1009D0000000D8CF0E940000E1CF0E940000EACFC3
:1009E0000C9400000895CF93DF93EC0160E08E81BA
:1009F0000E94CD0161E08E810E94CD0160E08E8178
:100A00000E94CD018BE891E00197F1F7DF91CF9142
:100A10000895CF92DF92EF92FF920F931F93CF939F
:100A2000DF937C016C0187E0C80ED11CC0E0D0E0F0
:100A3000062F10E0B8010C2E02C0759567950A9438
:100A4000E2F76170F60181916F010E94CD0121965C
:100A5000C430D10579F7C701DF91CF911F910F9174
:100A6000FF90EF90DF90CF900C94F304CF92DF9241
:100A7000EF92FF920F931F93CF93DF93EC01F62E2B
:100A8000642F8C810E94CD018D818F3F19F060E031
:100A90000E94CD018F850F2D10E084FF25C06E01CF
:100AA00087E0C80ED11CE12CF12CB8010E2C02C03D
:100AB000759567950A94E2F76170F60181916F016F
:100AC0000E94CD01FFEFEF1AFF0A88E0E816F1045B
:100AD00061F7CE01DF91CF911F910F91FF90EF90C1
:100AE000DF90CF900C94F304B80184E0759567957E
:100AF0008A95E1F7CE010E9409056F2DCE01DF91A5
:100B0000CF911F910F91FF90EF90DF90CF900C94B9
:100B1000090541E00E94360581E090E0089540E03B
:100B20000C943605EF92FF920F931F93CF93DF93B0
:100B3000EC01623018F08F8588608F876B8B1C8A80
:100B400080E48D8B80E18E8B80E58F8B61E08C81E2
:100B50000E944A028D818F3F19F061E00E944A0293
:100B600061E08E810E944A027E0187E0E80EF11C5E
:100B700000E010E08F8584FD03C084E090E002C0B7
:100B800088E090E0081719074CF461E0F7018191C3
:100B90007F010E944A020F5F1F4FECCF8BE39DE065
:100BA0000197F1F760E08C810E94CD0160E08E81B9
:100BB0000E94CD018D818F3F19F060E00E94CD0130
:100BC0006F8564FD1DC063E0CE010E9409050BE442
:100BD00016E4C8010197F1F763E0CE010E94090510
:100BE000C8010197F1F763E0CE010E94090583E592
:100BF00092E00197F1F762E0CE010E94090516C06C
:100C00006062CE010E948F058BE496E40197F1F7B4
:100C10006F856062CE010E948F0583E592E00197A7
:100C2000F1F76F856062CE010E948F056F8560626B
:100C3000CE010E948F0584E0888B6CE0CE010E947B
:100C40008F0561E0CE010E948F058BE39FE1019744
:100C5000F1F782E0898B66E0CE01DF91CF911F91A1
:100C60000F91FF90EF900C948F054F925F926F92CF
:100C70007F928F929F92AF92BF92CF92DF92EF922C
:100C8000FF92CF93DF93CDB7DEB728970FB6F894D6
:100C9000DEBF0FBECDBFC090A202D090A3020D2C2C
:100CA000000CEE08FF0888EEC80E83E0D81EE11C99
:100CB000F11CAFEFB0E0A70196010E949D0A20ED64
:100CC000822E27E0922EA12CB12CA50194010E9426
:100CD0007E0A29833A834B835C83A981BA81B093CE
:100CE0007D02A0937C02A1E0BFEFA70196010E94C4
:100CF000AB0AA50194010E947E0ADA01C901815064
:100D00009F4FAF4FBF4F8D839E83AF83B887909324
:100D10007B0280937A02C090A002D090A1020D2C99
:100D2000000CEE08FF0898EEC90E93E0D91EE11CF6
:100D3000F11CAFEFB0E0A70196010E949D0AA5014A
:100D400094010E947E0A29013A013093790220938E
:100D50007802A1E0BFEFA70196010E94AB0AA501AE
:100D600094010E947E0A69017A01AFEFCA0ED11C7C
:100D7000E11CF11CD0927702C092760269817A81DF
:100D800089E00E9486026D817E818AE00E9486024F
:100D9000B20185E00E948602B60186E028960FB671
:100DA000F894DEBF0FBECDBFDF91CF91FF90EF90E3
:100DB000DF90CF90BF90AF909F908F907F906F907B
:100DC0005F904F900C9486020E94870C611571050C
:100DD00079F0FB0101900020E9F73197AF01461B44
:100DE000570BDC01ED91FC910280F381E02D199409
:100DF00080E090E008950C94E6061F920F920FB6E3
:100E00000F9211242F933F938F939F93AF93BF9390
:100E10008091980290919902A0919A02B0919B02C0
:100E20003091970223E0230F2D3720F40196A11D66
:100E3000B11D05C026E8230F0296A11DB11D209308
:100E400097028093980290939902A0939A02B0938C
:100E50009B0280919C0290919D02A0919E02B09174
:100E60009F020196A11DB11D80939C0290939D024B
:100E7000A0939E02B0939F02BF91AF919F918F91DB
:100E80003F912F910F900FBE0F901F9018951F92BA
:100E90000F920FB60F9211240BB60F922F933F9320
:100EA0004F935F936F937F938F939F93AF93BF9372
:100EB000EF93FF9388EA92E00E943004FF91EF9154
:100EC000BF91AF919F918F917F916F915F914F9162
:100ED0003F912F910F900BBE0F900FBE0F901F9060
:100EE00018951F920F920FB60F9211240BB60F9206
:100EF0002F938F939F93EF93FF93E091B802F0911C
:100F0000B9028081E091BE02F091BF0282FD12C061
:100F100090818091C1028F5F8F732091C2028217EE
:100F200051F0E091C102F0E0E855FD4F958F8093BC
:100F3000C10201C08081FF91EF919F918F912F910C
:100F40000F900BBE0F900FBE0F901F901895E8EA00
:100F5000F2E01382128288EE93E0A0E0B0E0848396
:100F60009583A683B7838CE092E09183808385ECA0
:100F700090E09587848784EC90E09787868780EC63
:100F800090E0918B808B81EC90E0938B828B82EC54
:100F900090E0958B848B86EC90E0978B868B118EFE
:100FA000128E138E148EE5E4F3E0138212828CE12C
:100FB00092E0918380838BE084838FEF85838CE044
:100FC00086838EE087838FE0808780E1818781E15F
:100FD00082871386148615861686178661E0CF01F0
:100FE0000C949205CF93DF93CDB7DEB7A1970FB6E0
:100FF000F894DEBF0FBECDBF789484B5826084BD07
:1010000084B5816084BD85B5826085BD85B581600C
:1010100085BD80916E00816080936E00109281008A
:101020008091810082608093810080918100816045
:101030008093810080918000816080938000809106
:10104000B10084608093B1008091B0008160809392
:10105000B000809191008260809391008091910016
:1010600081608093910080919000816080939000D6
:101070008091A10082608093A1008091A100816095
:101080008093A1008091A00081608093A000809156
:1010900021018260809321018091210181608093F0
:1010A00021018091200181608093200180917A004C
:1010B000846080937A0080917A00826080937A00C5
:1010C00080917A00816080937A0080917A008068B4
:1010D00080937A001092C100E091B802F091B902B9
:1010E00082E08083E091B402F091B5021082E09139
:1010F000B602F091B7028FEC80831092C002E091AB
:10110000BC02F091BD0286E08083E091BA02F091CA
:10111000BB02808180618083E091BA02F091BB02C2
:10112000808188608083E091BA02F091BB02808167
:1011300080688083E091BA02F091BB0280818F7D4C
:10114000808360E08DE30E944A0260E08CE30E94AD
:101150004A0260E08BE30E944A0260E08AE30E9458
:101160004A0264E670E080E090E00E949303E6E8C3
:10117000EE2EE2E0FE2E00E012E0F2E008301F0763
:1011800089F0D8018C910E5F1F4F0E944F03F70129
:10119000819391937F016AE070E080E090E00E948B
:1011A0009303EBCF61E089E00E944A0261E08AE0AC
:1011B0000E944A0261E085E00E944A0261E086E006
:1011C0000E944A0260E087E30E944A0260E086E3F0
:1011D0000E944A0262E088E30E944A0268EE73E0DD
:1011E00080E090E00E94930387E30E944F038C010C
:1011F000909385028093840286E30E944F0390932C
:10120000830280938202000F111F109381020093CA
:1012100080029C01220F331F30937F0220937E02B5
:1012200062E085E493E00E9492057AE0872E912C9B
:10123000A12CB12C61E070E080E090E00E9493036B
:101240003EE8232E32E0332E810140E0E42E42E0DE
:10125000F42EB2E006391B0709F488C0D8016D915D
:101260007C91072E000C880B990B0E94860B2B019A
:101270003C01F7018081F2E0EF0EF11C0E944F0368
:101280006C012DEC3CEC4CE45FE3C301B2010E9425
:10129000120C0E94550B80E090E00E94840B2B0101
:1012A0003C01B601DD0C880B990B0E94860B2CECDF
:1012B0003CEC4CE45EE30E94120C9B01AC01C301C8
:1012C000B2010E94E20A0E944E0BD8016D937D93F9
:1012D0008D012B01770F6608770877FE26C0E09115
:1012E000A802F091A9020190F081E02D6DE288EA58
:1012F00092E0199522273327A901241935094609B7
:10130000570919A2FE01B1966F01CA01B901A501E1
:1013100094010E94B00A605DD6016E936D012115A3
:1013200031054105510589F715C0A301920119A2A4
:10133000FE01B1966F01CA01B901A50194010E9495
:10134000B00A605DD6016E936D012115310541052E
:10135000510589F7B60188EA92E00E94E60660E24C
:1013600072E088EA92E00E94FB0673CF62E272E0CC
:1013700088EA92E00E94E606E6E8F2E010E080E00B
:1013800090E0D1016D917D911D0141915191440FEA
:10139000551F21E030E04617570714F020E030E0F9
:1013A000082E01C0220F0A94EAF7122B019684300E
:1013B000910539F71093960261E085E493E00E946D
:1013C0008F058BE39FE10197F1F7E1E080915803EE
:1013D0008111E0E0E195F0E0EB5BFC4F648960682F
:1013E00085E493E00E948F05111103C065E272E06D
:1013F0004AC0113019F46AE272E045C0123019F4A3
:101400006FE272E040C0133019F464E372E03BC055
:10141000143019F469E372E036C0153019F46EE344
:1014200072E031C0163019F463E472E02CC017305A
:1014300019F468E472E027C0183019F46DE472E022
:1014400022C0193019F462E572E01DC01A3019F497
:1014500067E572E018C01B3019F46CE572E013C048
:101460001C3019F461E672E00EC01D3019F466E616
:1014700072E009C01E3019F46BE672E004C01F3040
:1014800031F460E772E085E493E00E94FB0680910E
:10149000960290E08F30910510F5FC018827EA56FE
:1014A000FF4F8F4F0C947F0C80E991E00E94B801B0
:1014B0001EC080E79EEF9093A3028093A20280E972
:1014C00091E008C080E991E09093A3028093A2028A
:1014D00080E79EEF9093A1028093A00208C0109233
:1014E000A3021092A2021092A1021092A0020E94E6
:1014F00035060E9435060E94BA049CCE052E97FB45
:101500001EF400940E94950A57FD07D00E94B00A6D
:1015100007FC03D04EF40C94950A509540953095F5
:1015200021953F4F4F4F5F4F08959095809570954F
:1015300061957F4F8F4F9F4F08950E94D20AA59FBC
:10154000900DB49F900DA49F800D911D11240895BE
:10155000B7FF0C949D0A0E949D0A821B930B08956D
:10156000A1E21A2EAA1BBB1BFD010DC0AA1FBB1FA7
:10157000EE1FFF1FA217B307E407F50720F0A21B19
:10158000B30BE40BF50B661F771F881F991F1A9486
:1015900069F760957095809590959B01AC01BD01B0
:1015A000CF010895A29FB001B39FC001A39F700D0A
:1015B000811D1124911DB29F700D811D1124911D5B
:1015C00008955058BB27AA270E94F90A0C94D80BFB
:1015D0000E94CA0B38F00E94D10B20F039F49F3FD3
:1015E00019F426F40C94C70B0EF4E095E7FB0C9469
:1015F000C10BE92F0E94E90B58F3BA176207730772
:101600008407950720F079F4A6F50C940B0C0EF4E2
:10161000E0950B2EBA2FA02D0B01B90190010C0102
:10162000CA01A0011124FF27591B99F0593F50F41A
:10163000503E68F11A16F040A22F232F342F442772
:10164000585FF3CF469537952795A795F04053956A
:10165000C9F77EF41F16BA0B620B730B840BBAF03A
:101660009150A1F0FF0FBB1F661F771F881FC2F7A5
:101670000EC0BA0F621F731F841F48F487957795B9
:101680006795B795F7959E3F08F0B0CF9395880F73
:1016900008F09927EE0F9795879508950E94550BAE
:1016A0006894B1110C940C0C08950E94F10B88F011
:1016B0009F5798F0B92F9927B751B0F0E1F0660F16
:1016C000771F881F991F1AF0BA95C9F714C0B13057
:1016D00091F00E940B0CB1E008950C940B0C672F55
:1016E000782F8827B85F39F0B93FCCF38695779586
:1016F0006795B395D9F73EF490958095709561956F
:101700007F4F8F4F9F4F0895E89409C097FB3EF499
:1017100090958095709561957F4F8F4F9F4F99233E
:10172000A9F0F92F96E9BB279395F69587957795BC
:101730006795B795F111F8CFFAF4BB0F11F460FF7C
:101740001BC06F5F7F4F8F4F9F4F16C0882311F0D4
:1017500096E911C0772321F09EE8872F762F05C0E8
:10176000662371F096E8862F70E060E02AF09A9583
:10177000660F771F881FDAF7880F9695879597F978
:10178000089597F99F6780E870E060E008959FEF03
:1017900080EC089500240A94161617061806090608
:1017A000089500240A9412161306140605060895D7
:1017B000092E0394000C11F4882352F0BB0F40F45F
:1017C000BF2B11F460FF04C06F5F7F4F8F4F9F4F9F
:1017D000089557FD9058440F551F59F05F3F71F021
:1017E0004795880F97FB991F61F09F3F79F0879588
:1017F0000895121613061406551FF2CF4695F1DF11
:1018000008C0161617061806991FF1CF86957105A0
:10181000610508940895E894BB2766277727CB01D4
:1018200097F908950E94250C0C94D80B0E94CA0BBE
:1018300038F00E94D10B20F0952311F00C94C10BCD
:101840000C94C70B11240C940C0C0E94E90B70F340
:10185000959FC1F3950F50E0551F629FF001729F55
:10186000BB27F00DB11D639FAA27F00DB11DAA1F64
:10187000649F6627B00DA11D661F829F2227B00DB1
:10188000A11D621F739FB00DA11D621F839FA00D3C
:10189000611D221F749F3327A00D611D231F849F8C
:1018A000600D211D822F762F6A2F11249F575040E3
:1018B0009AF0F1F088234AF0EE0FFF1FBB1F661F5E
:1018C000771F881F91505040A9F79E3F510580F027
:1018D0000C94C10B0C940C0C5F3FE4F3983ED4F3D2
:1018E000869577956795B795F795E7959F5FC1F7CB
:1018F000FE2B880F911D9695879597F90895EE0F09
:10190000FF1F881F8BBF0790F691E02D199481E08F
:0C19100090E0F8940C948C0CF894FFCF3D
:10191C003D003C003B003A00000000005104CD03A8
:10192C001A04F8030C049804000000008905CD0388
:10193C0009000D0A002D2D2D2D002D2D2D78002D9B
:10194C002D782D002D2D7878002D782D2D002D78CB
:10195C002D78002D78782D002D78787800782D2D25
:10196C002D00782D2D7800782D782D00782D787815
:10197C000078782D2D0078782D78007878782D00E7
:06198C0078787878000075
:00000001FF
