:100000000C9495010C94270C0C94FC0B0C94D10BC4
:100010000C94A60B0C947B0B0C94500B0C94250B9E
:100020000C94FA0A0C94C6010C94C6010C94C601F7
:100030000C94C6010C94E20C0C94C6010C94C601FD
:100040000C94C6010C94C6010C94C6010C94C60114
:100050000C94C6010C94C6010C94C6010C94B00A11
:100060000C94C6010C94AD040C9483040C94C6014A
:100070000C94C6010C94C6010C94C6010C94C601E4
:100080000C94C6010C94C6010C94C6010C94C601D4
:100090000C94C6010C94C6010C94C6010C94C601C4
:1000A0000C94C6010C94C6010C94C6010C94C601B4
:1000B0000C94C6010C94C6010C94C6010C94C601A4
:1000C0000C94C6010C94C6010C94C6010C94C60194
:1000D0000C94C6010C94C6010C94C6010C94C60184
:1000E0000C94C601E511011228120E1228122812D2
:1000F00028121B12EA11E5112812E511F111E51180
:10010000F811EF05F205E105E505E9052906F60513
:10011000FA050006040608060E061206160629064B
:100120001C062006240686098B0990099A09A40951
:100130001D0AAE09B609BE09C809D209DC09EB09D6
:10014000F5091D0AFF09090A130A0C94DC090C942D
:10015000F5090C94E5050C94F6050C94D7010C9464
:100160008B090C941C060C949A090C94AE090C94FF
:10017000D2090C94F1110C94E9050C94090A0C9421
:1001800016060C94BE090C94E1050C9424060C94FC
:10019000C8010C94F2050C9493050C94EF050C9493
:1001A000B6090C94FF090C94D5130C9429060C94F1
:1001B000C5130C9463050C94F9010C940E120C9465
:1001C00020060C94E5110C9404060C9477020C9410
:1001D0001D0A0C9486090C9492050C94130A0C9435
:1001E00012060C94EA110C94FA050C9490090C94E4
:1001F000C8090C9408060C9428120C94EB090C9472
:10020000EB010C9400060C9401120C94A4090C94BC
:100210001B120C94F8110C9430020C940E06000082
:100220002100240027002A002D00300033000101A6
:100230000000040107010A0100000A0B02090C0D6D
:100240000E08070304010000000000000000000089
:10025000000000000000000000000000000000009E
:10026000000000001211100000000000000000005B
:10027000000000000000000000000000000002017B
:1002800002102020080810204010204080020102A7
:10029000010804020101020408102040808040206F
:1002A00010080402018004020180402010080402AA
:1002B0000108040201010204081020408001020428
:1002C000081020408000002200250028002B002E6E
:1002D000003100340002010000050108010B010596
:1002E000050505070508080808020202020A0A08AF
:1002F00008040404040101010101010101030303D5
:100300000303030303040707070C0C0C0C0C0C0C71
:100310000C0202020206060606060606060B0B0B78
:100320000B0B0B0B0B00D513C51311241FBECFEF06
:10033000D1E2DEBFCDBF00E00CBF12E0A0E0B2E032
:10034000E6E8F2E300E00BBF02C007900D92AA3886
:10035000B107D9F723E0AAE8B2E001C01D92A93D98
:10036000B207E1F711E0C4E9D1E000E006C021974F
:100370000109802FFE010E94FE16C339D10780E0DB
:100380000807A9F70E94360F0C9431190C9400004D
:1003900020919A0230919B0281E090E0232B11F092
:1003A00080E090E090939B0280939A020895FC0174
:1003B000918D828D981761F0828DDF01A80FB11D9C
:1003C0005D968C91928D9F5F9F73928F90E00895C0
:1003D0008FEF9FEF0895FC01918D828D981731F07A
:1003E000828DE80FF11D858D90E008958FEF9FEFCE
:1003F0000895FC01918D228D892F90E0805C9F4FA4
:10040000821B91098F739927089587E093E00E94DA
:10041000F90121E0892B09F420E0822F0895FC01E5
:10042000848DDF01A80FB11DA35ABF4F2C91848D7D
:1004300090E001968F739927848FA689B7892C93B2
:10044000A089B1898C9180648C93938D848D98134D
:1004500006C00288F389E02D80818F7D8083089516
:10046000EF92FF920F931F93CF93DF93EC0181E004
:10047000888F9B8D8C8D981305C0E889F9898081C0
:1004800085FD24C0F62E0B8D10E00F5F1F4F0F73FC
:100490001127E02E8C8DE8120CC00FB607FCFACFA6
:1004A000E889F989808185FFF5CFCE010E940F028E
:1004B000F1CF8B8DFE01E80FF11DE35AFF4FF08263
:1004C0000B8FEA89FB898081806207C0EE89FF89F2
:1004D0006083E889F98980818064808381E090E08D
:1004E000DF91CF911F910F91FF90EF900895CF93DF
:1004F000DF93EC01888D8823C9F0EA89FB8980812C
:1005000085FD05C0A889B9898C9186FD0FC00FB6FD
:1005100007FCF5CF808185FFF2CFA889B9898C913E
:1005200085FFEDCFCE010E940F02E7CFDF91CF9183
:10053000089580E090E0892B21F00E94050281114E
:1005400025C080E090E0892B41F080E090E0892B8D
:1005500021F00E94000081111CC080E090E0892BF6
:1005600041F080E090E0892B21F00E940000811191
:1005700013C080E090E0892BA1F080E090E0892B0F
:1005800081F00E94000081110AC008950E940000BD
:10059000D8CF0E940000E1CF0E940000EACF0C9467
:1005A00000000895CF93DF93E2E9F2E0ACE9B2E016
:1005B00040E080E090E0C191D1916D917D91660F16
:1005C000771F21E030E06C177D0714F020E030E069
:1005D000082E01C0220F0A94EAF7422B01968430BC
:1005E000910549F74093CF02DF91CF910895CF93C2
:1005F000DF93EC0160E08E810E94C00561E08E8196
:100600000E94C00560E08E810E94C0058BE891E0E9
:100610000197F1F7DF91CF9108954F925F926F921A
:100620007F928F929F92AF92BF92CF92DF92EF9282
:10063000FF920F931F93CF93DF93CDB7DEB7A197B0
:100640000FB6F894DEBF0FBECDBF8BE2A82E82E0BE
:10065000B82E02E912E09AE0492E512C612C712C3F
:10066000F2E00A391F0709F484C0F8016081718142
:10067000072E000C880B990B0E94FF146B017C0164
:10068000F5018081F2E0AF0EB11C0E94260A4C01F8
:1006900026E636E646E65FE3C701B6010E943A1554
:1006A0000E94CF1680E090E00E94FD146B017C0157
:1006B000B401990C880B990B0E94FF1420ED3CECBF
:1006C0004CEC5DE30E943A159B01AC01C701B601F9
:1006D0000E945C160E94C816F801619371938F0105
:1006E0006B01770FEE08FF08F7FE26C0E0910703C5
:1006F000F09108030190F081E02D6DE287E093E036
:10070000199522273327A9012C193D094E095F09A4
:1007100019A2CE0181967C01CA01B901A3019201FF
:100720000E942A16605DF70162937F012115310551
:100730004105510589F715C0A701960119A2CE01FF
:1007400081967C01CA01B901A30192010E942A1677
:10075000605DF70162937F01211531054105510567
:1007600089F7C7010E94FA0D8BE492E00E94FA0D0E
:1007700077CF8DE492E00E94FA0DA1960FB6F8941F
:10078000DEBF0FBECDBFDF91CF911F910F91FF90C4
:10079000EF90DF90CF90BF90AF909F908F907F9021
:1007A0006F905F904F9008954F925F926F927F92FB
:1007B0008F929F92AF92BF92CF92DF92EF92FF9271
:1007C000CF93DF93CDB7DEB728970FB6F894DEBF8F
:1007D0000FBECDBFC0900503D09006030D2C000CBA
:1007E000EE08FF0888EEC80E83E0D81EE11CF11C5D
:1007F000AFEFB0E0A70196010E94171620ED822E00
:1008000027E0922EA12CB12CA50194010E94F8158D
:1008100029833A834B835C83A981BA81B093910287
:10082000A0939002A1E0BFEFA70196010E942516B8
:10083000A50194010E94F815DA01C90181509F4F6A
:10084000AF4FBF4F8D839E83AF83B88790938F0246
:1008500080938E02C0900303D09004030D2C000CF3
:10086000EE08FF0898EEC90E93E0D91EE11CF11CBA
:10087000AFEFB0E0A70196010E941716A501940101
:100880000E94F81529013A0130938D0220938C02C1
:10089000A1E0BFEFA70196010E942516A5019401D2
:1008A0000E94F81569017A01AFEFCA0ED11CE11C54
:1008B000F11CD0928B02C0928A0269817A8189E010
:1008C0000E945D096D817E818AE00E945D09B2010E
:1008D00086E00E945D09B60185E028960FB6F8947F
:1008E000DEBF0FBECDBFDF91CF91FF90EF90DF90C5
:1008F000CF90BF90AF909F908F907F906F905F90C0
:100900004F900C945D091F920F920FB60F92112415
:100910000BB60F922F933F934F935F936F937F93F9
:100920008F939F93AF93BF93EF93FF9387E093E0F1
:100930000E940F02FF91EF91BF91AF919F918F9114
:100940007F916F915F914F913F912F910F900BBECF
:100950000F900FBE0F901F9018951F920F920FB619
:100960000F9211240BB60F922F938F939F93EF93B7
:10097000FF93E0911703F09118038081E0911D032C
:10098000F0911E0382FD12C09081809120038F5F41
:100990008F7320912103821751F0E0912003F0E042
:1009A000E95FFC4F958F8093200301C08081FF9108
:1009B000EF919F918F912F910F900BBE0F900FBED3
:1009C0000F901F901895CF92DF92EF92FF920F93A6
:1009D0001F93CF93DF937C016C0187E0C80ED11C7D
:1009E000C0E0D0E0062F10E0B8010C2E02C07595D3
:1009F00067950A94E2F76170F60181916F010E9498
:100A0000C0052196C430D10579F7C701DF91CF9198
:100A10001F910F91FF90EF90DF90CF900C94F70211
:100A2000CF92DF92EF92FF920F931F93CF93DF93BA
:100A3000EC01F62E642F8C810E94C0058D818F3FC2
:100A400019F060E00E94C0058F850F2D10E084FF33
:100A500025C06E0187E0C80ED11CE12CF12CB80135
:100A60000E2C02C0759567950A94E2F76170F60145
:100A700081916F010E94C005FFEFEF1AFF0A88E025
:100A8000E816F10461F7CE01DF91CF911F910F912C
:100A9000FF90EF90DF90CF900C94F702B80184E0C4
:100AA000759567958A95E1F7CE010E94E3046F2D55
:100AB000CE01DF91CF911F910F91FF90EF90DF90CA
:100AC000CF900C94E30441E00E94100581E090E097
:100AD000089540E00C941005CF93DF93EC0161E0A2
:100AE00089EB93E00E9469058BE39FE10197F1F7A1
:100AF000E091CC03E23010F4E15001C0E1E0F0E01D
:100B0000E754FC4F6489606889EB93E00E946905B3
:100B10004C815D816881798189EB93E0DF91CF9190
:100B20000C9493050895CF92DF92EF92FF920F936A
:100B30001F93CF93DF936C017A018B01C0E0D0E06B
:100B4000CE15DF0589F0D8016D918D01D601ED91AB
:100B5000FC910190F081E02DC6011995892B11F4CB
:100B60007E0102C02196ECCFC701DF91CF911F918A
:100B70000F91FF90EF90DF90CF9008950E941C1985
:100B8000362F90E0FC01E85CFD4F4491FC01E158F8
:100B9000FD4F2491FC01E152FD4F9491992309F4FA
:100BA0006BC0442309F455C050E0FA013197E2319B
:100BB000F10508F04EC08827EF57FF4F8F4F0C9478
:100BC000FE16809180008F7707C0809180008F7D16
:100BD00003C080918000877F809380003AC084B5F5
:100BE0008F7702C084B58F7D84BD33C08091B00003
:100BF0008F7703C08091B0008F7D8093B00029C0B3
:100C0000809190008F7707C0809190008F7D03C006
:100C100080919000877F809390001BC08091A000FE
:100C20008F7707C08091A0008F7D03C08091A000C6
:100C3000877F8093A0000DC0809120018F7707C02F
:100C4000809120018F7D03C080912001877F809358
:100C50002001E92FF0E0EE0FFF1FEB53FD4FA591B0
:100C6000B4918FB7F894EC91311103C020952E23E5
:100C700001C02E2B2C938FBF0895CF93DF9390E06C
:100C8000FC01E158FD4F2491FC01E152FD4F84919C
:100C9000882361F190E0880F991FFC01E25EFD4F0F
:100CA000C591D491FC01EB53FD4FA591B491611115
:100CB00009C09FB7F8948881209582238883EC919E
:100CC0002E230BC0623061F49FB7F8943881822FD5
:100CD000809583238883EC912E2B2C939FBF06C095
:100CE0008FB7F894E8812E2B28838FBFDF91CF91A7
:100CF00008958F929F92AF92BF92CF92DF92EF9220
:100D0000FF92CF93209120022C3021F02F3F09F049
:100D1000CAC204C0EEE7F2E0C491E7C02CE0209321
:100D20002002EEE7F2E0C491CF3F09F4BCC2C2302A
:100D300009F472C04CF5CC2309F451C0C13009F05C
:100D4000D4C0109280001092810020918100286010
:100D50002093810020918100216020938100EBEE9F
:100D6000F2E0E491F0E0EE0FFF1FEB53FD4F259111
:100D700034913093E7022093E602EBE8F2E0E4914D
:100D8000E093E502C1E0B3C0C43009F48BC00CF4B9
:100D900066C0C53009F0A9C010922001109221014F
:100DA00020912101286020932101209121012160BF
:100DB00020932101EBEEF2E0E491F0E0EE0FFF1F53
:100DC000EB53FD4F259134913093DB022093DA02EF
:100DD000EBE8F2E0E491E093D902C5E088C014BCEE
:100DE00015BC24B5226024BD25B5216025BDEBEEE0
:100DF000F2E0E491F0E0EE0FFF1FEB53FD4F259181
:100E000034913093EA022093E902EBE8F2E0E491B6
:100E1000E093E802C0E06BC01092B0001092B10005
:100E20002091B00022602093B0002091B100216099
:100E30002093B100EBEEF2E0E491F0E0EE0FFF1F43
:100E4000EB53FD4F259134913093E4022093E3025C
:100E5000EBE8F2E0E491E093E202C2E048C01092D5
:100E600090001092910020919100286020939100B1
:100E700020919100216020939100EBEEF2E0E4914B
:100E8000F0E0EE0FFF1FEB53FD4F259134913093AF
:100E9000E1022093E002EBE8F2E0E491E093DF026C
:100EA000C3E025C01092A0001092A1002091A100E3
:100EB00028602093A1002091A10021602093A1002F
:100EC000EBEEF2E0E491F0E0EE0FFF1FEB53FD4F8D
:100ED000259134913093DE022093DD02EBE8F2E0BD
:100EE000E491E093DC02C4E002C0C7FDDCC16C0108
:100EF00061E08CE00E943D06E12CF12C8C2F8D7F6F
:100F000009F0A9C060E072E18AE790E0A7019601CC
:100F10000E94F81549015A01BA01A901415051092D
:100F2000610971094F3F51056105710509F008F428
:100F300045C060E472E48FE090E0A70196010E9452
:100F4000F815BA01A9014150510961097109C2306E
:100F5000E9F44F3F51056105710509F008F4A1C19D
:100F600060E970ED83E090E0A70196010E94F8151A
:100F7000BA01A90141505109610971094F3F510559
:100F80006105710509F0A8F583E05EC04F3F51058A
:100F900061057105A9F0A0F068E478EE81E090E0C9
:100FA000A70196010E94F815BA01A9014150510903
:100FB00061097109CC2309F423C16BC181E001C02F
:100FC00082E0CC2389F040C0D501C4012AE0B59568
:100FD000A795979587952A95D1F7AC01BD0141500A
:100FE00051096109710985E095B5987F892B85BD07
:100FF0008CC068E478EE81E090E0A70196010E9441
:10100000F815BA01A90141505109610971094F3F11
:1010100051056105710509F008F4F0C064E274EF50
:1010200080E090E0A70196010E94F815BA01A9019D
:1010300041505109610971094F3F51056105710521
:1010400011F008F0FCC085E09091B100987F892BE9
:101050008093B10049C060E072E18AE790E0A701A7
:1010600096010E94F815BA01A90141505109610980
:1010700071094115510581E06807710580F068E448
:1010800078EE81E090E0A70196010E94F815BA0180
:10109000A901415051096109710983E001C081E052
:1010A000C13039F490918100987F892B8093810021
:1010B0003EC0C33039F490919100987F892B809382
:1010C00091005DC0C43039F49091A100987F892BC4
:1010D0008093A10069C0C53039F490912101987FB7
:1010E000892B8093210175C0C230B1F134F4CC2337
:1010F00061F0C13009F0D7C01AC0C43009F454C03F
:10110000F4F1C53009F465C0CEC047BD8FEF9FEF45
:10111000DC018093FF0290930003A0930103B0933E
:10112000020380916E00826080936E00BCC0509379
:101130008900409388008FEF9FEFDC018093FB02D2
:101140009093FC02A093FD02B093FE0280916F0089
:10115000826080936F00A7C04093B3008FEF9FEF32
:10116000DC018093F7029093F802A093F902B09308
:10117000FA028091700082608093700094C0509356
:101180009900409398008FEF9FEFDC018093F3026A
:101190009093F402A093F502B093F602809171004F
:1011A0008260809371007FC05093A9004093A80093
:1011B0008FEF9FEFDC018093EF029093F002A093FA
:1011C000F102B093F202809172008260809372000B
:1011D0006AC050932901409328018FEF9FEFDC01F3
:1011E0008093EB029093EC02A093ED02B093EE0299
:1011F0008091730082608093730055C084E024CF97
:101200004F3F510561057105C1F0B8F062E17AE721
:1012100080E090E0A70196010E94F815BA01A901AB
:1012200041505109610971094F3F5105610571052F
:1012300011F008F0C9CE84E0D7CE83E0D5CE62E1CC
:101240007AE780E090E0A70196010E94F815BA01C4
:10125000A90141505109610971094F3F51056105CB
:101260007105A9F0A0F0D501C4013AE0B595A795A4
:10127000979587953A95D1F7AC01BD014150510939
:1012800061097109CC2309F4AECE87E0DDCE86E09A
:1012900098CE4F3F51056105710509F080F684E055
:1012A00090CE82E0D1CECF91FF90EF90DF90CF90A3
:1012B000BF90AF909F908F9008951F93CF93DF932F
:1012C000182FEB0161E00E943D06209711F460E0C9
:1012D00004C0CF3FD10539F461E0812FDF91CF9178
:1012E0001F910C94C005E12FF0E0E85CFD4FE49104
:1012F0004E2F50E0FA013197E231F10508F09DC020
:101300008827ED56FF4F8F4F0C94FE1684B58068EA
:1013100084BDC7BD97C084B5806284BDC8BD92C07E
:1013200080918000806880938000D0938900C09372
:10133000880088C080918000806280938000D09374
:101340008B00C0938A007EC080918000886080936B
:101350008000D0938D00C0938C0074C08091B00049
:1013600080688093B000C093B3006CC08091B000DF
:1013700080628093B000C093B40064C080919000FC
:10138000806880939000D0939900C09398005AC0D1
:1013900080919000806280939000D0939B00C093D6
:1013A0009A0050C080919000886080939000D09304
:1013B0009D00C0939C0046C08091A00080688093EF
:1013C000A0008091A0008F7B8093A000D093A90003
:1013D000C093A80037C08091A00080628093A000D5
:1013E000D093AB00C093AA002DC08091A00088606C
:1013F0008093A000D093AD00C093AC0023C0809137
:101400002001806880932001D0932901C093280196
:1014100019C080912001806280932001D0932B011C
:10142000C0932A010FC08091200188608093200121
:10143000D0932D01C0932C0105C0C038D1050CF00C
:101440004BCF45CFDF91CF911F910895863308F0A0
:10145000865390917B00282F2870977F922B909332
:101460007B008770806480937C0080917A00806428
:1014700080937A0080917A0086FDFCCF809178007D
:101480002091790090E0922B08953FB7F8948091D5
:10149000D5029091D602A091D702B091D80226B57C
:1014A000A89B05C02F3F19F00196A11DB11D3FBF9C
:1014B000BA2FA92F982F8827820F911DA11DB11D2A
:1014C000BC01CD0142E0660F771F881F991F4A9526
:1014D000D1F708958F929F92AF92BF92CF92DF92F1
:1014E000EF92FF926B017C010E94450A4B015C0167
:1014F000C114D104E104F104F1F00E94450ADC01B9
:10150000CB0188199909AA09BB09883E9340A10516
:10151000B10570F321E0C21AD108E108F10888EEA4
:10152000880E83E0981EA11CB11CC114D104E104F3
:10153000F10419F7DDCFFF90EF90DF90CF90BF90CF
:10154000AF909F908F9008952FB7F8946091D1023B
:101550007091D2028091D3029091D4022FBF08954E
:101560001F920F920FB60F9211242F933F938F93D8
:101570009F93AF93BF938091D1029091D202A0919B
:10158000D302B091D4023091D00223E0230F2D3743
:1015900020F40196A11DB11D05C026E8230F029677
:1015A000A11DB11D2093D0028093D1029093D2024D
:1015B000A093D302B093D4028091D5029091D60229
:1015C000A091D702B091D8020196A11DB11D8093C0
:1015D000D5029093D602A093D702B093D802BF91C0
:1015E000AF919F918F913F912F910F900FBE0F90D0
:1015F0001F9018951F920F920FB60F9211240BB6E1
:101600000F922F933F934F935F936F937F938F939B
:101610009F93AF93BF93EF93FF93E0911E02F091DE
:101620001F021995FF91EF91BF91AF919F918F91FB
:101630007F916F915F914F913F912F910F900BBED2
:101640000F900FBE0F901F9018951F920F920FB61C
:101650000F9211240BB60F922F933F934F935F93EA
:101660006F937F938F939F93AF93BF93EF93FF936A
:10167000E0911C02F0911D021995FF91EF91BF912D
:10168000AF919F918F917F916F915F914F913F911A
:101690002F910F900BBE0F900FBE0F901F901895BB
:1016A0001F920F920FB60F9211240BB60F922F9329
:1016B0003F934F935F936F937F938F939F93AF93DA
:1016C000BF93EF93FF93E0911202F09113021995EB
:1016D000FF91EF91BF91AF919F918F917F916F910A
:1016E0005F914F913F912F910F900BBE0F900FBEC6
:1016F0000F901F9018951F920F920FB60F92112402
:101700000BB60F922F933F934F935F936F937F93FB
:101710008F939F93AF93BF93EF93FF93E09110024A
:10172000F09111021995FF91EF91BF91AF919F91A7
:101730008F917F916F915F914F913F912F910F907A
:101740000BBE0F900FBE0F901F9018951F920F9217
:101750000FB60F9211240BB60F922F933F934F9316
:101760005F936F937F938F939F93AF93BF93EF9309
:10177000FF93E0911A02F0911B021995FF91EF91EE
:10178000BF91AF919F918F917F916F915F914F9199
:101790003F912F910F900BBE0F900FBE0F901F9097
:1017A00018951F920F920FB60F9211240BB60F923D
:1017B0002F933F934F935F936F937F938F939F9359
:1017C000AF93BF93EF93FF93E0911802F09119024A
:1017D0001995FF91EF91BF91AF919F918F917F915B
:1017E0006F915F914F913F912F910F900BBE0F9092
:1017F0000FBE0F901F9018951F920F920FB60F9269
:1018000011240BB60F922F933F934F935F936F93D7
:101810007F938F939F93AF93BF93EF93FF93E09149
:101820001602F09117021995FF91EF91BF91AF91B8
:101830009F918F917F916F915F914F913F912F91E8
:101840000F900BBE0F900FBE0F901F9018951F9218
:101850000F920FB60F9211240BB60F922F933F9356
:101860004F935F936F937F938F939F93AF93BF93A8
:10187000EF93FF93E0911402F09115021995FF91F7
:10188000EF91BF91AF919F918F917F916F915F91F8
:101890004F913F912F910F900BBE0F900FBE0F9065
:1018A0001F901895EF92FF920F931F93CF93DF93A2
:1018B000EC01198218821B821A821D821C8261151A
:1018C0007105A9F17B01FB0101900020E9F7319737
:1018D0008F01061B170BB8016F5F7F4F80E090E010
:1018E0000E943318009759F0998388831B830A83D9
:1018F0002C813D81232B81F4FC0110820DC0888155
:101900009981009711F00E949B17198218821D82FD
:101910001C821B821A820BC01D830C83B701DF91CE
:10192000CF911F910F91FF90EF900C942A19DF91A6
:10193000CF911F910F91FF90EF9008959091200209
:1019400098133DC0EEE7F2E0E4919FEF9093200200
:10195000E230C9F050F4EE2399F0E13081F5909136
:101960006F009D7F90936F002AC0E43019F1E0F082
:10197000E53029F5909173009D7F909373001FC00F
:1019800010926E001CC0909170009D7F909370002B
:1019900091E09093B0009091B100987F9460909303
:1019A000B1001092B3000BC0909171009D7F909395
:1019B000710005C0909172009D7F9093720060E06D
:1019C0000C94C0051F920F920FB60F9211240BB604
:1019D0000F922F933F934F935F936F937F938F93C8
:1019E0009F93AF93BF93EF93FF938091F7029091F2
:1019F000F802A091F902B091FA02892B8A2B8B2B65
:101A000051F18091E202E091E302F091E4029081D1
:101A1000892780838091F7029091F802A091F902C2
:101A2000B091FA02181619061A061B06C4F4809122
:101A3000F7029091F802A091F902B091FA02019791
:101A4000A109B1098093F7029093F802A093F902DB
:101A5000B093FA0204C0809120020E949E0CFF9174
:101A6000EF91BF91AF919F918F917F916F915F9116
:101A70004F913F912F910F900BBE0F900FBE0F9083
:101A80001F901895EF92FF920F931F93CF93DF93C0
:101A9000EC01623018F08F8588608F876B8B1C8A11
:101AA00080E48D8B80E18E8B80E58F8B61E08C8173
:101AB0000E943D068D818F3F19F061E00E943D0636
:101AC00061E08E810E943D067E0187E0E80EF11CF8
:101AD00000E010E08F8584FD03C084E090E002C048
:101AE00088E090E0081719074CF461E0F701819154
:101AF0007F010E943D060F5F1F4FECCF8BE39DE0FF
:101B00000197F1F760E08C810E94C00560E08E8152
:101B10000E94C0058D818F3F19F060E00E94C005D2
:101B20006F8564FD1DC063E0CE010E94E3040BE4F9
:101B300016E4C8010197F1F763E0CE010E94E304C7
:101B4000C8010197F1F763E0CE010E94E30483E549
:101B500092E00197F1F762E0CE010E94E30416C023
:101B60006062CE010E9469058BE496E40197F1F76B
:101B70006F856062CE010E94690583E592E001975E
:101B8000F1F76F856062CE010E9469056F85606222
:101B9000CE010E94690584E0888B6CE0CE010E9432
:101BA000690561E0CE010E9469058BE39FE1019721
:101BB000F1F782E0898B66E0CE01DF91CF911F9132
:101BC0000F91FF90EF900C9469051092D40310923E
:101BD000D30322273327281B390B3093D2032093BA
:101BE000D10390930603809305039093040380939D
:101BF00003030895009769F0FC0101900020E9F7C4
:101C00003197AF01481B590BBC0187E093E00C945E
:101C1000930580E090E008950F931F93CF93DF9397
:101C2000CDB7DEB729970FB6F894DEBF0FBECDBF94
:101C30008091AC039091AD03892B09F4A1C00E945F
:101C4000450A0091B2031091B3032091B40330917F
:101C5000B503DC01CB01801B910BA20BB30BC29728
:101C6000A105B10560F3F8948091A8039091A903B0
:101C70009A838983E091AC03F091AD03DF01119663
:101C8000808189879091A403E091B603F091B70316
:101C90008091B803992309F42EC09081982B9887DE
:101CA0009081809589238F838F818C8388E08B83BB
:101CB00058856F8149853B812C8189819A81508328
:101CC00047FD252F3A952083262F39F0441F00C069
:101CD00000006083000000C0F2CF38E04D916083C7
:101CE0000000019761F7F093B703E093B6034987CB
:101CF0003B832C8338C09081982B98879081809566
:101D000089238F838F818E8388E08D8358856F81AF
:101D100049853D812E8189819A81508347FD252FF8
:101D200000C000C0208300C000C000C000C000C0D0
:101D300060830000262F3A9541F0441F000000C048
:101D400000C000C000C000C0E8CF38E04D9100C026
:101D5000608300C0019709F7F093B703E093B603DF
:101D600049873D832E839A83898378940E94450A0C
:101D70006093B2037093B3038093B4039093B5035D
:101D800029960FB6F894DEBF0FBECDBFDF91CF917D
:101D90001F910F9108958F929F92AF92BF92CF9211
:101DA000DF92EF92FF922091A6033091A703821752
:101DB000930708F052C04B01AA24BB24E82DC52E7E
:101DC000D62EE72EFF24FC2D342F2091AB032223A7
:101DD00061F0829E40011124E92DC29E6001112410
:101DE000FD2D429FD00111243B2FF090B103E090D4
:101DF000AE03A091AC03B091AD03FE1008C0AC01DE
:101E0000440F551F840F951F8A0F9B1F14C0880F06
:101E1000991F880F991F8A0F9B1F472F55276627E9
:101E20007727DC01AF0DB11D222321F0429FA001D5
:101E30001124452F4C932091AE03DC01A20FB11D5C
:101E4000EC932091AF03DC01A20FB11DFC93209114
:101E5000B003FC01E20FF11D3083FF90EF90DF90A3
:101E6000CF90BF90AF909F908F900895CF93DF93C6
:101E700000D000D0CDB7DEB7789484B5826084BD41
:101E800084B5816084BD85B5826085BD85B581607E
:101E900085BD80916E00816080936E0010928100FC
:101EA00080918100826080938100809181008160B7
:101EB0008093810080918000816080938000809178
:101EC000B10084608093B1008091B0008160809304
:101ED000B000809191008260809391008091910088
:101EE0008160809391008091900081608093900048
:101EF0008091A10082608093A1008091A100816007
:101F00008093A1008091A00081608093A0008091C7
:101F10002101826080932101809121018160809361
:101F200021018091200181608093200180917A00BD
:101F3000846080937A0080917A00826080937A0036
:101F400080917A00816080937A0080917A00806825
:101F500080937A001092C100E0911703F09118036A
:101F600082E08083E0911303F09114031082E091EA
:101F70001503F09116038FEC808310921F03E091FC
:101F80001B03F0911C0386E08083E0911903F0911C
:101F90001A03808180618083E0911903F0911A0314
:101FA000808188608083E0911903F0911A03808119
:101FB00080688083E0911903F0911A0380818F7DFE
:101FC000808360E08DE30E943D0660E08CE30E9428
:101FD0003D0660E08BE30E943D0660E08AE30E94DC
:101FE0003D0664E670E080E090E00E946A0A0BE241
:101FF00012E0ECE9EE2EE2E0FE2EF2E003331F07E2
:1020000089F0F80180810E5F1F4F0E94260AF701B8
:10201000819391937F016AE070E080E090E00E94FC
:102020006A0AEBCF61E089E00E943D0661E08AE048
:102030000E943D0661E086E00E943D0661E085E089
:102040000E943D0660E087E30E943D0660E086E373
:102050000E943D0662E088E30E943D0668EE73E060
:1020600080E090E00E946A0A87E30E94260A8C01C1
:102070009093AB028093AA0286E30E94260A909373
:10208000A9028093A802000F111F1093A7020093CA
:10209000A6029C01220F331F3093A5022093A402B5
:1020A00061E08EE10E943D0661E080E20E943D0613
:1020B00061E086E10E943D0661E088E10E943D0604
:1020C00061E08AE10E943D0661E08CE10E943D06EC
:1020D00062E089EB93E00E94420D61E08CE00E9497
:1020E0003D068CE00E949E0C61E08CE00E94C005E1
:1020F0008091AA0387FD08C061E00E943D0660E070
:102100008091AA030E94C00581E08093A50360E04E
:1021100082E00E943D0688EC91E09093110280934A
:10212000100280916A008C7F826080936A00EC9A32
:1021300040E1442E47E2542E612C712C58E7252EA5
:10214000312C61E070E080E090E00E946A0A0E9419
:10215000A40A6B017C010E940D030E94D2028091AF
:10216000CF028F30A1F08091CB029091CC02A09150
:10217000CD02B091CE02A7019601281B390B4A0B64
:102180005B0B2431310541055105C0F5FBC20E94AE
:10219000F01428EE33E040E050E00E94F815643F70
:1021A0007140810591051CF08FEF9FEF02C081E027
:1021B00090E040E75EEF849F8001859F100D949F23
:1021C000100D112420E931E0829F5001839FB00C53
:1021D000929FB00C11248091CF02882321F2B092FB
:1021E0000603A092050310930403009303030E94C7
:1021F000D4030E940D030E94D202EDCFC092CB0205
:10220000D092CC02E092CD02F092CE0200910E026A
:1022100010910F020230110509F427C10430110595
:1022200009F478C20130110509F0ACC260E572E032
:10223000CE0101960E94520CCE0101960E946C05BF
:1022400089819A810E949B1780910A0290910B02CA
:10225000A0910C02B0910D02C816D906EA06FB0641
:1022600020F10E94F014A30192010E94F815C60EFD
:10227000D71EE81EF91EC0920A02D0920B02E0920D
:102280000C02F0920D0280910E0290910F020197C4
:1022900011F402E010E010930F0200930E0280E0B0
:1022A00090E00E94E50D0E94D4030E94A40A0091D0
:1022B000C4021091C5022091C6023091C702DC0110
:1022C000CB01801B910BA20BB30B88379105A105A5
:1022D000B10510F10E94A40A6093C4027093C50274
:1022E0008093C6029093C7022091080230910902A0
:1022F0008091C8029091C902820F931F9093C902E6
:102300008093C8020197069718F0319521953109FD
:10231000309309022093080204EB12E0E12CF12C27
:102320008091C8029091C902F801E816F90619F4E3
:102330003182208213C0808191818A30910534F0EE
:102340008A30F1E09F072CF40A9705C080E090E006
:1023500002C08FEF90E0F80191838083F8018081C3
:102360000E5F1F4F90E0A0E0B0E05C01992488244C
:102370004427582F692F7A2F482959296A297B2900
:10238000482B592B6A2B7B2BC7010E94CB0EFFEFEA
:10239000EF1AFF0A28E0E216F10411F60E940C0E73
:1023A0008CE00E949E0C61E08CE00E94C005809150
:1023B000CF0290E08F30910508F04AC0FC018827D9
:1023C000EE58FF4F8F4F0C94FE1680E991E00E946B
:1023D000E50D46C040E75EEF5093060340930503CA
:1023E0000DC080E79EEF909306038093050306C01F
:1023F000E0E7FEEFF0930603E093050380E991E048
:1024000022C080E991E0909306038093050320E7C2
:102410003EEF309304032093030322C080E991E050
:10242000909306038093050340E75EEF5093040307
:102430004093030315C080E991E0909306038093D5
:10244000050380E79EEF909304038093030308C085
:1024500010920603109205031092040310920303D6
:102460000E94D4030E94D4038DC16AE572E0CE01BC
:1024700001960E94520CCE0101960E946C05898142
:102480009A810E949B170E94A40A4B015C018091D3
:10249000B0029091B102A091B202B091B302B50125
:1024A000A401481B590B6A0B7B0B8091040290918D
:1024B0000502A0910602B0910702481759076A0762
:1024C0007B0740F10E94F01424E630E040E050E049
:1024D0000E94F8156093040270930502809306022F
:1024E000909307028092B0029092B102A092B20241
:1024F000B092B3020E94F01428EB3BE040E050E0C1
:102500000E94F815DC01CB0188519C4FAF4FBF4FA3
:102510000E9479068091AC029091AD02A091AE022A
:10252000B091AF02B501A401481B590B6A0B7B0B9C
:102530008091000290910102A0910202B0910302E9
:10254000481759076A077B0768F10E94F0142CEDC1
:1025500035E040E050E00E94F815DC01CB014496E4
:10256000A11DB11D8093000290930102A09302026D
:10257000B09303028092AC029092AD02A092AE02A0
:10258000B092AF020E94F01428EB3BE040E050E034
:102590000E94F815DC01CB0188519C4FAF4FBF4F13
:1025A0000E9479068091CA0281112EC01092C90240
:1025B0001092C80281E090E0909309028093080293
:1025C00094EBE92E92E0F92E00E010E0F701119271
:1025D00011927F0140E050E06FEF70E0C8010E946F
:1025E000CB0E0F5F1F4F0830110581F70E940C0EB4
:1025F00081E08093CA028DE692E00E94FA0D8DE49C
:1026000092E00E94FA0DBEC0A12CB12C0091C8022C
:102610001091C902A016B10639F440E05FEF60E006
:1026200070E0C5010E94CB0EFFEFAF1ABF0A28E091
:10263000A216B10459F78091C4029091C502A091ED
:10264000C602B091C702A7019601281B390B4A0B9D
:102650005B0BDA01C901803D9740A105B10508F483
:1026600056C0C092C402D092C502E092C602F09257
:10267000C7020F5F1F4F1093C9020093C8020930B1
:10268000110508F444C084E090E090930F02809319
:102690000E021092CA021092C9021092C80281E082
:1026A00090E0909309028093080284EBA82E82E0C8
:1026B000B82E00E010E0F501119211925F0140E0A8
:1026C00050E0BA01C8010E94CB0E0F5F1F4F0830C7
:1026D000110589F70E940C0E8CE00E949E0C61E0AF
:1026E0008CE00E94C005C701B6010E94FD1420E0E5
:1026F00030E44CE955E40E945C160E94CF166093CA
:102700000A0270930B0280930C0290930D020E94B8
:102710000C0E38C06BE772E0CE0101960E94520C9D
:10272000CE0101960E946C0589819A810E949B17B7
:102730000E94F014A30192010E94F8150E94FF1458
:1027400020E030E84BE355E40E945C160E94CF166F
:102750000E946A0A0E94F014A30192010E94F815D7
:10276000C60ED71EE81EF91EC0920A02D0920B02B6
:10277000E0920C02F0920D0281E090E090930F0243
:1027800080930E020E949902DCCC8091AC03909160
:10279000AD03009711F00E949B178091AA0387FD5B
:1027A00003C060E00C943D060895CF9310920A0395
:1027B0001092090388EE93E0A0E0B0E080930B0351
:1027C00090930C03A0930D03B0930E0387E392E064
:1027D000909308038093070385EC90E09093140393
:1027E0008093130384EC90E0909316038093150379
:1027F00080EC90E0909318038093170381EC90E0B5
:1028000090931A038093190382EC90E090931C0339
:1028100080931B0386EC90E090931E0380931D032E
:10282000109220031092210310922203109223038E
:102830001092BC031092BB0387E492E09093BA031A
:102840008093B9038EE18093BD038FEF8093BE0325
:1028500080E28093BF0386E18093C003C8E1C09308
:10286000C1038AE18093C2038CE18093C303109279
:10287000C4031092C5031092C6031092C7031092AE
:10288000C80361E089EB93E00E94420D1092A5031A
:102890001092AB031092B2031092B3031092B403E0
:1028A0001092B50381E08093B1038093AE03109240
:1028B000AF0392E09093B0038093A40388E190E08B
:1028C0009093A9038093A8030E9406179093AD03E9
:1028D0008093AC03009759F0FC011192CA95E9F777
:1028E00088E090E09093A7038093A60308C010921D
:1028F000A9031092A8031092A7031092A60387E0E1
:102900008093AA038091A503882341F061E087E0CA
:102910000E943D0660E087E00E94C005E6EEF2E01E
:10292000E491F0E0EE0FFF1FEB53FD4F8591949182
:102930009093B7038093B603E6E8F2E0E491E09366
:10294000B803CF9108958F929F92AF92BF92CF928A
:10295000DF92EF92FF92CF93DF93EC016881798150
:102960008A819B81611571058105910521F464E2DD
:1029700079ED8BE597E02DE133EF41E050E00E94E7
:10298000F81549015A019B01AC01A7EAB1E40E9484
:1029900017166B017C01ACEEB4EFA50194010E9407
:1029A0002516DC01CB018C0D9D1DAE1DBF1DB7FF93
:1029B00003C00197A109B04888839983AA83BB8388
:1029C000BC01CD019F77DF91CF91FF90EF90DF9019
:1029D000CF90BF90AF909F908F9008950C94A314C8
:1029E00081E292E00C94A31460932102709322027E
:1029F00080932302909324020895E89409C097FBE2
:102A00003EF490958095709561957F4F8F4F9F4FC5
:102A10009923A9F0F92F96E9BB279395F695879509
:102A200077956795B795F111F8CFFAF4BB0F11F4CC
:102A300060FF1BC06F5F7F4F8F4F9F4F16C0882373
:102A400011F096E911C0772321F09EE8872F762FA9
:102A500005C0662371F096E8862F70E060E02AF0EA
:102A60009A95660F771F881FDAF7880F96958795D6
:102A700097F908950E944D150C94BE150E94B0154B
:102A800038F00E94B71520F0952311F00C94A7158B
:102A90000C94AD1511240C94F2150E94CF1570F30F
:102AA000959FC1F3950F50E0551F629FF001729FF3
:102AB000BB27F00DB11D639FAA27F00DB11DAA1F02
:102AC000649F6627B00DA11D661F829F2227B00D4F
:102AD000A11D621F739FB00DA11D621F839FA00DDA
:102AE000611D221F749F3327A00D611D231F849F2A
:102AF000600D211D822F762F6A2F11249F57504081
:102B00009AF0F1F088234AF0EE0FFF1FBB1F661FFB
:102B1000771F881F91505040A9F79E3F510580F0C4
:102B20000C94A7150C94F2155F3FE4F3983ED4F390
:102B3000869577956795B795F795E7959F5FC1F768
:102B4000FE2B880F911D9695879597F9089597F913
:102B50009F6780E870E060E008959FEF80EC089543
:102B600000240A941616170618060906089500246C
:102B70000A9412161306140605060895092E0394E6
:102B8000000C11F4882352F0BB0F40F4BF2B11F45A
:102B900060FF04C06F5F7F4F8F4F9F4F089557FDB9
:102BA0009058440F551F59F05F3F71F04795880FBB
:102BB00097FB991F61F09F3F79F087950895121652
:102BC00013061406551FF2CF4695F1DF08C01616FE
:102BD00017061806991FF1CF8695710561050894AF
:102BE0000895E894BB2766277727CB0197F90895C6
:102BF000052E97FB1EF400940E940F1657FD07D078
:102C00000E942A1607FC03D04EF40C940F16509520
:102C10004095309521953F4F4F4F5F4F08959095C8
:102C20008095709561957F4F8F4F9F4F08950E94BB
:102C30004C16A59F900DB49F900DA49F800D911DE3
:102C400011240895B7FF0C9417160E941716821BC3
:102C5000930B0895A1E21A2EAA1BBB1BFD010DC008
:102C6000AA1FBB1FEE1FFF1FA217B307E407F5073C
:102C700020F0A21BB30BE40BF50B661F771F881F18
:102C8000991F1A9469F760957095809590959B01AE
:102C9000AC01BD01CF010895A29FB001B39FC00157
:102CA000A39F700D811D1124911DB29F700D811D78
:102CB0001124911D08955058BB27AA270E9473160E
:102CC0000C94BE150E94B01538F00E94B71520F084
:102CD00039F49F3F19F426F40C94AD150EF4E095E9
:102CE000E7FB0C94A715E92F0E94CF1558F3BA17EC
:102CF000620773078407950720F079F4A6F50C9412
:102D0000F1150EF4E0950B2EBA2FA02D0B01B90191
:102D100090010C01CA01A0011124FF27591B99F051
:102D2000593F50F4503E68F11A16F040A22F232F5D
:102D3000342F4427585FF3CF469537952795A795AD
:102D4000F0405395C9F77EF41F16BA0B620B730B54
:102D5000840BBAF09150A1F0FF0FBB1F661F771FC5
:102D6000881FC2F70EC0BA0F621F731F841F48F47A
:102D7000879577956795B795F7959E3F08F0B0CF03
:102D80009395880F08F09927EE0F979587950895EA
:102D90000E94CF166894B1110C94F21508950E9408
:102DA000D71588F09F5798F0B92F9927B751B0F0F1
:102DB000E1F0660F771F881F991F1AF0BA95C9F7BF
:102DC00014C0B13091F00E94F115B1E008950C9457
:102DD000F115672F782F8827B85F39F0B93FCCF30A
:102DE000869577956795B395D9F73EF4909580953C
:102DF000709561957F4F8F4F9F4F0895EE0FFF1F86
:102E0000881F8BBF0790F691E02D1994CF93DF9325
:102E10008230910510F482E090E0E091D703F091C8
:102E2000D80320E030E0C0E0D0E0309711F14081DD
:102E3000518148175907C0F04817590761F482813A
:102E40009381209719F09B838A832BC09093D8039A
:102E50008093D70326C02115310519F04217530777
:102E600018F49A01BE01DF01EF010280F381E02D29
:102E7000DCCF2115310509F1281B390B2430310530
:102E800090F412968D919C9113976115710521F024
:102E9000FB019383828304C09093D8038093D7036C
:102EA000FD01329644C0FD01E20FF31F819391931F
:102EB000225031092D933C933AC02091D503309193
:102EC000D603232B41F4209127023091280230931E
:102ED000D6032093D5032091250230912602211597
:102EE000310541F42DB73EB74091290250912A0295
:102EF000241B350BE091D503F091D603E217F307BD
:102F0000A0F42E1B3F0B2817390778F0AC014E5F59
:102F10005F4F2417350748F04E0F5F1F5093D603BD
:102F20004093D5038193919302C0E0E0F0E0CF019C
:102F3000DF91CF9108950F931F93CF93DF93009765
:102F400009F48CC0FC013297138212820091D703DE
:102F50001091D8030115110581F420813181820F70
:102F6000931F2091D5033091D6032817390779F59F
:102F7000F093D603E093D50371C0D80140E050E050
:102F8000AE17BF0750F412962D913C911397AD01E7
:102F90002115310509F1D901F3CF9D01DA01338300
:102FA000228360817181860F971F8217930769F4CE
:102FB000EC0128813981260F371F2E5F3F4F318367
:102FC00020838A819B8193838283452B29F4F0930C
:102FD000D803E093D70342C01396FC93EE93129765
:102FE000ED01499159919E01240F351FE217F30716
:102FF00071F480819181840F951F029611969C93A4
:103000008E938281938113969C938E931297E0E026
:10301000F0E0D80112968D919C911397009719F0CA
:10302000F8018C01F6CF8D919C9198012E5F3F4F56
:10303000820F931F2091D5033091D60328173907AB
:1030400069F4309729F41092D8031092D70302C084
:10305000138212821093D6030093D503DF91CF9190
:103060001F910F9108956F927F928F929F92AF92CE
:10307000BF92CF92DF92EF92FF920F931F93CF9365
:10308000DF93EC01009789F4CB01DF91CF911F9181
:103090000F91FF90EF90DF90CF90BF90AF909F90F7
:1030A0008F907F906F900C940617FC01E60FF71F2E
:1030B0009C0122503109E217F30708F4ACC0D90192
:1030C0000D911C91119706171707B0F005301105E7
:1030D00008F49FC0C80104978617970708F499C0A1
:1030E00002501109061B170B019311936D937C93EA
:1030F000CF010E949B178DC05B01A01AB10A4C0141
:10310000800E911EA091D703B091D80340E050E00B
:10311000E12CF12C109709F44AC0A815B905D1F596
:103120006D907C901197630182E0C80ED11CCA1487
:10313000DB0480F1A3014A195B096A0182E0C80E31
:10314000D11C1296BC9012971396AC91B5E0CB1699
:10315000D10440F0B282A38351834083D9016D939F
:103160007C930AC00E5F1F4FC301800F911FF901AE
:1031700091838083EB2DFA2FE114F10431F0D70114
:103180001396FC93EE93129744C0F093D803E09308
:10319000D7033FC08D919C9111974817590708F4A8
:1031A000AC017D0112960D90BC91A02DB3CF809102
:1031B000D5039091D60388159905E1F44617570772
:1031C000C8F48091250290912602009741F48DB7B2
:1031D0009EB74091290250912A02841B950BE81753
:1031E000F907C8F4F093D603E093D503F90171838E
:1031F00060830FC0CB010E9406177C01009759F035
:10320000A801BE010E942119CE010E949B17C7018F
:1032100004C0CE0102C080E090E0DF91CF911F9109
:103220000F91FF90EF90DF90CF90BF90AF909F9065
:103230008F907F906F90089581E090E0F8940C94C7
:103240003119FB01DC0102C001900D924150504048
:10325000D8F70895FB01DC0101900D920020E1F701
:10326000089511E0C4E9D1E000E006C0802FFE011E
:103270000E94FE162196011DC539D10780E008077E
:06328000A9F7F894FFCF4E
:10328600E8030000E8030000010010270000010029
:103296009205920592059205920592059205920570
:1032A600FF010000000000D90380003D003C003B08
:1032B600003A000000000030029305F901D701EB47
:1032C600017702000000006305930509000D0A005E
:1032D600524F424F543A20474F00524F424F543AB2
:1032E60020444F574E4C4F4144494E470072657338
:1032F6006574696E67206C65647300524F424F5463
:0A3306003A2057414954494E470050
:00000001FF
