:100000000C947B010C94AC010C94AC010C94AC01ED
:100010000C94AC010C94AC010C94AC010C94AC01AC
:100020000C94AC010C94AC010C94AC010C94AC019C
:100030000C94AC010C94AC010C94AC010C94AC018C
:100040000C94AC010C94AC010C94AC010C94AC017C
:100050000C94AC010C94AC010C94AC010C945308BE
:100060000C94AC010C941B090C94F1080C94AC0199
:100070000C94AC010C94AC010C94AC010C94AC014C
:100080000C94AC010C94AC010C94AC010C94AC013C
:100090000C94C7080C949D080C94AC010C94AC0112
:1000A0000C94AC010C94AC010C94AC010C94AC011C
:1000B0000C94AC010C94AC010C94AC010C94AC010C
:1000C0000C94AC010C94AC010C94AC010C94AC01FC
:1000D0000C94AC010C94AC010C94AC010C94AC01EC
:1000E0000C94AC01C901CC01BB01BF01C5010302E5
:1000F000D001D401DA01DE01E201E801EC01F001F6
:100100000302F601FA01FE0199029E02A302AD026A
:10011000B7023003C102C902D102DB02E502EF02DD
:10012000FE020803300312031C0326030C94F6019D
:100130000C94C9020C949E020C94D4010C94DB0222
:100140000C94A3020C94FA010C94B7020C94FE01D7
:100150000C94EF020C9408030C9445090C94EC01E8
:100160000C9430030C940F040C94BB010C94920576
:100170000C945E040C94F0010C9426030C94E8019A
:100180000C9412030C94D1020C94C5010C94C1027E
:100190000C94FE020C94DA010C94FB030C941D04E5
:1001A0000C94B7030C94CC010C9403020C94D00172
:1001B0000C94DE010C94C9010C94E2010C941C0314
:1001C0000C94E5020C94A5040C94AD020C949902D5
:1001D0000C94BF01000020002300260029002C0001
:1001E0002F00320000010000030106010901000098
:1001F0002100240027002A002D00300033000101D7
:100200000000040107010A01000022002500280067
:100210002B002E003100340002010000050108010E
:100220000B0105050505070508080808020202027A
:100230000A0A080804040404010101010101010182
:100240000303030303030303040707070C0C0C0C4D
:100250000C0C0C0C02020202060606060606060636
:100260000B0B0B0B0B0B0B0B0102102020080810C3
:100270002040102040800201020108040201010216
:1002800004081020408080402010080402018004EF
:10029000020180402010080402010804020101024A
:1002A0000408102040800102040810204080000053
:1002B0000A0B02090C0D0E080703040100000000E0
:1002C000000000000000000000000000000000002E
:1002D00000000000000000000000121110000000EB
:1002E000000000000000000000000000000000000E
:1002F00000000000450911241FBECFEFD1E2DEBF90
:10030000CDBF00E00CBF12E0A0E0B2E0E0E0F1E21F
:1003100000E00BBF02C007900D92A634B107D9F7D9
:1003200026E0A6E4B2E001C01D92A638B207E1F7CC
:1003300011E0CBE7D1E000E006C021970109802F52
:10034000FE010E944B0ECA37D10780E00807A9F7CB
:100350000E94240A0C947E100C94000090E0FC0192
:100360003197E231F10508F04EC08827EE58FF4F73
:100370008F4F0C944B0E809180008F7703C080913B
:1003800080008F7D80938000089580918000877F1A
:10039000F9CF84B58F7702C084B58F7D84BD089571
:1003A0008091B0008F7703C08091B0008F7D8093E3
:1003B000B0000895809190008F7707C080919000E1
:1003C0008F7D03C080919000877F80939000089577
:1003D0008091A0008F7707C08091A0008F7D03C01F
:1003E0008091A000877F8093A000089580912001D4
:1003F0008F7707C0809120018F7D03C080912001FD
:10040000877F8093200108951F93CF93DF93282F38
:1004100030E0F901E255FD4F8491F901E859FD4FB3
:10042000D491F901EE5DFD4FC491CC23C9F0162F94
:1004300081110E94AE01EC2FF0E0EE0FFF1FE85F8C
:10044000FD4FA591B4918FB7F894111105C09C91FF
:10045000ED2FE095E92302C0EC91ED2BEC938FBFDB
:10046000DF91CF911F910895CF93DF9390E0FC012E
:10047000E859FD4F2491FC01EE5DFD4F84918823E6
:1004800061F190E0880F991FFC01E251FE4FC59188
:10049000D491FC01E85FFD4FA591B491611109C0B1
:1004A0009FB7F8948881209582238883EC912E232E
:1004B0000BC0623061F49FB7F8943881822F809529
:1004C00083238883EC912E2B2C939FBF06C08FB77C
:1004D000F894E8812E2B28838FBFDF91CF91089568
:1004E0001F93CF93DF93182FEB0161E00E9434023A
:1004F000209711F460E004C0CF3FD10539F461E0EA
:10050000812FDF91CF911F910C940402E12FF0E035
:10051000E255FD4FE4914E2F50E0FA013197E23160
:10052000F10508F09DC08827EC57FF4F8F4F0C94C2
:100530004B0E84B5806884BDC7BD97C084B580620A
:1005400084BDC8BD92C08091800080688093800087
:10055000D0938900C093880088C080918000806219
:1005600080938000D0938B00C0938A007EC08091DE
:100570008000886080938000D0938D00C0938C00B1
:1005800074C08091B00080688093B000C093B300C5
:100590006CC08091B00080628093B000C093B400C2
:1005A00064C080919000806880939000D0939900FF
:1005B000C09398005AC08091900080628093900010
:1005C000D0939B00C0939A0050C0809190008860A7
:1005D00080939000D0939D00C0939C0046C0809172
:1005E000A00080688093A0008091A0008F7B809302
:1005F000A000D093A900C093A80037C08091A000AC
:1006000080628093A000D093AB00C093AA002DC05D
:100610008091A00088608093A000D093AD00C0932B
:10062000AC0023C080912001806880932001D0938A
:100630002901C093280119C0809120018062809314
:100640002001D0932B01C0932A010FC0809120017B
:10065000886080932001D0932D01C0932C0105C0A8
:10066000C038D1050CF04BCF45CFDF91CF911F9112
:100670000895863308F0865390917B00282F2870C8
:10068000977F922B90937B008770806480937C008F
:1006900080917A00806480937A0080917A0086FD50
:1006A000FCCF809178002091790090E0922B089502
:1006B0003FB7F8948091700290917102A0917202FC
:1006C000B091730226B5A89B05C02F3F19F0019683
:1006D000A11DB11D3FBFBA2FA92F982F8827820FC8
:1006E000911DA11DB11DBC01CD0142E0660F771F18
:1006F000881F991F4A95D1F708958F929F92AF92C4
:10070000BF92CF92DF92EF92FF926B017C010E9429
:1007100058034B015C01C114D104E104F104F1F070
:100720000E945803DC01CB0188199909AA09BB0969
:10073000883E9340A105B10570F321E0C21AD108AB
:10074000E108F10888EE880E83E0981EA11CB11C18
:10075000C114D104E104F10419F7DDCFFF90EF904B
:10076000DF90CF90BF90AF909F908F900895CF92E1
:10077000DF92EF92FF920F931F93CF93DF936C0161
:100780007A018B01C0E0D0E0CE15DF0589F0D801F9
:100790006D918D01D601ED91FC910190F081E02DDC
:1007A000C6011995892B11F47E0102C02196ECCF68
:1007B000C701DF91CF911F910F91FF90EF90DF90D4
:1007C000CF900895FC01A089B1898C91A689B78941
:1007D00082FD0FC09C91818D8F5F8F73228D821758
:1007E00049F0218DDF01A20FB11D5D969C93818F91
:1007F00008958C910895FC01918D828D981761F078
:10080000828DDF01A80FB11D5D968C91928D9F5F47
:100810009F73928F90E008958FEF9FEF0895FC01F2
:10082000918D828D981731F0828DE80FF11D858DA5
:1008300090E008958FEF9FEF0895FC01918D228D38
:10084000892F90E0805C9F4F821B91098F739927BD
:10085000089581E193E00E941D0421E0892B09F4B1
:1008600020E0822F089584E792E00E941D0421E099
:10087000892B09F420E0822F0895FC01848DDF018B
:10088000A80FB11DA35ABF4F2C91848D90E0019603
:100890008F739927848FA689B7892C93A089B189F2
:1008A0008C9180648C93938D848D981306C00288FC
:1008B000F389E02D80818F7D80830895EF92FF92F0
:1008C0000F931F93CF93DF93EC0181E0888F9B8D73
:1008D0008C8D981305C0E889F989808185FD24C035
:1008E000F62E0B8D10E00F5F1F4F0F731127E02EB8
:1008F0008C8DE8120CC00FB607FCFACFE889F98995
:10090000808185FFF5CFCE010E943D04F1CF8B8D14
:10091000FE01E80FF11DE35AFF4FF0820B8FEA89C9
:10092000FB898081806207C0EE89FF896083E88946
:10093000F98980818064808381E090E0DF91CF91AC
:100940001F910F91FF90EF900895CF93DF93EC01EB
:10095000888D8823C9F0EA89FB89808185FD05C0DF
:10096000A889B9898C9186FD0FC00FB607FCF5CF19
:10097000808185FFF2CFA889B9898C9185FFEDCF61
:10098000CE010E943D04E7CFDF91CF91089580E032
:1009900090E0892B21F00E943304811121C080E076
:1009A00090E0892B21F00E94290481111CC080E075
:1009B00090E0892B41F080E090E0892B21F00E94AB
:1009C0000000811113C080E090E0892BA1F080E04D
:1009D00090E0892B81F00E94000081110AC00895E7
:1009E0000E940000DCCF0E940000E1CF0E940000C6
:1009F000EACF0C9400000895CF93DF93EC0160E000
:100A00008E810E94040261E08E810E94040260E0F7
:100A10008E810E9404028BE891E00197F1F7DF914B
:100A2000CF910895CF92DF92EF92FF920F931F9391
:100A3000CF93DF937C016C0187E0C80ED11CC0E02E
:100A4000D0E0062F10E0B8010C2E02C07595679516
:100A50000A94E2F76170F60181916F010E9404022D
:100A60002196C430D10579F7C701DF91CF911F914D
:100A70000F91FF90EF90DF90CF900C94FC04CF92F9
:100A8000DF92EF92FF920F931F93CF93DF93EC01CE
:100A9000F62E642F8C810E9404028D818F3F19F005
:100AA00060E00E9404028F850F2D10E084FF25C0B6
:100AB0006E0187E0C80ED11CE12CF12CB8010E2C80
:100AC00002C0759567950A94E2F76170F60181910D
:100AD0006F010E940402FFEFEF1AFF0A88E0E81698
:100AE000F10461F7CE01DF91CF911F910F91FF903B
:100AF000EF90DF90CF900C94FC04B80184E07595E2
:100B000067958A95E1F7CE010E9412056F2DCE01FF
:100B1000DF91CF911F910F91FF90EF90DF90CF90D9
:100B20000C94120541E00E943F0581E090E0089599
:100B300040E00C943F05EF92FF920F931F93CF93E9
:100B4000DF93EC01623018F08F8588608F876B8BA4
:100B50001C8A80E48D8B80E18E8B80E58F8B61E039
:100B60008C810E9434028D818F3F19F061E00E94D8
:100B7000340261E08E810E9434027E0187E0E80E3B
:100B8000F11C00E010E08F8584FD03C084E090E05C
:100B900002C088E090E0081719074CF461E0F70103
:100BA00081917F010E9434020F5F1F4FECCF8BE3D6
:100BB0009DE00197F1F760E08C810E94040260E003
:100BC0008E810E9404028D818F3F19F060E00E94A7
:100BD00004026F8564FD1DC063E0CE010E94120512
:100BE0000BE416E4C8010197F1F763E0CE010E941F
:100BF0001205C8010197F1F763E0CE010E941205CA
:100C000083E592E00197F1F762E0CE010E941205C0
:100C100016C06062CE010E9498058BE496E40197AD
:100C2000F1F76F856062CE010E94980583E592E03E
:100C30000197F1F76F856062CE010E9498056F857C
:100C40006062CE010E94980584E0888B6CE0CE0142
:100C50000E94980561E0CE010E9498058BE39FE118
:100C60000197F1F782E0898B66E0CE01DF91CF91A9
:100C70001F910F91FF90EF900C949805CF93DF9305
:100C8000EEE4F2E0A6E5B2E040E080E090E0C19161
:100C9000D1916D917D91660F771F21E030E06C1747
:100CA0007D0714F020E030E0082E01C0220F0A94E6
:100CB000EAF7422B01968430910549F740936A0286
:100CC000DF91CF910895CF93DF93EC0161E08AE645
:100CD00096E00E9498058BE39FE10197F1F7E09180
:100CE0007D06E23010F4E15001C0E1E0F0E0E659A9
:100CF000F94F648960688AE696E00E9498054C8105
:100D00005D81688179818AE696E0DF91CF910C94CC
:100D1000B7034F925F926F927F928F929F92AF92A2
:100D2000BF92CF92DF92EF92FF92CF93DF93CDB736
:100D3000DEB728970FB6F894DEBF0FBECDBFC090C8
:100D40006802D09069020D2C000CEE08FF0888EEB6
:100D5000C80E83E0D81EE11CF11CAFEFB0E0A70184
:100D600096010E94640D20ED822E27E0922EA12C88
:100D7000B12CA50194010E94450D29833A834B8330
:100D80005C83A981BA81B0934D02A0934C02A1E08B
:100D9000BFEFA70196010E94720DA50194010E9468
:100DA000450DDA01C90181509F4FAF4FBF4F8D8371
:100DB0009E83AF83B88790934B0280934A02C09082
:100DC0006602D09067020D2C000CEE08FF0898EE2A
:100DD000C90E93E0D91EE11CF11CAFEFB0E0A701F2
:100DE00096010E94640DA50194010E94450D290100
:100DF0003A013093490220934802A1E0BFEFA701D6
:100E000096010E94720DA50194010E94450D690191
:100E10007A01AFEFCA0ED11CE11CF11CD09247023F
:100E2000C092460269817A8189E00E9470026D81D8
:100E30007E818AE00E947002B20186E00E94700208
:100E4000B60185E028960FB6F894DEBF0FBECDBF81
:100E5000DF91CF91FF90EF90DF90CF90BF90AF9058
:100E60009F908F907F906F905F904F900C94700246
:100E7000009769F0FC0101900020E9F73197AF017C
:100E8000481B590BBC0184E792E00C94B70380E047
:100E900090E008950E946910EF92FF920F931F93C4
:100EA000CF93DF93EC017B018A01888199810097C0
:100EB00029F02A813B8124173507F8F4B8016F5FC8
:100EC0007F4F0E94800F009759F0998388831B837E
:100ED0000A832C813D81232B81F4FC0110820DC0FB
:100EE00088819981009711F00E94E80E198218827A
:100EF0001D821C821B821A8207C01D830C83B701CE
:100F0000888199810E947710CE01DF91CF911F9146
:100F10000F91FF90EF9008954F925F926F927F92A2
:100F20008F929F92AF92BF92CF92DF92EF92FF92F9
:100F30000F931F93CF93DF93CDB7DEB7A1970FB673
:100F4000F894DEBF0FBECDBF8AE0A82E82E0B82E97
:100F50000EE412E09AE0492E512C612C712CF2E043
:100F600006351F0709F484C0F80160817181072EDE
:100F7000000C880B990B0E944C0C6B017C01F50155
:100F80008081F2E0AF0EB11C0E9439034C0126E6CD
:100F900036E646E65FE3C701B6010E94870C0E9471
:100FA0001C0E80E090E00E944A0C6B017C01B401B1
:100FB000990C880B990B0E944C0C20ED3CEC4CECEE
:100FC0005DE30E94870C9B01AC01C701B6010E9442
:100FD000A90D0E94150EF801619371938F016B01A9
:100FE000770FEE08FF08F7FE26C0E0917402F0913B
:100FF00075020190F081E02D6DE284E792E0199591
:1010000022273327A9012C193D094E095F0919A28E
:10101000CE0181967C01CA01B901A30192010E940F
:10102000770D605DF70162937F0121153105410560
:10103000510589F715C0A701960119A2CE01819625
:101040007C01CA01B901A30192010E94770D605D84
:10105000F70162937F01211531054105510589F79B
:10106000C7010E9438078AE292E00E94380777CFD2
:101070008CE292E00E943807A1960FB6F894DEBF8A
:101080000FBECDBFDF91CF911F910F91FF90EF90D9
:10109000DF90CF90BF90AF909F908F907F906F9098
:1010A0005F904F9008951F920F920FB60F921124E8
:1010B0002F933F938F939F93AF93BF9380916C0235
:1010C00090916D02A0916E02B0916F0230916B020F
:1010D00023E0230F2D3720F40196A11DB11D05C07B
:1010E00026E8230F0296A11DB11D20936B02809369
:1010F0006C0290936D02A0936E02B0936F02809188
:10110000700290917102A0917202B09173020196E7
:10111000A11DB11D8093700290937102A093720281
:10112000B0937302BF91AF919F918F913F912F9197
:101130000F900FBE0F901F9018951F920F920FB631
:101140000F9211240BB60F922F933F934F935F93FF
:101150006F937F938F939F93AF93BF93EF93FF937F
:1011600081E193E00E943D04FF91EF91BF91AF9127
:101170009F918F917F916F915F914F913F912F91AF
:101180000F900BBE0F900FBE0F901F9018951F92DF
:101190000F920FB60F9211240BB60F922F933F931D
:1011A0004F935F936F937F938F939F93AF93BF936F
:1011B000EF93FF9381E193E00E94E203FF91EF91AF
:1011C000BF91AF919F918F917F916F915F914F915F
:1011D0003F912F910F900BBE0F900FBE0F901F905D
:1011E00018951F920F920FB60F9211240BB60F9203
:1011F0002F933F934F935F936F937F938F939F931F
:10120000AF93BF93EF93FF9384E792E00E943D0476
:10121000FF91EF91BF91AF919F918F917F916F91CE
:101220005F914F913F912F910F900BBE0F900FBE8A
:101230000F901F9018951F920F920FB60F921124C6
:101240000BB60F922F933F934F935F936F937F93C0
:101250008F939F93AF93BF93EF93FF9384E792E0B5
:101260000E94E203FF91EF91BF91AF919F918F9107
:101270007F916F915F914F913F912F910F900BBE96
:101280000F900FBE0F901F9018951092140310929C
:10129000130348EE53E060E070E040931503509371
:1012A0001603609317037093180386E192E09093FE
:1012B0001203809311032DEC30E030931E03209332
:1012C0001D032CEC30E03093200320931F0328EC07
:1012D00030E0309322032093210329EC30E0309357
:1012E0002403209323032AEC30E030932603209339
:1012F00025032EEC30E0309328032093270310922F
:101300002A0310922B0310922C0310922D0310929B
:10131000770210927602409378025093790260939C
:101320007A0270937B02909375028093740285EC2D
:1013300090E0909381028093800284EC90E09093FF
:1013400083028093820280EC90E0909385028093E8
:10135000840281EC90E0909387028093860282EC75
:1013600090E0909389028093880286EC90E09093BD
:101370008B0280938A0210928D0210928E0210923C
:101380008F021092900210926D0610926C0686E207
:1013900092E090936B0680936A068EE180936E06CE
:1013A0008FEF80936F0680E28093700686E18093D2
:1013B000710688E1809372068AE1809373068CE15E
:1013C0008093740610927506109276061092770636
:1013D000109278061092790661E08AE696E00E9403
:1013E0009B05109205061092040681E193E090930C
:1013F00000068093FF051092B6038CE280930206EC
:101400008BE3809301068FE28093030680E4809350
:10141000B1038FE38093B2031092B0031092FB05E7
:101420001092FA051092FD051092FC0581E0809360
:10143000F805E6E0F6E01192119286E0EA36F80748
:10144000D1F71092B5030895CF93DF9300D000D069
:10145000CDB7DEB7789484B5826084BD84B58160F1
:1014600084BD85B5826085BD85B5816085BD80916F
:101470006E00816080936E001092810080918100E7
:1014800082608093810080918100816080938100DF
:10149000809180008160809380008091B1008460A1
:1014A0008093B1008091B00081608093B000809102
:1014B000910082608093910080919100816080937F
:1014C0009100809190008160809390008091A100B4
:1014D00082608093A1008091A10081608093A1002F
:1014E0008091A00081608093A000809121018260A2
:1014F000809321018091210181608093210180915D
:10150000200181608093200180917A008460809323
:101510007A0080917A00826080937A0080917A00CC
:10152000816080937A0080917A00806880937A004D
:101530001092C100E0918402F091850282E08083E4
:10154000E0918002F09181021082E0918202F0919C
:1015500083028FEC808310928C02E0918802F091DC
:10156000890286E08083E0918602F0918702808183
:1015700080618083E0918602F0918702808188609B
:101580008083E0918602F091870280818068808369
:10159000E0918602F091870280818F7D808360E0F8
:1015A0008DE30E94340260E08CE30E94340260E02C
:1015B0008BE30E94340260E08AE30E94340264E616
:1015C00070E080E090E00E947D030AE012E0F6E522
:1015D000EF2EF2E0FF2EF2E002311F0789F0F80152
:1015E00080810E5F1F4F0E943903F7018193919311
:1015F0007F016AE070E080E090E00E947D03EBCF25
:1016000061E089E00E94340261E08AE00E943402D5
:1016100061E086E00E94340261E085E00E943402CD
:1016200060E087E30E94340260E086E30E943402B7
:1016300062E088E30E94340268EE73E080E090E0AC
:101640000E947D0387E30E9439038C019093650219
:101650008093640286E30E9439039093630280932F
:101660006202000F111F10936102009360029C013F
:10167000220F331F30935F0220935E0261E08EE100
:101680000E94340261E080E20E94340261E086E15F
:101690000E94340261E088E10E94340261E08AE144
:1016A0000E94340261E08CE10E94340262E08AE62A
:1016B00096E00E949B0560E082E00E94340258EEB2
:1016C000452E53E0552E612C712C00E71EEF60E98A
:1016D000E62EFF24F3947AE6272E72E0372EE4E21A
:1016E000CE2EE2E0DE2E61E070E080E090E00E942D
:1016F0007D030E948C070E943E0680916A028F3013
:1017000061F00E948906E0EBF2E08491F101B4906F
:10171000F601A490A11032C04AC00E943D0CA30162
:1017200092010E94450D643F7140810591051CF0B6
:101730008FEF9FEF02C081E090E0809F5001819F7A
:10174000B00C909FB00C11248E9D40018F9D900C89
:101750009E9D900C112480916A02882391F29092B0
:10176000690280926802B0926702A09266020E94AB
:1017700089060E948C070E943E06EDCF81110E94CF
:10178000AE01EA2DF0E0EE0FFF1FEC52FE4FA591E7
:10179000B4918C91B82259F01A8219821C821B8252
:1017A0001E821D8249E050E06FE272E00AC01A8298
:1017B00019821C821B821E821D824BE050E069E36D
:1017C00072E0CE0101960E944C07CE0101960E9464
:1017D000630689819A810E94E80E0E94C70483CF24
:1017E0008F929F92AF92BF92CF92DF92EF92FF9231
:1017F000CF93DF93EC01688179818A819B816115A8
:1018000071058105910521F464E279ED8BE597E09E
:101810002DE133EF41E050E00E94450D49015A01AE
:101820009B01AC01A7EAB1E40E94640D6B017C014D
:10183000ACEEB4EFA50194010E94720DDC01CB0166
:101840008C0D9D1DAE1DBF1DB7FF03C00197A109E3
:10185000B04888839983AA83BB83BC01CD019F775D
:10186000DF91CF91FF90EF90DF90CF90BF90AF903E
:101870009F908F9008950C94F00B80E092E00C9470
:10188000F00B609300027093010280930202909328
:1018900003020895E89409C097FB3EF49095809563
:1018A000709561957F4F8F4F9F4F9923A9F0F92F26
:1018B00096E9BB279395F695879577956795B795A4
:1018C000F111F8CFFAF4BB0F11F460FF1BC06F5F8A
:1018D0007F4F8F4F9F4F16C0882311F096E911C09C
:1018E000772321F09EE8872F762F05C0662371F0BD
:1018F00096E8862F70E060E02AF09A95660F771FD1
:10190000881FDAF7880F9695879597F908950E94B2
:101910009A0C0C940B0D0E94FD0C38F00E94040DE3
:1019200020F0952311F00C94F40C0C94FA0C112473
:101930000C943F0D0E941C0D70F3959FC1F3950F01
:1019400050E0551F629FF001729FBB27F00DB11D43
:10195000639FAA27F00DB11DAA1F649F6627B00DD3
:10196000A11D661F829F2227B00DA11D621F739FBC
:10197000B00DA11D621F839FA00D611D221F749FCA
:101980003327A00D611D231F849F600D211D822F11
:10199000762F6A2F11249F5750409AF0F1F0882338
:1019A0004AF0EE0FFF1FBB1F661F771F881F915065
:1019B0005040A9F79E3F510580F00C94F40C0C9414
:1019C0003F0D5F3FE4F3983ED4F386957795679596
:1019D000B795F795E7959F5FC1F7FE2B880F911D8F
:1019E0009695879597F9089597F99F6780E870E035
:1019F00060E008959FEF80EC089500240A94161685
:101A0000170618060906089500240A9412161306EC
:101A1000140605060895092E0394000C11F488237A
:101A200052F0BB0F40F4BF2B11F460FF04C06F5F96
:101A30007F4F8F4F9F4F089557FD9058440F551F6C
:101A400059F05F3F71F04795880F97FB991F61F040
:101A50009F3F79F087950895121613061406551FB7
:101A6000F2CF4695F1DF08C0161617061806991F23
:101A7000F1CF86957105610508940895E894BB2718
:101A800066277727CB0197F90895052E97FB1EF45B
:101A900000940E945C0D57FD07D00E94770D07FC53
:101AA00003D04EF40C945C0D5095409530952195E3
:101AB0003F4F4F4F5F4F089590958095709561957A
:101AC0007F4F8F4F9F4F08950E94990DA59F900DB6
:101AD000B49F900DA49F800D911D11240895B7FF10
:101AE0000C94640D0E94640D821B930B0895A1E277
:101AF0001A2EAA1BBB1BFD010DC0AA1FBB1FEE1F88
:101B0000FF1FA217B307E407F50720F0A21BB30BD2
:101B1000E40BF50B661F771F881F991F1A9469F74E
:101B200060957095809590959B01AC01BD01CF01AA
:101B30000895A29FB001B39FC001A39F700D811DA6
:101B40001124911DB29F700D811D1124911D0895C6
:101B50005058BB27AA270E94C00D0C940B0D0E9461
:101B6000FD0C38F00E94040D20F039F49F3F19F469
:101B700026F40C94FA0C0EF4E095E7FB0C94F40CAC
:101B8000E92F0E941C0D58F3BA17620773078407E8
:101B9000950720F079F4A6F50C943E0D0EF4E0952F
:101BA0000B2EBA2FA02D0B01B90190010C01CA0117
:101BB000A0011124FF27591B99F0593F50F4503EC2
:101BC00068F11A16F040A22F232F342F4427585FB4
:101BD000F3CF469537952795A795F0405395C9F7CC
:101BE0007EF41F16BA0B620B730B840BBAF0915084
:101BF000A1F0FF0FBB1F661F771F881FC2F70EC023
:101C0000BA0F621F731F841F48F4879577956795F5
:101C1000B795F7959E3F08F0B0CF9395880F08F0E1
:101C20009927EE0F9795879508950E941C0E68944A
:101C3000B1110C943F0D08950E94240D88F09F5718
:101C400098F0B92F9927B751B0F0E1F0660F771FE0
:101C5000881F991F1AF0BA95C9F714C0B13091F0D6
:101C60000E943E0DB1E008950C943E0D672F782F31
:101C70008827B85F39F0B93FCCF38695779567959B
:101C8000B395D9F73EF490958095709561957F4F07
:101C90008F4F9F4F0895EE0FFF1F881F8BBF079038
:101CA000F691E02D1994CF93DF938230910510F4D3
:101CB00082E090E0E0918406F091850620E030E03B
:101CC000C0E0D0E0309711F14081518148175907A9
:101CD000C0F04817590761F482819381209719F069
:101CE0009B838A832BC0909385068093840626C0AD
:101CF0002115310519F04217530718F49A01BE0156
:101D0000DF01EF010280F381E02DDCCF21153105E9
:101D100009F1281B390B2430310590F412968D916E
:101D20009C9113976115710521F0FB0193838283C8
:101D300004C09093850680938406FD01329644C0CA
:101D4000FD01E20FF31F81939193225031092D93EE
:101D50003C933AC02091820630918306232B41F4B4
:101D60002091060230910702309383062093820669
:101D700020910402309105022115310541F42DB75F
:101D80003EB74091080250910902241B350BE091A7
:101D90008206F0918306E217F307A0F42E1B3F0B97
:101DA0002817390778F0AC014E5F5F4F24173507CD
:101DB00048F04E0F5F1F5093830640938206819335
:101DC000919302C0E0E0F0E0CF01DF91CF91089560
:101DD0000F931F93CF93DF93009709F48CC0FC01FE
:101DE00032971382128200918406109185060115A4
:101DF000110581F420813181820F931F2091820689
:101E0000309183062817390779F5F0938306E0931C
:101E1000820671C0D80140E050E0AE17BF0750F411
:101E200012962D913C911397AD012115310509F1C1
:101E3000D901F3CF9D01DA0133832283608171815F
:101E4000860F971F8217930769F4EC012881398167
:101E5000260F371F2E5F3F4F318320838A819B815E
:101E600093838283452B29F4F0938506E0938406BF
:101E700042C01396FC93EE931297ED01499159914C
:101E80009E01240F351FE217F30771F480819181C1
:101E9000840F951F029611969C938E938281938155
:101EA00013969C938E931297E0E0F0E0D80112967F
:101EB0008D919C911397009719F0F8018C01F6CF42
:101EC0008D919C9198012E5F3F4F820F931F20911F
:101ED0008206309183062817390769F4309729F470
:101EE000109285061092840602C01382128210930B
:101EF000830600938206DF91CF911F910F91089581
:101F00006F927F928F929F92AF92BF92CF92DF9209
:101F1000EF92FF920F931F93CF93DF93EC01009703
:101F200089F4CB01DF91CF911F910F91FF90EF903A
:101F3000DF90CF90BF90AF909F908F907F906F90E9
:101F40000C94530EFC01E60FF71F9C01225031093F
:101F5000E217F30708F4ACC0D9010D911C91119759
:101F600006171707B0F00530110508F49FC0C80127
:101F700004978617970708F499C002501109061BA9
:101F8000170B019311936D937C93CF010E94E80E80
:101F90008DC05B01A01AB10A4C01800E911EA09168
:101FA0008406B091850640E050E0E12CF12C1097BA
:101FB00009F44AC0A815B905D1F56D907C90119728
:101FC000630182E0C80ED11CCA14DB0480F1A301B6
:101FD0004A195B096A0182E0C80ED11C1296BC90B6
:101FE00012971396AC91B5E0CB16D10440F0B282B3
:101FF000A38351834083D9016D937C930AC00E5F04
:102000001F4FC301800F911FF90191838083EB2D36
:10201000FA2FE114F10431F0D7011396FC93EE93FB
:10202000129744C0F0938506E09384063FC08D91DB
:102030009C9111974817590708F4AC017D0112963D
:102040000D90BC91A02DB3CF809182069091830614
:1020500088159905E1F446175707C8F480910402E2
:1020600090910502009741F48DB79EB74091080208
:1020700050910902841B950BE817F907C8F4F093F7
:102080008306E0938206F901718360830FC0CB0160
:102090000E94530E7C01009759F0A801BE010E94D6
:1020A0006E10CE010E94E80EC70104C0CE0102C02E
:1020B00080E090E0DF91CF911F910F91FF90EF9022
:1020C000DF90CF90BF90AF909F908F907F906F9058
:1020D000089581E090E0F8940C947E10FB01DC01FF
:1020E00002C001900D9241505040D8F70895FB0175
:1020F000DC0101900D920020E1F70895F894FFCFE4
:10210000010000000000860680003D003C003B000E
:102110003A00000000005E04B7031D04FB030F0437
:10212000A504000000009205B70309000D0A005243
:102130004F424F543A20474F00524F424F543A209B
:0621400053544F50000053
:00000001FF
