:100000000C946E010C949F010C949F010C949F0121
:100010000C949F010C949F010C949F010C949F01E0
:100020000C949F010C949F010C949F010C949F01D0
:100030000C949F010C949F010C949F010C949F01C0
:100040000C949F010C949F010C949F010C949F01B0
:100050000C949F010C949F010C949F010C944308F5
:100060000C949F010C940B090C94E1080C949F01D3
:100070000C949F010C949F010C949F010C949F0180
:100080000C949F010C949F010C949F010C949F0170
:100090000C94B7080C948D080C949F010C949F014C
:1000A0000C949F010C949F010C949F010C949F0150
:1000B0000C949F010C949F010C949F010C949F0140
:1000C0000C949F010C949F010C949F010C949F0130
:1000D0000C949F010C949F010C949F010C949F0120
:1000E0000C949F0137023A0229022D02310271025B
:1000F0003E02420248024C02500256025A025E027E
:100100007102640268026C02EA02EF02F402FE026B
:100110000803810312031A0322032C03360340034E
:100120004F035903810363036D0377030C94FE02AD
:100130000C9429020C9422030C9463030C946D0319
:100140000C9412030C9408030C946E040C943E025D
:100150000C9442020C9471020C944F030C946C02A8
:100160000C944C020C94AF040C9464020C945A024C
:100170000C945E020C94E3050C94F4020C94350983
:100180000C94EF020C9477030C942D020C94EA0269
:100190000C9440030C94F6040C9481030C942C03EF
:1001A0000C9450020C9448020C9459030C941A03BA
:1001B0000C9437020C9436030C9460040C940804DD
:1001C0000C9468020C943A020C944C040C94310286
:1001D0000C94560200002100240027002A002D0064
:1001E0003000330001010000040107010A01000092
:1001F0002200250028002B002E00310034000201CF
:100200000000050108010B010505050507050808A3
:100210000808020202020A0A080804040404010190
:1002200001010101010103030303030303030407A5
:1002300007070C0C0C0C0C0C0C0C0202020206063C
:100240000606060606060B0B0B0B0B0B0B0B01022F
:1002500010202008081020401020408002010201D8
:100260000804020101020408102040808040201090
:1002700008040201800402018040201008040201E9
:100280000804020101020408102040800102040851
:100290001020408000000A0B02090C0D0E08070315
:1002A0000401000000000000000000000000000049
:1002B000000000000000000000000000000000003E
:1002C00012111000000000000000000000000000FB
:1002D00000000000000000000000350911241FBECE
:1002E000CFEFD1E2DEBFCDBF00E00CBF12E0A0E057
:1002F000B2E0E2E9FCE100E00BBF02C007900D9222
:10030000A639B107D9F724E0A6E9B2E001C01D92F1
:10031000AB31B207E1F711E0CEE6D1E000E006C074
:1003200021970109802FFE010E943A0ECD36D10798
:1003300080E00807A9F70E94A6090C94470E0C94C8
:100340000000CF92DF92EF92FF920F931F93CF9313
:10035000DF93EC016A017B01E889F98982E08083FF
:100360004115514E61057105B1F060E079E08DE312
:1003700090E0A70196010E946B0C89019A0101503F
:100380001109210931093695279517950795980187
:1003900001151041A8F0E889F989108260E874E835
:1003A0008EE190E0A70196010E946B0CDA01C90171
:1003B0000197A109B109B695A795979587959C01D5
:1003C000EC85FD853083EE85FF852083188EEC89D2
:1003D000FD8986E08083EA89FB8980818061808352
:1003E000EA89FB89808188608083EA89FB89808132
:1003F00080688083EA89FB8980818F7D8083DF919B
:10040000CF911F910F91FF90EF90DF90CF900895C3
:10041000362F90E0FC01EC56FD4F4491FC01E25B6D
:10042000FD4F2491FC01E85FFD4F9491992309F45D
:100430006BC0442309F455C050E0FA013197E23112
:10044000F10508F04EC08827EE58FF4F8F4F0C94EF
:100450003A0E809180008F7707C0809180008F7D59
:1004600003C080918000877F809380003AC084B56C
:100470008F7702C084B58F7D84BD33C08091B0007A
:100480008F7703C08091B0008F7D8093B00029C02A
:10049000809190008F7707C0809190008F7D03C07E
:1004A00080919000877F809390001BC08091A00076
:1004B0008F7707C08091A0008F7D03C08091A0003E
:1004C000877F8093A0000DC0809120018F7707C0A7
:1004D000809120018F7D03C080912001877F8093D0
:1004E0002001E92FF0E0EE0FFF1FE251FE4FA59132
:1004F000B4918FB7F894EC91311103C020952E235D
:1005000001C02E2B2C938FBF0895CF93DF9390E0E3
:10051000FC01E25BFD4F2491FC01E85FFD4F8491FB
:10052000882361F190E0880F991FFC01EC52FE4F87
:10053000C591D491FC01E251FE4FA591B491611196
:1005400009C09FB7F8948881209582238883EC9115
:100550002E230BC0623061F49FB7F8943881822F4C
:10056000809583238883EC912E2B2C939FBF06C00C
:100570008FB7F894E8812E2B28838FBFDF91CF911E
:1005800008951F93CF93DF93182FEB0161E00E9432
:100590008502209711F460E004C0CF3FD10539F403
:1005A00061E0812FDF91CF911F910C940802E12F20
:1005B000F0E0EC56FD4FE4914E2F50E0FA013197F8
:1005C000E231F10508F09DC08827EC57FF4F8F4FAF
:1005D0000C943A0E84B5806884BDC7BD97C084B5BD
:1005E000806284BDC8BD92C0809180008068809385
:1005F0008000D0938900C093880088C080918000DB
:10060000806280938000D0938B00C0938A007EC06C
:1006100080918000886080938000D0938D00C0938B
:100620008C0074C08091B00080688093B000C0934B
:10063000B3006CC08091B00080628093B000C09322
:10064000B40064C080919000806880939000D09343
:100650009900C09398005AC0809190008062809366
:100660009000D0939B00C0939A0050C0809190005E
:10067000886080939000D0939D00C0939C0046C0FA
:100680008091A00080688093A0008091A0008F7B63
:100690008093A000D093A900C093A80037C0809198
:1006A000A00080628093A000D093AB00C093AA000A
:1006B0002DC08091A00088608093A000D093AD00F1
:1006C000C093AC0023C080912001806880932001FA
:1006D000D0932901C093280119C080912001806224
:1006E00080932001D0932B01C0932A010FC08091E9
:1006F0002001886080932001D0932D01C0932C01AC
:1007000005C0C038D1050CF04BCF45CFDF91CF915C
:100710001F910895863308F0865390917B00282F0F
:100720002870977F922B90937B00877080648093D2
:100730007C0080917A00806480937A0080917A00B6
:1007400086FDFCCF809178002091790090E0922B7B
:1007500008953FB7F8948091C5029091C602A09188
:10076000C702B091C80226B5A89B05C02F3F19F05B
:100770000196A11DB11D3FBFBA2FA92F982F882721
:10078000820F911DA11DB11DBC01CD0142E0660F7C
:10079000771F881F991F4A95D1F708958F929F92CE
:1007A000AF92BF92CF92DF92EF92FF926B017C01EA
:1007B0000E94A9034B015C01C114D104E104F104BE
:1007C000F1F00E94A903DC01CB0188199909AA095B
:1007D000BB09883E9340A105B10570F321E0C21A20
:1007E000D108E108F10888EE880E83E0981EA11C6C
:1007F000B11CC114D104E104F10419F7DDCFFF905D
:10080000EF90DF90CF90BF90AF909F908F90089522
:10081000CF92DF92EF92FF920F931F93CF93DF93CC
:100820006C017A018B01C0E0D0E0CE15DF0589F0C4
:10083000D8016D918D01D601ED91FC910190F0816F
:10084000E02DC6011995892B11F47E0102C0219675
:10085000ECCFC701DF91CF911F910F91FF90EF90E7
:10086000DF90CF900895FC01A089B1898C91A68971
:10087000B78982FD0FC09C91818D8F5F8F73228D10
:10088000821749F0218DDF01A20FB11D5D969C9367
:10089000818F08958C910895FC01918D828D981718
:1008A00061F0828DDF01A80FB11D5D968C91928D54
:1008B0009F5F9F73928F90E008958FEF9FEF089551
:1008C000FC01918D828D981731F0828DE80FF11D1A
:1008D000858D90E008958FEF9FEF0895FC01918D35
:1008E000228D892F90E0805C9F4F821B91098F732E
:1008F0009927089589EC92E00E946E0421E0892BEB
:1009000009F420E0822F089586E693E00E946E04A9
:1009100021E0892B09F420E0822F0895FC01848DC9
:10092000DF01A80FB11DA35ABF4F2C91848D90E019
:1009300001968F739927848FA689B7892C93A089F4
:10094000B1898C9180648C93938D848D981306C0AB
:100950000288F389E02D80818F7D80830895EF9256
:10096000FF920F931F93CF93DF93EC0181E0888F69
:100970009B8D8C8D981305C0E889F989808185FD50
:1009800024C0F62E0B8D10E00F5F1F4F0F73112741
:10099000E02E8C8DE8120CC00FB607FCFACFE88968
:1009A000F989808185FFF5CFCE010E948E04F1CFB9
:1009B0008B8DFE01E80FF11DE35AFF4FF0820B8F84
:1009C000EA89FB898081806207C0EE89FF896083A4
:1009D000E889F98980818064808381E090E0DF91FB
:1009E000CF911F910F91FF90EF900895CF93DF93D8
:1009F000EC01888D8823C9F0EA89FB89808185FD17
:100A000005C0A889B9898C9186FD0FC00FB607FC77
:100A1000F5CF808185FFF2CFA889B9898C9185FFB8
:100A2000EDCFCE010E948E04E7CFDF91CF910895E4
:100A300080E090E0892B21F00E948404811121C084
:100A400080E090E0892B21F00E947A0481111CC083
:100A500080E090E0892B41F080E090E0892B21F04C
:100A60000E940000811113C080E090E0892BA1F06A
:100A700080E090E0892B81F00E94000081110AC083
:100A800008950E940000DCCF0E940000E1CF0E9488
:100A90000000EACF0C9400000895CF93DF93EC019F
:100AA00060E08E810E94080261E08E810E9408024F
:100AB00060E08E810E9408028BE891E00197F1F7D7
:100AC000DF91CF910895CF92DF92EF92FF920F9333
:100AD0001F93CF93DF937C016C0187E0C80ED11C7C
:100AE000C0E0D0E0062F10E0B8010C2E02C07595D2
:100AF00067950A94E2F76170F60181916F010E9497
:100B000008022196C430D10579F7C701DF91CF9152
:100B10001F910F91FF90EF90DF90CF900C944D05B7
:100B2000CF92DF92EF92FF920F931F93CF93DF93B9
:100B3000EC01F62E642F8C810E9408028D818F3F7C
:100B400019F060E00E9408028F850F2D10E084FFED
:100B500025C06E0187E0C80ED11CE12CF12CB80134
:100B60000E2C02C0759567950A94E2F76170F60144
:100B700081916F010E940802FFEFEF1AFF0A88E0DF
:100B8000E816F10461F7CE01DF91CF911F910F912B
:100B9000FF90EF90DF90CF900C944D05B80184E06A
:100BA000759567958A95E1F7CE010E9463056F2DD3
:100BB000CE01DF91CF911F910F91FF90EF90DF90C9
:100BC000CF900C94630541E00E94900581E090E095
:100BD000089540E00C949005EF92FF920F931F93BD
:100BE000CF93DF93EC01623018F08F8588608F8798
:100BF0006B8B1C8A80E48D8B80E18E8B80E58F8BE4
:100C000061E08C810E9485028D818F3F19F061E047
:100C10000E94850261E08E810E9485027E0187E04C
:100C2000E80EF11C00E010E08F8584FD03C084E035
:100C300090E002C088E090E0081719074CF461E0EA
:100C4000F70181917F010E9485020F5F1F4FECCF5A
:100C50008BE39DE00197F1F760E08C810E94080230
:100C600060E08E810E9408028D818F3F19F060E064
:100C70000E9408026F8564FD1DC063E0CE010E94E2
:100C800063050BE416E4C8010197F1F763E0CE01B8
:100C90000E946305C8010197F1F763E0CE010E944D
:100CA000630583E592E00197F1F762E0CE010E94CF
:100CB000630516C06062CE010E94E9058BE496E4EC
:100CC0000197F1F76F856062CE010E94E90583E527
:100CD00092E00197F1F76F856062CE010E94E9050D
:100CE0006F856062CE010E94E90584E0888B6CE02C
:100CF000CE010E94E90561E0CE010E94E9058BE387
:100D00009FE10197F1F782E0898B66E0CE01DF91E8
:100D1000CF911F910F91FF90EF900C94E905CF9325
:100D2000DF93EEE9F2E0A6EAB2E040E080E090E096
:100D3000C191D1916D917D91660F771F21E030E0D7
:100D40006C177D0714F020E030E0082E01C0220F60
:100D50000A94EAF7422B01968430910549F74093B3
:100D6000BF02DF91CF9108954F925F926F927F9271
:100D70008F929F92AF92BF92CF92DF92EF92FF92AB
:100D8000CF93DF93CDB7DEB728970FB6F894DEBFC9
:100D90000FBECDBFC090B802D090B9020D2C000C90
:100DA000EE08FF0888EEC80E83E0D81EE11CF11C97
:100DB000AFEFB0E0A70196010E94580C20ED822E03
:100DC00027E0922EA12CB12CA50194010E94390C90
:100DD00029833A834B835C83A981BA81B0939D02B6
:100DE000A0939C02A1E0BFEFA70196010E94660CB0
:100DF000A50194010E94390CDA01C90181509F4F6D
:100E0000AF4FBF4F8D839E83AF83B88790939B0274
:100E100080939A02C090B602D090B7020D2C000CBD
:100E2000EE08FF0898EEC90E93E0D91EE11CF11CF4
:100E3000AFEFB0E0A70196010E94580CA501940104
:100E40000E94390C29013A013093990220939802AB
:100E5000A1E0BFEFA70196010E94660CA5019401D5
:100E60000E94390C69017A01AFEFCA0ED11CE11C56
:100E7000F11CD0929702C092960269817A8189E032
:100E80000E94C1026D817E818AE00E94C102B2018E
:100E900086E00E94C102B60185E028960FB6F8945C
:100EA000DEBF0FBECDBFDF91CF91FF90EF90DF90FF
:100EB000CF90BF90AF909F908F907F906F905F90FA
:100EC0004F900C94C1020E94420E6115710579F099
:100ED000FB0101900020E9F73197AF01461B570B4A
:100EE000DC01ED91FC910280F381E02D199480E00A
:100EF00090E008958F929F92AF92BF920F931F93AD
:100F0000CF93DF93CDB7DEB7A1970FB6F894DEBFCE
:100F10000FBECDBF19A2423008F44AE08E010F5D2A
:100F20001F4F842E912CA12CB12CA50194010E945D
:100F30006B0CE62FB901CA0101501109EA3014F413
:100F4000E05D01C0E95CD801EC93232B242B252B19
:100F500061F7B80186E693E00E946507A1960FB697
:100F6000F894DEBF0FBECDBFDF91CF911F910F91DF
:100F7000BF90AF909F908F9008950C9465078F92CB
:100F80009F92AF92BF92CF92DF92EF92FF920F9318
:100F90001F93CF93DF9304E012E0CEE9D2E0F2E0BA
:100FA000C63ADF0709F45DC068817981072E000C1D
:100FB000880B990B0E94410D4B015C01F801808167
:100FC0000E5F1F4F0E948A037C0126E636E646E646
:100FD0005FE3C501B4010E94CD0D0E94100D80E0B9
:100FE00090E00E943F0D4B015C01B701FF0C880BA4
:100FF000990B0E94410D20ED3CEC4CEC5DE30E940E
:10100000CD0D9B01AC01C501B4010E949D0C0E9455
:10101000090D699379936B01770FEE08FF08F7FECE
:1010200014C0E0916603F09167030190F081E02D18
:101030006DE286E693E0199566277727CB016C1958
:101040007D098E099F094AE003C04AE0C701B60145
:101050000E947A0764E272E086E693E00E94BD0790
:101060009ECF66E272E086E693E0DF91CF911F911A
:101070000F91FF90EF90DF90CF90BF90AF909F9037
:101080008F900C9465071F920F920FB60F92112448
:101090002F933F938F939F93AF93BF938091C10200
:1010A0009091C202A091C302B091C4023091C002DB
:1010B00023E0230F2D3720F40196A11DB11D05C09B
:1010C00026E8230F0296A11DB11D2093C002809334
:1010D000C1029093C202A093C302B093C402809154
:1010E000C5029091C602A091C702B091C8020196B4
:1010F000A11DB11D8093C5029093C602A093C702A3
:10110000B093C802BF91AF919F918F913F912F9162
:101110000F900FBE0F901F9018951F920F920FB651
:101120000F9211240BB60F922F933F934F935F931F
:101130006F937F938F939F93AF93BF93EF93FF939F
:1011400089EC92E00E948E04FF91EF91BF91AF91E4
:101150009F918F917F916F915F914F913F912F91CF
:101160000F900BBE0F900FBE0F901F9018951F92FF
:101170000F920FB60F9211240BB60F922F933F933D
:101180004F935F936F937F938F939F93AF93BF938F
:10119000EF93FF9389EC92E00E943304FF91EF916B
:1011A000BF91AF919F918F917F916F915F914F917F
:1011B0003F912F910F900BBE0F900FBE0F901F907D
:1011C00018951F920F920FB60F9211240BB60F9223
:1011D0002F933F934F935F936F937F938F939F933F
:1011E000AF93BF93EF93FF9386E693E00E948E0444
:1011F000FF91EF91BF91AF919F918F917F916F91EF
:101200005F914F913F912F910F900BBE0F900FBEAA
:101210000F901F9018951F920F920FB60F921124E6
:101220000BB60F922F933F934F935F936F937F93E0
:101230008F939F93AF93BF93EF93FF9386E693E0D3
:101240000E943304FF91EF91BF91AF919F918F91D5
:101250007F916F915F914F913F912F910F900BBEB6
:101260000F900FBE0F901F901895E9ECF2E01382DB
:10127000128248EE53E060E070E044835583668359
:10128000778380E192E0918380832DEC30E0358795
:1012900024872CEC30E03787268728EC30E0318B30
:1012A000208B29EC30E0338B228B2AEC30E0358B1D
:1012B000248B2EEC30E0378B268B118E128E138E02
:1012C000148EE6E6F3E0138212824483558366832C
:1012D00077839183808385EC90E09587848784EC85
:1012E00090E09787868780EC90E0918B808B81ECF3
:1012F00090E0938B828B82EC90E0958B848B86ECD4
:1013000090E0978B868B118E128E138E148EE3E0F5
:10131000F4E01382128280E292E0918380838EE176
:1013200084838FEF858380E2868386E1878388E1EB
:1013300080878AE181878CE18287138614861586EF
:101340001686178661E0CF010C94EC05789484B57D
:10135000826084BD84B5816084BD85B5826085BDB1
:1013600085B5816085BD80916E00816080936E003F
:101370001092810080918100826080938100809131
:1013800081008160809381008091800081608093E2
:1013900080008091B10084608093B1008091B000A2
:1013A00081608093B0008091910082608093910071
:1013B0008091910081608093910080919000816084
:1013C000809390008091A10082608093A100809121
:1013D000A10081608093A1008091A0008160809332
:1013E000A0008091210182608093210180912101E0
:1013F0008160809321018091200181608093200190
:1014000080917A00846080937A0080917A00826073
:1014100080937A0080917A00816080937A00809135
:101420007A00806880937A001092C10040E855E20B
:1014300060E070E086E693E00E94A10160E08DE349
:101440000E94850260E08CE30E94850260E08BE3ED
:101450000E94850260E08AE30E94850264E670E0F3
:1014600080E090E00E94CE03C4E0D2E006EA12E001
:10147000F2E0CC30DF0779F0888122960E948A035F
:10148000F801819391938F016AE070E080E090E031
:101490000E94CE03EDCF61E089E00E94850261E009
:1014A0008AE00E94850261E086E00E94850261E098
:1014B00085E00E94850260E087E30E94850260E08B
:1014C00086E30E94850262E088E30E94850268EE5E
:1014D00073E080E090E00E94CE0387E30E948A03DD
:1014E000EC019093B5028093B40286E30E948A03D4
:1014F0009093B3028093B202CC0FDD1FD093B10260
:10150000C093B0029C01220F331F3093AF0220938F
:10151000AE0261E08EE10E94850261E080E20E94FD
:10152000850261E086E10E94850261E088E10E9417
:10153000850261E08AE10E94850261E08CE10E94FF
:10154000850262E083E094E00E94EC0540E855E209
:1015500060E070E086E693E00E94A10148E552E079
:1015600060E070E089EC92E00E94A10158EE452E07
:1015700053E0552E612C712C60E7E62E6EEFF62EAF
:1015800000E911E07BE3C72E7FE1D72E61E070E038
:1015900080E090E00E94CE0389EC92E00E946E040D
:1015A000181619069CF489EC92E00E944C04809372
:1015B000BE02682F70E080E090E04AE00E947A0767
:1015C00066E272E086E693E00E9465070E94BF072C
:1015D0000E948F068091BF028F30B1F0C091BE0291
:1015E000C23009F042C01092BD021092BC02F092CB
:1015F000BB02E092BA021093B9020093B8021093B2
:10160000B7020093B60243C00E942C0CA3019201C2
:101610000E94390C643F7140810591051CF08FEFE9
:101620009FEF02C081E090E08E9DE0018F9DD00D84
:101630009E9DD00D1124809F5001819FB00C909FE2
:10164000B00C11248091BF02882341F2B092B902FC
:10165000A092B802D093B702C093B6020E94B4061B
:101660000E94BF070E948F06EDCFC13081F4109217
:10167000BD021092BC021092BB021092BA021092EC
:10168000B9021092B8021092B7021092B6020E94EC
:10169000B40661E083E094E00E94E905C601019789
:1016A000F1F7E1E0809116048111E0E0E195F0E0CE
:1016B000ED5FFB4F64896F5F606883E094E00E9498
:1016C000E905C11103C069E272E00EC0C13019F42E
:1016D0006EE272E009C0C23019F461E372E004C046
:1016E000C43031F46BE372E083E094E00E94BD0704
:1016F000C091BF02E1E0809116048111E0E0E19524
:10170000F0E0ED5FFB4F6489606883E094E00E9445
:10171000E905C11103C066E472E04AC0C13019F4A2
:101720006BE472E045C0C23019F460E572E040C07D
:10173000C33019F465E572E03BC0C43019F46AE5C2
:1017400072E036C0C53019F46FE572E031C0C630C2
:1017500019F464E672E02CC0C73019F469E672E04F
:1017600027C0C83019F46EE672E022C0C93019F4FF
:1017700063E772E01DC0CA3019F468E772E018C070
:10178000CB3019F46DE772E013C0CC3019F462E885
:1017900072E00EC0CD3019F467E872E009C0CE30B7
:1017A00019F46CE872E004C0CF3031F461E972E002
:1017B00083E094E00E94BD070E941805E7CE8F9257
:1017C0009F92AF92BF92CF92DF92EF92FF92CF9310
:1017D000DF93EC01688179818A819B8161157105B4
:1017E0008105910521F464E279ED8BE597E02DE127
:1017F00033EF41E050E00E94390C49015A019B014E
:10180000AC01A7EAB1E40E94580C6B017C01ACEE7C
:10181000B4EFA50194010E94660CDC01CB018C0D94
:101820009D1DAE1DBF1DB7FF03C00197A109B048A4
:1018300088839983AA83BB83BC01CD019F77DF9105
:10184000CF91FF90EF90DF90CF90BF90AF909F909F
:101850008F9008950C94DF0B80E092E00C94DF0BE6
:10186000609300027093010280930202909303023E
:101870000895052E97FB1EF400940E94500C57FD0E
:1018800007D00E946B0C07FC03D04EF40C94500C54
:1018900050954095309521953F4F4F4F5F4F08959C
:1018A00090958095709561957F4F8F4F9F4F0895CC
:1018B0000E948D0CA59F900DB49F900DA49F800D4C
:1018C000911D11240895B7FF0C94580C0E94580CD8
:1018D000821B930B0895A1E21A2EAA1BBB1BFD01CC
:1018E0000DC0AA1FBB1FEE1FFF1FA217B307E407FF
:1018F000F50720F0A21BB30BE40BF50B661F771F57
:10190000881F991F1A9469F7609570958095909536
:101910009B01AC01BD01CF010895A29FB001B39F0F
:10192000C001A39F700D811D1124911DB29F700DE8
:10193000811D1124911D08955058BB27AA270E948C
:10194000B40C0C94930D0E94850D38F00E948C0D00
:1019500020F039F49F3F19F426F40C94820D0EF414
:10196000E095E7FB0C947C0DE92F0E94A40D58F341
:10197000BA17620773078407950720F079F4A6F574
:101980000C94C60D0EF4E0950B2EBA2FA02D0B0172
:10199000B90190010C01CA01A0011124FF27591BB4
:1019A00099F0593F50F4503E68F11A16F040A22FBA
:1019B000232F342F4427585FF3CF4695379527952B
:1019C000A795F0405395C9F77EF41F16BA0B620B2A
:1019D000730B840BBAF09150A1F0FF0FBB1F661F71
:1019E000771F881FC2F70EC0BA0F621F731F841FB4
:1019F00048F4879577956795B795F7959E3F08F0DA
:101A0000B0CF9395880F08F09927EE0F979587959B
:101A100008950E94100D6894B1110C94C70D08959B
:101A20000E94AC0D88F09F5798F0B92F9927B751B5
:101A3000B0F0E1F0660F771F881F991F1AF0BA9572
:101A4000C9F714C0B13091F00E94C60DB1E00895FD
:101A50000C94C60D672F782F8827B85F39F0B93FEF
:101A6000CCF3869577956795B395D9F73EF4909525
:101A70008095709561957F4F8F4F9F4F0895E894A3
:101A800009C097FB3EF490958095709561957F4FC6
:101A90008F4F9F4F9923A9F0F92F96E9BB27939574
:101AA000F695879577956795B795F111F8CFFAF484
:101AB000BB0F11F460FF1BC06F5F7F4F8F4F9F4FB5
:101AC00016C0882311F096E911C0772321F09EE813
:101AD000872F762F05C0662371F096E8862F70E079
:101AE00060E02AF09A95660F771F881FDAF7880F53
:101AF0009695879597F9089597F99F6780E870E024
:101B000060E008959FEF80EC089500240A94161673
:101B1000170618060906089500240A9412161306DB
:101B2000140605060895092E0394000C11F4882369
:101B300052F0BB0F40F4BF2B11F460FF04C06F5F85
:101B40007F4F8F4F9F4F089557FD9058440F551F5B
:101B500059F05F3F71F04795880F97FB991F61F02F
:101B60009F3F79F087950895121613061406551FA6
:101B7000F2CF4695F1DF08C0161617061806991F12
:101B8000F1CF86957105610508940895E894BB2707
:101B900066277727CB0197F908950E94E00D0C94F2
:101BA000930D0E94850D38F00E948C0D20F0952336
:101BB00011F00C947C0D0C94820D11240C94C70D23
:101BC0000E94A40D70F3959FC1F3950F50E0551F2F
:101BD000629FF001729FBB27F00DB11D639FAA2782
:101BE000F00DB11DAA1F649F6627B00DA11D661FD1
:101BF000829F2227B00DA11D621F739FB00DA11DF2
:101C0000621F839FA00D611D221F749F3327A00DAB
:101C1000611D231F849F600D211D822F762F6A2F47
:101C200011249F5750409AF0F1F088234AF0EE0FAC
:101C3000FF1FBB1F661F771F881F91505040A9F7D9
:101C40009E3F510580F00C947C0D0C94C70D5F3FB6
:101C5000E4F3983ED4F3869577956795B795F79515
:101C6000E7959F5FC1F7FE2B880F911D969587958D
:101C700097F90895EE0FFF1F881F8BBF0790F6910D
:101C8000E02D199481E090E0F8940C94470EF894BC
:021C9000FFCF84
:101C9200010000003D003C003B003A000000000053
:101CA200AF0408046E044C046004F6040000000053
:101CB200E305080409000D0A0053544F5000474F32
:101CC200005455524E204C454654005455524E2015
:101CD2005249474854002D2D2D2D002D2D2D7800D1
:101CE2002D2D782D002D2D7878002D782D2D002D7D
:101CF200782D78002D78782D002D78787800782D41
:101D02002D2D00782D2D7800782D782D00782D78C6
:101D1200780078782D2D0078782D78007878782DD5
:061D2200007878787800DB
:00000001FF
