:100000000C94E1000C9412010C9412010C94120156
:100010000C9412010C9412010C9412010C94120114
:100020000C9412010C9412010C9412010C94120104
:100030000C9412010C9412010C9412010C941201F4
:100040000C9412010C9412010C9412010C941201E4
:100050000C9412010C9412010C9412010C94520392
:100060000C9412010C94C6030C949C030C94120182
:100070000C9412010C9412010C9412010C941201B4
:100080000C9412010C9412010C9412010C941201A4
:100090000C9412010C9412010C9412010C94120194
:1000A0000C9412010C9412010C9412010C94120184
:1000B0000C9412010C9412010C9412010C94120174
:1000C0000C9412010C9412010C9412010C94120164
:1000D0000C9412010C9412010C9412010C94120154
:1000E0000C9412010C9426020C94D9010C945D021C
:1000F0000C94A4020C9468050C9418020C9404024D
:1001000000002200250028002B002E0031003400C2
:1001100002010000050108010B010000210024007C
:1001200027002A002D0030003300010100000401E7
:1001300007010A0105050505070508080808020268
:1001400002020A0A08080404040401010101010171
:1001500001010303030303030303040707070C0C54
:100160000C0C0C0C0C0C020202020606060606061B
:1001700006060B0B0B0B0B0B0B0B010210202008C0
:1001800008102040102040800201020108040201F2
:100190000102040810204080804020100804020161
:1001A00080040201804020100804020108040201BA
:1001B0000102040810204080010204081020408041
:1001C000680511241FBECFEFD1E2DEBFCDBF00E036
:1001D0000CBF12E0A0E0B2E0ECE8FBE000E00BBFF7
:1001E00002C007900D92AC31B107D9F722E0ACE123
:1001F000B2E001C01D92AB3DB207E1F710E0C1EEE5
:10020000D0E000E006C021970109802FFE010E9486
:10021000B705C03ED10780E00807A9F70E94FC039C
:100220000C94C4050C940000E0913E02F0913F0252
:100230000190F081E02D682F8EE392E01994CF9326
:10024000DF9390E0FC01E658FE4F2491FC01EC5C4A
:10025000FE4F8491882361F190E0880F991FFC0183
:10026000E65EFE4FC591D491FC01E050FF4FA59191
:10027000B491611109C09FB7F894888120958223B9
:100280008883EC912E230BC0623061F49FB7F89401
:100290003881822F809583238883EC912E2B2C9399
:1002A0009FBF06C08FB7F894E8812E2B28838FBF9D
:1002B000DF91CF910895863308F0865390917B00AB
:1002C000282F2870977F922B90937B0087708064F3
:1002D00080937C0080917A00806480937A00809182
:1002E0007A0086FDFCCF809178002091790090E023
:1002F000922B08953FB7F89480913A0290913B0277
:10030000A0913C02B0913D0226B5A89B05C02F3FAD
:1003100019F00196A11DB11D3FBFBA2FA92F982F2B
:100320008827820F911DA11DB11DBC01CD0142E0A6
:10033000660F771F881F991F4A95D1F708958F92EE
:100340009F92AF92BF92CF92DF92EF92FF926B019A
:100350007C010E947A014B015C01C114D104E104CB
:10036000F104F1F00E947A01DC01CB0188199909AE
:10037000AA09BB09883E9340A105B10570F321E0AD
:10038000C21AD108E108F10888EE880E83E0981EB1
:10039000A11CB11CC114D104E104F10419F7DDCF93
:1003A000FF90EF90DF90CF90BF90AF909F908F9095
:1003B0000895CF92DF92EF92FF920F931F93CF9306
:1003C000DF936C017A018B01C0E0D0E0CE15DF0530
:1003D00089F0D8016D918D01D601ED91FC910190CC
:1003E000F081E02DC6011995892B11F47E0102C020
:1003F0002196ECCFC701DF91CF911F910F91FF9014
:10040000EF90DF90CF900895FC01918D828D981729
:1004100061F0828DDF01A80FB11D5D968C91928DE8
:100420009F5F9F73928F90E008958FEF9FEF0895E5
:10043000FC01918D828D981731F0828DE80FF11DAE
:10044000858D90E008958FEF9FEF0895FC01918DC9
:10045000228D892F90E0805C9F4F821B91098F73C2
:10046000992708958EE392E00E94260221E0892BCD
:1004700009F420E0822F0895FC01848DDF01A80F8C
:10048000B11DA35ABF4F2C91848D90E001968F73BC
:100490009927848FA689B7892C93A089B1898C91DB
:1004A00080648C93938D848D981306C00288F389A1
:1004B000E02D80818F7D80830895EF92FF920F93CE
:1004C0001F93CF93DF93EC0181E0888F9B8D8C8D00
:1004D000981305C0E889F989808185FD24C0F62E2E
:1004E0000B8D10E00F5F1F4F0F731127E02E8C8DC7
:1004F000E8120CC00FB607FCFACFE889F9898081B1
:1005000085FFF5CFCE010E943C02F1CF8B8DFE011D
:10051000E80FF11DE35AFF4FF0820B8FEA89FB8948
:100520008081806207C0EE89FF896083E889F9894C
:1005300080818064808381E090E0DF91CF911F9182
:100540000F91FF90EF900895CF93DF93EC01888D8A
:100550008823C9F0EA89FB89808185FD05C0A889C7
:10056000B9898C9186FD0FC00FB607FCF5CF80814D
:1005700085FFF2CFA889B9898C9185FFEDCFCE0197
:100580000E943C02E7CFDF91CF91089580E090E098
:10059000892B21F00E943202811125C080E090E079
:1005A000892B41F080E090E0892B21F00E9400002F
:1005B00081111CC080E090E0892B41F080E090E048
:1005C000892B21F00E940000811113C080E090E08F
:1005D000892BA1F080E090E0892B81F00E9400003F
:1005E00081110AC008950E940000D8CF0E94000027
:1005F000E1CF0E940000EACF0C94000008958F9292
:100600009F92AF92BF920F931F93CF93DF93CDB77B
:10061000DEB7A1970FB6F894DEBF0FBECDBF19A20B
:10062000423008F44AE08E010F5D1F4F842E912C5A
:10063000A12CB12CA50194010E949505E62FB901CA
:10064000CA0101501109EA3014F4E05D01C0E95C0F
:10065000D801EC93232B242B252B61F701151105D1
:1006600071F0F80101900020E9F73197AF01401BCC
:10067000510BB8018EE392E00E94D90102C080E0E4
:1006800090E0A1960FB6F894DEBF0FBECDBFDF910C
:10069000CF911F910F91BF90AF909F908F90089531
:1006A0000E94BF051F920F920FB60F9211242F9335
:1006B0003F938F939F93AF93BF9380913602909116
:1006C0003702A0913802B09139023091350223E00F
:1006D000230F2D3720F40196A11DB11D05C026E87A
:1006E000230F0296A11DB11D20933502809336027F
:1006F00090933702A0933802B093390280913A0266
:1007000090913B02A0913C02B0913D020196A11D47
:10071000B11D80933A0290933B02A0933C02B093A8
:100720003D02BF91AF919F918F913F912F910F907B
:100730000FBE0F901F9018951F920F920FB60F9239
:1007400011240BB60F922F933F934F935F936F93A8
:100750007F938F939F93AF93BF93EF93FF938EE31A
:1007600092E00E943C02FF91EF91BF91AF919F9167
:100770008F917F916F915F914F913F912F910F904A
:100780000BBE0F900FBE0F901F9018951F920F92E7
:100790000FB60F9211240BB60F922F938F939F9346
:1007A000EF93FF93E0914E02F0914F028081E09130
:1007B0005402F091550282FD12C09081809157023F
:1007C0008F5F8F7320915802821751F0E09157028A
:1007D000F0E0E25CFD4F958F8093570201C080816D
:1007E000FF91EF919F918F912F910F900BBE0F90E2
:1007F0000FBE0F901F901895789484B5826084BDC9
:1008000084B5816084BD85B5826085BD85B5816014
:1008100085BD80916E00816080936E001092810092
:10082000809181008260809381008091810081604D
:10083000809381008091800081608093800080910E
:10084000B10084608093B1008091B000816080939A
:10085000B00080919100826080939100809191001E
:1008600081608093910080919000816080939000DE
:100870008091A10082608093A1008091A10081609D
:100880008093A1008091A00081608093A00080915E
:1008900021018260809321018091210181608093F8
:1008A00021018091200181608093200180917A0054
:1008B000846080937A0080917A00826080937A00CD
:1008C00080917A00816080937A0080917A008068BC
:1008D00080937A001092C100E0914E02F0914F0295
:1008E00082E08083E0914A02F0914B021082E09115
:1008F0004C02F0914D028FEC808310925602E091F1
:100900005202F091530286E08083E0915002F09110
:100910005102808180618083E0915002F091510208
:10092000808188608083E0915002F0915102808143
:1009300080688083E0915002F091510280818F7D28
:10094000808360E08AE30E941F0160E08BE30E94E5
:100950001F0160E08CE30E941F0160E08DE30E94B4
:100960001F0164E670E080E090E00E949F0104E2D5
:1009700012E0C0E1D2E0F2E0C831DF0779F088810F
:1009800022960E945B01F801819391938F016AE0A6
:1009900070E080E090E00E949F01EDCF61E089E08F
:1009A0000E941F0161E08AE00E941F0161E085E072
:1009B0000E941F0161E086E00E941F0160E087E362
:1009C0000E941F0160E086E30E941F0162E088E34D
:1009D0000E941F0168EE73E080E090E00E949F019A
:1009E00087E30E945B01EC01909323028093220233
:1009F00086E30E945B019093210280932002CC0F3A
:100A0000DD1FD0931F02C0931E029C01220F331FD3
:100A100030931D0220931C0261E070E080E090E0C2
:100A20000E949F01CCE2D2E07E0100E112E0F2E000
:100A300008311F0789F0F80180810E5F1F4F0E9467
:100A40005B01F701819391937F016AE070E080E0A0
:100A500090E00E949F01EBCF1092340282E50E9449
:100A6000140104E212E0E12CF12C29913991F801F2
:100A7000819191918F01880F991F61E082179307EF
:100A80000CF060E0862F0E2C01C0880F0A94EAF764
:100A900090913402892B8093340270E080E090E0E2
:100AA0004AE00E94FF02FFEFEF1AFF0A84E0E81617
:100AB000F104D9F68CE40E94140142E050E068E1B0
:100AC00072E08EE392E00E94D9010E94C602A4CF98
:100AD000EEE3F2E01382128288EE93E0A0E0B0E051
:100AE00084839583A683B78384E092E09183808397
:100AF00085EC90E09587848784EC90E097878687E3
:100B000080EC90E0918B808B81EC90E0938B828BDA
:100B100082EC90E0958B848B86EC90E0978B868BB3
:100B2000118E128E138E148E0895A1E21A2EAA1B16
:100B3000BB1BFD010DC0AA1FBB1FEE1FFF1FA2178D
:100B4000B307E407F50720F0A21BB30BE40BF50B8A
:100B5000661F771F881F991F1A9469F76095709513
:100B6000809590959B01AC01BD01CF010895EE0FDA
:100B7000FF1F881F8BBF0790F691E02D199481E02D
:0C0B800090E0F8940C94C405F894FFCFAA
:100B8C00000000005D02D901260204021802A40232
:0C0B9C003A003B003C003D000D0A000048
:00000001FF
