:100000000C948D010C94630C0C94380C0C940D0C16
:100010000C94E20B0C94B70B0C948C0B0C94610BAE
:100020000C94360B0C94BE010C94BE010C94BE01D2
:100030000C94BE010C94DA0C0C94BE010C94BE011D
:100040000C94BE010C94BE010C94BE010C94BE0134
:100050000C94BE010C94BE010C94BE010C94EC0AED
:100060000C94BE010C9414050C94EA040C94BE018B
:100070000C94BE010C94BE010C94BE010C94BE0104
:100080000C94BE010C94BE010C94BE010C94BE01F4
:100090000C94BE010C94BE010C94BE010C94BE01E4
:1000A0000C94BE010C94BE010C94BE010C94BE01D4
:1000B0000C94BE010C94BE010C94BE010C94BE01C4
:1000C0000C94BE010C94BE010C94BE010C94BE01B4
:1000D0000C94BE010C94BE010C94BE010C94BE01A4
:1000E0000C94BE01B311C311CE11C311CE11CE11A8
:1000F000CE11C311B811B311CE11B311B811B31190
:10010000B8112B062E061D062106250665063206A9
:1001100036063C06400644064A064E06520665066A
:1001200058065C066006C209C709CC09D609E00971
:10013000590AEA09F209FA09040A0E0A180A270AF2
:10014000310A590A3B0A450A4F0A0C943C060C94A2
:10015000FA090C94040A0C9460060C9421060C9481
:100160000E0A0C943B0A0C94C3110C9453020C9489
:1001700044060C94450A0C9465060C94CE110C941C
:10018000EB010C942E060C945C060C94EA090C947A
:10019000B8110C94C2090C940E020C9414140C9413
:1001A000C7090C94180A0C94FA010C9432060C94AA
:1001B00036060C949A020C9425060C94CC090C94E7
:1001C0001D060C94F9050C944F0A0C94D6090C9456
:1001D000C0010C944A060C944E060C94CA050C946B
:1001E00058060C94F2090C9404140C94310A0C94E3
:1001F00040060C9452060C94270A0C94590A0C944D
:100200001C020C94B3110C94E0090C942B06000012
:100210002100240027002A002D00300033000101B6
:100220000000040107010A0100000A0B02090C0D7D
:100230000E08070304010000000000000000000099
:1002400000000000000000000000000000000000AE
:10025000000000001211100000000000000000006B
:10026000000000000000000000000000000002018B
:1002700002102020080810204010204080020102B7
:10028000010804020101020408102040808040207F
:1002900010080402018004020180402010080402BA
:1002A0000108040201010204081020408001020438
:1002B000081020408000002200250028002B002E7E
:1002C000003100340002010000050108010B0105A6
:1002D000050505070508080808020202020A0A08BF
:1002E00008040404040101010101010101030303E5
:1002F0000303030303040707070C0C0C0C0C0C0C82
:100300000C0202020206060606060606060B0B0B88
:100310000B0B0B0B0B001414041411241FBECFEF96
:10032000D1E2DEBFCDBF00E00CBF12E0A0E0B2E042
:10033000E4E0F3E300E00BBF02C007900D92AC389D
:10034000B107D9F723E0ACE8B2E001C01D92AD3DA2
:10035000B207E1F711E0CCE8D1E000E006C0219758
:100360000109802FFE010E943D17CB38D10780E0A4
:100370000807A9F70E942E0F0C9470190C94000026
:10038000CF92DF92EF92FF920F931F93CF93DF9361
:100390006C017A018B01C0E0D0E0CE15DF0589F059
:1003A000D8016D918D01D601ED91FC910190F08104
:1003B000E02DC6011995892B11F47E0102C021960A
:1003C000ECCFC701DF91CF911F910F91FF90EF907C
:1003D000DF90CF90089520919C0230919D0281E0A2
:1003E00090E0232B11F080E090E090939D028093A9
:1003F0009C020895FC01918D828D981761F0828D89
:10040000DF01A80FB11D5D968C91928D9F5F9F7348
:10041000928F90E008958FEF9FEF0895FC01918DEA
:10042000828D981731F0828DE80FF11D858D90E057
:1004300008958FEF9FEF0895FC01918D228D892FF4
:1004400090E0805C9F4F821B91098F7399270895DC
:100450008BE093E00E941C0221E0892B09F420E04C
:10046000822F0895FC01848DDF01A80FB11DA35ACE
:10047000BF4F2C91848D90E001968F739927848FC4
:10048000A689B7892C93A089B1898C9180648C93BB
:10049000938D848D981306C00288F389E02D8081A6
:1004A0008F7D80830895EF92FF920F931F93CF93D8
:1004B000DF93EC0181E0888F9B8D8C8D981305C0B4
:1004C000E889F989808185FD24C0F62E0B8D10E026
:1004D0000F5F1F4F0F731127E02E8C8DE8120CC099
:1004E0000FB607FCFACFE889F989808185FFF5CF3F
:1004F000CE010E943202F1CF8B8DFE01E80FF11D7B
:10050000E35AFF4FF0820B8FEA89FB89808180627A
:1005100007C0EE89FF896083E889F989808180645A
:10052000808381E090E0DF91CF911F910F91FF9048
:10053000EF900895CF93DF93EC01888D8823C9F065
:10054000EA89FB89808185FD05C0A889B9898C91DC
:1005500086FD0FC00FB607FCF5CF808185FFF2CF77
:10056000A889B9898C9185FFEDCFCE010E94320216
:10057000E7CFDF91CF91089580E090E0892B21F0C3
:100580000E942802811125C080E090E0892B41F073
:1005900080E090E0892B21F00E94000081111CC0B6
:1005A00080E090E0892B41F080E090E0892B21F001
:1005B0000E940000811113C080E090E0892BA1F01F
:1005C00080E090E0892B81F00E94000081110AC038
:1005D00008950E940000D8CF0E940000E1CF0E9441
:1005E0000000EACF0C9400000895CF93DF93E4E974
:1005F000F2E0AEE9B2E040E080E090E0C191D1915C
:100600006D917D91660F771F21E030E06C177D07BB
:1006100014F020E030E0082E01C0220F0A94EAF71F
:10062000422B01968430910549F74093D302DF9124
:10063000CF910895CF93DF93EC0160E08E810E940B
:10064000FC0561E08E810E94FC0560E08E810E94C5
:10065000FC058BE891E00197F1F7DF91CF910895C8
:100660004F925F926F927F928F929F92AF92BF92C2
:10067000CF92DF92EF92FF920F931F93CF93DF936E
:10068000CDB7DEB7A1970FB6F894DEBF0FBECDBFD2
:100690008DE2A82E82E0B82E04E912E09AE0492EFD
:1006A000512C612C712CF2E00C391F0709F484C025
:1006B000F80160817181072E000C880B990B0E9454
:1006C0003E156B017C01F5018081F2E0AF0EB11C9B
:1006D0000E94620A4C012AE939E949E55FE3C70152
:1006E000B6010E9479150E940E1780E090E00E94EA
:1006F0003C156B017C01B401990C880B990B0E948D
:100700003E1528E939E949E15EE30E9479159B012C
:10071000AC01C701B6010E949B160E940717F801A1
:10072000619371938F016B01770FEE08FF08F7FE5D
:1007300026C0E0910B03F0910C030190F081E02DB5
:100740006DE28BE093E0199522273327A9012C193C
:100750003D094E095F0919A2CE0181967C01CA01AB
:10076000B901A30192010E946916605DF7016293CD
:100770007F01211531054105510589F715C0A701F4
:10078000960119A2CE0181967C01CA01B901A3018B
:1007900092010E946916605DF70162937F01211545
:1007A00031054105510589F7C7010E941C0F8DE4F1
:1007B00092E00E941C0F77CF8FE492E00E941C0F02
:1007C000A1960FB6F894DEBF0FBECDBFDF91CF91DB
:1007D0001F910F91FF90EF90DF90CF90BF90AF905F
:1007E0009F908F907F906F905F904F9008954F9261
:1007F0005F926F927F928F929F92AF92BF92CF92B1
:10080000DF92EF92FF92CF93DF93CDB7DEB72897B9
:100810000FB6F894DEBF0FBECDBFC0900903D090D5
:100820000A030D2C000CEE08FF0888EEC80E83E0CA
:10083000D81EE11CF11CAFEFB0E0A70196010E94A9
:10084000561620ED822E27E0922EA12CB12CA50168
:1008500094010E94371629833A834B835C83A981D4
:10086000BA81B0939302A0939202A1E0BFEFA701D7
:1008700096010E946416A50194010E943716DA01C0
:10088000C90181509F4FAF4FBF4F8D839E83AF8370
:10089000B8879093910280939002C0900703D09004
:1008A00008030D2C000CEE08FF0898EEC90E93E02B
:1008B000D91EE11CF11CAFEFB0E0A70196010E9428
:1008C0005616A50194010E94371629013A0130936A
:1008D0008F0220938E02A1E0BFEFA70196010E9434
:1008E0006416A50194010E94371669017A01AFEFE1
:1008F000CA0ED11CE11CF11CD0928D02C0928C0258
:1009000069817A8189E00E9499096D817E818AE0FE
:100910000E949909B20186E00E949909B60185E01A
:1009200028960FB6F894DEBF0FBECDBFDF91CF91F2
:10093000FF90EF90DF90CF90BF90AF909F908F90FF
:100940007F906F905F904F900C9499099091220244
:1009500098133DC0EEE6F2E0E4919FEF90932202FF
:10096000E230C9F050F4EE2399F0E13081F5909136
:100970006F009D7F90936F002AC0E43019F1E0F082
:10098000E53029F5909173009D7F909373001FC00F
:1009900010926E001CC0909170009D7F909370002B
:1009A00091E09093B0009091B100987F9460909303
:1009B000B1001092B3000BC0909171009D7F909395
:1009C000710005C0909172009D7F9093720060E06D
:1009D0000C94FC051F920F920FB60F9211240BB6C8
:1009E0000F922F933F934F935F936F937F938F93C8
:1009F0009F93AF93BF93EF93FF938BE093E00E949D
:100A00003202FF91EF91BF91AF919F918F917F91B2
:100A10006F915F914F913F912F910F900BBE0F906F
:100A20000FBE0F901F9018951F920F920FB60F9246
:100A300011240BB60F922F938F939F93EF93FF93F5
:100A4000E0911B03F0911C038081E0912103F09160
:100A5000220382FD12C09081809124038F5F8F73E7
:100A600020912503821751F0E0912403F0E0E55F27
:100A7000FC4F958F8093240301C08081FF91EF91FB
:100A80009F918F912F910F900BBE0F900FBE0F90E3
:100A90001F901895CF92DF92EF92FF920F931F93C2
:100AA000CF93DF937C016C0187E0C80ED11CC0E0BE
:100AB000D0E0062F10E0B8010C2E02C075956795A6
:100AC0000A94E2F76170F60181916F010E94FC05C2
:100AD0002196C430D10579F7C701DF91CF911F91DD
:100AE0000F91FF90EF90DF90CF900C941A03CF926C
:100AF000DF92EF92FF920F931F93CF93DF93EC015E
:100B0000F62E642F8C810E94FC058D818F3F19F099
:100B100060E00E94FC058F850F2D10E084FF25C04A
:100B20006E0187E0C80ED11CE12CF12CB8010E2C0F
:100B300002C0759567950A94E2F76170F60181919C
:100B40006F010E94FC05FFEFEF1AFF0A88E0E8162C
:100B5000F10461F7CE01DF91CF911F910F91FF90CA
:100B6000EF90DF90CF900C941A03B80184E0759554
:100B700067958A95E1F7CE010E944A056F2DCE0157
:100B8000DF91CF911F910F91FF90EF90DF90CF9069
:100B90000C944A0541E00E94770581E090E00895B9
:100BA00040E00C947705CF93DF93EC0161E08DEB8F
:100BB00093E00E94D0058BE39FE10197F1F7E0916C
:100BC000D003E23010F4E15001C0E1E0F0E0E35482
:100BD000FC4F648960688DEB93E00E94D0054C81E6
:100BE0005D81688179818DEB93E0DF91CF910C94E9
:100BF000C00108950E945B19362F90E0FC01E85D6A
:100C0000FD4F4491FC01E159FD4F2491FC01E1535A
:100C1000FD4F9491992309F46BC0442309F455C006
:100C200050E0FA013197E231F10508F04EC0882713
:100C3000EF57FF4F8F4F0C943D17809180008F77B7
:100C400007C0809180008F7D03C080918000877FE6
:100C5000809380003AC084B58F7702C084B58F7DC1
:100C600084BD33C08091B0008F7703C08091B00005
:100C70008F7D8093B00029C0809190008F7707C04E
:100C8000809190008F7D03C080919000877F80933A
:100C900090001BC08091A0008F7707C08091A000BA
:100CA0008F7D03C08091A000877F8093A0000DC03E
:100CB000809120018F7707C0809120018F7D03C034
:100CC00080912001877F80932001E92FF0E0EE0FD3
:100CD000FF1FEB54FD4FA591B4918FB7F894EC91A1
:100CE000311103C020952E2301C02E2B2C938FBFD2
:100CF0000895CF93DF9390E0FC01E159FD4F2491DB
:100D0000FC01E153FD4F8491882361F190E0880F4D
:100D1000991FFC01E25FFD4FC591D491FC01EB549A
:100D2000FD4FA591B491611109C09FB7F8948881D6
:100D3000209582238883EC912E230BC0623061F4CE
:100D40009FB7F8943881822F809583238883EC9114
:100D50002E2B2C939FBF06C08FB7F894E8812E2BC3
:100D600028838FBFDF91CF9108958F929F92AF928A
:100D7000BF92CF92DF92EF92FF92CF932091220207
:100D80002C3021F02F3F09F0CAC204C0EEE6F2E099
:100D9000C491E7C02CE020932202EEE6F2E0C49179
:100DA000CF3F09F4BCC2C23009F472C04CF5CC2369
:100DB00009F451C0C13009F0D4C0109280001092E3
:100DC0008100209181002860209381002091810082
:100DD000216020938100EBEDF2E0E491F0E0EE0F72
:100DE000FF1FEB54FD4F259134913093EB0220937C
:100DF000EA02EBE7F2E0E491E093E902C1E0B3C07C
:100E0000C43009F48BC00CF466C0C53009F0A9C029
:100E1000109220011092210120912101286020933D
:100E2000210120912101216020932101EBEDF2E0CD
:100E3000E491F0E0EE0FFF1FEB54FD4F259134914C
:100E40003093DF022093DE02EBE7F2E0E491E093DF
:100E5000DD02C5E088C014BC15BC24B5226024BDE9
:100E600025B5216025BDEBEDF2E0E491F0E0EE0F59
:100E7000FF1FEB54FD4F259134913093EE022093E8
:100E8000ED02EBE7F2E0E491E093EC02C0E06BC02E
:100E90001092B0001092B1002091B0002260209317
:100EA000B0002091B10021602093B100EBEDF2E0A1
:100EB000E491F0E0EE0FFF1FEB54FD4F25913491CC
:100EC0003093E8022093E702EBE7F2E0E491E0934D
:100ED000E602C2E048C0109290001092910020916A
:100EE000910028602093910020919100216020932F
:100EF0009100EBEDF2E0E491F0E0EE0FFF1FEB5418
:100F0000FD4F259134913093E5022093E402EBE705
:100F1000F2E0E491E093E302C3E025C01092A00068
:100F20001092A1002091A10028602093A10020919F
:100F3000A10021602093A100EBEDF2E0E491F0E04C
:100F4000EE0FFF1FEB54FD4F259134913093E202D9
:100F50002093E102EBE7F2E0E491E093E002C4E0E9
:100F600002C0C7FDDCC16C0161E08CE00E94790623
:100F7000E12CF12C8C2F8D7F09F0A9C060E072E18B
:100F80008AE790E0A70196010E94371649015A01AD
:100F9000BA01A90141505109610971094F3F510539
:100FA0006105710509F008F445C060E472E48FE062
:100FB00090E0A70196010E943716BA01A90141509D
:100FC000510961097109C230E9F44F3F51056105CA
:100FD000710509F008F4A1C160E970ED83E090E0CB
:100FE000A70196010E943716BA01A9014150510983
:100FF000610971094F3F51056105710509F0A8F5B7
:1010000083E05EC04F3F510561057105A9F0A0F076
:1010100068E478EE81E090E0A70196010E9437161F
:10102000BA01A9014150510961097109CC2309F4A0
:1010300023C16BC181E001C082E0CC2389F040C0B4
:10104000D501C4012AE0B595A795979587952A956E
:10105000D1F7AC01BD01415051096109710985E029
:1010600095B5987F892B85BD8CC068E478EE81E0CA
:1010700090E0A70196010E943716BA01A9014150DC
:101080005109610971094F3F51056105710509F069
:1010900008F4F0C064E274EF80E090E0A7019601EC
:1010A0000E943716BA01A90141505109610971091D
:1010B0004F3F51056105710511F008F0FCC085E056
:1010C0009091B100987F892B8093B10049C060E076
:1010D00072E18AE790E0A70196010E943716BA01F3
:1010E000A90141505109610971094115510581E07A
:1010F0006807710580F068E478EE81E090E0A70170
:1011000096010E943716BA01A9014150510961099F
:10111000710983E001C081E0C13039F49091810010
:10112000987F892B809381003EC0C33039F4909121
:101130009100987F892B809391005DC0C43039F471
:101140009091A100987F892B8093A10069C0C53040
:1011500039F490912101987F892B8093210175C0EA
:10116000C230B1F134F4CC2361F0C13009F0D7C002
:101170001AC0C43009F454C0F4F1C53009F465C094
:10118000CEC047BD8FEF9FEFDC01809303039093A8
:101190000403A0930503B093060380916E00826060
:1011A00080936E00BCC050938900409388008FEFFD
:1011B0009FEFDC018093FF0290930003A093010353
:1011C000B093020380916F00826080936F00A7C08C
:1011D0004093B3008FEF9FEFDC018093FB0290936D
:1011E000FC02A093FD02B093FE0280917000826029
:1011F0008093700094C050939900409398008FEFB3
:101200009FEFDC018093F7029093F802A093F9021C
:10121000B093FA02809171008260809371007FC068
:101220005093A9004093A8008FEF9FEFDC018093BB
:10123000F3029093F402A093F502B093F60280912A
:1012400072008260809372006AC0509329014093BB
:1012500028018FEF9FEFDC018093EF029093F00263
:10126000A093F102B093F2028091730082608093A8
:10127000730055C084E024CF4F3F510561057105CF
:10128000C1F0B8F062E17AE780E090E0A701960152
:101290000E943716BA01A90141505109610971092B
:1012A0004F3F51056105710511F008F0C9CE84E08A
:1012B000D7CE83E0D5CE62E17AE780E090E0A70167
:1012C00096010E943716BA01A901415051096109DE
:1012D00071094F3F510561057105A9F0A0F0D501D5
:1012E000C4013AE0B595A795979587953A95D1F7BA
:1012F000AC01BD014150510961097109CC2309F4C8
:10130000AECE87E0DDCE86E098CE4F3F5105610539
:10131000710509F080F684E090CE82E0D1CECF91C5
:10132000FF90EF90DF90CF90BF90AF909F908F9005
:1013300008951F93CF93DF93182FEB0161E00E9474
:101340007906209711F460E004C0CF3FD10539F44D
:1013500061E0812FDF91CF911F910C94FC05E12F6B
:10136000F0E0E85DFD4FE4914E2F50E0FA01319737
:10137000E231F10508F09DC08827ED56FF4F8F4FF1
:101380000C943D1784B5806884BDC7BD97C084B5F3
:10139000806284BDC8BD92C08091800080688093C7
:1013A0008000D0938900C093880088C0809180001D
:1013B000806280938000D0938B00C0938A007EC0AF
:1013C00080918000886080938000D0938D00C093CE
:1013D0008C0074C08091B00080688093B000C0938E
:1013E000B3006CC08091B00080628093B000C09365
:1013F000B40064C080919000806880939000D09386
:101400009900C09398005AC08091900080628093A8
:101410009000D0939B00C0939A0050C080919000A0
:10142000886080939000D0939D00C0939C0046C03C
:101430008091A00080688093A0008091A0008F7BA5
:101440008093A000D093A900C093A80037C08091DA
:10145000A00080628093A000D093AB00C093AA004C
:101460002DC08091A00088608093A000D093AD0033
:10147000C093AC0023C0809120018068809320013C
:10148000D0932901C093280119C080912001806266
:1014900080932001D0932B01C0932A010FC080912B
:1014A0002001886080932001D0932D01C0932C01EE
:1014B00005C0C038D1050CF04BCF45CFDF91CF919F
:1014C0001F910895863308F0865390917B00282F52
:1014D0002870977F922B90937B0087708064809315
:1014E0007C0080917A00806480937A0080917A00F9
:1014F00086FDFCCF809178002091790090E0922BBE
:1015000008953FB7F8948091D9029091DA02A091A2
:10151000DB02B091DC0226B5A89B05C02F3F19F075
:101520000196A11DB11D3FBFBA2FA92F982F882763
:10153000820F911DA11DB11DBC01CD0142E0660FBE
:10154000771F881F991F4A95D1F708958F929F9210
:10155000AF92BF92CF92DF92EF92FF926B017C012C
:101560000E94810A4B015C01C114D104E104F10421
:10157000F1F00E94810ADC01CB0188199909AA09BE
:10158000BB09883E9340A105B10570F321E0C21A62
:10159000D108E108F10888EE880E83E0981EA11CAE
:1015A000B11CC114D104E104F10419F7DDCFFF909F
:1015B000EF90DF90CF90BF90AF909F908F90089565
:1015C0002FB7F8946091D5027091D6028091D7021E
:1015D0009091D8022FBF08951F920F920FB60F92CD
:1015E00011242F933F938F939F93AF93BF93809139
:1015F000D5029091D602A091D702B091D802309135
:10160000D40223E0230F2D3720F40196A11DB11D34
:1016100005C026E8230F0296A11DB11D2093D40218
:101620008093D5029093D602A093D702B093D802AC
:101630008091D9029091DA02A091DB02B091DC0294
:101640000196A11DB11D8093D9029093DA02A09357
:10165000DB02B093DC02BF91AF919F918F913F91DC
:101660002F910F900FBE0F901F9018951F920F9201
:101670000FB60F9211240BB60F922F933F934F93F7
:101680005F936F937F938F939F93AF93BF93EF93EA
:10169000FF93E0912002F09121021995FF91EF91C3
:1016A000BF91AF919F918F917F916F915F914F917A
:1016B0003F912F910F900BBE0F900FBE0F901F9078
:1016C00018951F920F920FB60F9211240BB60F921E
:1016D0002F933F934F935F936F937F938F939F933A
:1016E000AF93BF93EF93FF93E0911E02F0911F021F
:1016F0001995FF91EF91BF91AF919F918F917F913C
:101700006F915F914F913F912F910F900BBE0F9072
:101710000FBE0F901F9018951F920F920FB60F9249
:1017200011240BB60F922F933F934F935F936F93B8
:101730007F938F939F93AF93BF93EF93FF93E0912A
:101740001402F09115021995FF91EF91BF91AF919D
:101750009F918F917F916F915F914F913F912F91C9
:101760000F900BBE0F900FBE0F901F9018951F92F9
:101770000F920FB60F9211240BB60F922F933F9337
:101780004F935F936F937F938F939F93AF93BF9389
:10179000EF93FF93E0911202F09113021995FF91DC
:1017A000EF91BF91AF919F918F917F916F915F91D9
:1017B0004F913F912F910F900BBE0F900FBE0F9046
:1017C0001F9018951F920F920FB60F9211240BB60F
:1017D0000F922F933F934F935F936F937F938F93CA
:1017E0009F93AF93BF93EF93FF93E0911C02F0910F
:1017F0001D021995FF91EF91BF91AF919F918F912C
:101800007F916F915F914F913F912F910F900BBE00
:101810000F900FBE0F901F9018951F920F920FB64A
:101820000F9211240BB60F922F933F934F935F9318
:101830006F937F938F939F93AF93BF93EF93FF9398
:10184000E0911A02F0911B021995FF91EF91BF915F
:10185000AF919F918F917F916F915F914F913F9148
:101860002F910F900BBE0F900FBE0F901F901895E9
:101870001F920F920FB60F9211240BB60F922F9357
:101880003F934F935F936F937F938F939F93AF9308
:10189000BF93EF93FF93E0911802F091190219950D
:1018A000FF91EF91BF91AF919F918F917F916F9138
:1018B0005F914F913F912F910F900BBE0F900FBEF4
:1018C0000F901F9018951F920F920FB60F92112430
:1018D0000BB60F922F933F934F935F936F937F932A
:1018E0008F939F93AF93BF93EF93FF93E091160273
:1018F000F09117021995FF91EF91BF91AF919F91D0
:101900008F917F916F915F914F913F912F910F90A8
:101910000BBE0F900FBE0F901F901895EF92FF9285
:101920000F931F93CF93DF93EC01198218821B82D0
:101930001A821D821C8261157105A9F17B01FB01D0
:1019400001900020E9F731978F01061B170BB801B2
:101950006F5F7F4F80E090E00E947218009759F00F
:10196000998388831B830A832C813D81232B81F4F7
:10197000FC0110820DC088819981009711F00E94AE
:10198000DA17198218821D821C821B821A820BC0F0
:101990001D830C83B701DF91CF911F910F91FF90B1
:1019A000EF900C946919DF91CF911F910F91FF90E7
:1019B000EF9008951F920F920FB60F9211240BB65D
:1019C0000F922F933F934F935F936F937F938F93D8
:1019D0009F93AF93BF93EF93FF938091FB029091FE
:1019E000FC02A091FD02B091FE02892B8A2B8B2B69
:1019F00051F18091E602E091E702F091E8029081D6
:101A0000892780838091FB029091FC02A091FD02C6
:101A1000B091FE02181619061A061B06C4F480912E
:101A2000FB029091FC02A091FD02B091FE02019791
:101A3000A109B1098093FB029093FC02A093FD02DF
:101A4000B093FE0204C0809122020E94A604FF917E
:101A5000EF91BF91AF919F918F917F916F915F9126
:101A60004F913F912F910F900BBE0F900FBE0F9093
:101A70001F901895EF92FF920F931F93CF93DF93D0
:101A8000EC01623018F08F8588608F876B8B1C8A21
:101A900080E48D8B80E18E8B80E58F8B61E08C8183
:101AA0000E9479068D818F3F19F061E00E947906CE
:101AB00061E08E810E9479067E0187E0E80EF11CCC
:101AC00000E010E08F8584FD03C084E090E002C058
:101AD00088E090E0081719074CF461E0F701819164
:101AE0007F010E9479060F5F1F4FECCF8BE39DE0D3
:101AF0000197F1F760E08C810E94FC0560E08E8127
:101B00000E94FC058D818F3F19F060E00E94FC056A
:101B10006F8564FD1DC063E0CE010E944A050BE4A1
:101B200016E4C8010197F1F763E0CE010E944A056F
:101B3000C8010197F1F763E0CE010E944A0583E5F1
:101B400092E00197F1F762E0CE010E944A0516C0CB
:101B50006062CE010E94D0058BE496E40197F1F714
:101B60006F856062CE010E94D00583E592E0019707
:101B7000F1F76F856062CE010E94D0056F856062CB
:101B8000CE010E94D00584E0888B6CE0CE010E94DB
:101B9000D00561E0CE010E94D0058BE39FE1019763
:101BA000F1F782E0898B66E0CE01DF91CF911F9142
:101BB0000F91FF90EF900C94D0050F931F93CF934C
:101BC000DF93CDB7DEB729970FB6F894DEBF0FBE0F
:101BD000CDBF8091B0039091B103892B09F4A1C0CE
:101BE0000E94810A0091B6031091B7032091B803B7
:101BF0003091B903DC01CB01801B910BA20BB30B1D
:101C0000C297A105B10560F3F8948091AC0390915F
:101C1000AD039A838983E091B003F091B103DF01B2
:101C20001196808189879091A803E091BA03F09181
:101C3000BB038091BC03992309F42EC09081982B9B
:101C400098879081809589238F838F818C8388E00A
:101C50008B8358856F8149853B812C8189819A814D
:101C6000508347FD252F3A952083262F39F0441FB6
:101C700000C000006083000000C0F2CF38E04D914A
:101C800060830000019761F7F093BB03E093BA0310
:101C900049873B832C8338C09081982B988790810B
:101CA000809589238F838F818E8388E08D835885EB
:101CB0006F8149853D812E8189819A81508347FDBD
:101CC000252F00C000C0208300C000C000C000C09D
:101CD00000C060830000262F3A9541F0441F0000A9
:101CE00000C000C000C000C000C0E8CF38E04D9187
:101CF00000C0608300C0019709F7F093BB03E09335
:101D0000BA0349873D832E839A83898378940E94FE
:101D1000810A6093B6037093B7038093B8039093DE
:101D2000B90329960FB6F894DEBF0FBECDBFDF9181
:101D3000CF911F910F9108958F929F92AF92BF9272
:101D4000CF92DF92EF92FF922091AA033091AB03E2
:101D50008217930708F052C04B01AA24BB24E82D38
:101D6000C52ED62EE72EFF24FC2D342F2091AF0355
:101D7000222361F0829E40011124E92DC29E600160
:101D80001124FD2D429FD00111243B2FF090B5036B
:101D9000E090B203A091B003B091B103FE1008C06F
:101DA000AC01440F551F840F951F8A0F9B1F14C051
:101DB000880F991F880F991F8A0F9B1F472F552740
:101DC00066277727DC01AF0DB11D222321F0429F4A
:101DD000A0011124452F4C932091B203DC01A20FE6
:101DE000B11DEC932091B303DC01A20FB11DFC9354
:101DF0002091B403FC01E20FF11D3083FF90EF90BE
:101E0000DF90CF90BF90AF909F908F9008951092E9
:101E1000D8031092D70322273327281B390B30937E
:101E2000D6032093D50390930A03809309039093DC
:101E30000803809307030895009769F0FC0101905F
:101E40000020E9F73197AF01481B590BBC018BE02B
:101E500093E00C94C00180E090E00895CF93DF936D
:101E6000CDB7DEB72E970FB6F894DEBF0FBECDBF4D
:101E7000789484B5826084BD84B5816084BD85B565
:101E8000826085BD85B5816085BD80916E00816071
:101E900080936E0010928100809181008260809317
:101EA0008100809181008160809381008091800019
:101EB0008160809380008091B10084608093B10044
:101EC0008091B00081608093B00080919100826029
:101ED0008093910080919100816080939100809126
:101EE00090008160809390008091A1008260809337
:101EF000A1008091A10081608093A1008091A00049
:101F000081608093A00080912101826080932101F3
:101F10008091210181608093210180912001816065
:101F20008093200180917A00846080937A00809170
:101F30007A00826080937A0080917A008160809339
:101F40007A0080917A00806880937A001092C100B4
:101F5000E0911B03F0911C0382E08083E091170362
:101F6000F09118031082E0911903F0911A038FEC9D
:101F7000808310922303E0911F03F091200386E0F9
:101F80008083E0911D03F0911E0380818061808336
:101F9000E0911D03F0911E03808188608083E091B1
:101FA0001D03F0911E03808180688083E0911D03F2
:101FB000F0911E0380818F7D808360E08DE30E941D
:101FC000790660E08CE30E94790660E08BE30E9472
:101FD000790660E08AE30E94790664E670E080E0BA
:101FE00090E00E94A60A0DE212E07EE9E72E72E080
:101FF000F72EF2E005331F0789F0F80180810E5FAC
:102000001F4F0E94620AF701819391937F016AE05A
:1020100070E080E090E00E94A60AEBCF61E089E0EA
:102020000E94790661E08AE00E94790661E086E01C
:102030000E94790661E085E00E94790660E087E30E
:102040000E94790660E086E30E94790662E088E3F8
:102050000E94790668EE73E080E090E00E94A60A94
:1020600087E30E94620A8C019093AD028093AC02D8
:1020700086E30E94620A9093AB028093AA02000F4B
:10208000111F1093A9020093A8029C01220F331F75
:102090003093A7022093A60261E08EE10E947906A8
:1020A00061E080E20E94790661E086E10E947906A3
:1020B00061E088E10E94790661E08AE10E94790688
:1020C00061E08CE10E94790662E08DEB93E00E9472
:1020D0003A0D61E08CE00E9479068CE00E94A60433
:1020E00061E08CE00E94FC058091AE0387FD08C092
:1020F00061E00E94790660E08091AE030E94FC05D9
:1021000081E08093A90360E082E00E9479068BEE73
:1021100091E0909313028093120280916A008C7F69
:10212000826080936A00EC9A8CE00E94A60461E0D1
:102130008CE00E94FC0500E71EEF48E7242E312CBE
:1021400061E070E080E090E00E94A60A0E94E00A50
:102150006B017C010E9430030E94F5028091D30242
:102160008F30A9F08091CF029091D002A091D1023E
:10217000B091D20226013701481A590A6A0A7B0A2D
:10218000D301C2014497A105B105B0F53AC30E943D
:102190002F1528EE33E040E050E00E943716643FF0
:1021A0007140810591051CF08FEF9FEF02C081E027
:1021B00090E0809F5001819FB00C909FB00C112443
:1021C00020E931E0829F4001839F900C929F900C08
:1021D00011248091D302882329F290920A038092DD
:1021E0000903B0920803A09207030E94F7030E941C
:1021F00030030E94F502EDCFC092CF02D092D00200
:10220000E092D102F092D2028091100290911102DC
:102210008230910509F4E3C08430910509F44AC283
:10222000019709F0EEC262E572E0CE0101960E94CC
:102230008E0CCE0101960E94D30589819A810E945D
:10224000DA170E94E00A8090C9029090CA02A0901A
:10225000CB02B090CC02DC01CB0188199909AA0904
:10226000BB0988379105A105B10510F10E94E00A6C
:102270006093C9027093CA028093CB029093CC0200
:1022800020910802309109028091C6029091C70204
:10229000820F931F9093C7028093C60201970697FF
:1022A00018F03195219531093093090220930802E5
:1022B00036EBA32E32E0B32E812C912C8091C602F6
:1022C0009091C702F5018816990619F4318220828F
:1022D00013C0808191818A30910534F08A30F1E019
:1022E0009F072CF40A9705C080E090E002C08FEFB2
:1022F00090E0F50191838083F5018081F2E0AF0EDB
:10230000B11C90E0A0E0B0E03C0155244424222719
:10231000382F492F5A2F24293529462957292F8309
:10232000388749875A87BA01A901482B592B6A2B4C
:102330007B2BC4010E949C0E3FEF831A930A48E056
:102340008416910409F0BACF0E94DD0D8091D3026A
:1023500090E08F30910510F5FC018827EE58FF4F73
:102360008F4F0C943D1780E991E00E94070F1EC02B
:1023700010930A030093090380E991E09093080306
:102380008093070313C080E991E090930A03809340
:102390000903109308030093070308C010920A036F
:1023A0001092090310920803109207030E94F7038A
:1023B00080910C0290910D02A0910E02B0910F023B
:1023C000C816D906EA06FB0608F41BC280E090E0B6
:1023D0000E94070F0E94F70382E090E066C16CE55F
:1023E00072E0CE0101960E948E0CCE0101960E94F1
:1023F000D30589819A810E94DA170E94E00A4B0175
:102400005C018091B2029091B302A091B402B091AC
:10241000B502B501A401481B590B6A0B7B0B8091D7
:10242000040290910502A0910602B091070248179C
:1024300059076A077B0740F10E942F1524E630E018
:1024400040E050E00E94371660930402709305024A
:1024500080930602909307028092B2029092B30298
:10246000A092B402B092B5020E942F1528EB3BE077
:1024700040E050E00E943716DC01CB0188519C4FB0
:10248000AF4FBF4F0E94B5068091AE029091AF0250
:10249000A091B002B091B102B501A401481B590B43
:1024A0006A0B7B0B8091000290910102A0910202C5
:1024B000B0910302481759076A077B0768F10E9429
:1024C0002F152CED35E040E050E00E943716DC017E
:1024D000CB014496A11DB11D80930002909301028F
:1024E000A0930202B09303028092AE029092AF02D8
:1024F000A092B002B092B1020E942F1528EB3BE0EF
:1025000040E050E00E943716DC01CB0188519C4F1F
:10251000AF4FBF4F0E94B5068091C802811130C0F5
:102520001092C7021092C60281E090E090930902D7
:1025300080930802E6EBCE2EE2E0DE2EE12CF12CB9
:10254000F601119211926F0140E050E06FEF70E0E0
:10255000C7010E949C0EFFEFEF1AFF0A28E0E21667
:10256000F10471F70E94DD0D81E08093C8028FE6CF
:1025700092E00E941C0F8FE492E00E941C0F41C168
:10258000812C912CA090C602B090C7028A149B04A3
:1025900039F440E05FEF60E070E0C4010E949C0EFF
:1025A0003FEF831A930A48E08416910459F70E947A
:1025B000DD0D8091C9029091CA02A091CB02B09129
:1025C000CC0226013701481A590A6A0A7B0A20ED13
:1025D000421627E052066104710408F412C1C09249
:1025E000C902D092CA02E092CB02F092CC023FEF35
:1025F000A31AB30AB092C702A092C60248E0A4167A
:10260000B10408F4FEC084E090E09093110280933E
:1026100010021092C8021092C7021092C60281E006
:1026200090E0909309028093080276EBC72E72E047
:10263000D72EE12CF12CF601119211926F0140E09E
:1026400050E0BA01C7010E949C0EFFEFEF1AFF0A8B
:1026500028E0E216F10479F70E94DD0D8CE00E947B
:10266000A60461E08CE00E94FC0568EE73E080E067
:1026700090E00E94A60A0E94E00A6B017C010E9481
:102680002F1520E23EE440E050E00E943716C60ECF
:10269000D71EE81EF91EC0920C02D0920D02E092E5
:1026A0000E02F0920F0284E090E09093110280936A
:1026B0001002A7C06DE772E0CE0101960E948E0C59
:1026C000CE0101960E94D30589819A810E94DA1772
:1026D00080910C0290910D02A0910E02B0910F0218
:1026E000C816D906EA06FB0630F10E94E00A6B0123
:1026F0007C010E942F154601570130E2830E3EE413
:10270000931EA11CB11C20E23EE440E050E00E9478
:102710003716860E971EA81EB91E80920C02909244
:102720000D02A0920E02B0920F0281E090E0909311
:10273000110280931002A12CB12C8090CD029090B8
:10274000CE02882D90E0A0E0B0E03C015524442466
:102750002227382F492F5A2F24293529462957292E
:102760002F83388749875A87BA01A901482B592BEB
:102770006A2B7B2BC5010E949C0E3FEFA31AB30A64
:1027800048E0A416B104C9F60E94DD0D8091C9028B
:102790009091CA02A091CB02B091CC02C81AD90A7A
:1027A000EA0AFB0A54E1C516D104E104F10448F138
:1027B00080910A0290910B029C0144E0220F331F8A
:1027C0004A95E1F7280D391D2F3F310519F014F016
:1027D0002FEF30E037FF02C020E030E03093CE0230
:1027E0002093CD024901E1E08E1A9108FEEF8F1689
:1027F000910418F091958195910990930B02809323
:102800000A020E94BC029CCC8091B0039091B1035B
:10281000009711F00E94DA178091AE0387FD03C084
:1028200060E00C9479060895CF9310920E031092F5
:102830000D0388EE93E0A0E0B0E080930F03909347
:102840001003A0931103B093120389E392E09093D5
:102850000C0380930B0385EC90E090931803809316
:10286000170384EC90E090931A038093190380EC93
:1028700090E090931C0380931B0381EC90E0909375
:102880001E0380931D0382EC90E0909320038093BD
:102890001F0386EC90E09093220380932103109213
:1028A00024031092250310922603109227031092FE
:1028B000C0031092BF0389E492E09093BE0380931B
:1028C000BD038EE18093C1038FEF8093C20380E24A
:1028D0008093C30386E18093C403C8E1C093C5031A
:1028E0008AE18093C6038CE18093C7031092C803EA
:1028F0001092C9031092CA031092CB031092CC031A
:1029000061E08DEB93E00E943A0D1092A9031092C2
:10291000AF031092B6031092B7031092B80310924F
:10292000B90381E08093B5038093B2031092B3039F
:1029300092E09093B4038093A80388E190E0909391
:10294000AD038093AC030E9445179093B10380932D
:10295000B003009759F0FC011192CA95E9F788E09D
:1029600090E09093AB038093AA0308C01092AD034C
:102970001092AC031092AB031092AA0387E08093ED
:10298000AE038091A903882341F061E087E00E94B3
:10299000790660E087E00E94FC05E6EDF2E0E49154
:1029A000F0E0EE0FFF1FEB54FD4F85919491909353
:1029B000BB038093BA03E6E7F2E0E491E093BC0343
:1029C000CF9108958F929F92AF92BF92CF92DF9254
:1029D000EF92FF92CF93DF93EC01688179818A8136
:1029E0009B81611571058105910521F464E279ED02
:1029F0008BE597E02DE133EF41E050E00E94371680
:102A000049015A019B01AC01A7EAB1E40E945616A4
:102A10006B017C01ACEEB4EFA50194010E94641639
:102A2000DC01CB018C0D9D1DAE1DBF1DB7FF03C08A
:102A30000197A109B04888839983AA83BB83BC010D
:102A4000CD019F77DF91CF91FF90EF90DF90CF90F6
:102A5000BF90AF909F908F9008950C94E21483E202
:102A600092E00C94E214609323027093240280930A
:102A70002502909326020895E89409C097FB3EF43E
:102A800090958095709561957F4F8F4F9F4F9923BB
:102A9000A9F0F92F96E9BB279395F6958795779539
:102AA0006795B795F111F8CFFAF4BB0F11F460FFF9
:102AB0001BC06F5F7F4F8F4F9F4F16C0882311F051
:102AC00096E911C0772321F09EE8872F762F05C065
:102AD000662371F096E8862F70E060E02AF09A9500
:102AE000660F771F881FDAF7880F9695879597F9F5
:102AF00008950E948C150C94FD150E94EF1538F076
:102B00000E94F61520F0952311F00C94E6150C9414
:102B1000EC1511240C9431160E940E1670F3959F3B
:102B2000C1F3950F50E0551F629FF001729FBB27C4
:102B3000F00DB11D639FAA27F00DB11DAA1F649F60
:102B40006627B00DA11D661F829F2227B00DA11D13
:102B5000621F739FB00DA11D621F839FA00D611D99
:102B6000221F749F3327A00D611D231F849F600DBA
:102B7000211D822F762F6A2F11249F5750409AF0E3
:102B8000F1F088234AF0EE0FFF1FBB1F661F771F6F
:102B9000881F91505040A9F79E3F510580F00C943A
:102BA000E6150C9431165F3FE4F3983ED4F3869516
:102BB00077956795B795F795E7959F5FC1F7FE2BDA
:102BC000880F911D9695879597F9089597F99F67B6
:102BD00080E870E060E008959FEF80EC08950024A5
:102BE0000A941616170618060906089500240A9472
:102BF00012161306140605060895092E0394000CF8
:102C000011F4882352F0BB0F40F4BF2B11F460FF86
:102C100004C06F5F7F4F8F4F9F4F089557FD9058AF
:102C2000440F551F59F05F3F71F04795880F97FB90
:102C3000991F61F09F3F79F087950895121613064A
:102C40001406551FF2CF4695F1DF08C01616170679
:102C50001806991FF1CF86957105610508940895AE
:102C6000E894BB2766277727CB0197F90895052EAF
:102C700097FB1EF400940E944E1657FD07D00E9449
:102C8000691607FC03D04EF40C944E1650954095EF
:102C9000309521953F4F4F4F5F4F08959095809508
:102CA000709561957F4F8F4F9F4F08950E948B16AF
:102CB000A59F900DB49F900DA49F800D911D112490
:102CC0000895B7FF0C9456160E945616821B930B5C
:102CD0000895A1E21A2EAA1BBB1BFD010DC0AA1F5D
:102CE000BB1FEE1FFF1FA217B307E407F50720F075
:102CF000A21BB30BE40BF50B661F771F881F991FF0
:102D00001A9469F760957095809590959B01AC0138
:102D1000BD01CF010895A29FB001B39FC001A39F41
:102D2000700D811D1124911DB29F700D811D112404
:102D3000911D08955058BB27AA270E94B2160C94E3
:102D4000FD150E94EF1538F00E94F61520F039F4B9
:102D50009F3F19F426F40C94EC150EF4E095E7FB74
:102D60000C94E615E92F0E940E1658F3BA17620765
:102D700073078407950720F079F4A6F50C943016B4
:102D80000EF4E0950B2EBA2FA02D0B01B901900186
:102D90000C01CA01A0011124FF27591B99F0593FCA
:102DA00050F4503E68F11A16F040A22F232F342F12
:102DB0004427585FF3CF469537952795A795F04060
:102DC0005395C9F77EF41F16BA0B620B730B840B75
:102DD000BAF09150A1F0FF0FBB1F661F771F881F2D
:102DE000C2F70EC0BA0F621F731F841F48F4879585
:102DF00077956795B795F7959E3F08F0B0CF939577
:102E0000880F08F09927EE0F9795879508950E94EF
:102E10000E176894B1110C94311608950E9416167D
:102E200088F09F5798F0B92F9927B751B0F0E1F08B
:102E3000660F771F881F991F1AF0BA95C9F714C03B
:102E4000B13091F00E943016B1E008950C94301624
:102E5000672F782F8827B85F39F0B93FCCF3869574
:102E600077956795B395D9F73EF4909580957095D1
:102E700061957F4F8F4F9F4F0895EE0FFF1F881F63
:102E80008BBF0790F691E02D1994CF93DF9382309A
:102E9000910510F482E090E0E091DB03F091DC0317
:102EA00020E030E0C0E0D0E0309711F14081518166
:102EB00048175907C0F04817590761F48281938178
:102EC000209719F09B838A832BC09093DC03809317
:102ED000DB0326C02115310519F04217530718F4FA
:102EE0009A01BE01DF01EF010280F381E02DDCCF0A
:102EF0002115310509F1281B390B2430310590F4D7
:102F000012968D919C9113976115710521F0FB012B
:102F10009383828304C09093DC038093DB03FD01E1
:102F2000329644C0FD01E20FF31F8193919322502A
:102F300031092D933C933AC02091D9033091DA03A3
:102F4000232B41F42091290230912A023093DA0395
:102F50002093D903209127023091280221153105B1
:102F600041F42DB73EB740912B0250912C02241B07
:102F7000350BE091D903F091DA03E217F307A0F4DF
:102F80002E1B3F0B2817390778F0AC014E5F5F4FBF
:102F90002417350748F04E0F5F1F5093DA03409314
:102FA000D9038193919302C0E0E0F0E0CF01DF917B
:102FB000CF9108950F931F93CF93DF93009709F458
:102FC0008CC0FC013297138212820091DB031091B6
:102FD000DC030115110581F420813181820F931FDB
:102FE0002091D9033091DA032817390779F5F09346
:102FF000DA03E093D90371C0D80140E050E0AE1786
:10300000BF0750F412962D913C911397AD012115F5
:10301000310509F1D901F3CF9D01DA013383228310
:1030200060817181860F971F8217930769F4EC0105
:1030300028813981260F371F2E5F3F4F3183208330
:103040008A819B8193838283452B29F4F093DC034F
:10305000E093DB0342C01396FC93EE931297ED01CD
:10306000499159919E01240F351FE217F30771F41E
:1030700080819181840F951F029611969C938E9367
:103080008281938113969C938E931297E0E0F0E0F7
:10309000D80112968D919C911397009719F0F80121
:1030A0008C01F6CF8D919C9198012E5F3F4F820F3E
:1030B000931F2091D9033091DA032817390769F457
:1030C000309729F41092DC031092DB0302C01382C4
:1030D00012821093DA030093D903DF91CF911F91ED
:1030E0000F9108956F927F928F929F92AF92BF92AD
:1030F000CF92DF92EF92FF920F931F93CF93DF93C4
:10310000EC01009789F4CB01DF91CF911F910F91D2
:10311000FF90EF90DF90CF90BF90AF909F908F90F7
:103120007F906F900C944517FC01E60FF71F9C01F0
:1031300022503109E217F30708F4ACC0D9010D9110
:103140001C91119706171707B0F00530110508F408
:103150009FC0C80104978617970708F499C00250CA
:103160001109061B170B019311936D937C93CF01EB
:103170000E94DA178DC05B01A01AB10A4C01800EC3
:10318000911EA091DB03B091DC0340E050E0E12C04
:10319000F12C109709F44AC0A815B905D1F56D9026
:1031A0007C901197630182E0C80ED11CCA14DB0425
:1031B00080F1A3014A195B096A0182E0C80ED11CA3
:1031C0001296BC9012971396AC91B5E0CB16D10431
:1031D00040F0B282A38351834083D9016D937C93E5
:1031E0000AC00E5F1F4FC301800F911FF901918329
:1031F0008083EB2DFA2FE114F10431F0D7011396FF
:10320000FC93EE93129744C0F093DC03E093DB034E
:103210003FC08D919C9111974817590708F4AC0154
:103220007D0112960D90BC91A02DB3CF8091D90352
:103230009091DA0388159905E1F446175707C8F409
:103240008091270290912802009741F48DB79EB794
:1032500040912B0250912C02841B950BE817F90723
:10326000C8F4F093DA03E093D903F9017183608322
:103270000FC0CB010E9445177C01009759F0A801AF
:10328000BE010E946019CE010E94DA17C70104C076
:10329000CE0102C080E090E0DF91CF911F910F91AD
:1032A000FF90EF90DF90CF90BF90AF909F908F9066
:1032B0007F906F90089581E090E0F8940C947019DD
:1032C000FB01DC0102C001900D9241505040D8F743
:1032D0000895FB01DC0101900D920020E1F70895B3
:1032E00011E0CCE8D1E000E006C0802FFE010E9492
:1032F0003D172196011DCD38D10780E00807A9F7B9
:04330000F894FFCF6F
:10330400E8030000E803000001000100204E000073
:103314000100F905F905F905F905F905F905F905B6
:10332400F905FF010000000000DD0380003D003CC2
:10333400003B003A00000000005302C0011C02FAE6
:10334400010E029A0200000000CA05C00109000D26
:103354000A00524F424F543A20474F00524F424FB7
:10336400543A20444F574E4C4F4144494E47007203
:1033740065736574696E67206C65647300524F42AF
:0C3384004F543A2057414954494E47002D
:00000001FF
