:100000000C9488010C94B9010C94B9010C94B901B9
:100010000C94B9010C94B9010C94B9010C94B90178
:100020000C94B9010C94B9010C94B9010C94B90168
:100030000C94B9010C94B9010C94B9010C94B90158
:100040000C94B9010C94B9010C94B9010C94B90148
:100050000C94B9010C94B9010C94B9010C9460088A
:100060000C94B9010C94D4080C94AA080C94B9010E
:100070000C94B9010C94B9010C94B9010C94B90118
:100080000C94B9010C94B9010C94B9010C94B90108
:100090000C94B9010C94B9010C94B9010C94B901F8
:1000A0000C94B9010C94B9010C94B9010C94B901E8
:1000B0000C94B9010C94B9010C94B9010C94B901D8
:1000C0000C94B9010C94B9010C94B9010C94B901C8
:1000D0000C94B9010C94B9010C94B9010C94B901B8
:1000E0000C94B901FF010202F101F501F901390295
:1000F00006020A021002140218021E02220226023E
:1001000039022C0230023402B202B702BC02C6022B
:10011000D0024903DA02E202EA02F402FE02080314
:100120001703210349032B0335033F03A40AB20A33
:10013000EC0AB20AEC0AEC0AEC0AB20AA90AA40A0E
:10014000EC0AA40AA90AA40AA90ABB0A0C942C0264
:100150000C9406020C9402020C94BB0A0C94340218
:100160000C9417030C940F040C94A90A0C948C059E
:100170000C942B030C94BC020C94E2020C94A40A81
:100180000C949B040C941E020C9430020C94FB0300
:100190000C94DA020C943F030C94FF010C94D002EF
:1001A0000C9435030C94B7020C941D040C94B20209
:1001B0000C9454040C94C6020C9449030C94EC0A5D
:1001C0000C94B20A0C94F1010C9426020C94EA02ED
:1001D0000C9439020C940A020C9422020C94210310
:1001E0000C9408030C9410020C940A090C94D0038C
:1001F0000C94F4020C94F9010C94FE020C94F50199
:100200000C9414020C941802000021002400270012
:100210002A002D0030003300010100000401070115
:100220000A0100002200250028002B002E003100CA
:10023000340002010000050108010B010505050558
:10024000070508080808020202020A0A080804044E
:10025000040401010101010101010303030303037C
:100260000303040707070C0C0C0C0C0C0C0C02020B
:10027000020206060606060606060B0B0B0B0B0B08
:100280000B0B010210202008081020401020408095
:10029000020102010804020101020408102040804A
:1002A00080402010080402018004020180402010D8
:1002B0000804020108040201010204081020408021
:1002C000010204081020408000000A0B02090C0DF6
:1002D0000E080703040100000000000000000000F9
:1002E000000000000000000000000000000000000E
:1002F00000000000121110000000000000000000CB
:1003000000000000000000000000000000000A09DA
:1003100011241FBECFEFD1E2DEBFCDBF00E00CBF86
:1003200012E0A0E0B2E0EAECFAE100E00BBF02C0AC
:1003300007900D92AA37B107D9F723E0AAE7B2E0F8
:1003400001C01D92A136B207E1F711E0C8E8D1E083
:1003500000E006C021970109802FFE010E94560D82
:10036000C738D10780E00807A9F70E9455090C9407
:10037000630D0C9400001092AB021092AA02222787
:100380003327281B390B3093A9022093A80290939E
:10039000A7028093A6029093A5028093A4020895D9
:1003A000362F90E0FC01E853FD4F4491FC01EE57DD
:1003B000FD4F2491FC01E45CFD4F9491992309F4D5
:1003C0006BC0442309F455C050E0FA013197E23183
:1003D000F10508F04EC08827EE58FF4F8F4F0C9460
:1003E000560D809180008F7707C0809180008F7DAF
:1003F00003C080918000877F809380003AC084B5DD
:100400008F7702C084B58F7D84BD33C08091B000EA
:100410008F7703C08091B0008F7D8093B00029C09A
:10042000809190008F7707C0809190008F7D03C0EE
:1004300080919000877F809390001BC08091A000E6
:100440008F7707C08091A0008F7D03C08091A000AE
:10045000877F8093A0000DC0809120018F7707C017
:10046000809120018F7D03C080912001877F809340
:100470002001E92FF0E0EE0FFF1FEE5DFD4FA5918B
:10048000B4918FB7F894EC91311103C020952E23CD
:1004900001C02E2B2C938FBF0895CF93DF9390E054
:1004A000FC01EE57FD4F2491FC01E45CFD4F84916B
:1004B000882361F190E0880F991FFC01E85FFD4FF0
:1004C000C591D491FC01EE5DFD4FA591B4916111F0
:1004D00009C09FB7F8948881209582238883EC9186
:1004E0002E230BC0623061F49FB7F8943881822FBD
:1004F000809583238883EC912E2B2C939FBF06C07D
:100500008FB7F894E8812E2B28838FBFDF91CF918E
:1005100008951F93CF93DF93182FEB0161E00E94A2
:100520004D02209711F460E004C0CF3FD10539F4AB
:1005300061E0812FDF91CF911F910C94D001E12FC9
:10054000F0E0E853FD4FE4914E2F50E0FA0131976F
:10055000E231F10508F09DC08827EC57FF4F8F4F1F
:100560000C94560D84B5806884BDC7BD97C084B512
:10057000806284BDC8BD92C08091800080688093F5
:100580008000D0938900C093880088C0809180004B
:10059000806280938000D0938B00C0938A007EC0DD
:1005A00080918000886080938000D0938D00C093FC
:1005B0008C0074C08091B00080688093B000C093BC
:1005C000B3006CC08091B00080628093B000C09393
:1005D000B40064C080919000806880939000D093B4
:1005E0009900C09398005AC08091900080628093D7
:1005F0009000D0939B00C0939A0050C080919000CF
:10060000886080939000D0939D00C0939C0046C06A
:100610008091A00080688093A0008091A0008F7BD3
:100620008093A000D093A900C093A80037C0809108
:10063000A00080628093A000D093AB00C093AA007A
:100640002DC08091A00088608093A000D093AD0061
:10065000C093AC0023C0809120018068809320016A
:10066000D0932901C093280119C080912001806294
:1006700080932001D0932B01C0932A010FC0809159
:100680002001886080932001D0932D01C0932C011C
:1006900005C0C038D1050CF04BCF45CFDF91CF91CD
:1006A0001F910895863308F0865390917B00282F80
:1006B0002870977F922B90937B0087708064809343
:1006C0007C0080917A00806480937A0080917A0027
:1006D00086FDFCCF809178002091790090E0922BEC
:1006E00008953FB7F8948091A0029091A102A09143
:1006F000A202B091A30226B5A89B05C02F3F19F016
:100700000196A11DB11D3FBFBA2FA92F982F882791
:10071000820F911DA11DB11DBC01CD0142E0660FEC
:10072000771F881F991F4A95D1F708958F929F923E
:10073000AF92BF92CF92DF92EF92FF926B017C015A
:100740000E9471034B015C01C114D104E104F10466
:10075000F1F00E947103DC01CB0188199909AA0903
:10076000BB09883E9340A105B10570F321E0C21A90
:10077000D108E108F10888EE880E83E0981EA11CDC
:10078000B11CC114D104E104F10419F7DDCFFF90CD
:10079000EF90DF90CF90BF90AF909F908F90089593
:1007A000CF92DF92EF92FF920F931F93CF93DF933D
:1007B0006C017A018B01C0E0D0E0CE15DF0589F035
:1007C000D8016D918D01D601ED91FC910190F081E0
:1007D000E02DC6011995892B11F47E0102C02196E6
:1007E000ECCFC701DF91CF911F910F91FF90EF9058
:1007F000DF90CF900895FC01918D828D981761F064
:10080000828DDF01A80FB11D5D968C91928D9F5F47
:100810009F73928F90E008958FEF9FEF0895FC01F2
:10082000918D828D981731F0828DE80FF11D858DA5
:1008300090E008958FEF9FEF0895FC01918D228D38
:10084000892F90E0805C9F4F821B91098F739927BD
:1008500008958CEA92E00E941D0421E0892B09F49E
:1008600020E0822F0895FC01848DDF01A80FB11DC7
:10087000A35ABF4F2C91848D90E001968F739927D6
:10088000848FA689B7892C93A089B1898C918064C3
:100890008C93938D848D981306C00288F389E02D84
:1008A00080818F7D80830895EF92FF920F931F9335
:1008B000CF93DF93EC0181E0888F9B8D8C8D981313
:1008C00005C0E889F989808185FD24C0F62E0B8D4D
:1008D00010E00F5F1F4F0F731127E02E8C8DE81271
:1008E0000CC00FB607FCFACFE889F989808185FF33
:1008F000F5CFCE010E943304F1CF8B8DFE01E80FBE
:10090000F11DE35AFF4FF0820B8FEA89FB8980814A
:10091000806207C0EE89FF896083E889F989808158
:100920008064808381E090E0DF91CF911F910F91EF
:10093000FF90EF900895CF93DF93EC01888D88238B
:10094000C9F0EA89FB89808185FD05C0A889B9893C
:100950008C9186FD0FC00FB607FCF5CF808185FF17
:10096000F2CFA889B9898C9185FFEDCFCE010E9485
:100970003304E7CFDF91CF91089580E090E0892B99
:1009800021F00E942904811125C080E090E0892B8C
:1009900041F080E090E0892B21F00E94000081115D
:1009A0001CC080E090E0892B41F080E090E0892B32
:1009B00021F00E940000811113C080E090E0892B9B
:1009C000A1F080E090E0892B81F00E94000081116D
:1009D0000AC008950E940000D8CF0E940000E1CF15
:1009E0000E940000EACF0C9400000895CF93DF939B
:1009F000EC0160E08E810E94D00161E08E810E9456
:100A0000D00160E08E810E94D0018BE891E00197D7
:100A1000F1F7DF91CF910895CF92DF92EF92FF929D
:100A20000F931F93CF93DF937C016C0187E0C80E77
:100A3000D11CC0E0D0E0062F10E0B8010C2E02C09F
:100A4000759567950A94E2F76170F60181916F01DF
:100A50000E94D0012196C430D10579F7C701DF91FA
:100A6000CF911F910F91FF90EF90DF90CF900C945A
:100A7000F604CF92DF92EF92FF920F931F93CF93E2
:100A8000DF93EC01F62E642F8C810E94D0018D81C2
:100A90008F3F19F060E00E94D0018F850F2D10E08C
:100AA00084FF25C06E0187E0C80ED11CE12CF12C1B
:100AB000B8010E2C02C0759567950A94E2F7617033
:100AC000F60181916F010E94D001FFEFEF1AFF0A3A
:100AD00088E0E816F10461F7CE01DF91CF911F9114
:100AE0000F91FF90EF90DF90CF900C94F604B80137
:100AF00084E0759567958A95E1F7CE010E940C0513
:100B00006F2DCE01DF91CF911F910F91FF90EF904C
:100B1000DF90CF900C940C0541E00E94390581E0F4
:100B200090E0089540E00C943905EF92FF920F9306
:100B30001F93CF93DF93EC01623018F08F858860AC
:100B40008F876B8B1C8A80E48D8B80E18E8B80E598
:100B50008F8B61E08C810E944D028D818F3F19F057
:100B600061E00E944D0261E08E810E944D027E0193
:100B700087E0E80EF11C00E010E08F8584FD03C0E3
:100B800084E090E002C088E090E0081719074CF478
:100B900061E0F70181917F010E944D020F5F1F4FBD
:100BA000ECCF8BE39DE00197F1F760E08C810E9430
:100BB000D00160E08E810E94D0018D818F3F19F0BD
:100BC00060E00E94D0016F8564FD1DC063E0CE012E
:100BD0000E940C050BE416E4C8010197F1F763E0ED
:100BE000CE010E940C05C8010197F1F763E0CE0128
:100BF0000E940C0583E592E00197F1F762E0CE01D7
:100C00000E940C0516C06062CE010E9492058BE422
:100C100096E40197F1F76F856062CE010E9492051C
:100C200083E592E00197F1F76F856062CE010E9443
:100C300092056F856062CE010E94920584E0888BE8
:100C40006CE0CE010E94920561E0CE010E94920507
:100C50008BE39FE10197F1F782E0898B66E0CE019B
:100C6000DF91CF911F910F91FF90EF900C9492051F
:100C70004F925F926F927F928F929F92AF92BF92AC
:100C8000CF92DF92EF92FF92CF93DF93CDB7DEB793
:100C900028970FB6F894DEBF0FBECDBFC090A60256
:100CA000D090A7020D2C000CEE08FF0888EEC80EAD
:100CB00083E0D81EE11CF11CAFEFB0E0A701960164
:100CC0000E94740B20ED822E27E0922EA12CB12CD5
:100CD000A50194010E94550B29833A834B835C83C1
:100CE000A981BA81B0938102A0938002A1E0BFEFF5
:100CF000A70196010E94820BA50194010E94550B49
:100D0000DA01C90181509F4FAF4FBF4F8D839E8342
:100D1000AF83B88790937F0280937E02C090A40235
:100D2000D090A5020D2C000CEE08FF0898EEC90E1D
:100D300093E0D91EE11CF11CAFEFB0E0A7019601D2
:100D40000E94740BA50194010E94550B29013A01E0
:100D500030937D0220937C02A1E0BFEFA7019601B2
:100D60000E94820BA50194010E94550B69017A0132
:100D7000AFEFCA0ED11CE11CF11CD0927B02C092D5
:100D80007A0269817A8189E00E9489026D817E817F
:100D90008AE00E948902B20186E00E948902B601BF
:100DA00085E028960FB6F894DEBF0FBECDBFDF9169
:100DB000CF91FF90EF90DF90CF90BF90AF909F903A
:100DC0008F907F906F905F904F900C9489020E945B
:100DD0005E0D6115710579F0FB0101900020E9F7C6
:100DE0003197AF01461B570BDC01ED91FC9102805E
:100DF000F381E02D199480E090E008950C94E906C9
:100E0000CF93A2E8B2E0EAE8F2E0C0E080E090E050
:100E10006D917D9141915191440F551F21E030E03A
:100E20004617570714F020E030E0082E01C0220FCB
:100E30000A94EAF7C22B01968430910549F7C093D2
:100E40009A0261E089E493E00E9492058BE39FE1BE
:100E50000197F1F7E1E080915C038111E0E0E19519
:100E6000F0E0E75BFC4F6489606889E493E00E94EE
:100E70009205C11103C064E272E031C0C13019F4BF
:100E800069E272E02CC0C23019F46EE272E027C051
:100E9000C33019F463E372E022C0C43019F468E38C
:100EA00072E01DC0C53019F46DE372E018C0C630A1
:100EB00019F462E472E013C0C73019F467E472E019
:100EC0000EC0C83019F46CE472E009C0C93019F4DE
:100ED00061E572E004C0CA3039F466E572E089E485
:100EE00093E00E94FE061DC0CB3019F46BE572E062
:100EF00013C0CC3019F460E672E00EC0CD3019F4A6
:100F000065E672E009C0CE3019F46AE672E004C00A
:100F1000CF3039F46FE672E089E493E0CF910C941E
:100F2000FE06CF9108954F925F926F927F928F92BB
:100F30009F92AF92BF92CF92DF92EF92FF920F9368
:100F40001F93CF93DF93CDB7DEB7A1970FB6F89479
:100F5000DEBF0FBECDBF84E0A82E82E0B82E02E82F
:100F600012E09AE0492E512C612C712CF2E00A38E3
:100F70001F0709F488C0F80160817181072E000CF9
:100F8000880B990B0E945D0C6B017C01F50180813F
:100F9000F2E0AF0EB11C0E9452034C0126E636E689
:100FA00046E65FE3C701B6010E94E90C0E942C0CE3
:100FB00080E090E00E945B0C6B017C01B401990C15
:100FC000880B990B0E945D0C20ED3CEC4CEC5DE332
:100FD0000E94E90C9B01AC01C701B6010E94B90B4C
:100FE0000E94250CF801619371938F016B01770FBB
:100FF000EE08FF08F7FE26C0E091AC02F091AD02CA
:101000000190F081E02D6DE28CEA92E019952227A3
:101010003327A9012C193D094E095F0919A2CE01F8
:1010200081967C01CA01B901A30192010E94870B3C
:10103000605DF70162937F0121153105410551057E
:1010400089F715C0A701960119A2CE0181967C01EE
:10105000CA01B901A30192010E94870B605DF701EB
:1010600062937F01211531054105510589F7B701CB
:101070008CEA92E00E94E90664E772E08CEA92E072
:101080000E94FE0673CF66E772E08CEA92E00E944F
:10109000E906A1960FB6F894DEBF0FBECDBFDF9173
:1010A000CF911F910F91FF90EF90DF90CF90BF9065
:1010B000AF909F908F907F906F905F904F9008952A
:1010C0001F920F920FB60F9211242F933F938F937D
:1010D0009F93AF93BF9380919C0290919D02A091AA
:1010E0009E02B0919F0230919B0223E0230F2D3787
:1010F00020F40196A11DB11D05C026E8230F02961C
:10110000A11DB11D20939B0280939C0290939D0290
:10111000A0939E02B0939F028091A0029091A102A1
:10112000A091A202B091A3020196A11DB11D8093CE
:10113000A0029093A102A093A202B093A302BF9138
:10114000AF919F918F913F912F910F900FBE0F9074
:101150001F9018951F920F920FB60F9211240BB685
:101160000F922F933F934F935F936F937F938F9340
:101170009F93AF93BF93EF93FF938CEA92E00E940B
:101180003304FF91EF91BF91AF919F918F917F9128
:101190006F915F914F913F912F910F900BBE0F90E8
:1011A0000FBE0F901F9018951F920F920FB60F92BF
:1011B00011240BB60F922F938F939F93EF93FF936E
:1011C000E091BC02F091BD028081E091C202F091F9
:1011D000C30282FD12C090818091C5028F5F8F7320
:1011E0002091C602821751F0E091C502F0E0E4556B
:1011F000FD4F958F8093C50201C08081FF91EF91D3
:101200009F918F912F910F900BBE0F900FBE0F905B
:101210001F901895ECEAF2E01382128288EE93E0B8
:10122000A0E0B0E084839583A683B78380E192E059
:101230009183808385EC90E09587848784EC90E0AF
:101240009787868780EC90E0918B808B81EC90E093
:10125000938B828B82EC90E0958B848B86EC90E074
:10126000978B868B118E128E138E148EE9E4F3E029
:101270001382128280E292E0918380838EE18483E4
:101280008FEF858380E2868386E1878388E180878C
:101290008AE181878CE182871386148615861686FB
:1012A000178661E0CF010C949505789484B582602F
:1012B00084BD84B5816084BD85B5826085BD85B5FA
:1012C000816085BD80916E00816080936E00109278
:1012D00081008091810082608093810080918100F3
:1012E0008160809381008091800081608093800084
:1012F0008091B10084608093B1008091B0008160E2
:101300008093B000809191008260809391008091E1
:101310009100816080939100809190008160809322
:1013200090008091A10082608093A1008091A10033
:1013300081608093A1008091A00081608093A000D3
:10134000809121018260809321018091210181603F
:101350008093210180912001816080932001809100
:101360007A00846080937A0080917A008260809312
:101370007A0080917A00816080937A0080917A006F
:10138000806880937A001092C100E091BC02F091D5
:10139000BD0282E08083E091B802F091B902108230
:1013A000E091BA02F091BB028FEC80831092C402EC
:1013B000E091C002F091C10286E08083E091BE021C
:1013C000F091BF02808180618083E091BE02F09144
:1013D000BF02808188608083E091BE02F091BF02ED
:1013E000808180688083E091BE02F091BF0280819D
:1013F0008F7D808360E08DE30E944D0260E08CE38E
:101400000E944D0260E08BE30E944D0260E08AE39F
:101410000E944D0264E670E080E090E00E94960336
:10142000C4E0D2E00AE812E0F2E0CC30DF0779F065
:10143000888122960E945203F801819391938F0133
:101440006AE070E080E090E00E949603EDCF61E0FA
:1014500089E00E944D0261E08AE00E944D0261E055
:1014600086E00E944D0261E085E00E944D0260E04E
:1014700087E30E944D0260E086E30E944D0262E035
:1014800088E30E944D0268EE73E080E090E00E94E5
:10149000960387E30E945203EC0190939902809394
:1014A000980286E30E9452039093970280939602DB
:1014B000CC0FDD1FD0939502C09394029C01220FA4
:1014C000331F309393022093920261E08EE10E94D9
:1014D0004D0261E080E20E944D0261E086E10E94DF
:1014E0004D0261E088E10E944D0261E08AE10E94C4
:1014F0004D0261E08CE10E944D0262E089E493E0DC
:101500000E94950558EEC52E53E0D52EE12CF12C06
:10151000C0E7DEEF00E911E061E070E080E090E01C
:101520000E9496030E9493070E94000780919A02EE
:1015300090E08031910508F04FC0FC018827EA5601
:10154000FF4F8F4F0C94560D80E991E00E94BB0134
:101550004BC0D093A702C093A6021093A50200939C
:10156000A40242C01093A7020093A602D093A50242
:10157000C093A40239C00E94480BA70196010E94A3
:10158000550B643F7140810591051CF08FEF9FEF73
:1015900002C081E090E08C9F50018D9FB00C9C9F19
:1015A000B00C1124809F4001819F900C909F900C63
:1015B000112480919A02882379F09092A702809258
:1015C000A602B092A502A092A4020E9438060E9430
:1015D00093070E940007EDCF1092A7021092A60277
:1015E0001092A5021092A4020E9438060E943806AA
:1015F0000E94BD0491CF8F929F92AF92BF92CF92E3
:10160000DF92EF92FF92CF93DF93EC0168817981B3
:101610008A819B81611571058105910521F464E240
:1016200079ED8BE597E02DE133EF41E050E00E944A
:10163000550B49015A019B01AC01A7EAB1E40E9494
:10164000740B6B017C01ACEEB4EFA50194010E9418
:10165000820BDC01CB018C0D9D1DAE1DBF1DB7FFA4
:1016600003C00197A109B04888839983AA83BB83EB
:10167000BC01CD019F77DF91CF91FF90EF90DF907C
:10168000CF90BF90AF909F908F9008950C94FB0ADD
:1016900080E092E00C94FB0A6093000270930102D8
:1016A00080930202909303020895052E97FB1EF487
:1016B00000940E946C0B57FD07D00E94870B07FC1B
:1016C00003D04EF40C946C0B5095409530952195B9
:1016D0003F4F4F4F5F4F089590958095709561955E
:1016E0007F4F8F4F9F4F08950E94A90BA59F900D8C
:1016F000B49F900DA49F800D911D11240895B7FFF4
:101700000C94740B0E94740B821B930B0895A1E23E
:101710001A2EAA1BBB1BFD010DC0AA1FBB1FEE1F6B
:10172000FF1FA217B307E407F50720F0A21BB30BB6
:10173000E40BF50B661F771F881F991F1A9469F732
:1017400060957095809590959B01AC01BD01CF018E
:101750000895A29FB001B39FC001A39F700D811D8A
:101760001124911DB29F700D811D1124911D0895AA
:101770005058BB27AA270E94D00B0C94AF0C0E9494
:10178000A10C38F00E94A80C20F039F49F3F19F406
:1017900026F40C949E0C0EF4E095E7FB0C94980C48
:1017A000E92F0E94C00C58F3BA1762077307840729
:1017B000950720F079F4A6F50C94E20C0EF4E09570
:1017C0000B2EBA2FA02D0B01B90190010C01CA01FB
:1017D000A0011124FF27591B99F0593F50F4503EA6
:1017E00068F11A16F040A22F232F342F4427585F98
:1017F000F3CF469537952795A795F0405395C9F7B0
:101800007EF41F16BA0B620B730B840BBAF0915067
:10181000A1F0FF0FBB1F661F771F881FC2F70EC006
:10182000BA0F621F731F841F48F4879577956795D9
:10183000B795F7959E3F08F0B0CF9395880F08F0C5
:101840009927EE0F9795879508950E942C0C689420
:10185000B1110C94E30C08950E94C80C88F09F57B6
:1018600098F0B92F9927B751B0F0E1F0660F771FC4
:10187000881F991F1AF0BA95C9F714C0B13091F0BA
:101880000E94E20CB1E008950C94E20C672F782FCF
:101890008827B85F39F0B93FCCF38695779567957F
:1018A000B395D9F73EF490958095709561957F4FEB
:1018B0008F4F9F4F0895E89409C097FB3EF4909591
:1018C0008095709561957F4F8F4F9F4F9923A9F019
:1018D000F92F96E9BB279395F695879577956795A8
:1018E000B795F111F8CFFAF4BB0F11F460FF1BC0EC
:1018F0006F5F7F4F8F4F9F4F16C0882311F096E97F
:1019000011C0772321F09EE8872F762F05C066232C
:1019100071F096E8862F70E060E02AF09A95660FE5
:10192000771F881FDAF7880F9695879597F908959E
:1019300097F99F6780E870E060E008959FEF80EC82
:10194000089500240A941616170618060906089525
:1019500000240A9412161306140605060895092E8B
:101960000394000C11F4882352F0BB0F40F4BF2BFA
:1019700011F460FF04C06F5F7F4F8F4F9F4F08953A
:1019800057FD9058440F551F59F05F3F71F0479530
:10199000880F97FB991F61F09F3F79F08795089515
:1019A000121613061406551FF2CF4695F1DF08C034
:1019B000161617061806991FF1CF86957105610551
:1019C00008940895E894BB2766277727CB0197F9F9
:1019D00008950E94FC0C0C94AF0C0E94A10C38F0EE
:1019E0000E94A80C20F0952311F00C94980C0C94F4
:1019F0009E0C11240C94E30C0E94C00C70F3959F74
:101A0000C1F3950F50E0551F629FF001729FBB27F5
:101A1000F00DB11D639FAA27F00DB11DAA1F649F91
:101A20006627B00DA11D661F829F2227B00DA11D44
:101A3000621F739FB00DA11D621F839FA00D611DCA
:101A4000221F749F3327A00D611D231F849F600DEB
:101A5000211D822F762F6A2F11249F5750409AF014
:101A6000F1F088234AF0EE0FFF1FBB1F661F771FA0
:101A7000881F91505040A9F79E3F510580F00C946B
:101A8000980C0C94E30C5F3FE4F3983ED4F38695F6
:101A900077956795B795F795E7959F5FC1F7FE2B0B
:101AA000880F911D9695879597F90895EE0FFF1F62
:101AB000881F8BBF0790F691E02D199481E090E08C
:0A1AC000F8940C94630DF894FFCF26
:101ACA00010000003D003C003B003A00000000001D
:101ADA005404D0031D04FB030F049B040000000000
:101AEA008C05D0032D2D2D2D002D2D2D78002D2D7B
:101AFA00782D002D2D7878002D782D2D002D782D1C
:101B0A0078002D78782D002D78787800782D2D2D75
:101B1A0000782D2D7800782D782D00782D78780092
:101B2A0078782D2D0078782D78007878782D0078BF
:0A1B3A007878780009000D0A000019
:00000001FF
