:100000000C9473010C94690A0C943E0A0C94130A24
:100010000C94E8090C94BD090C9492090C9467099E
:100020000C943C090C94A4010C94A4010C94A4011C
:100030000C94A4010C948C040C94A4010C94A401C1
:100040000C94A4010C94A4010C94A4010C94A4019C
:100050000C94A4010C94A4010C94A4010C94F20837
:100060000C94A4010C9455050C942B050C94A4013C
:100070000C94A4010C94A4010C94A4010C94A4016C
:100080000C94A4010C94A4010C94A4010C94A4015C
:100090000C94A4010C94A4010C94A4010C94A4014C
:1000A0000C94A4010C94A4010C94A4010C94A4013C
:1000B0000C94A4010C94A4010C94A4010C94A4012C
:1000C0000C94A4010C94A4010C94A4010C94A4011C
:1000D0000C94A4010C94A4010C94A4010C94A4010C
:1000E0000C94A401A306A606950699069D06DD06B6
:1000F000AA06AE06B406B806BC06C206C606CA06FE
:10010000DD06D006D406D806F907FE0703080D0859
:10011000170890082108290831083B0845084F08AE
:100120005E086808900872087C0886080C94FE0730
:100130000C945F060C943B080C949D060C947C0870
:100140000C94D8060C9480020C9472080C94A606A9
:100150000C9402020C9445080C940B060C94390282
:100160000C94B8060C94F9070C94BC060C94D006B9
:100170000C945E080C9417080C94D4060C94C206D8
:100180000C9403080C94B4060C9490080C94A601EB
:100190000C9468080C9486080C940D080C94DD06E9
:1001A0000C944F080C94A3060C94CA060C94950664
:1001B0000C9431080C94C6060C94F4010C94D101F3
:1001C0000C9421080C94E0010C948F0C0C942908D9
:1001D0000C94AE060C9499060C94AA060200002119
:1001E00000240027002A002D003000330001010008
:1001F00000040107010A0100002200250028002B4D
:10020000002E003100340002010000050108010B3E
:100210000105050505070508080808020202020A8B
:100220000A08080404040401010101010101010399
:1002300003030303030303040707070C0C0C0C0C54
:100240000C0C0C0202020206060606060606060B47
:100250000B0B0B0B0B0B0B010210202008081020BE
:100260004010204080020102010804020101020442
:100270000810204080804020100804020180040201
:100280000180402010080402010804020101020458
:100290000810204080010204081020408000000A5D
:1002A0000B02090C0D0E08070304010000000000FA
:1002B000000000000000000000000000000000003E
:1002C00000000000000000000012111000000000FB
:1002D000000000000000000000000000000000001E
:1002E000000000008F0C11241FBECFEFD1E2DEBF53
:1002F000CDBF00E00CBF12E0A0E0B2E0E4EDF2E21E
:1003000000E00BBF02C007900D92A635B107D9F7E8
:1003100023E0A6E5B2E001C01D92AF35B207E1F7D8
:1003200011E0C3E7D1E000E006C021970109802F6A
:10033000FE010E94350FC237D10780E00807A9F7F8
:100340000E94E00A0C9468110C940000CF92DF9296
:10035000EF92FF920F931F93CF93DF936C017A017B
:100360008B01C0E0D0E0CE15DF0589F0D8016D919A
:100370008D01D601ED91FC910190F081E02DC60137
:100380001995892B11F47E0102C02196ECCFC7018B
:10039000DF91CF911F910F91FF90EF90DF90CF9061
:1003A0000895209194023091950281E090E0232BF2
:1003B00011F080E090E0909395028093940208956C
:1003C000FC01918D828D981761F0828DDF01A80F5D
:1003D000B11D5D968C91928D9F5F9F73928F90E07F
:1003E00008958FEF9FEF0895FC01918D828D9817EE
:1003F00031F0828DE80FF11D858D90E008958FEF2B
:100400009FEF0895FC01918D228D892F90E0805CF3
:100410009F4F821B91098F73992708958DE992E070
:100420000E94020221E0892B09F420E0822F089526
:10043000FC01848DDF01A80FB11DA35ABF4F2C9181
:10044000848D90E001968F739927848FA689B78950
:100450002C93A089B1898C9180648C93938D848D29
:10046000981306C00288F389E02D80818F7D8083F8
:100470000895EF92FF920F931F93CF93DF93EC01B8
:1004800081E0888F9B8D8C8D981305C0E889F98950
:10049000808185FD24C0F62E0B8D10E00F5F1F4F6D
:1004A0000F731127E02E8C8DE8120CC00FB607FCDD
:1004B000FACFE889F989808185FFF5CFCE010E94C6
:1004C0001802F1CF8B8DFE01E80FF11DE35AFF4FAB
:1004D000F0820B8FEA89FB898081806207C0EE89F8
:1004E000FF896083E889F98980818064808381E065
:1004F00090E0DF91CF911F910F91FF90EF900895C1
:10050000CF93DF93EC01888D8823C9F0EA89FB89BA
:10051000808185FD05C0A889B9898C9186FD0FC0B1
:100520000FB607FCF5CF808185FFF2CFA889B98986
:100530008C9185FFEDCFCE010E941802E7CFDF91AD
:10054000CF91089580E090E0892B21F00E940E0267
:10055000811125C080E090E0892B41F080E090E09F
:10056000892B21F00E94000081111CC080E090E0E6
:10057000892B41F080E090E0892B21F00E9400005F
:10058000811113C080E090E0892BA1F080E090E021
:10059000892B81F00E94000081110AC008950E94F9
:1005A0000000D8CF0E940000E1CF0E940000EACFF7
:1005B0000C9400000895CF93DF93E7E7F2E0AFE7F4
:1005C000B2E040E080E090E0C191D1916D917D91E9
:1005D000660F771F21E030E06C177D0714F020E0F4
:1005E00030E0082E01C0220F0A94EAF7422B019650
:1005F0008430910549F740939302DF91CF9108959C
:10060000CF93DF93EC0160E08E810E94740661E07D
:100610008E810E94740660E08E810E9474068BE8D1
:1006200091E00197F1F7DF91CF9108954F925F929A
:100630006F927F928F929F92AF92BF92CF92DF92F2
:10064000EF92FF920F931F93CF93DF93CDB7DEB757
:10065000A1970FB6F894DEBF0FBECDBF8BE1A82ED9
:1006600082E0B82E07E712E09AE0492E512C612C67
:10067000712CF2E00F371F0709F484C0F801608184
:100680007181072E000C880B990B0E94360D6B01AF
:100690007C01F5018081F2E0AF0EB11C0E94990847
:1006A0004C0126E636E646E65FE3C701B6010E9446
:1006B000710D0E94060F80E090E00E94340D6B01E6
:1006C0007C01B401990C880B990B0E94360D20ED2A
:1006D0003CEC4CEC5DE30E94710D9B01AC01C70149
:1006E000B6010E94930E0E94FF0EF8016193719370
:1006F0008F016B01770FEE08FF08F7FE26C0E0912F
:100700009D02F0919E020190F081E02D6DE28DE955
:1007100092E0199522273327A9012C193D094E098A
:100720005F0919A2CE0181967C01CA01B901A3011A
:1007300092010E94610E605DF70162937F012115B5
:1007400031054105510589F715C0A701960119A288
:10075000CE0181967C01CA01B901A30192010E94D8
:10076000610E605DF70162937F012115310541053E
:10077000510589F7C7010E9462068BE392E00E944F
:10078000620677CF8DE392E00E946206A1960FB6D3
:10079000F894DEBF0FBECDBFDF91CF911F910F91B7
:1007A000FF90EF90DF90CF90BF90AF909F908F9091
:1007B0007F906F905F904F9008954F925F926F92ED
:1007C0007F928F929F92AF92BF92CF92DF92EF92E1
:1007D000FF92CF93DF93CDB7DEB728970FB6F8948B
:1007E000DEBF0FBECDBFC0909102D09092020D2C03
:1007F000000CEE08FF0888EEC80E83E0D81EE11C4E
:10080000F11CAFEFB0E0A70196010E944E0E20ED63
:10081000822E27E0922EA12CB12CA50194010E94DA
:100820002F0E29833A834B835C83A981BA81B093CD
:100830007602A0937502A1E0BFEFA70196010E9486
:100840005C0EA50194010E942F0EDA01C9018150AE
:100850009F4FAF4FBF4F8D839E83AF83B8879093D9
:10086000740280937302C0908F02D09090020D2C7E
:10087000000CEE08FF0898EEC90E93E0D91EE11CAB
:10088000F11CAFEFB0E0A70196010E944E0EA5014A
:1008900094010E942F0E29013A0130937202209395
:1008A0007102A1E0BFEFA70196010E945C0EA501B5
:1008B00094010E942F0E69017A01AFEFCA0ED11C7C
:1008C000E11CF11CD0927002C0926F0269817A81A2
:1008D00089E00E94D0076D817E818AE00E94D00766
:1008E000B20186E00E94D007B60185E028960FB6D7
:1008F000F894DEBF0FBECDBFDF91CF91FF90EF9098
:10090000DF90CF90BF90AF909F908F907F906F902F
:100910005F904F900C94D0071F920F920FB60F92DA
:1009200011240BB60F922F933F934F935F936F93C6
:100930007F938F939F93AF93BF93EF93FF93809198
:10094000990290919A02A0919B02B0919C02892BEE
:100950008A2B8B2B59F180919802E0919602F091AD
:1009600097029081892780838091990290919A02C1
:10097000A0919B02B0919C02181619061A061B063C
:100980000CF056C08091990290919A02A0919B021E
:10099000B0919C020197A109B109809399029093AB
:1009A0009A02A0939B02B0939C0242C080910002E5
:1009B000ECEDF1E0E4919FEF90930002E230C9F09A
:1009C00050F4EE2399F0E13081F590916F009D7F16
:1009D00090936F002AC0E43019F1E0F0E53029F57A
:1009E000909173009D7F909373001FC010926E00D2
:1009F0001CC0909170009D7F9093700091E0909347
:100A0000B0009091B100987F94609093B1001092E3
:100A1000B3000BC0909171009D7F9093710005C051
:100A2000909172009D7F9093720060E00E94740626
:100A3000FF91EF91BF91AF919F918F917F916F91B6
:100A40005F914F913F912F910F900BBE0F900FBE72
:100A50000F901F9018951F920F920FB60F921124AE
:100A60000BB60F922F933F934F935F936F937F93A8
:100A70008F939F93AF93BF93EF93FF938DE992E092
:100A80000E941802FF91EF91BF91AF919F918F91BA
:100A90007F916F915F914F913F912F910F900BBE7E
:100AA0000F900FBE0F901F9018951F920F920FB6C8
:100AB0000F9211240BB60F922F938F939F93EF9366
:100AC000FF93E091AD02F091AE028081E091B3021C
:100AD000F091B40282FD12C090818091B6028F5FC6
:100AE0008F732091B702821751F0E091B602F0E0C7
:100AF000E356FD4F958F8093B60201C08081FF9130
:100B0000EF919F918F912F910F900BBE0F900FBE81
:100B10000F901F901895CF92DF92EF92FF920F9354
:100B20001F93CF93DF937C016C0187E0C80ED11C2B
:100B3000C0E0D0E0062F10E0B8010C2E02C0759581
:100B400067950A94E2F76170F60181916F010E9446
:100B500074062196C430D10579F7C701DF91CF9192
:100B60001F910F91FF90EF90DF90CF900C940003B6
:100B7000CF92DF92EF92FF920F931F93CF93DF9369
:100B8000EC01F62E642F8C810E9474068D818F3FBC
:100B900019F060E00E9474068F850F2D10E084FF2D
:100BA00025C06E0187E0C80ED11CE12CF12CB801E4
:100BB0000E2C02C0759567950A94E2F76170F601F4
:100BC00081916F010E947406FFEFEF1AFF0A88E01F
:100BD000E816F10461F7CE01DF91CF911F910F91DB
:100BE000FF90EF90DF90CF900C940003B80184E069
:100BF000759567958A95E1F7CE010E948B056F2D5B
:100C0000CE01DF91CF911F910F91FF90EF90DF9078
:100C1000CF900C948B0541E00E94B80581E090E0F4
:100C2000089540E00C94B805CF93DF93EC0161E0A8
:100C30008AE393E00E9411068BE39FE10197F1F7AD
:100C4000E0914D03E23010F4E15001C0E1E0F0E04A
:100C5000E65CFC4F648960688AE393E00E941106B9
:100C60004C815D81688179818AE393E0DF91CF9146
:100C70000C94A6013FB7F8948091570390915803C4
:100C8000A0915903B0915A0326B5A89B05C02F3FE8
:100C900019F00196A11DB11D3FBFBA2FA92F982FA2
:100CA0008827820F911DA11DB11DBC01CD0142E01D
:100CB000660F771F881F991F4A95D1F708950895E9
:100CC0000E945311009769F0FC0101900020E9F7A0
:100CD0003197AF01481B590BBC018DE992E00C9490
:100CE000A60180E090E00895362F90E0FC01E356E5
:100CF000FD4F4491FC01E95AFD4F2491FC01EF5E48
:100D0000FD4F9491992309F46BC0442309F455C015
:100D100050E0FA013197E231F10508F04EC0882722
:100D2000EE58FF4F8F4F0C94350F809180008F77D6
:100D300007C0809180008F7D03C080918000877FF5
:100D4000809380003AC084B58F7702C084B58F7DD0
:100D500084BD33C08091B0008F7703C08091B00014
:100D60008F7D8093B00029C0809190008F7707C05D
:100D7000809190008F7D03C080919000877F809349
:100D800090001BC08091A0008F7707C08091A000C9
:100D90008F7D03C08091A000877F8093A0000DC04D
:100DA000809120018F7707C0809120018F7D03C043
:100DB00080912001877F80932001E92FF0E0EE0FE2
:100DC000FF1FE950FE4FA591B4918FB7F894EC91B5
:100DD000311103C020952E2301C02E2B2C938FBFE1
:100DE0000895CF93DF9390E0FC01E95AFD4F2491E1
:100DF000FC01EF5EFD4F8491882361F190E0880F44
:100E0000991FFC01E352FE4FC591D491FC01E950BA
:100E1000FE4FA591B491611109C09FB7F8948881E4
:100E2000209582238883EC912E230BC0623061F4DD
:100E30009FB7F8943881822F809583238883EC9123
:100E40002E2B2C939FBF06C08FB7F894E8812E2BD2
:100E500028838FBFDF91CF910895EF92FF920F9378
:100E60001F93CF93DF93EC01623018F08F85886079
:100E70008F876B8B1C8A80E48D8B80E18E8B80E565
:100E80008F8B61E08C810E94F1068D818F3F19F07C
:100E900061E00E94F10661E08E810E94F1067E0110
:100EA00087E0E80EF11C00E010E08F8584FD03C0B0
:100EB00084E090E002C088E090E0081719074CF445
:100EC00061E0F70181917F010E94F1060F5F1F4FE2
:100ED000ECCF8BE39DE00197F1F760E08C810E94FD
:100EE000740660E08E810E9474068D818F3F19F038
:100EF00060E00E9474066F8564FD1DC063E0CE0152
:100F00000E948B050BE416E4C8010197F1F763E03A
:100F1000CE010E948B05C8010197F1F763E0CE0175
:100F20000E948B0583E592E00197F1F762E0CE0124
:100F30000E948B0516C06062CE010E9411068BE4F0
:100F400096E40197F1F76F856062CE010E94110669
:100F500083E592E00197F1F76F856062CE010E9410
:100F600011066F856062CE010E94110684E0888BB5
:100F70006CE0CE010E94110661E0CE010E941106D4
:100F80008BE39FE10197F1F782E0898B66E0CE0168
:100F9000DF91CF911F910F91FF90EF900C9411066C
:100FA0001F93CF93DF93182FEB0161E00E94F106AE
:100FB000209711F460E004C0CF3FD10539F461E01F
:100FC000812FDF91CF911F910C947406E12FF0E0F7
:100FD000E356FD4FE4914E2F50E0FA013197E23194
:100FE000F10508F09DC08827EC57FF4F8F4F0C94F8
:100FF000350F84B5806884BDC7BD97C084B5806255
:1010000084BDC8BD92C080918000806880938000BC
:10101000D0938900C093880088C08091800080624E
:1010200080938000D0938B00C0938A007EC0809113
:101030008000886080938000D0938D00C0938C00E6
:1010400074C08091B00080688093B000C093B300FA
:101050006CC08091B00080628093B000C093B400F7
:1010600064C080919000806880939000D093990034
:10107000C09398005AC08091900080628093900045
:10108000D0939B00C0939A0050C0809190008860DC
:1010900080939000D0939D00C0939C0046C08091A7
:1010A000A00080688093A0008091A0008F7B809337
:1010B000A000D093A900C093A80037C08091A000E1
:1010C00080628093A000D093AB00C093AA002DC093
:1010D0008091A00088608093A000D093AD00C09361
:1010E000AC0023C080912001806880932001D093C0
:1010F0002901C093280119C080912001806280934A
:101100002001D0932B01C0932A010FC080912001B0
:10111000886080932001D0932D01C0932C0105C0DD
:10112000C038D1050CF04BCF45CFDF91CF911F9147
:101130000895863308F0865390917B00282F2870FD
:10114000977F922B90937B008770806480937C00C4
:1011500080917A00806480937A0080917A0086FD85
:10116000FCCF809178002091790090E0922B089537
:101170008F929F92AF92BF92CF92DF92EF92FF92A7
:101180006B017C010E943A064B015C01C114D10441
:10119000E104F104F1F00E943A06DC01CB01881968
:1011A0009909AA09BB09883E9340A105B10570F3CE
:1011B00021E0C21AD108E108F10888EE880E83E028
:1011C000981EA11CB11CC114D104E104F10419F74B
:1011D000DDCFFF90EF90DF90CF90BF90AF909F90CA
:1011E0008F9008951F920F920FB60F9211242F9394
:1011F0003F938F939F93AF93BF93809153039091AD
:101200005403A0915503B09156033091520323E04B
:10121000230F2D3720F40196A11DB11D05C026E82E
:10122000230F0296A11DB11D2093520380935303F7
:1012300090935403A0935503B093560380915703A2
:1012400090915803A0915903B0915A030196A11DA2
:10125000B11D8093570390935803A0935903B09303
:101260005A03BF91AF919F918F913F912F910F9012
:101270000FBE0F901F9018951F920F920FB60F92EE
:1012800011240BB60F922F933F934F935F936F935D
:101290007F938F939F93AF93BF93EF93FF93E091CF
:1012A0000F02F09110021995FF91EF91BF91AF914C
:1012B0009F918F917F916F915F914F913F912F916E
:1012C0000F900BBE0F900FBE0F901F9018951F929E
:1012D0000F920FB60F9211240BB60F922F933F93DC
:1012E0004F935F936F937F938F939F93AF93BF932E
:1012F000EF93FF93E0910D02F0910E021995FF918B
:10130000EF91BF91AF919F918F917F916F915F917D
:101310004F913F912F910F900BBE0F900FBE0F90EA
:101320001F9018951F920F920FB60F9211240BB6B3
:101330000F922F933F934F935F936F937F938F936E
:101340009F93AF93BF93EF93FF93E0910302F091CC
:1013500004021995FF91EF91BF91AF919F918F91E9
:101360007F916F915F914F913F912F910F900BBEA5
:101370000F900FBE0F901F9018951F920F920FB6EF
:101380000F9211240BB60F922F933F934F935F93BD
:101390006F937F938F939F93AF93BF93EF93FF933D
:1013A000E0910102F09102021995FF91EF91BF9136
:1013B000AF919F918F917F916F915F914F913F91ED
:1013C0002F910F900BBE0F900FBE0F901F9018958E
:1013D0001F920F920FB60F9211240BB60F922F93FC
:1013E0003F934F935F936F937F938F939F93AF93AD
:1013F000BF93EF93FF93E0910B02F0910C021995CC
:10140000FF91EF91BF91AF919F918F917F916F91DC
:101410005F914F913F912F910F900BBE0F900FBE98
:101420000F901F9018951F920F920FB60F921124D4
:101430000BB60F922F933F934F935F936F937F93CE
:101440008F939F93AF93BF93EF93FF93E091090224
:10145000F0910A021995FF91EF91BF91AF919F9181
:101460008F917F916F915F914F913F912F910F904D
:101470000BBE0F900FBE0F901F9018951F920F92EA
:101480000FB60F9211240BB60F922F933F934F93E9
:101490005F936F937F938F939F93AF93BF93EF93DC
:1014A000FF93E0910702F09108021995FF91EF91E7
:1014B000BF91AF919F918F917F916F915F914F916C
:1014C0003F912F910F900BBE0F900FBE0F901F906A
:1014D00018951F920F920FB60F9211240BB60F9210
:1014E0002F933F934F935F936F937F938F939F932C
:1014F000AF93BF93EF93FF93E0910502F091060243
:101500001995FF91EF91BF91AF919F918F917F912D
:101510006F915F914F913F912F910F900BBE0F9064
:101520000FBE0F901F901895EF92FF920F931F938D
:10153000CF93DF93EC01198218821B821A821D82DD
:101540001C8261157105A9F17B01FB01019000204E
:10155000E9F731978F01061B170BB8016F5F7F4FBB
:1015600080E090E00E946A10009759F09983888388
:101570001B830A832C813D81232B81F4FC01108283
:101580000DC088819981009711F00E94D20F1982B5
:1015900018821D821C821B821A820BC01D830C8341
:1015A000B701DF91CF911F910F91FF90EF900C94B5
:1015B0006111DF91CF911F910F91FF90EF900895EE
:1015C000CF93DF9300D000D0CDB7DEB7789484B549
:1015D000826084BD84B5816084BD85B5826085BD2F
:1015E00085B5816085BD80916E00816080936E00BD
:1015F00010928100809181008260809381008091AF
:10160000810081608093810080918000816080935F
:1016100080008091B10084608093B1008091B0001F
:1016200081608093B00080919100826080939100EE
:101630008091910081608093910080919000816001
:10164000809390008091A10082608093A10080919E
:10165000A10081608093A1008091A00081608093AF
:10166000A00080912101826080932101809121015D
:10167000816080932101809120018160809320010D
:1016800080917A00846080937A0080917A008260F1
:1016900080937A0080917A00816080937A008091B3
:1016A0007A00806880937A001092C100E091AD02C8
:1016B000F091AE0282E08083E091A902F091AA024B
:1016C0001082E091AB02F091AC028FEC808310921B
:1016D000B502E091B102F091B20286E08083E09120
:1016E000AF02F091B002808180618083E091AF020F
:1016F000F091B002808188608083E091AF02F09128
:10170000B002808180688083E091AF02F091B002E6
:1017100080818F7D808360E08DE30E94F10660E030
:101720008CE30E94F10660E08BE30E94F10660E02A
:101730008AE30E94F10664E670E080E090E00E9497
:10174000B8080BE112E07FE7E72E72E0F72EF2E037
:1017500003321F0789F0F80180810E5F1F4F0E943E
:101760009908F701819391937F016AE070E080E02E
:1017700090E00E94B808EBCF61E089E00E94F1069A
:1017800061E08AE00E94F10661E086E00E94F106D5
:1017900061E085E00E94F10660E087E30E94F106C7
:1017A00060E086E30E94F10662E088E30E94F106B1
:1017B00068EE73E080E090E00E94B80887E30E9442
:1017C00099088C0190938E0280938D0286E30E948B
:1017D000990890938C0280938B02000F111F109335
:1017E0008A02009389029C01220F331F30938802E2
:1017F0002093870261E08EE10E94F10661E080E2C1
:101800000E94F10661E086E10E94F10661E088E154
:101810000E94F10661E08AE10E94F10661E08CE13C
:101820000E94F10662E08AE393E00E942D0760E0E7
:1018300082E00E94F10681ED91E090930202809394
:10184000010280916A008C7F826080936A00EC9A2A
:1018500058EE452E53E0552E612C712C00E71EEFFB
:1018600060E9E62EFF24F394809194029091950212
:10187000892B19F060E472E002C06AE472E0CE01E4
:1018800001960E94940ACE0101960E941406898155
:101890009A810E94D20F61E070E080E090E00E94A7
:1018A000B8080E9416030E94DB02809193028F30D9
:1018B00029F00E94DD030E94A202D6CF0E94270DCC
:1018C000A30192010E942F0E643F71408105910592
:1018D0001CF08FEF9FEF02C081E090E0809F6001DD
:1018E000819FD00C909FD00C11248E9D50018F9D14
:1018F000B00C9E9DB00C1124809193028823C9F2F4
:10190000B0929202A0929102D0929002C0928F0265
:101910000E94DD030E9416030E94DB02EDCFEDE979
:10192000F2E01382128288EE93E0A0E0B0E08483BC
:101930009583A683B78387E292E09183808385ECC9
:1019400090E09587848784EC90E09787868780EC89
:1019500090E0918B808B81EC90E0938B828B82EC7A
:1019600090E0958B848B86EC90E0978B868B118E24
:10197000128E138E148EEAE3F3E01382128287E351
:1019800092E0918380838EE184838FEF858380E270
:10199000868386E1878388E180878AE181878CE17D
:1019A00082871386148615861686178661E0CF0116
:1019B0000C942D078F929F92AF92BF92CF92DF929D
:1019C000EF92FF92CF93DF93EC01688179818A8156
:1019D0009B81611571058105910521F464E279ED22
:1019E0008BE597E02DE133EF41E050E00E942F0EB0
:1019F00049015A019B01AC01A7EAB1E40E944E0ED5
:101A00006B017C01ACEEB4EFA50194010E945C0E69
:101A1000DC01CB018C0D9D1DAE1DBF1DB7FF03C0AA
:101A20000197A109B04888839983AA83BB83BC012D
:101A3000CD019F77DF91CF91FF90EF90DF90CF9016
:101A4000BF90AF909F908F9008950C94DA0C81E135
:101A500092E00C94DA0C609311027093120280935E
:101A60001302909314020895E89409C097FB3EF482
:101A700090958095709561957F4F8F4F9F4F9923DB
:101A8000A9F0F92F96E9BB279395F6958795779559
:101A90006795B795F111F8CFFAF4BB0F11F460FF19
:101AA0001BC06F5F7F4F8F4F9F4F16C0882311F071
:101AB00096E911C0772321F09EE8872F762F05C085
:101AC000662371F096E8862F70E060E02AF09A9520
:101AD000660F771F881FDAF7880F9695879597F915
:101AE00008950E94840D0C94F50D0E94E70D38F0C6
:101AF0000E94EE0D20F0952311F00C94DE0D0C9455
:101B0000E40D11240C94290E0E94060E70F3959F8B
:101B1000C1F3950F50E0551F629FF001729FBB27E4
:101B2000F00DB11D639FAA27F00DB11DAA1F649F80
:101B30006627B00DA11D661F829F2227B00DA11D33
:101B4000621F739FB00DA11D621F839FA00D611DB9
:101B5000221F749F3327A00D611D231F849F600DDA
:101B6000211D822F762F6A2F11249F5750409AF003
:101B7000F1F088234AF0EE0FFF1FBB1F661F771F8F
:101B8000881F91505040A9F79E3F510580F00C945A
:101B9000DE0D0C94290E5F3FE4F3983ED4F3869556
:101BA00077956795B795F795E7959F5FC1F7FE2BFA
:101BB000880F911D9695879597F9089597F99F67D6
:101BC00080E870E060E008959FEF80EC08950024C5
:101BD0000A941616170618060906089500240A9492
:101BE00012161306140605060895092E0394000C18
:101BF00011F4882352F0BB0F40F4BF2B11F460FFA7
:101C000004C06F5F7F4F8F4F9F4F089557FD9058CF
:101C1000440F551F59F05F3F71F04795880F97FBB0
:101C2000991F61F09F3F79F087950895121613066A
:101C30001406551FF2CF4695F1DF08C01616170699
:101C40001806991FF1CF86957105610508940895CE
:101C5000E894BB2766277727CB0197F90895052ECF
:101C600097FB1EF400940E94460E57FD07D00E9479
:101C7000610E07FC03D04EF40C94460E509540952F
:101C8000309521953F4F4F4F5F4F08959095809528
:101C9000709561957F4F8F4F9F4F08950E94830EDF
:101CA000A59F900DB49F900DA49F800D911D1124B0
:101CB0000895B7FF0C944E0E0E944E0E821B930B9C
:101CC0000895A1E21A2EAA1BBB1BFD010DC0AA1F7D
:101CD000BB1FEE1FFF1FA217B307E407F50720F095
:101CE000A21BB30BE40BF50B661F771F881F991F10
:101CF0001A9469F760957095809590959B01AC0159
:101D0000BD01CF010895A29FB001B39FC001A39F61
:101D1000700D811D1124911DB29F700D811D112424
:101D2000911D08955058BB27AA270E94AA0E0C9413
:101D3000F50D0E94E70D38F00E94EE0D20F039F409
:101D40009F3F19F426F40C94E40D0EF4E095E7FBA4
:101D50000C94DE0DE92F0E94060E58F3BA176207A5
:101D600073078407950720F079F4A6F50C94280EE4
:101D70000EF4E0950B2EBA2FA02D0B01B9019001A6
:101D80000C01CA01A0011124FF27591B99F0593FEA
:101D900050F4503E68F11A16F040A22F232F342F32
:101DA0004427585FF3CF469537952795A795F04080
:101DB0005395C9F77EF41F16BA0B620B730B840B95
:101DC000BAF09150A1F0FF0FBB1F661F771F881F4D
:101DD000C2F70EC0BA0F621F731F841F48F48795A5
:101DE00077956795B795F7959E3F08F0B0CF939597
:101DF000880F08F09927EE0F9795879508950E9410
:101E0000060F6894B1110C94290E08950E940E0ECD
:101E100088F09F5798F0B92F9927B751B0F0E1F0AB
:101E2000660F771F881F991F1AF0BA95C9F714C05B
:101E3000B13091F00E94280EB1E008950C94280E64
:101E4000672F782F8827B85F39F0B93FCCF3869594
:101E500077956795B395D9F73EF4909580957095F1
:101E600061957F4F8F4F9F4F0895EE0FFF1F881F83
:101E70008BBF0790F691E02D1994CF93DF938230BA
:101E8000910510F482E090E0E0915D03F0915E0333
:101E900020E030E0C0E0D0E0309711F14081518186
:101EA00048175907C0F04817590761F48281938198
:101EB000209719F09B838A832BC090935E038093B5
:101EC0005D0326C02115310519F04217530718F498
:101ED0009A01BE01DF01EF010280F381E02DDCCF2A
:101EE0002115310509F1281B390B2430310590F4F7
:101EF00012968D919C9113976115710521F0FB014C
:101F00009383828304C090935E0380935D03FD01FD
:101F1000329644C0FD01E20FF31F8193919322504A
:101F200031092D933C933AC020915B0330915C03BF
:101F3000232B41F4209117023091180230935C0357
:101F400020935B0320911502309116022115310573
:101F500041F42DB73EB74091190250911A02241B4B
:101F6000350BE0915B03F0915C03E217F307A0F4FB
:101F70002E1B3F0B2817390778F0AC014E5F5F4FDF
:101F80002417350748F04E0F5F1F50935C034093B2
:101F90005B038193919302C0E0E0F0E0CF01DF9119
:101FA000CF9108950F931F93CF93DF93009709F478
:101FB0008CC0FC0132971382128200915D03109154
:101FC0005E030115110581F420813181820F931F79
:101FD00020915B0330915C032817390779F5F09362
:101FE0005C03E0935B0371C0D80140E050E0AE17A2
:101FF000BF0750F412962D913C911397AD01211516
:10200000310509F1D901F3CF9D01DA013383228330
:1020100060817181860F971F8217930769F4EC0125
:1020200028813981260F371F2E5F3F4F3183208350
:102030008A819B8193838283452B29F4F0935E03ED
:10204000E0935D0342C01396FC93EE931297ED016B
:10205000499159919E01240F351FE217F30771F43E
:1020600080819181840F951F029611969C938E9387
:102070008281938113969C938E931297E0E0F0E017
:10208000D80112968D919C911397009719F0F80141
:102090008C01F6CF8D919C9198012E5F3F4F820F5E
:1020A000931F20915B0330915C032817390769F473
:1020B000309729F410925E0310925D0302C01382E0
:1020C000128210935C0300935B03DF91CF911F9109
:1020D0000F9108956F927F928F929F92AF92BF92CD
:1020E000CF92DF92EF92FF920F931F93CF93DF93E4
:1020F000EC01009789F4CB01DF91CF911F910F91F3
:10210000FF90EF90DF90CF90BF90AF909F908F9017
:102110007F906F900C943D0FFC01E60FF71F9C0120
:1021200022503109E217F30708F4ACC0D9010D9130
:102130001C91119706171707B0F00530110508F428
:102140009FC0C80104978617970708F499C00250EA
:102150001109061B170B019311936D937C93CF010B
:102160000E94D20F8DC05B01A01AB10A4C01800EF3
:10217000911EA0915D03B0915E0340E050E0E12C20
:10218000F12C109709F44AC0A815B905D1F56D9046
:102190007C901197630182E0C80ED11CCA14DB0445
:1021A00080F1A3014A195B096A0182E0C80ED11CC3
:1021B0001296BC9012971396AC91B5E0CB16D10451
:1021C00040F0B282A38351834083D9016D937C9305
:1021D0000AC00E5F1F4FC301800F911FF901918349
:1021E0008083EB2DFA2FE114F10431F0D70113961F
:1021F000FC93EE93129744C0F0935E03E0935D036B
:102200003FC08D919C9111974817590708F4AC0174
:102210007D0112960D90BC91A02DB3CF80915B03F0
:1022200090915C0388159905E1F446175707C8F4A7
:102230008091150290911602009741F48DB79EB7D8
:102240004091190250911A02841B950BE817F90767
:10225000C8F4F0935C03E0935B03F901718360833E
:102260000FC0CB010E943D0F7C01009759F0A801DF
:10227000BE010E945811CE010E94D20FC70104C0B6
:10228000CE0102C080E090E0DF91CF911F910F91CD
:10229000FF90EF90DF90CF90BF90AF909F908F9086
:1022A0007F906F90089581E090E0F8940C9468110D
:1022B000FB01DC0102C001900D9241505040D8F763
:1022C0000895FB01DC0101900D920020E1F70895D3
:0422D000F894FFCFB0
:1022D400FF5F065F065F065F065F065F065F065FD9
:1022E400060100000000005F0380003D003C003B4D
:1022F400003A00000000003902A6010202E001F4E5
:10230400018002000000000B06A60109000D0A006E
:10231400524F424F543A20474F00524F424F543A83
:062324002053544F50004D
:00000001FF
