:100000000C948D010C94D3060C94A8060C947D06D8
:100010000C9452060C9427060C94FC050C94D10504
:100020000C94A6050C94BE010C94BE010C94BE0168
:100030000C94BE010C94FE060C94BE010C94BE01FF
:100040000C94BE010C94BE010C94BE010C94BE0134
:100050000C94BE010C94BE010C94BE010C945C0582
:100060000C94BE010C9488070C945E070C94BE019E
:100070000C94BE010C94BE010C94BE010C94BE0104
:100080000C94BE010C94BE010C94BE010C94BE01F4
:100090000C94BE010C94BE010C94BE010C94BE01E4
:1000A0000C94BE010C94BE010C94BE010C94BE01D4
:1000B0000C94BE010C94BE010C94BE010C94BE01C4
:1000C0000C94BE010C94BE010C94BE010C94BE01B4
:1000D0000C94BE010C94BE010C94BE010C94BE01A4
:1000E0000C94BE01E60CF40CFD0CF40CFD0CFD0CA4
:1000F000FD0CF40CEB0CE60CFD0CE60CEB0CE60C2A
:10010000EB0CC508C808B708BB08BF08FF08CC0837
:10011000D008D608DA08DE08E408E808EC08FF088A
:10012000F208F608FA081B0A200A250A2F0A390ADB
:10013000B20A430A4B0A530A5D0A670A710A800A27
:100140008A0AB20A940A9E0AA80A0C94CC080C9453
:100150002F0A0C944B0A0C941C0D0C94390A0C9425
:10016000FD0C0C94D6080C94B20A0C94C1010C94AA
:10017000BF080C94710A0C941D020C94940A0C9400
:10018000C8080C94250A0C945D0A0C94A80A0C94D7
:10019000D0080C948A0A0C94E8080C94EB0C0C948C
:1001A000C0010C94F6080C940C0D0C94EC010C940A
:1001B000800A0C94E60C0C94BB080C94FA080C947E
:1001C000FB010C94F40C0C941B0A0C94430A0C9441
:1001D000DA080C949B020C94670A0C940F020C949E
:1001E000200A0C94DE080C94EC080C949E0A0C94E3
:1001F000F2080C943E080C9454020C94530A0C948C
:10020000C5080C94E4080C94B7080C94FF0802008D
:10021000002100240027002A002D003000330001B7
:10022000010000040107010A0100000A0B02090C89
:100230000D0E08070304010000000000000000008C
:1002400000000000000000000000000000000000AE
:10025000000000000012111000000000000000006B
:10026000000000000000000000000000000000018D
:1002700002102020080810204010204080020102B7
:10028000010804020101020408102040808040207F
:1002900010080402018004020180402010080402BA
:1002A0000108040201010204081020408001020438
:1002B000081020408000002200250028002B002E7E
:1002C000003100340002010000050108010B0105A6
:1002D000050505070508080808020202020A0A08BF
:1002E00008040404040101010101010101030303E5
:1002F0000303030303040707070C0C0C0C0C0C0C82
:100300000C0202020206060606060606060B0B0B88
:100310000B0B0B0B0B001C0D0C0D11241FBECFEF94
:10032000D1E2DEBFCDBF00E00CBF12E0A0E0B2E042
:10033000E4E1F5E200E00BBF02C007900D92A635A4
:10034000B107D9F723E0A6E5B2E001C01D92A837B6
:10035000B207E1F711E0CCE8D1E000E006C0219758
:100360000109802FFE010E944510CB38D10780E0A3
:100370000807A9F70E94140B0C9478120C94000043
:100380000895CF92DF92EF92FF920F931F93CF9336
:10039000DF936C017A018B01C0E0D0E0CE15DF0560
:1003A00089F0D8016D918D01D601ED91FC910190FC
:1003B000F081E02DC6011995892B11F47E0102C050
:1003C0002196ECCFC701DF91CF911F910F91FF9044
:1003D000EF90DF90CF90089520919002309191029C
:1003E00081E090E0232B11F080E090E09093910267
:1003F000809390020895FC01918D828D981761F091
:10040000828DDF01A80FB11D5D968C91928D9F5F4B
:100410009F73928F90E008958FEF9FEF0895FC01F6
:10042000918D828D981731F0828DE80FF11D858DA9
:1004300090E008958FEF9FEF0895FC01918D228D3C
:10044000892F90E0805C9F4F821B91098F739927C1
:10045000089586EA92E00E941D0221E0892B09F4AA
:1004600020E0822F0895FC01848DDF01A80FB11DCB
:10047000A35ABF4F2C91848D90E001968F739927DA
:10048000848FA689B7892C93A089B1898C918064C7
:100490008C93938D848D981306C00288F389E02D88
:1004A00080818F7D80830895EF92FF920F931F9339
:1004B000CF93DF93EC0181E0888F9B8D8C8D981317
:1004C00005C0E889F989808185FD24C0F62E0B8D51
:1004D00010E00F5F1F4F0F731127E02E8C8DE81275
:1004E0000CC00FB607FCFACFE889F989808185FF37
:1004F000F5CFCE010E943302F1CF8B8DFE01E80FC4
:10050000F11DE35AFF4FF0820B8FEA89FB8980814E
:10051000806207C0EE89FF896083E889F98980815C
:100520008064808381E090E0DF91CF911F910F91F3
:10053000FF90EF900895CF93DF93EC01888D88238F
:10054000C9F0EA89FB89808185FD05C0A889B98940
:100550008C9186FD0FC00FB607FCF5CF808185FF1B
:10056000F2CFA889B9898C9185FFEDCFCE010E9489
:100570003302E7CFDF91CF91089580E090E0892B9F
:1005800021F00E942902811125C080E090E0892B92
:1005900041F080E090E0892B21F00E940000811161
:1005A0001CC080E090E0892B41F080E090E0892B36
:1005B00021F00E940000811113C080E090E0892B9F
:1005C000A1F080E090E0892B81F00E940000811171
:1005D0000AC008950E940000D8CF0E940000E1CF19
:1005E0000E940000EACF0C9400000895CF93DF939F
:1005F000E7E7F2E0AFE7B2E040E080E090E0C191F1
:10060000D1916D917D91660F771F21E030E06C17DD
:100610007D0714F020E030E0082E01C0220F0A947C
:10062000EAF7422B01968430910549F740938F02F7
:10063000DF91CF910895EF92FF920F931F93CF9385
:10064000DF93EC01198218821B821A821D821C82A0
:1006500061157105A9F17B01FB0101900020E9F70B
:1006600031978F01061B170BB8016F5F7F4F80E03A
:1006700090E00E947A11009759F0998388831B8338
:100680000A832C813D81232B81F4FC0110820DC053
:1006900088819981009711F00E94E21019821882D6
:1006A0001D821C821B821A820BC01D830C83B70122
:1006B000DF91CF911F910F91FF90EF900C947112E9
:1006C000DF91CF911F910F91FF90EF90089590913E
:1006D000000298133DC0EEE0F2E0E4919FEF9093AA
:1006E0000002E230C9F050F4EE2399F0E13081F5D8
:1006F00090916F009D7F90936F002AC0E43019F1B4
:10070000E0F0E53029F5909173009D7F90937300A0
:100710001FC010926E001CC0909170009D7F90933E
:10072000700091E09093B0009091B100987F946038
:100730009093B1001092B3000BC0909171009D7F17
:100740009093710005C0909172009D7F909372000C
:1007500060E00C949608CF93DF93EC0160E08E810B
:100760000E94960861E08E810E94960860E08E816A
:100770000E9496088BE891E00197F1F7DF91CF9105
:1007800008954F925F926F927F928F929F92AF9255
:10079000BF92CF92DF92EF92FF920F931F93CF936E
:1007A000DF93CDB7DEB7A1970FB6F894DEBF0FBECB
:1007B000CDBF8BE1A82E82E0B82E07E712E09AE0C9
:1007C000492E512C612C712CF2E00F371F0709F4D0
:1007D00084C0F80160817181072E000C880B990B91
:1007E0000E94460E6B017C01F5018081F2E0AF0EA4
:1007F000B11C0E94BB0A4C0126E636E646E65FE3E2
:10080000C701B6010E94810E0E94161080E090E0A0
:100810000E94440E6B017C01B401990C880B990B6A
:100820000E94460E20ED3CEC4CEC5DE30E94810EF4
:100830009B01AC01C701B6010E94A30F0E940F10DB
:10084000F801619371938F016B01770FEE08FF0838
:10085000F7FE26C0E091A602F091A7020190F08178
:10086000E02D6DE286EA92E0199522273327A9014F
:100870002C193D094E095F0919A2CE0181967C0110
:10088000CA01B901A30192010E94710F605DF701D5
:1008900062937F01211531054105510589F715C086
:1008A000A701960119A2CE0181967C01CA01B90166
:1008B000A30192010E94710F605DF70162937F01B5
:1008C000211531054105510589F7C7010E948408AA
:1008D0008BE392E00E94840877CF8DE392E00E9440
:1008E0008408A1960FB6F894DEBF0FBECDBFDF918E
:1008F000CF911F910F91FF90EF90DF90CF90BF901D
:10090000AF909F908F907F906F905F904F900895E1
:100910004F925F926F927F928F929F92AF92BF920F
:10092000CF92DF92EF92FF92CF93DF93CDB7DEB7F6
:1009300028970FB6F894DEBF0FBECDBFC090A402BB
:10094000D090A5020D2C000CEE08FF0888EEC80E12
:1009500083E0D81EE11CF11CAFEFB0E0A7019601C7
:100960000E945E0F20ED822E27E0922EA12CB12C4A
:10097000A50194010E943F0F29833A834B835C8336
:10098000A981BA81B0937602A0937502A1E0BFEF6E
:10099000A70196010E946C0FA50194010E943F0FD0
:1009A000DA01C90181509F4FAF4FBF4F8D839E83A6
:1009B000AF83B8879093740280937302C090A202B1
:1009C000D090A3020D2C000CEE08FF0898EEC90E83
:1009D00093E0D91EE11CF11CAFEFB0E0A701960136
:1009E0000E945E0FA50194010E943F0F29013A0168
:1009F0003093720220937102A1E0BFEFA70196012C
:100A00000E946C0FA50194010E943F0F69017A01B9
:100A1000AFEFCA0ED11CE11CF11CD0927002C09243
:100A20006F0269817A8189E00E94F2096D817E817D
:100A30008AE00E94F209B20186E00E94F209B60142
:100A400085E028960FB6F894DEBF0FBECDBFDF91CC
:100A5000CF91FF90EF90DF90CF90BF90AF909F909D
:100A60008F907F906F905F904F900C94F2093FB7FA
:100A7000F89480919E0290919F02A091A002B09163
:100A8000A10226B5A89B05C02F3F19F00196A11D14
:100A9000B11D3FBFBA2FA92F982F8827820F911D14
:100AA000A11DB11DBC01CD0142E0660F771F881F5B
:100AB000991F4A95D1F708951F920F920FB60F9282
:100AC00011242F933F938F939F93AF93BF93809164
:100AD0009A0290919B02A0919C02B0919D0230914C
:100AE000990223E0230F2D3720F40196A11DB11D9B
:100AF00005C026E8230F0296A11DB11D209399027F
:100B000080939A0290939B02A0939C02B0939D02C3
:100B100080919E0290919F02A091A002B091A102AB
:100B20000196A11DB11D80939E0290939F02A093F8
:100B3000A002B093A102BF91AF919F918F913F917D
:100B40002F910F900FBE0F901F9018951F920F922C
:100B50000FB60F9211240BB60F922F933F934F9322
:100B60005F936F937F938F939F93AF93BF93EF9315
:100B7000FF93E0910F02F09110021995FF91EF9110
:100B8000BF91AF919F918F917F916F915F914F91A5
:100B90003F912F910F900BBE0F900FBE0F901F90A3
:100BA00018951F920F920FB60F9211240BB60F9249
:100BB0002F933F934F935F936F937F938F939F9365
:100BC000AF93BF93EF93FF93E0910D02F0910E026C
:100BD0001995FF91EF91BF91AF919F918F917F9167
:100BE0006F915F914F913F912F910F900BBE0F909E
:100BF0000FBE0F901F9018951F920F920FB60F9275
:100C000011240BB60F922F933F934F935F936F93E3
:100C10007F938F939F93AF93BF93EF93FF93E09155
:100C20000302F09104021995FF91EF91BF91AF91EA
:100C30009F918F917F916F915F914F913F912F91F4
:100C40000F900BBE0F900FBE0F901F9018951F9224
:100C50000F920FB60F9211240BB60F922F933F9362
:100C60004F935F936F937F938F939F93AF93BF93B4
:100C7000EF93FF93E0910102F09102021995FF9129
:100C8000EF91BF91AF919F918F917F916F915F9104
:100C90004F913F912F910F900BBE0F900FBE0F9071
:100CA0001F9018951F920F920FB60F9211240BB63A
:100CB0000F922F933F934F935F936F937F938F93F5
:100CC0009F93AF93BF93EF93FF93E0910B02F0914B
:100CD0000C021995FF91EF91BF91AF919F918F9168
:100CE0007F916F915F914F913F912F910F900BBE2C
:100CF0000F900FBE0F901F9018951F920F920FB676
:100D00000F9211240BB60F922F933F934F935F9343
:100D10006F937F938F939F93AF93BF93EF93FF93C3
:100D2000E0910902F0910A021995FF91EF91BF91AC
:100D3000AF919F918F917F916F915F914F913F9173
:100D40002F910F900BBE0F900FBE0F901F90189514
:100D50001F920F920FB60F9211240BB60F922F9382
:100D60003F934F935F936F937F938F939F93AF9333
:100D7000BF93EF93FF93E0910702F091080219955A
:100D8000FF91EF91BF91AF919F918F917F916F9163
:100D90005F914F913F912F910F900BBE0F900FBE1F
:100DA0000F901F9018951F920F920FB60F9211245B
:100DB0000BB60F922F933F934F935F936F937F9355
:100DC0008F939F93AF93BF93EF93FF93E0910502AF
:100DD000F09106021995FF91EF91BF91AF919F910C
:100DE0008F917F916F915F914F913F912F910F90D4
:100DF0000BBE0F900FBE0F901F9018951F920F9271
:100E00000FB60F9211240BB60F922F933F934F936F
:100E10005F936F937F938F939F93AF93BF93EF9362
:100E2000FF938091950290919602A0919702B091C4
:100E30009802892B8A2B8B2B51F180919402E0919F
:100E40009202F0919302908189278083809195028C
:100E500090919602A0919702B091980218161906E7
:100E60001A061B06C4F48091950290919602A091F7
:100E70009702B09198020197A109B1098093950258
:100E800090939602A0939702B093980204C0809129
:100E900000020E946703FF91EF91BF91AF919F9174
:100EA0008F917F916F915F914F913F912F910F9013
:100EB0000BBE0F900FBE0F901F9018951F920F92B0
:100EC0000FB60F9211240BB60F922F933F934F93AF
:100ED0005F936F937F938F939F93AF93BF93EF93A2
:100EE000FF9386EA92E00E943302FF91EF91BF9157
:100EF000AF919F918F917F916F915F914F913F91B2
:100F00002F910F900BBE0F900FBE0F901F90189552
:100F10001F920F920FB60F9211240BB60F922F93C0
:100F20008F939F93EF93FF93E091B602F091B702F6
:100F30008081E091BC02F091BD0282FD12C09081DF
:100F40008091BF028F5F8F732091C002821751F092
:100F5000E091BF02F0E0EA55FD4F958F8093BF020C
:100F600001C08081FF91EF919F918F912F910F9000
:100F70000BBE0F900FBE0F901F901895CF92DF926F
:100F8000EF92FF920F931F93CF93DF937C016C013D
:100F900087E0C80ED11CC0E0D0E0062F10E0B801F9
:100FA0000C2E02C0759567950A94E2F76170F60100
:100FB00081916F010E9496082196C430D10579F77E
:100FC000C701DF91CF911F910F91FF90EF90DF90BC
:100FD000CF900C94AB03CF92DF92EF92FF920F93DE
:100FE0001F93CF93DF93EC01F62E642F8C810E9428
:100FF00096088D818F3F19F060E00E9496088F85DA
:101000000F2D10E084FF25C06E0187E0C80ED11CB3
:10101000E12CF12CB8010E2C02C0759567950A944D
:10102000E2F76170F60181916F010E949608FFEF6F
:10103000EF1AFF0A88E0E816F10461F7CE01DF91AC
:10104000CF911F910F91FF90EF90DF90CF900C9474
:10105000AB03B80184E0759567958A95E1F7CE01F9
:101060000E94BE076F2DCE01DF91CF911F910F918E
:10107000FF90EF90DF90CF900C94BE0741E00E946C
:10108000EB0781E090E0089540E00C94EB07CF93EC
:10109000DF93EC0161E088E593E00E9444088BE374
:1010A0009FE10197F1F7E0916B03E23010F4E1501A
:1010B00001C0E1E0F0E0E85AFC4F6489606888E52F
:1010C00093E00E9444084C815D816881798188E5C4
:1010D00093E0DF91CF910C94C1010E9463121092B2
:1010E00073031092720322273327281B390B309386
:1010F0007103209370039093A5028093A4029093B0
:10110000A3028093A2020895009769F0FC01019068
:101110000020E9F73197AF01481B590BBC0186EA63
:1011200092E00C94C10180E090E00895362F90E0A9
:10113000FC01E75DFD4F4491FC01E159FD4F249115
:10114000FC01E153FD4F9491992309F46BC04423B2
:1011500009F455C050E0FA013197E231F10508F089
:101160004EC08827EF57FF4F8F4F0C94451080914A
:1011700080008F7707C0809180008F7D03C08091B1
:101180008000877F809380003AC084B58F7702C04B
:1011900084B58F7D84BD33C08091B0008F7703C04C
:1011A0008091B0008F7D8093B00029C08091900025
:1011B0008F7707C0809190008F7D03C08091900051
:1011C000877F809390001BC08091A0008F7707C01D
:1011D0008091A0008F7D03C08091A000877F8093C5
:1011E000A0000DC0809120018F7707C08091200161
:1011F0008F7D03C080912001877F80932001E92F9C
:10120000F0E0EE0FFF1FEB54FD4FA591B4918FB7A7
:10121000F894EC91311103C020952E2301C02E2BA0
:101220002C938FBF0895CF93DF9390E0FC01E15999
:10123000FD4F2491FC01E153FD4F8491882361F11E
:1012400090E0880F991FFC01E15FFD4FC591D4919B
:10125000FC01EB54FD4FA591B491611109C09FB7FA
:10126000F8948881209582238883EC912E230BC0EB
:10127000623061F49FB7F8943881822F8095832380
:101280008883EC912E2B2C939FBF06C08FB7F894C8
:10129000E8812E2B28838FBFDF91CF910895EF92A5
:1012A000FF920F931F93CF93DF93EC01623018F0FE
:1012B0008F8588608F876B8B1C8A80E48D8B80E1A3
:1012C0008E8B80E58F8B61E08C810E9413098D816C
:1012D0008F3F19F061E00E94130961E08E810E9446
:1012E00013097E0187E0E80EF11C00E010E08F8515
:1012F00084FD03C084E090E002C088E090E008171D
:1013000019074CF461E0F70181917F010E941309F4
:101310000F5F1F4FECCF8BE39DE00197F1F760E08B
:101320008C810E94960860E08E810E9496088D81D3
:101330008F3F19F060E00E9496086F8564FD1DC024
:1013400063E0CE010E94BE070BE416E4C8010197DA
:10135000F1F763E0CE010E94BE07C8010197F1F7E3
:1013600063E0CE010E94BE0783E592E00197F1F7AA
:1013700062E0CE010E94BE0716C06062CE010E94EC
:1013800044088BE496E40197F1F76F856062CE0123
:101390000E94440883E592E00197F1F76F8560624F
:1013A000CE010E9444086F856062CE010E9444080D
:1013B00084E0888B6CE0CE010E94440861E0CE019D
:1013C0000E9444088BE39FE10197F1F782E0898B4B
:1013D00066E0CE01DF91CF911F910F91FF90EF90CA
:1013E0000C9444081F93CF93DF93182FEB0161E017
:1013F0000E941309209711F460E004C0CF3FD1058B
:1014000039F461E0812FDF91CF911F910C94960800
:10141000E12FF0E0E75DFD4FE4914E2F50E0FA013F
:101420003197E231F10508F09DC08827ED56FF4F56
:101430008F4F0C94451084B5806884BDC7BD97C09C
:1014400084B5806284BDC8BD92C0809180008068F0
:1014500080938000D0938900C093880088C08091D9
:101460008000806280938000D0938B00C0938A00BC
:101470007EC080918000886080938000D0938D0032
:10148000C0938C0074C08091B00080688093B000DD
:10149000C093B3006CC08091B00080628093B000B4
:1014A000C093B40064C080919000806880939000E5
:1014B000D0939900C09398005AC0809190008062A8
:1014C00080939000D0939B00C0939A0050C080916D
:1014D0009000886080939000D0939D00C0939C0002
:1014E00046C08091A00080688093A0008091A000F9
:1014F0008F7B8093A000D093A900C093A80037C031
:101500008091A00080628093A000D093AB00C09334
:10151000AA002DC08091A00088608093A000D09385
:10152000AD00C093AC0023C08091200180688093FF
:101530002001D0932901C093280119C08091200176
:10154000806280932001D0932B01C0932A010FC0A9
:1015500080912001886080932001D0932D01C09359
:101560002C0105C0C038D1050CF04BCF45CFDF9121
:10157000CF911F910895863308F0865390917B0098
:10158000282F2870977F922B90937B008770806420
:1015900080937C0080917A00806480937A008091AF
:1015A0007A0086FDFCCF809178002091790090E050
:1015B000922B08958F929F92AF92BF92CF92DF921B
:1015C000EF92FF926B017C010E9437054B015C0199
:1015D000C114D104E104F104F1F00E943705DC01EB
:1015E000CB0188199909AA09BB09883E9340A10536
:1015F000B10570F321E0C21AD108E108F10888EEC4
:10160000880E83E0981EA11CB11CC114D104E10412
:10161000F10419F7DDCFFF90EF90DF90CF90BF90EE
:10162000AF909F908F900895CF93DF9300D000D01C
:10163000CDB7DEB7789484B5826084BD84B581600F
:1016400084BD85B5826085BD85B5816085BD80918D
:101650006E00816080936E00109281008091810005
:1016600082608093810080918100816080938100FD
:10167000809180008160809380008091B1008460BF
:101680008093B1008091B00081608093B000809120
:10169000910082608093910080919100816080939D
:1016A0009100809190008160809390008091A100D2
:1016B00082608093A1008091A10081608093A1004D
:1016C0008091A00081608093A000809121018260C0
:1016D000809321018091210181608093210180917B
:1016E000200181608093200180917A008460809342
:1016F0007A0080917A00826080937A0080917A00EB
:10170000816080937A0080917A00806880937A006B
:101710001092C100E091B602F091B70282E080839E
:10172000E091B202F091B3021082E091B402F09124
:10173000B5028FEC80831092BE02E091BA02F09164
:10174000BB0286E08083E091B802F091B90280810B
:1017500080618083E091B802F091B9028081886055
:101760008083E091B802F091B90280818068808323
:10177000E091B802F091B90280818F7D808360E0B2
:101780008DE30E94130960E08CE30E94130960E07E
:101790008BE30E94130960E08AE30E94130964E668
:1017A00070E080E090E00E94DA0A0BE112E05FE76F
:1017B000E52E52E0F52EF2E003321F0789F0F80122
:1017C00080810E5F1F4F0E94BB0AF70181939193A6
:1017D0007F016AE070E080E090E00E94DA0AEBCFDF
:1017E00061E089E00E94130961E08AE00E94130928
:1017F00061E086E00E94130961E085E00E94130920
:1018000060E087E30E94130960E086E30E94130909
:1018100062E088E30E94130968EE73E080E090E0E4
:101820000E94DA0A87E30E94BB0A8C0190938E0221
:1018300080938D0286E30E94BB0A90938C02809372
:101840008B02000F111F10938A02009389029C01E2
:10185000220F331F309388022093870261E08EE1CC
:101860000E94130961E080E20E94130961E086E1B1
:101870000E94130961E088E10E94130961E08AE196
:101880000E94130961E08CE10E94130962E088E57F
:1018900093E00E944F0961E08CE00E9413098CE004
:1018A0000E94670361E08CE00E94960880914903E2
:1018B00087FD08C061E00E94130960E08091490340
:1018C0000E94960881E08093440360E082E00E94D9
:1018D00013098CEE91E090930202809301028091B3
:1018E0006A008C7F826080936A00EC9A88EE882E72
:1018F00083E0982EA12CB12C00E71EEF90E9E92E91
:10190000FF24F3948091900290919102892B19F019
:1019100060E472E002C06AE472E0CE0101960E94C7
:101920001B03CE0101960E94470889819A810E947B
:10193000E21061E070E080E090E00E94DA0A0E942C
:10194000C1030E94F60280918F028F3071F0809166
:101950008F0290E08F30910508F04FC0FC0188277E
:10196000EE58FF4F8F4F0C9445100E94370EA50183
:1019700094010E943F0F643F7140810591051CF066
:101980008FEF9FEF02C081E090E0809F6001819F18
:10199000D00C909FD00C11248E9D30018F9D700C27
:1019A0009E9D700C112480918F02882381F2709289
:1019B000A5026092A402D092A302C092A2020E9449
:1019C00088040E94C1030E94F602EDCF80E991E0F5
:1019D0000E946F081AC01093A5020093A402F0920F
:1019E000A302E092A20211C0F092A502E092A4022A
:1019F0001093A3020093A20208C01092A5021092B5
:101A0000A4021092A3021092A2020E9488040E94D3
:101A100088040E94BD0276CF80914B0390914C03C5
:101A2000009711F00E94E2108091490387FD03C0E6
:101A300060E00C9413090895CF931092A9021092BC
:101A4000A80288EE93E0A0E0B0E08093AA02909311
:101A5000AB02A093AC02B093AD0287E292E0909308
:101A6000A7028093A60285EC90E09093B302809346
:101A7000B20284EC90E09093B5028093B40280ECC3
:101A800090E09093B7028093B60281EC90E090933F
:101A9000B9028093B80282EC90E09093BB028093ED
:101AA000BA0286EC90E09093BD028093BC02109243
:101AB000BF021092C0021092C1021092C202109294
:101AC0005B0310925A0387E392E09093590380934B
:101AD00058038EE180935C038FEF80935D0380E277
:101AE00080935E0386E180935F03C8E1C093600347
:101AF0008AE1809361038CE1809362031092630317
:101B000010926403109265031092660310926703AB
:101B100061E088E593E00E944F091092440310921F
:101B20004A031092510310925203109253031092E1
:101B3000540381E08093500380934D0310924E0331
:101B400092E090934F038093430388E190E0909359
:101B50004803809347030E944D1090934C03809359
:101B60004B03009759F0FC011192CA95E9F788E000
:101B700090E0909346038093450308C01092480379
:101B800010924703109246031092450387E080931A
:101B9000490380914403882341F061E087E00E947B
:101BA000130960E087E00E949608E6EDF2E0E49118
:101BB000F0E0EE0FFF1FEB54FD4F85919491909351
:101BC000560380935503E6E7F2E0E491E093570370
:101BD000CF9108958F929F92AF92BF92CF92DF9252
:101BE000EF92FF92CF93DF93EC01688179818A8134
:101BF0009B81611571058105910521F464E279ED00
:101C00008BE597E02DE133EF41E050E00E943F0F7C
:101C100049015A019B01AC01A7EAB1E40E945E0FA1
:101C20006B017C01ACEEB4EFA50194010E946C0F36
:101C3000DC01CB018C0D9D1DAE1DBF1DB7FF03C088
:101C40000197A109B04888839983AA83BB83BC010B
:101C5000CD019F77DF91CF91FF90EF90DF90CF90F4
:101C6000BF90AF909F908F9008950C94EA0D81E102
:101C700092E00C94EA0D609311027093120280932B
:101C80001302909314020895E89409C097FB3EF460
:101C900090958095709561957F4F8F4F9F4F9923B9
:101CA000A9F0F92F96E9BB279395F6958795779537
:101CB0006795B795F111F8CFFAF4BB0F11F460FFF7
:101CC0001BC06F5F7F4F8F4F9F4F16C0882311F04F
:101CD00096E911C0772321F09EE8872F762F05C063
:101CE000662371F096E8862F70E060E02AF09A95FE
:101CF000660F771F881FDAF7880F9695879597F9F3
:101D000008950E94940E0C94050F0E94F70E38F06F
:101D10000E94FE0E20F0952311F00C94EE0E0C9410
:101D2000F40E11240C94390F0E94160F70F3959F36
:101D3000C1F3950F50E0551F629FF001729FBB27C2
:101D4000F00DB11D639FAA27F00DB11DAA1F649F5E
:101D50006627B00DA11D661F829F2227B00DA11D11
:101D6000621F739FB00DA11D621F839FA00D611D97
:101D7000221F749F3327A00D611D231F849F600DB8
:101D8000211D822F762F6A2F11249F5750409AF0E1
:101D9000F1F088234AF0EE0FFF1FBB1F661F771F6D
:101DA000881F91505040A9F79E3F510580F00C9438
:101DB000EE0E0C94390F5F3FE4F3983ED4F3869512
:101DC00077956795B795F795E7959F5FC1F7FE2BD8
:101DD000880F911D9695879597F9089597F99F67B4
:101DE00080E870E060E008959FEF80EC08950024A3
:101DF0000A941616170618060906089500240A9470
:101E000012161306140605060895092E0394000CF5
:101E100011F4882352F0BB0F40F4BF2B11F460FF84
:101E200004C06F5F7F4F8F4F9F4F089557FD9058AD
:101E3000440F551F59F05F3F71F04795880F97FB8E
:101E4000991F61F09F3F79F0879508951216130648
:101E50001406551FF2CF4695F1DF08C01616170677
:101E60001806991FF1CF86957105610508940895AC
:101E7000E894BB2766277727CB0197F90895052EAD
:101E800097FB1EF400940E94560F57FD07D00E9446
:101E9000710F07FC03D04EF40C94560F50954095EB
:101EA000309521953F4F4F4F5F4F08959095809506
:101EB000709561957F4F8F4F9F4F08950E94930FAC
:101EC000A59F900DB49F900DA49F800D911D11248E
:101ED0000895B7FF0C945E0F0E945E0F821B930B58
:101EE0000895A1E21A2EAA1BBB1BFD010DC0AA1F5B
:101EF000BB1FEE1FFF1FA217B307E407F50720F073
:101F0000A21BB30BE40BF50B661F771F881F991FED
:101F10001A9469F760957095809590959B01AC0136
:101F2000BD01CF010895A29FB001B39FC001A39F3F
:101F3000700D811D1124911DB29F700D811D112402
:101F4000911D08955058BB27AA270E94BA0F0C94E0
:101F5000050F0E94F70E38F00E94FE0E20F039F4B3
:101F60009F3F19F426F40C94F40E0EF4E095E7FB71
:101F70000C94EE0EE92F0E94160F58F3BA17620761
:101F800073078407950720F079F4A6F50C94380FB1
:101F90000EF4E0950B2EBA2FA02D0B01B901900184
:101FA0000C01CA01A0011124FF27591B99F0593FC8
:101FB00050F4503E68F11A16F040A22F232F342F10
:101FC0004427585FF3CF469537952795A795F0405E
:101FD0005395C9F77EF41F16BA0B620B730B840B73
:101FE000BAF09150A1F0FF0FBB1F661F771F881F2B
:101FF000C2F70EC0BA0F621F731F841F48F4879583
:1020000077956795B795F7959E3F08F0B0CF939574
:10201000880F08F09927EE0F9795879508950E94ED
:1020200016106894B1110C94390F08950E941E0F78
:1020300088F09F5798F0B92F9927B751B0F0E1F089
:10204000660F771F881F991F1AF0BA95C9F714C039
:10205000B13091F00E94380FB1E008950C94380F20
:10206000672F782F8827B85F39F0B93FCCF3869572
:1020700077956795B395D9F73EF4909580957095CF
:1020800061957F4F8F4F9F4F0895EE0FFF1F881F61
:102090008BBF0790F691E02D1994CF93DF93823098
:1020A000910510F482E090E0E0917603F0917703DF
:1020B00020E030E0C0E0D0E0309711F14081518164
:1020C00048175907C0F04817590761F48281938176
:1020D000209719F09B838A832BC09093770380937A
:1020E000760326C02115310519F04217530718F45D
:1020F0009A01BE01DF01EF010280F381E02DDCCF08
:102100002115310509F1281B390B2430310590F4D4
:1021100012968D919C9113976115710521F0FB0129
:102120009383828304C09093770380937603FD01A9
:10213000329644C0FD01E20FF31F81939193225028
:1021400031092D933C933AC020917403309175036B
:10215000232B41F42091170230911802309375031C
:102160002093740320911502309116022115310538
:1021700041F42DB73EB74091190250911A02241B29
:10218000350BE0917403F0917503E217F307A0F4A7
:102190002E1B3F0B2817390778F0AC014E5F5F4FBD
:1021A0002417350748F04E0F5F1F50937503409377
:1021B00074038193919302C0E0E0F0E0CF01DF91DE
:1021C000CF9108950F931F93CF93DF93009709F456
:1021D0008CC0FC0132971382128200917603109119
:1021E00077030115110581F420813181820F931F3E
:1021F00020917403309175032817390779F5F0930E
:102200007503E093740371C0D80140E050E0AE174D
:10221000BF0750F412962D913C911397AD012115F3
:10222000310509F1D901F3CF9D01DA01338322830E
:1022300060817181860F971F8217930769F4EC0103
:1022400028813981260F371F2E5F3F4F318320832E
:102250008A819B8193838283452B29F4F0937703B2
:10226000E093760342C01396FC93EE931297ED0130
:10227000499159919E01240F351FE217F30771F41C
:1022800080819181840F951F029611969C938E9365
:102290008281938113969C938E931297E0E0F0E0F5
:1022A000D80112968D919C911397009719F0F8011F
:1022B0008C01F6CF8D919C9198012E5F3F4F820F3C
:1022C000931F20917403309175032817390769F41F
:1022D000309729F4109277031092760302C013828C
:1022E00012821093750300937403DF91CF911F91B5
:1022F0000F9108956F927F928F929F92AF92BF92AB
:10230000CF92DF92EF92FF920F931F93CF93DF93C1
:10231000EC01009789F4CB01DF91CF911F910F91D0
:10232000FF90EF90DF90CF90BF90AF909F908F90F5
:102330007F906F900C944D10FC01E60FF71F9C01ED
:1023400022503109E217F30708F4ACC0D9010D910E
:102350001C91119706171707B0F00530110508F406
:102360009FC0C80104978617970708F499C00250C8
:102370001109061B170B019311936D937C93CF01E9
:102380000E94E2108DC05B01A01AB10A4C01800EC0
:10239000911EA0917603B091770340E050E0E12CCC
:1023A000F12C109709F44AC0A815B905D1F56D9024
:1023B0007C901197630182E0C80ED11CCA14DB0423
:1023C00080F1A3014A195B096A0182E0C80ED11CA1
:1023D0001296BC9012971396AC91B5E0CB16D1042F
:1023E00040F0B282A38351834083D9016D937C93E3
:1023F0000AC00E5F1F4FC301800F911FF901918327
:102400008083EB2DFA2FE114F10431F0D7011396FC
:10241000FC93EE93129744C0F0937703E093760316
:102420003FC08D919C9111974817590708F4AC0152
:102430007D0112960D90BC91A02DB3CF80917403B5
:102440009091750388159905E1F446175707C8F46C
:102450008091150290911602009741F48DB79EB7B6
:102460004091190250911A02841B950BE817F90745
:10247000C8F4F0937503E0937403F90171836083EA
:102480000FC0CB010E944D107C01009759F0A801AC
:10249000BE010E946812CE010E94E210C70104C072
:1024A000CE0102C080E090E0DF91CF911F910F91AB
:1024B000FF90EF90DF90CF90BF90AF909F908F9064
:1024C0007F906F90089581E090E0F8940C947812DA
:1024D000FB01DC0102C001900D9241505040D8F741
:1024E0000895FB01DC0101900D920020E1F70895B1
:1024F00011E0CCE8D1E000E006C0802FFE010E9490
:1025000045102196011DCD38D10780E00807A9F7B5
:04251000F894FFCF6D
:10251400FFC001C001C001C001C001C001C001C0B1
:1025240001010000000000780380003D003C003BF6
:10253400003A00000000005402C1011D02FB010F1B
:10254400029B02000000003E08C10109000D0A00C0
:10255400524F424F543A20474F00524F424F543A41
:062564002053544F50000B
:00000001FF
