:100000000C948D010C94860C0C945B0C0C94300CAD
:100010000C94050C0C94DA0B0C94AF0B0C94840B21
:100020000C94590B0C94BE010C94BE010C94BE01AF
:100030000C94BE010C945C0D0C94BE010C94BE019A
:100040000C94BE010C94BE010C94BE010C94BE0134
:100050000C94BE010C94BE010C94BE010C940F0BC9
:100060000C94BE010C9443050C9419050C94BE012C
:100070000C94BE010C94BE010C94BE010C94BE0104
:100080000C94BE010C94BE010C94BE010C94BE01F4
:100090000C94EF040C94C5040C94BE010C94BE01A6
:1000A0000C94BE010C94BE010C94BE010C94BE01D4
:1000B0000C94BE010C94BE010C94BE010C94BE01C4
:1000C0000C94BE010C94BE010C94BE010C94BE01B4
:1000D0000C94BE010C94BE010C94BE010C94BE01A4
:1000E0000C94BE01DC12EA12F712EA12F712F712B0
:1000F000F712EA12E112DC12F712DC12E112DC1242
:10010000E1124E065106400644064806880655068A
:1001100059065F06630667066D0671067506880652
:100120007B067F068306E509EA09EF09F909030A58
:100130007C0A0D0A150A1D0A270A310A3B0A4A0AD7
:10014000540A7C0A5E0A680A720A0C941D0A0C940E
:100150005F060C9451060C94310A0C9476020C94B0
:10016000680A0C9435020C9459060C94150A0C94E8
:1001700039150C947B060C943B0A0C9463060C9482
:10018000F7120C94540A0C945E0A0C94EF090C9428
:1001900013020C94720A0C9467060C94F9090C94DF
:1001A000E5090C94030A0C9475060C9483060C94D0
:1001B0004A0A0C94EA120C94EA090C94270A0C944B
:1001C00088060C9444060C94E1120C9423150C94AC
:1001D000EB010C94ED050C9448060C940D0A0C945C
:1001E00071060C941C060C94DC120C9440060C94C2
:1001F000BD020C9455060C947F060C946D060C946D
:100200007C0A0C9427020C94C0010C944E0600004A
:100210002100240027002A002D00300033000101B6
:100220000000040107010A0100000A0B02090C0D7D
:100230000E08070304010000000000000000000099
:1002400000000000000000000000000000000000AE
:10025000000000001211100000000000000000006B
:10026000000000000000000000000000000002018B
:1002700002102020080810204010204080020102B7
:10028000010804020101020408102040808040207F
:1002900010080402018004020180402010080402BA
:1002A0000108040201010204081020408001020438
:1002B000081020408000002200250028002B002E7E
:1002C000003100340002010000050108010B0105A6
:1002D000050505070508080808020202020A0A08BF
:1002E00008040404040101010101010101030303E5
:1002F0000303030303040707070C0C0C0C0C0C0C82
:100300000C0202020206060606060606060B0B0B88
:100310000B0B0B0B0B003915231511241FBECFEF50
:10032000D1E2DEBFCDBF00E00CBF12E0A0E0B2E042
:10033000E2EEF5E300E00BBF02C007900D92AC388F
:10034000B107D9F724E0ACE8B2E001C01D92A038B3
:10035000B207E1F711E0CCE8D1E000E006C0219758
:100360000109802FFE010E94A318CB38D10780E03D
:100370000807A9F70E94B00F0C94DF1A0C94000034
:10038000CF92DF92EF92FF920F931F93CF93DF9361
:100390006C017A018B01C0E0D0E0CE15DF0589F059
:1003A000D8016D918D01D601ED91FC910190F08104
:1003B000E02DC6011995892B11F47E0102C021960A
:1003C000ECCFC701DF91CF911F910F91FF90EF907C
:1003D000DF90CF90089520919C0230919D0281E0A2
:1003E00090E0232B11F080E090E090939D028093A9
:1003F0009C020895FC01A089B1898C91A689B789D6
:1004000082FD0FC09C91818D8F5F8F73228D82172B
:1004100049F0218DDF01A20FB11D5D969C93818F64
:1004200008958C910895FC01918D828D981761F04B
:10043000828DDF01A80FB11D5D968C91928D9F5F1B
:100440009F73928F90E008958FEF9FEF0895FC01C6
:10045000918D828D981731F0828DE80FF11D858D79
:1004600090E008958FEF9FEF0895FC01918D228D0C
:10047000892F90E0805C9F4F821B91098F73992791
:1004800008958BE093E00E94350221E0892B09F466
:1004900020E0822F089588EA93E00E94350221E04F
:1004A000892B09F420E0822F0895FC01848DDF015F
:1004B000A80FB11DA35ABF4F2C91848D90E00196D7
:1004C0008F739927848FA689B7892C93A089B189C6
:1004D0008C9180648C93938D848D981306C00288D0
:1004E000F389E02D80818F7D80830895EF92FF92C4
:1004F0000F931F93CF93DF93EC0181E0888F9B8D47
:100500008C8D981305C0E889F989808185FD24C008
:10051000F62E0B8D10E00F5F1F4F0F731127E02E8B
:100520008C8DE8120CC00FB607FCFACFE889F98968
:10053000808185FFF5CFCE010E945502F1CF8B8DD2
:10054000FE01E80FF11DE35AFF4FF0820B8FEA899D
:10055000FB898081806207C0EE89FF896083E8891A
:10056000F98980818064808381E090E0DF91CF9180
:100570001F910F91FF90EF900895CF93DF93EC01BF
:10058000888D8823C9F0EA89FB89808185FD05C0B3
:10059000A889B9898C9186FD0FC00FB607FCF5CFED
:1005A000808185FFF2CFA889B9898C9185FFEDCF35
:1005B000CE010E945502E7CFDF91CF91089580E0F0
:1005C00090E0892B21F00E944B02811121C080E034
:1005D00090E0892B21F00E94410281111CC080E033
:1005E00090E0892B41F080E090E0892B21F00E947F
:1005F0000000811113C080E090E0892BA1F080E021
:1006000090E0892B81F00E94000081110AC00895BA
:100610000E940000DCCF0E940000E1CF0E94000099
:10062000EACF0C9400000895CF93DF93E4E9F2E061
:10063000AEE9B2E040E080E090E0C191D1916D91EF
:100640007D91660F771F21E030E06C177D0714F075
:1006500020E030E0082E01C0220F0A94EAF7422B76
:1006600001968430910549F74093D302DF91CF91F1
:100670000895CF93DF93EC0160E08E810E941F0606
:1006800061E08E810E941F0660E08E810E941F063D
:100690008BE891E00197F1F7DF91CF9108954F92A8
:1006A0005F926F927F928F929F92AF92BF92CF9202
:1006B000DF92EF92FF920F931F93CF93DF93CDB70B
:1006C000DEB7A1970FB6F894DEBF0FBECDBF8DE2A7
:1006D000A82E82E0B82E04E912E09AE0492E512CAF
:1006E000612C712CF2E00C391F0709F484C0F80169
:1006F00060817181072E000C880B990B0E94A41653
:100700006B017C01F5018081F2E0AF0EB11C0E940B
:10071000850A4C012AE939E949E55FE3C701B601D9
:100720000E94DF160E94741880E090E00E94A216DA
:100730006B017C01B401990C880B990B0E94A416E3
:1007400028E939E949E15EE30E94DF169B01AC012B
:10075000C701B6010E9401180E946D18F80161934B
:1007600071938F016B01770FEE08FF08F7FE26C02B
:10077000E091A803F091A9030190F081E02D6DE2D2
:1007800088EA93E0199522273327A9012C193D09FE
:100790004E095F0919A2CE0181967C01CA01B901F7
:1007A000A30192010E94CF17605DF70162937F0160
:1007B000211531054105510589F715C0A70196019D
:1007C00019A2CE0181967C01CA01B901A30192014F
:1007D0000E94CF17605DF70162937F0121153105FB
:1007E0004105510589F7C7010E949E0F8DE492E0F3
:1007F0000E949E0F77CF8FE492E00E949E0FA196F9
:100800000FB6F894DEBF0FBECDBFDF91CF911F9121
:100810000F91FF90EF90DF90CF90BF90AF909F909F
:100820008F907F906F905F904F9008954F925F925E
:100830006F927F928F929F92AF92BF92CF92DF92F0
:10084000EF92FF92CF93DF93CDB7DEB728970FB625
:10085000F894DEBF0FBECDBFC0900903D0900A034D
:100860000D2C000CEE08FF0888EEC80E83E0D81EA1
:10087000E11CF11CAFEFB0E0A70196010E94BC178C
:1008800020ED822E27E0922EA12CB12CA5019401FF
:100890000E949D1729833A834B835C83A981BA8187
:1008A000B0939302A0939202A1E0BFEFA70196013B
:1008B0000E94CA17A50194010E949D17DA01C9017F
:1008C00081509F4FAF4FBF4F8D839E83AF83B887BB
:1008D0009093910280939002C0900703D0900803F8
:1008E0000D2C000CEE08FF0898EEC90E93E0D91EFF
:1008F000E11CF11CAFEFB0E0A70196010E94BC170C
:10090000A50194010E949D1729013A0130938F029D
:1009100020938E02A1E0BFEFA70196010E94CA17A3
:10092000A50194010E949D1769017A01AFEFCA0EDB
:10093000D11CE11CF11CD0928D02C0928C02698105
:100940007A8189E00E94BC096D817E818AE00E94E3
:10095000BC09B20186E00E94BC09B60185E0289678
:100960000FB6F894DEBF0FBECDBFDF91CF91FF90E1
:10097000EF90DF90CF90BF90AF909F908F907F903F
:100980006F905F904F900C94BC091F920F920FB61E
:100990000F9211240BB60F922F933F934F935F93B7
:1009A0006F937F938F939F93AF93BF93EF93FF9337
:1009B0008BE093E00E945502FF91EF91BF91AF91C0
:1009C0009F918F917F916F915F914F913F912F9167
:1009D0000F900BBE0F900FBE0F901F9018951F9297
:1009E0000F920FB60F9211240BB60F922F933F93D5
:1009F0004F935F936F937F938F939F93AF93BF9327
:100A0000EF93FF938BE093E00E94FA01FF91EF9147
:100A1000BF91AF919F918F917F916F915F914F9116
:100A20003F912F910F900BBE0F900FBE0F901F9014
:100A300018951F920F920FB60F9211240BB60F92BA
:100A40002F933F934F935F936F937F938F939F93D6
:100A5000AF93BF93EF93FF9388EA93E00E94550210
:100A6000FF91EF91BF91AF919F918F917F916F9186
:100A70005F914F913F912F910F900BBE0F900FBE42
:100A80000F901F9018951F920F920FB60F9211247E
:100A90000BB60F922F933F934F935F936F937F9378
:100AA0008F939F93AF93BF93EF93FF9388EA93E065
:100AB0000E94FA01FF91EF91BF91AF919F918F91A9
:100AC0007F916F915F914F913F912F910F900BBE4E
:100AD0000F900FBE0F901F901895CF92DF92EF925C
:100AE000FF920F931F93CF93DF937C016C0187E0FC
:100AF000C80ED11CC0E0D0E0062F10E0B8010C2ECB
:100B000002C0759567950A94E2F76170F6018191CC
:100B10006F010E941F062196C430D10579F7C701E5
:100B2000DF91CF911F910F91FF90EF90DF90CF90C9
:100B30000C943903CF92DF92EF92FF920F931F93A1
:100B4000CF93DF93EC01F62E642F8C810E941F0659
:100B50008D818F3F19F060E00E941F068F850F2D59
:100B600010E084FF25C06E0187E0C80ED11CE12C87
:100B7000F12CB8010E2C02C0759567950A94E2F726
:100B80006170F60181916F010E941F06FFEFEF1A5D
:100B9000FF0A88E0E816F10461F7CE01DF91CF91FA
:100BA0001F910F91FF90EF90DF90CF900C9439033D
:100BB000B80184E0759567958A95E1F7CE010E94AA
:100BC0006D056F2DCE01DF91CF911F910F91FF9099
:100BD000EF90DF90CF900C946D0541E00E949A0554
:100BE00081E090E0089540E00C949A05CF93DF9364
:100BF000EC0161E080E694E00E94F3058BE39FE165
:100C00000197F1F7E0917304E23010F4E15001C074
:100C1000E1E0F0E0E05AFB4F6489606880E694E030
:100C20000E94F3054C815D816881798180E694E0C2
:100C3000DF91CF910C94C00108950E94C11A362F04
:100C400090E0FC01E85DFD4F4491FC01E159FD4F4E
:100C50002491FC01E153FD4F9491992309F46BC059
:100C6000442309F455C050E0FA013197E231F1050F
:100C700008F04EC08827EF57FF4F8F4F0C94A318F2
:100C8000809180008F7707C0809180008F7D03C0A6
:100C900080918000877F809380003AC084B58F77F1
:100CA00002C084B58F7D84BD33C08091B0008F7742
:100CB00003C08091B0008F7D8093B00029C08091E7
:100CC00090008F7707C0809190008F7D03C0809146
:100CD0009000877F809390001BC08091A0008F7749
:100CE00007C08091A0008F7D03C08091A000877F06
:100CF0008093A0000DC0809120018F7707C0809164
:100D000020018F7D03C080912001877F8093200187
:100D1000E92FF0E0EE0FFF1FEB54FD4FA591B491CA
:100D20008FB7F894EC91311103C020952E2301C0A8
:100D30002E2B2C938FBF0895CF93DF9390E0FC016F
:100D4000E159FD4F2491FC01E153FD4F849188232B
:100D500061F190E0880F991FFC01E25FFD4FC591A2
:100D6000D491FC01EB54FD4FA591B491611109C0E0
:100D70009FB7F8948881209582238883EC912E2355
:100D80000BC0623061F49FB7F8943881822F809550
:100D900083238883EC912E2B2C939FBF06C08FB7A3
:100DA000F894E8812E2B28838FBFDF91CF9108958F
:100DB0008F929F92AF92BF92CF92DF92EF92FF926B
:100DC000CF93209122022C3021F02F3F09F0CAC28C
:100DD00004C0EEE6F2E0C491E7C02CE020932202CA
:100DE000EEE6F2E0C491CF3F09F4BCC2C23009F490
:100DF00072C04CF5CC2309F451C0C13009F0D4C005
:100E00001092800010928100209181002860209330
:100E1000810020918100216020938100EBEDF2E0C0
:100E2000E491F0E0EE0FFF1FEB54FD4F259134915C
:100E30003093EB022093EA02EBE7F2E0E491E093D7
:100E4000E902C1E0B3C0C43009F48BC00CF466C041
:100E5000C53009F0A9C01092200110922101209103
:100E600021012860209321012091210121602093FC
:100E70002101EBEDF2E0E491F0E0EE0FFF1FEB5407
:100E8000FD4F259134913093DF022093DE02EBE792
:100E9000F2E0E491E093DD02C5E088C014BC15BC2B
:100EA00024B5226024BD25B5216025BDEBEDF2E01F
:100EB000E491F0E0EE0FFF1FEB54FD4F25913491CC
:100EC0003093EE022093ED02EBE7F2E0E491E09341
:100ED000EC02C0E06BC01092B0001092B100209103
:100EE000B00022602093B0002091B10021602093D7
:100EF000B100EBEDF2E0E491F0E0EE0FFF1FEB54F8
:100F0000FD4F259134913093E8022093E702EBE7FF
:100F1000F2E0E491E093E602C2E048C01092900053
:100F200010929100209191002860209391002091CF
:100F30009100216020939100EBEDF2E0E491F0E06C
:100F4000EE0FFF1FEB54FD4F259134913093E502D6
:100F50002093E402EBE7F2E0E491E093E302C3E0E4
:100F600025C01092A0001092A1002091A10028603D
:100F70002093A1002091A10021602093A100EBED1E
:100F8000F2E0E491F0E0EE0FFF1FEB54FD4F2591EE
:100F900034913093E2022093E102EBE7F2E0E49136
:100FA000E093E002C4E002C0C7FDDCC16C0161E077
:100FB0008CE00E949C06E12CF12C8C2F8D7F09F097
:100FC000A9C060E072E18AE790E0A70196010E9463
:100FD0009D1749015A01BA01A901415051096109FE
:100FE00071094F3F51056105710509F008F445C0CD
:100FF00060E472E48FE090E0A70196010E949D17E3
:10100000BA01A9014150510961097109C230E9F4DD
:101010004F3F51056105710509F008F4A1C160E970
:1010200070ED83E090E0A70196010E949D17BA0140
:10103000A90141505109610971094F3F51056105ED
:10104000710509F0A8F583E05EC04F3F51056105C9
:101050007105A9F0A0F068E478EE81E090E0A701C6
:1010600096010E949D17BA01A901415051096109D9
:101070007109CC2309F423C16BC181E001C082E076
:10108000CC2389F040C0D501C4012AE0B595A795CD
:10109000979587952A95D1F7AC01BD01415051092B
:1010A0006109710985E095B5987F892B85BD8CC054
:1010B00068E478EE81E090E0A70196010E949D1718
:1010C000BA01A90141505109610971094F3F510508
:1010D0006105710509F008F4F0C064E274EF80E086
:1010E00090E0A70196010E949D17BA01A901415005
:1010F0005109610971094F3F51056105710511F0F1
:1011000008F0FCC085E09091B100987F892B809316
:10111000B10049C060E072E18AE790E0A701960162
:101120000E949D17BA01A901415051096109710935
:101130004115510581E06807710580F068E478EE9B
:1011400081E090E0A70196010E949D17BA01A901D4
:10115000415051096109710983E001C081E0C1304A
:1011600039F490918100987F892B809381003EC053
:10117000C33039F490919100987F892B809391002E
:101180005DC0C43039F49091A100987F892B809381
:10119000A10069C0C53039F490912101987F892B55
:1011A0008093210175C0C230B1F134F4CC2361F0D9
:1011B000C13009F0D7C01AC0C43009F454C0F4F1EA
:1011C000C53009F465C0CEC047BD8FEF9FEFDC018D
:1011D0008093030390930403A0930503B093060345
:1011E00080916E00826080936E00BCC05093890035
:1011F000409388008FEF9FEFDC018093FF02909374
:101200000003A0930103B093020380916F008260FA
:1012100080936F00A7C04093B3008FEF9FEFDC0176
:101220008093FB029093FC02A093FD02B093FE0218
:101230008091700082608093700094C050939900F8
:10124000409398008FEF9FEFDC018093F70290931B
:10125000F802A093F902B093FA02809171008260C3
:10126000809371007FC05093A9004093A8008FEF36
:101270009FEFDC018093F3029093F402A093F502B8
:10128000B093F602809172008260809372006AC00F
:1012900050932901409328018FEF9FEFDC01809349
:1012A000EF029093F002A093F102B093F2028091CA
:1012B000730082608093730055C084E024CF4F3F59
:1012C000510561057105C1F0B8F062E17AE780E08F
:1012D00090E0A70196010E949D17BA01A901415013
:1012E0005109610971094F3F51056105710511F0FF
:1012F00008F0C9CE84E0D7CE83E0D5CE62E17AE7AC
:1013000080E090E0A70196010E949D17BA01A90113
:1013100041505109610971094F3F5105610571053E
:10132000A9F0A0F0D501C4013AE0B595A79597952D
:1013300087953A95D1F7AC01BD014150510961093A
:101340007109CC2309F4AECE87E0DDCE86E098CEDD
:101350004F3F51056105710509F080F684E090CE9C
:1013600082E0D1CECF91FF90EF90DF90CF90BF90F1
:10137000AF909F908F9008951F93CF93DF93182F76
:10138000EB0161E00E949C06209711F460E004C02C
:10139000CF3FD10539F461E0812FDF91CF911F91CB
:1013A0000C941F06E12FF0E0E85DFD4FE4914E2F15
:1013B00050E0FA013197E231F10508F09DC088272D
:1013C000ED56FF4F8F4F0C94A31884B5806884BDF1
:1013D000C7BD97C084B5806284BDC8BD92C08091EE
:1013E0008000806880938000D0938900C09388003B
:1013F00088C080918000806280938000D0938B00B1
:10140000C0938A007EC080918000886080938000B5
:10141000D0938D00C0938C0074C08091B000806820
:101420008093B000C093B3006CC08091B000806224
:101430008093B000C093B40064C080919000806835
:1014400080939000D0939900C09398005AC08091E7
:101450009000806280939000D0939B00C0939A008C
:1014600050C080919000886080939000D0939D0040
:10147000C0939C0046C08091A00080688093A0002B
:101480008091A0008F7B8093A000D093A900C0938F
:10149000A80037C08091A00080628093A000D09304
:1014A000AB00C093AA002DC08091A00088608093FB
:1014B000A000D093AD00C093AC0023C08091200168
:1014C000806880932001D0932901C093280119C01E
:1014D00080912001806280932001D0932B01C093E2
:1014E0002A010FC080912001886080932001D09351
:1014F0002D01C0932C0105C0C038D1050CF04BCF95
:1015000045CFDF91CF911F910895863308F0865320
:1015100090917B00282F2870977F922B90937B00CF
:101520008770806480937C0080917A0080648093CF
:101530007A0080917A0086FDFCCF8091780020911E
:10154000790090E0922B08953FB7F8948091D902EA
:101550009091DA02A091DB02B091DC0226B5A89B43
:1015600005C02F3F19F00196A11DB11D3FBFBA2F35
:10157000A92F982F8827820F911DA11DB11DBC0195
:10158000CD0142E0660F771F881F991F4A95D1F75A
:1015900008958F929F92AF92BF92CF92DF92EF9277
:1015A000FF926B017C010E94A40A4B015C01C114F3
:1015B000D104E104F104F1F00E94A40ADC01CB01A2
:1015C00088199909AA09BB09883E9340A105B1056C
:1015D00070F321E0C21AD108E108F10888EE880E04
:1015E00083E0981EA11CB11CC114D104E104F104D4
:1015F00019F7DDCFFF90EF90DF90CF90BF90AF90C5
:101600009F908F9008952FB7F8946091D5027091B4
:10161000D6028091D7029091D8022FBF08951F92D1
:101620000F920FB60F9211242F933F938F939F9396
:10163000AF93BF938091D5029091D602A091D7022B
:10164000B091D8023091D40223E0230F2D3720F43B
:101650000196A11DB11D05C026E8230F0296A11D0C
:10166000B11D2093D4028093D5029093D602A0930B
:10167000D702B093D8028091D9029091DA02A0915A
:10168000DB02B091DC020196A11DB11D8093D9024D
:101690009093DA02A093DB02B093DC02BF91AF918A
:1016A0009F918F913F912F910F900FBE0F901F90A0
:1016B00018951F920F920FB60F9211240BB60F922E
:1016C0002F933F934F935F936F937F938F939F934A
:1016D000AF93BF93EF93FF93E0912002F09121022B
:1016E0001995FF91EF91BF91AF919F918F917F914C
:1016F0006F915F914F913F912F910F900BBE0F9083
:101700000FBE0F901F9018951F920F920FB60F9259
:1017100011240BB60F922F933F934F935F936F93C8
:101720007F938F939F93AF93BF93EF93FF93E0913A
:101730001E02F0911F021995FF91EF91BF91AF9199
:101740009F918F917F916F915F914F913F912F91D9
:101750000F900BBE0F900FBE0F901F9018951F9209
:101760000F920FB60F9211240BB60F922F933F9347
:101770004F935F936F937F938F939F93AF93BF9399
:10178000EF93FF93E0911402F09115021995FF91E8
:10179000EF91BF91AF919F918F917F916F915F91E9
:1017A0004F913F912F910F900BBE0F900FBE0F9056
:1017B0001F9018951F920F920FB60F9211240BB61F
:1017C0000F922F933F934F935F936F937F938F93DA
:1017D0009F93AF93BF93EF93FF93E0911202F09129
:1017E00013021995FF91EF91BF91AF919F918F9146
:1017F0007F916F915F914F913F912F910F900BBE11
:101800000F900FBE0F901F9018951F920F920FB65A
:101810000F9211240BB60F922F933F934F935F9328
:101820006F937F938F939F93AF93BF93EF93FF93A8
:10183000E0911C02F0911D021995FF91EF91BF916B
:10184000AF919F918F917F916F915F914F913F9158
:101850002F910F900BBE0F900FBE0F901F901895F9
:101860001F920F920FB60F9211240BB60F922F9367
:101870003F934F935F936F937F938F939F93AF9318
:10188000BF93EF93FF93E0911A02F0911B02199519
:10189000FF91EF91BF91AF919F918F917F916F9148
:1018A0005F914F913F912F910F900BBE0F900FBE04
:1018B0000F901F9018951F920F920FB60F92112440
:1018C0000BB60F922F933F934F935F936F937F933A
:1018D0008F939F93AF93BF93EF93FF93E091180281
:1018E000F09119021995FF91EF91BF91AF919F91DE
:1018F0008F917F916F915F914F913F912F910F90B9
:101900000BBE0F900FBE0F901F9018951F920F9255
:101910000FB60F9211240BB60F922F933F934F9354
:101920005F936F937F938F939F93AF93BF93EF9347
:10193000FF93E0911602F09117021995FF91EF9134
:10194000BF91AF919F918F917F916F915F914F91D7
:101950003F912F910F900BBE0F900FBE0F901F90D5
:1019600018950F931F93CF93DF93EC018881998192
:10197000009729F02A813B812617370788F48B01CD
:101980006F5F7F4F0E94D819009761F09983888319
:101990001B830A832C813D81232B11F4FC011082CF
:1019A00081E001C080E0DF91CF911F910F910895F8
:1019B000EF92FF920F931F93CF93DF93EC01198265
:1019C00018821B821A821D821C826115710549F1E1
:1019D0008B01FB0101900020E9F731977F01E61AA6
:1019E000F70AB7010E94B10C2881398181110DC01D
:1019F0002115310519F0C9010E9440191982188278
:101A00001D821C821B821A820CC0FD82EC82B801EE
:101A1000C901DF91CF911F910F91FF90EF900C942E
:101A2000D81ADF91CF911F910F91FF90EF900895F9
:101A30009091220298133DC0EEE6F2E0E4919FEF10
:101A400090932202E230C9F050F4EE2399F0E13095
:101A500081F590916F009D7F90936F002AC0E430D4
:101A600019F1E0F0E53029F5909173009D7F909396
:101A700073001FC010926E001CC0909170009D7F7B
:101A80009093700091E09093B0009091B100987F96
:101A900094609093B1001092B3000BC090917100CC
:101AA0009D7F9093710005C0909172009D7F9093EF
:101AB000720060E00C941F061F920F920FB60F92F7
:101AC00011240BB60F922F933F934F935F936F9315
:101AD0007F938F939F93AF93BF93EF93FF938091E7
:101AE000FB029091FC02A091FD02B091FE02892BB5
:101AF0008A2B8B2B51F18091E602E091E702F09165
:101B0000E8029081892780838091FB029091FC02FA
:101B1000A091FD02B091FE02181619061A061B06C6
:101B2000C4F48091FB029091FC02A091FD02B0915F
:101B3000FE020197A109B1098093FB029093FC0278
:101B4000A093FD02B093FE0204C0809122020E9485
:101B5000180DFF91EF91BF91AF919F918F917F9160
:101B60006F915F914F913F912F910F900BBE0F900E
:101B70000FBE0F901F901895EF92FF920F931F9337
:101B8000CF93DF93EC01623018F08F8588608F87E8
:101B90006B8B1C8A80E48D8B80E18E8B80E58F8B34
:101BA00061E08C810E949C068D818F3F19F061E07D
:101BB0000E949C0661E08E810E949C067E0187E067
:101BC000E80EF11C00E010E08F8584FD03C084E086
:101BD00090E002C088E090E0081719074CF461E03B
:101BE000F70181917F010E949C060F5F1F4FECCF90
:101BF0008BE39DE00197F1F760E08C810E941F0666
:101C000060E08E810E941F068D818F3F19F060E099
:101C10000E941F066F8564FD1DC063E0CE010E9417
:101C20006D050BE416E4C8010197F1F763E0CE01FE
:101C30000E946D05C8010197F1F763E0CE010E9493
:101C40006D0583E592E00197F1F762E0CE010E9415
:101C50006D0516C06062CE010E94F3058BE496E428
:101C60000197F1F76F856062CE010E94F30583E56D
:101C700092E00197F1F76F856062CE010E94F30553
:101C80006F856062CE010E94F30584E0888B6CE072
:101C9000CE010E94F30561E0CE010E94F3058BE3C3
:101CA0009FE10197F1F782E0898B66E0CE01DF9139
:101CB000CF911F910F91FF90EF900C94F3050F932C
:101CC0001F93CF93DF93CDB7DEB729970FB6F89464
:101CD000DEBF0FBECDBF8091530490915404892B79
:101CE00009F4A1C00E94A40A0091590410915A0459
:101CF00020915B0430915C04DC01CB01801B910BD3
:101D0000A20BB30BC297A105B10560F3F8948091C3
:101D10004F04909150049A838983E0915304F09189
:101D20005404DF0111968081898790914B04E091E2
:101D30005D04F0915E0480915F04992309F42EC044
:101D40009081982B98879081809589238F838F81AC
:101D50008C8388E08B8358856F8149853B812C81FA
:101D600089819A81508347FD252F3A952083262F1C
:101D700039F0441F00C000006083000000C0F2CFB3
:101D800038E04D9160830000019761F7F0935E04A5
:101D9000E0935D0449873B832C8338C09081982B66
:101DA00098879081809589238F838F818E8388E0A7
:101DB0008D8358856F8149853D812E8189819A81E6
:101DC000508347FD252F00C000C0208300C000C005
:101DD00000C000C000C060830000262F3A9541F08B
:101DE000441F000000C000C000C000C000C0E8CF19
:101DF00038E04D9100C0608300C0019709F7F0936F
:101E00005E04E0935D0449873D832E839A83898332
:101E100078940E94A40A6093590470935A048093A2
:101E20005B0490935C0429960FB6F894DEBF0FBE56
:101E3000CDBFDF91CF911F910F9108958F929F9207
:101E4000AF92BF92CF92DF92EF92FF9220914D041A
:101E500030914E048217930708F052C04B01AA2418
:101E6000BB24E82DC52ED62EE72EFF24FC2D342FC3
:101E700020915204222361F0829E40011124E92D19
:101E8000C29E60011124FD2D429FD00111243B2FE1
:101E9000F0905804E0905504A0915304B09154047C
:101EA000FE1008C0AC01440F551F840F951F8A0F08
:101EB0009B1F14C0880F991F880F991F8A0F9B1FA3
:101EC000472F552766277727DC01AF0DB11D222349
:101ED00021F0429FA0011124452F4C9320915504DD
:101EE000DC01A20FB11DEC9320915604DC01A20F7E
:101EF000B11DFC9320915704FC01E20FF11D3083CA
:101F0000FF90EF90DF90CF90BF90AF909F908F9019
:101F1000089510927B0410927A0422273327281BFD
:101F2000390B309379042093780490930A038093BB
:101F3000090390930803809307030895009769F0BD
:101F4000FC0101900020E9F73197AF01481B590BC4
:101F5000BC0188EA93E00C94C00180E090E0089511
:101F6000CF93DF93CDB7DEB72E970FB6F894DEBFD1
:101F70000FBECDBF789484B5826084BD84B5816086
:101F800084BD85B5826085BD85B5816085BD809144
:101F90006E00816080936E001092810080918100BC
:101FA00082608093810080918100816080938100B4
:101FB000809180008160809380008091B100846076
:101FC0008093B1008091B00081608093B0008091D7
:101FD0009100826080939100809191008160809354
:101FE0009100809190008160809390008091A10089
:101FF00082608093A1008091A10081608093A10004
:102000008091A00081608093A00080912101826076
:102010008093210180912101816080932101809131
:10202000200181608093200180917A0084608093F8
:102030007A0080917A00826080937A0080917A00A1
:10204000816080937A0080917A00806880937A0022
:102050001092C100E091B803F091B90322E020830F
:10206000E091B403F091B5031082E091B603F091D2
:10207000B7038FEC80831092C003E091BC03F09112
:10208000BD0396E09083E091BA03F091BB03808199
:1020900080618083E091BA03F091BB038081886006
:1020A0008083E091BA03F091BB03808180688083D4
:1020B000E091BA03F091BB0380818F7D8083E09132
:1020C0001B03F0911C032083E0911703F091180388
:1020D0008DE08083E0911903F0911A0384E08083FE
:1020E00010922303E0911F03F09120039083E0916D
:1020F0001D03F0911E03808180618083E0911D03A8
:10210000F0911E03808188608083E0911D03F0912F
:102110001E03808180688083E0911D03F0911E037F
:1021200080818F7D808360E08DE30E949C0660E06B
:102130008CE30E949C0660E08BE30E949C0660E0BA
:102140008AE30E949C0664E670E080E090E00E94D2
:10215000C90A0DE212E06EE9E62E62E0F62EF2E028
:1021600005331F0789F0F80180810E5F1F4F0E9421
:10217000850AF701819391937F016AE070E080E026
:1021800090E00E94C90AEBCF61E089E00E949C06C2
:1021900061E08AE00E949C0661E086E00E949C0665
:1021A00061E085E00E949C0660E087E30E949C0657
:1021B00060E086E30E949C0662E088E30E949C0641
:1021C00068EE73E080E090E00E94C90A87E30E9415
:1021D000850A8C019093AD028093AC0286E30E9445
:1021E000850A9093AB028093AA02000F111F1093EF
:1021F000A9020093A8029C01220F331F3093A7026B
:102200002093A60261E08EE10E949C0661E080E2DC
:102210000E949C0661E086E10E949C0661E088E1E4
:102220000E949C0661E08AE10E949C0661E08CE1CC
:102230000E949C0662E080E694E00E94BC0D61E092
:102240008CE00E949C068CE00E94180D61E08CE0FE
:102250000E941F068091510487FD08C061E00E9422
:102260009C0660E0809151040E941F0681E08093EB
:102270004C0460E082E00E949C068BEE91E090931B
:1022800013028093120280916A008C7F8260809397
:102290006A00EC9A8CE00E94180D61E08CE00E94CC
:1022A0001F0638E7232E312C8BE093E00E94350285
:1022B000892B09F46BC08BE093E00E94350218165D
:1022C00019063CF588EA93E00E94130289831A827A
:1022D0000091490410914A040F5F1F4FB80185E433
:1022E00094E00E94B10C882331F320914504309191
:1022F00046048091490490914A04BE016F5F7F4F6C
:10230000820F931F0E94D81A10934A040093490425
:10231000D2CF63E672E0CE0101960E94D80C809184
:1023200045049091460409811A81009719F001151E
:102330001105D1F40115110559F02D813E81232B92
:1023400039F0F801E080F12CF194E194F10813C028
:10235000009779F02091490430914A04232B49F0E9
:10236000FC01E080F12C07C0B8010E94CF1A7C016B
:1023700002C0E12CF12CC8010E944019EF2831F471
:1023800082E090E0909311028093100261E070E08F
:1023900080E090E00E94C90A60E08DE00E941F0684
:1023A0000E94030B6B017C010E944F030E941403E7
:1023B0008091D3028F30A9F08091CF029091D0020A
:1023C000A091D102B091D20236014701681A790A70
:1023D0008A0A9B0AD401C3014497A105B105C0F53F
:1023E0002FC30E94951628EE33E040E050E00E9493
:1023F0009D17643F7140810591051CF08FEF9FEFA1
:1024000002C081E090E020E73EEF829F8001839F41
:10241000100D929F100D112420E931E0829F500190
:10242000839FB00C929FB00C11248091D30288231B
:1024300019F2B0920A03A0920903109308030093C3
:1024400007030E9416040E944F030E941403EDCF5D
:10245000C092CF02D092D002E092D102F092D2028A
:1024600080911002909111028230910509F4E0C030
:102470008430910509F445C2019709F0E1C262E593
:1024800072E0CE0101960E94D80CCE0101960E9406
:10249000F60589819A810E9440190E94030B0091E0
:1024A000C9021091CA022091CB023091CC02DC010A
:1024B000CB01801B910BA20BB30B88379105A105B3
:1024C000B10510F10E94030B6093C9027093CA0218
:1024D0008093CB029093CC022091080230910902A4
:1024E0008091C6029091C702820F931F9093C702FA
:1024F0008093C6020197069718F03195219531090E
:10250000309309022093080206EB12E0A12CB12CB3
:102510008091C6029091C702F801A816B90619F475
:102520003182208213C0808191818A30910534F0FC
:102530008A30F1E09F072CF40A9705C080E090E014
:1025400002C08FEF90E0F80191838083F8018081D1
:102550000E5F1F4F90E0A0E0B0E04C0177246624AE
:102560002227382F492F5A2F262937294829592918
:102570002F83388749875A87BA01A901482B592BDD
:102580006A2B7B2BC5010E941E0F3FEFA31AB30AD3
:1025900048E0A416B10409F0BBCF0E945F0E809101
:1025A000D30290E08F30910510F5FC018827EE589A
:1025B000FF4F8F4F0C94A31880E991E00E94890F80
:1025C0001EC080E79EEF90930A038093090380E981
:1025D00091E008C080E991E090930A038093090399
:1025E00080E79EEF909308038093070308C0109242
:1025F0000A031092090310920803109207030E9425
:10260000160480910C0290910D02A0910E02B091DF
:102610000F02C816D906EA06FB0608F411C280E0CC
:1026200090E00E94890F0E94160482E090E064C14D
:1026300061E08DE00E941F066CE572E0CE0101961C
:102640000E94D80CCE0101960E94F60589819A81DC
:102650000E9440190E94030B4B015C018091B20261
:102660009091B302A091B402B091B502B501A4015A
:10267000481B590B6A0B7B0B809104029091050259
:10268000A0910602B0910702481759076A077B0715
:1026900040F10E94951624E630E040E050E00E94B0
:1026A0009D17609304027093050280930602909335
:1026B00007028092B2029092B302A092B402B0924A
:1026C000B5020E94951628EB3BE040E050E00E94E6
:1026D0009D17DC01CB0188519C4FAF4FBF4F0E942B
:1026E000D8068091AE029091AF02A091B002B09155
:1026F000B102B501A401481B590B6A0B7B0B8091F9
:10270000000290910102A0910202B09103024817C9
:1027100059076A077B0768F10E9495162CED35E092
:1027200040E050E00E949D17DC01CB014496A11DC2
:10273000B11D8093000290930102A0930202B09316
:1027400003028092AE029092AF02A092B002B092C9
:10275000B1020E94951628EB3BE040E050E00E9459
:102760009D17DC01CB0188519C4FAF4FBF4F0E949A
:10277000D8068091C80281112EC01092C702109213
:10278000C60281E090E09093090280930802E6EB94
:10279000EE2EE2E0FE2E00E010E0F7011192119221
:1027A0007F0140E050E06FEF70E0C8010E941E0F13
:1027B0000F5F1F4F0830110581F70E945F0E81E007
:1027C0008093C8028FE692E00E949E0F8FE492E011
:1027D0000E949E0F35C1A12CB12C0091C602109110
:1027E000C702A016B10639F440E05FEF60E070E088
:1027F000C5010E941E0FFFEFAF1ABF0A28E0A21604
:10280000B10459F70E945F0E8091C9029091CA02EB
:10281000A091CB02B091CC0236014701681A790A27
:102820008A0A9B0A20ED621627E072068104910451
:1028300008F406C1C092C902D092CA02E092CB024B
:10284000F092CC020F5F1F4F1093C7020093C60295
:102850000830110508F4F4C084E090E09093110270
:10286000809310021092C8021092C7021092C60202
:1028700081E090E0909309028093080276EBE72EC6
:1028800072E0F72E00E010E0F701119211927F0143
:1028900040E050E0BA01C8010E941E0F0F5F1F4FB9
:1028A0000830110589F70E945F0E8CE00E94180D18
:1028B00061E08CE00E941F0668EE73E080E090E02B
:1028C0000E94C90A0E94030B6B017C010E949516AD
:1028D00020E23EE440E050E00E949D17C60ED71E65
:1028E000E81EF91EC0920C02D0920D02E0920E0278
:1028F000F0920F0284E090E0909311028093100216
:102900009FC06DE772E0CE0101960E94D80CCE0107
:1029100001960E94F60589819A810E944019809152
:102920000C0290910D02A0910E02B0910F02C816F8
:10293000D906EA06FB0630F10E94030B6B017C010D
:102940000E94951646015701F0E28F0EFEE49F1E8D
:10295000A11CB11C20E23EE440E050E00E949D1723
:10296000860E971EA81EB91E80920C0290920D0230
:10297000A0920E02B0920F0281E090E090931102BB
:102980008093100200E010E06090CD027090CE02C3
:10299000862D90E0A0E0B0E05C01992488244427D3
:1029A000582F692F7A2F482959296A297B29482BC2
:1029B000592B6A2B7B2BC8010E941E0F0F5F1F4FE4
:1029C0000830110509F70E945F0E8091C9029091AD
:1029D000CA02A091CB02B091CC02C81AD90AEA0A65
:1029E000FB0A24E1C216D104E104F10448F180910C
:1029F0000A0290910B029C0144E0220F331F4A957A
:102A0000E1F7260D371D2F3F310519F014F02FEF98
:102A100030E037FF02C020E030E03093CE02209358
:102A2000CD02590141E0A41AB1085EEFA516B10428
:102A300018F091958195910990930B0280930A0269
:102A40000E94DF0231CC80914504909146040E949F
:102A500040198091530490915404009711F00E9402
:102A600040198091510487FD03C060E00C949C06DE
:102A70000895CF9310920E0310920D0348EE53E089
:102A800060E070E040930F035093100360931103D4
:102A90007093120389E392E090930C0380930B03ED
:102AA0002DEC30E030931803209317032CEC30E02A
:102AB00030931A032093190328EC30E030931C0361
:102AC00020931B0329EC30E030931E0320931D0359
:102AD0002AEC30E03093200320931F032EEC30E0EB
:102AE0003093220320932103109224031092250394
:102AF00010922603109227031092AB031092AA03A0
:102B00004093AC035093AD036093AE037093AF0357
:102B10009093A9038093A80385EC90E09093B5036C
:102B20008093B40384EC90E09093B7038093B60352
:102B300080EC90E09093B9038093B80381EC90E02F
:102B40009093BB038093BA0382EC90E09093BD0313
:102B50008093BC0386EC90E09093BF038093BE0308
:102B60001092C1031092C2031092C3031092C403C7
:102B7000109263041092620489E492E090936104DD
:102B8000809360048EE1809364048FEF80936504EA
:102B900080E28093660486E180936704C8E1C09375
:102BA00068048AE1809369048CE180936A0410923E
:102BB0006B0410926C0410926D0410926E041092CB
:102BC0006F0461E080E694E00E94BC0D10924C041A
:102BD000109252041092590410925A0410925B04FD
:102BE00010925C0481E08093580480935504109205
:102BF000560492E09093570480934B0488E190E050
:102C00009093500480934F040E94AB189093540407
:102C100080935304009759F0FC011192CA95E9F78B
:102C200088E090E090934E0480934D0408C0109289
:102C3000500410924F0410924E0410924D0487E0FD
:102C40008093510480914C04882341F061E087E037
:102C50000E949C0660E087E00E941F06E6EDF2E01D
:102C6000E491F0E0EE0FFF1FEB54FD4F859194913E
:102C700090935E0480935D04E6E7F2E0E491E093D4
:102C80005F046EE472E085E494E0CF910C94D80C7C
:102C90008F929F92AF92BF92CF92DF92EF92FF926C
:102CA000CF93DF93EC01688179818A819B816115E3
:102CB00071058105910521F464E279ED8BE597E0DA
:102CC0002DE133EF41E050E00E949D1749015A0188
:102CD0009B01AC01A7EAB1E40E94BC176B017C0127
:102CE000ACEEB4EFA50194010E94CA17DC01CB0140
:102CF0008C0D9D1DAE1DBF1DB7FF03C00197A1091F
:102D0000B04888839983AA83BB83BC01CD019F7798
:102D1000DF91CF91FF90EF90DF90CF90BF90AF9079
:102D20009F908F9008950C94481683E292E00C9443
:102D30004816609323027093240280932502909397
:102D400026020895E89409C097FB3EF4909580957B
:102D5000709561957F4F8F4F9F4F9923A9F0F92F61
:102D600096E9BB279395F695879577956795B795DF
:102D7000F111F8CFFAF4BB0F11F460FF1BC06F5FC5
:102D80007F4F8F4F9F4F16C0882311F096E911C0D7
:102D9000772321F09EE8872F762F05C0662371F0F8
:102DA00096E8862F70E060E02AF09A95660F771F0C
:102DB000881FDAF7880F9695879597F908950E94EE
:102DC000F2160C9463170E94551738F00E945C1796
:102DD00020F0952311F00C944C170C9452171124E9
:102DE0000C9497170E94741770F3959FC1F3950F79
:102DF00050E0551F629FF001729FBB27F00DB11D7F
:102E0000639FAA27F00DB11DAA1F649F6627B00D0E
:102E1000A11D661F829F2227B00DA11D621F739FF7
:102E2000B00DA11D621F839FA00D611D221F749F05
:102E30003327A00D611D231F849F600D211D822F4C
:102E4000762F6A2F11249F5750409AF0F1F0882373
:102E50004AF0EE0FFF1FBB1F661F771F881F9150A0
:102E60005040A9F79E3F510580F00C944C170C94EC
:102E700097175F3FE4F3983ED4F38695779567956F
:102E8000B795F795E7959F5FC1F7FE2B880F911DCA
:102E90009695879597F9089597F99F6780E870E070
:102EA00060E008959FEF80EC089500240A941616C0
:102EB000170618060906089500240A941216130628
:102EC000140605060895092E0394000C11F48823B6
:102ED00052F0BB0F40F4BF2B11F460FF04C06F5FD2
:102EE0007F4F8F4F9F4F089557FD9058440F551FA8
:102EF00059F05F3F71F04795880F97FB991F61F07C
:102F00009F3F79F087950895121613061406551FF2
:102F1000F2CF4695F1DF08C0161617061806991F5E
:102F2000F1CF86957105610508940895E894BB2753
:102F300066277727CB0197F90895052E97FB1EF496
:102F400000940E94B41757FD07D00E94CF1707FCCA
:102F500003D04EF40C94B4175095409530952195BC
:102F60003F4F4F4F5F4F08959095809570956195B5
:102F70007F4F8F4F9F4F08950E94F117A59F900D8F
:102F8000B49F900DA49F800D911D11240895B7FF4B
:102F90000C94BC170E94BC17821B930B0895A1E2EE
:102FA0001A2EAA1BBB1BFD010DC0AA1FBB1FEE1FC3
:102FB000FF1FA217B307E407F50720F0A21BB30B0E
:102FC000E40BF50B661F771F881F991F1A9469F78A
:102FD00060957095809590959B01AC01BD01CF01E6
:102FE0000895A29FB001B39FC001A39F700D811DE2
:102FF0001124911DB29F700D811D1124911D089502
:103000005058BB27AA270E9418180C9463170E94D7
:10301000551738F00E945C1720F039F49F3F19F4DF
:1030200026F40C9452170EF4E095E7FB0C944C1721
:10303000E92F0E94741758F3BA17620773078407C1
:10304000950720F079F4A6F50C9496170EF4E09508
:103050000B2EBA2FA02D0B01B90190010C01CA0152
:10306000A0011124FF27591B99F0593F50F4503EFD
:1030700068F11A16F040A22F232F342F4427585FEF
:10308000F3CF469537952795A795F0405395C9F707
:103090007EF41F16BA0B620B730B840BBAF09150BF
:1030A000A1F0FF0FBB1F661F771F881FC2F70EC05E
:1030B000BA0F621F731F841F48F487957795679531
:1030C000B795F7959E3F08F0B0CF9395880F08F01D
:1030D0009927EE0F9795879508950E947418689424
:1030E000B1110C94971708950E947C1788F09F5790
:1030F00098F0B92F9927B751B0F0E1F0660F771F1C
:10310000881F991F1AF0BA95C9F714C0B13091F011
:103110000E949617B1E008950C949617672F782FA8
:103120008827B85F39F0B93FCCF3869577956795D6
:10313000B395D9F73EF490958095709561957F4F42
:103140008F4F9F4F0895EE0FFF1F881F8BBF079073
:10315000F691E02D1994CF93DF938230910510F40E
:1031600082E090E0E0917E04F0917F0420E030E086
:10317000C0E0D0E0309711F14081518148175907E4
:10318000C0F04817590761F482819381209719F0A4
:103190009B838A832BC090937F0480937E0426C0F8
:1031A0002115310519F04217530718F49A01BE0191
:1031B000DF01EF010280F381E02DDCCF2115310525
:1031C00009F1281B390B2430310590F412968D91AA
:1031D0009C9113976115710521F0FB019383828304
:1031E00004C090937F0480937E04FD01329644C016
:1031F000FD01E20FF31F81939193225031092D932A
:103200003C933AC020917C0430917D04232B41F4FF
:103210002091290230912A0230937D0420937C046E
:1032200020912702309128022115310541F42DB754
:103230003EB740912B0250912C02241B350BE0919C
:103240007C04F0917D04E217F307A0F42E1B3F0BE2
:103250002817390778F0AC014E5F5F4F2417350708
:1032600048F04E0F5F1F50937D0440937C04819380
:10327000919302C0E0E0F0E0CF01DF91CF9108959B
:103280000F931F93CF93DF93009709F48CC0FC0139
:1032900032971382128200917E0410917F040115EF
:1032A000110581F420813181820F931F20917C04CC
:1032B00030917D042817390779F5F0937D04E09368
:1032C0007C0471C0D80140E050E0AE17BF0750F455
:1032D00012962D913C911397AD012115310509F1FD
:1032E000D901F3CF9D01DA0133832283608171819B
:1032F000860F971F8217930769F4EC0128813981A3
:10330000260F371F2E5F3F4F318320838A819B8199
:1033100093838283452B29F4F0937F04E0937E040A
:1033200042C01396FC93EE931297ED014991599187
:103330009E01240F351FE217F30771F480819181FC
:10334000840F951F029611969C938E938281938190
:1033500013969C938E931297E0E0F0E0D8011296BA
:103360008D919C911397009719F0F8018C01F6CF7D
:103370008D919C9198012E5F3F4F820F931F20915A
:103380007C0430917D042817390769F4309729F4BB
:1033900010927F0410927E0402C013821282109356
:1033A0007D0400937C04DF91CF911F910F910895CC
:1033B0006F927F928F929F92AF92BF92CF92DF9245
:1033C000EF92FF920F931F93CF93DF93EC0100973F
:1033D00089F4CB01DF91CF911F910F91FF90EF9076
:1033E000DF90CF90BF90AF909F908F907F906F9025
:1033F0000C94AB18FC01E60FF71F9C012250310919
:10340000E217F30708F4ACC0D9010D911C91119794
:1034100006171707B0F00530110508F49FC0C80162
:1034200004978617970708F499C002501109061BE4
:10343000170B019311936D937C93CF010E94401958
:103440008DC05B01A01AB10A4C01800E911EA091A3
:103450007E04B0917F0440E050E0E12CF12C109705
:1034600009F44AC0A815B905D1F56D907C90119763
:10347000630182E0C80ED11CCA14DB0480F1A301F1
:103480004A195B096A0182E0C80ED11C1296BC90F1
:1034900012971396AC91B5E0CB16D10440F0B282EE
:1034A000A38351834083D9016D937C930AC00E5F3F
:1034B0001F4FC301800F911FF90191838083EB2D72
:1034C000FA2FE114F10431F0D7011396FC93EE9337
:1034D000129744C0F0937F04E0937E043FC08D9127
:1034E0009C9111974817590708F4AC017D01129679
:1034F0000D90BC91A02DB3CF80917C0490917D0460
:1035000088159905E1F446175707C8F480912702FA
:1035100090912802009741F48DB79EB740912B02FD
:1035200050912C02841B950BE817F907C8F4F0930F
:103530007D04E0937C04F901718360830FC0CB01AB
:103540000E94AB187C01009759F0A801BE010E94AF
:10355000C61ACE010E944019C70104C0CE0102C0A4
:1035600080E090E0DF91CF911F910F91FF90EF905D
:10357000DF90CF90BF90AF909F908F907F906F9093
:10358000089581E090E0F8940C94DF1AFB01DC01CF
:1035900002C001900D9241505040D8F70895FB01B0
:1035A000DC018D91019080190110D9F3990B0895D8
:1035B000FB01DC0101900D920020E1F7089511E07C
:1035C000CCE8D1E000E006C0802FFE010E94A318E5
:1035D0002196011DCD38D10780E00807A9F7F8949E
:0235E000FFCF1B
:1035E200E8030000E803000001000100204E000093
:1035F20001001C061C061C061C061C061C061C06DA
:103602001C06FF010000000000800480003D003C19
:10361200003B003A00000000007602C001350213B0
:10362200022702BD0200000000ED05C00109000DE5
:103632000A00524F424F543A20474F00524F424FD6
:10364200543A20444F574E4C4F4144494E47007222
:1036520065736574696E67206C65647300524F42CE
:0C3662004F543A2057414954494E47004C
:00000001FF
