:100000000C946C010C949D010C949D010C949D0129
:100010000C949D010C949D010C949D010C949D01E8
:100020000C949D010C949D010C949D010C949D01D8
:100030000C949D010C949D010C949D010C949D01C8
:100040000C949D010C949D010C949D010C949D01B8
:100050000C949D010C949D010C949D010C945105F0
:100060000C949D010C94C5050C949B050C949D016A
:100070000C949D010C949D010C949D010C949D0188
:100080000C949D010C949D010C949D010C949D0178
:100090000C949D010C949D010C949D010C949D0168
:1000A0000C949D010C949D010C949D010C949D0158
:1000B0000C949D010C949D010C949D010C949D0148
:1000C0000C949D010C949D010C949D010C949D0138
:1000D0000C949D010C949D010C949D010C949D0128
:1000E0000C949D01D901DC01CB01CF01D301130296
:1000F000E001E401EA01EE01F201F801FC01000275
:10010000130206020A020E028C0291029602A0025B
:10011000AA022303B402BC02C402CE02D802E20245
:10012000F102FB02230305030F0319030C94AA0237
:100130000C942E040C94E0010C94DC010C94FB0252
:100140000C94CB010C94E4010C94D3010C94960212
:100150000C9491020C94BC020C94CF010C940602F6
:100160000C94D5030C9475040C94B4020C94AA035B
:100170000C94F2010C94F8010C94CE020C94000241
:100180000C94F7030C94C4020C94D8020C940E0245
:100190000C9405030C9423030C9413020C94F102A9
:1001A0000C94A0020C94E9030C948C020C94190397
:1001B0000C94EE010C940A020C94E2020C94FC01E3
:1001C0000C94D9010C94EA010C940F030C94D10700
:1001D00000002100240027002A002D0030003300F9
:1001E00001010000040107010A01000022002500AE
:1001F00028002B002E003100340002010000050110
:1002000008010B0105050505070508080808020295
:1002100002020A0A080804040404010101010101A0
:1002200001010303030303030303040707070C0C83
:100230000C0C0C0C0C0C020202020606060606064A
:1002400006060B0B0B0B0B0B0B0B010210202008EF
:100250000810204010204080020102010804020121
:100260000102040810204080804020100804020190
:1002700080040201804020100804020108040201E9
:100280000102040810204080010204081020408070
:1002900000000A0B02090C0D0E0807030401000000
:1002A000000000000000000000000000000000004E
:1002B000000000000000000000000000121110000B
:1002C000000000000000000000000000000000002E
:1002D000000000000000D10711241FBECFEFD1E2C3
:1002E000DEBFCDBF00E00CBF12E0A0E0B2E0EEE563
:1002F000F0E100E00BBF02C007900D92AC31B107F6
:10030000D9F722E0ACE1B2E001C01D92A73EB207EE
:10031000E1F711E0CCE6D1E000E006C02197010949
:10032000802FFE010E942008CB36D10780E008070D
:10033000A9F70E94FB050C942D080C940000E09195
:100340004A02F0914B020190F081E02D682F8AE47F
:1003500092E01994362F90E0FC01E057FD4F449154
:10036000FC01E65BFD4F2491FC01EC5FFD4F949195
:10037000992309F46BC0442309F455C050E0FA01F5
:100380003197E231F10508F04EC08827EE58FF4F53
:100390008F4F0C942008809180008F7707C0809148
:1003A00080008F7D03C080918000877F80938000D4
:1003B0003AC084B58F7702C084B58F7D84BD33C0C9
:1003C0008091B0008F7703C08091B0008F7D8093C3
:1003D000B00029C0809190008F7707C08091900075
:1003E0008F7D03C080919000877F809390001BC019
:1003F0008091A0008F7707C08091A0008F7D03C0FF
:100400008091A000877F8093A0000DC08091200183
:100410008F7707C0809120018F7D03C080912001DC
:10042000877F80932001E92FF0E0EE0FFF1FE65158
:10043000FE4FA591B4918FB7F894EC91311103C0A0
:1004400020952E2301C02E2B2C938FBF0895CF9380
:10045000DF9390E0FC01E65BFD4F2491FC01EC5F33
:10046000FD4F8491882361F190E0880F991FFC0172
:10047000E053FE4FC591D491FC01E651FE4FA5918A
:10048000B491611109C09FB7F894888120958223A7
:100490008883EC912E230BC0623061F49FB7F894EF
:1004A0003881822F809583238883EC912E2B2C9387
:1004B0009FBF06C08FB7F894E8812E2B28838FBF8B
:1004C000DF91CF9108951F93CF93DF93182FEB0106
:1004D00061E00E942702209711F460E004C0CF3F42
:1004E000D10539F461E0812FDF91CF911F910C94F8
:1004F000AA01E12FF0E0E057FD4FE4914E2F50E0CC
:10050000FA013197E231F10508F09DC08827EC57D8
:10051000FF4F8F4F0C94200884B5806884BDC7BD01
:1005200097C084B5806284BDC8BD92C080918000B0
:10053000806880938000D0938900C093880088C031
:1005400080918000806280938000D0938B00C09364
:100550008A007EC080918000886080938000D09364
:100560008D00C0938C0074C08091B000806880932F
:10057000B000C093B3006CC08091B00080628093E3
:10058000B000C093B40064C08091900080688093F4
:100590009000D0939900C09398005AC08091900029
:1005A000806280939000D0939B00C0939A0050C0CB
:1005B00080919000886080939000D0939D00C093BC
:1005C0009C0046C08091A00080688093A00080912C
:1005D000A0008F7B8093A000D093A900C093A800B7
:1005E00037C08091A00080628093A000D093AB00C0
:1005F000C093AA002DC08091A00088608093A000C5
:10060000D093AD00C093AC0023C0809120018068DE
:1006100080932001D0932901C093280119C08091B3
:100620002001806280932001D0932B01C0932A0186
:100630000FC080912001886080932001D0932D010C
:10064000C0932C0105C0C038D1050CF04BCF45CF6D
:10065000DF91CF911F910895863308F086539091D2
:100660007B00282F2870977F922B90937B008770B8
:10067000806480937C0080917A00806480937A000B
:1006800080917A0086FDFCCF8091780020917900DE
:1006900090E0922B08953FB7F89480914602909194
:1006A0004702A0914802B091490226B5A89B05C017
:1006B0002F3F19F00196A11DB11D3FBFBA2FA92FE1
:1006C000982F8827820F911DA11DB11DBC01CD015E
:1006D00042E0660F771F881F991F4A95D1F708954A
:1006E0008F929F92AF92BF92CF92DF92EF92FF9242
:1006F0006B017C010E944B034B015C01C114D104CE
:10070000E104F104F1F00E944B03DC01CB018819F4
:100710009909AA09BB09883E9340A105B10570F368
:1007200021E0C21AD108E108F10888EE880E83E0C2
:10073000981EA11CB11CC114D104E104F10419F7E5
:10074000DDCFFF90EF90DF90CF90BF90AF909F9064
:100750008F900895CF92DF92EF92FF920F931F93A5
:10076000CF93DF936C017A018B01C0E0D0E0CE150E
:10077000DF0589F0D8016D918D01D601ED91FC91D5
:100780000190F081E02DC6011995892B11F47E01AD
:1007900002C02196ECCFC701DF91CF911F910F913D
:1007A000FF90EF90DF90CF900895FC01918D828DA6
:1007B000981761F0828DDF01A80FB11D5D968C91B5
:1007C000928D9F5F9F73928F90E008958FEF9FEFC0
:1007D0000895FC01918D828D981731F0828DE80F7C
:1007E000F11D858D90E008958FEF9FEF0895FC0136
:1007F000918D228D892F90E0805C9F4F821B910903
:100800008F73992708958AE492E00E94F70321E00C
:10081000892B09F420E0822F0895FC01848DDF01EB
:10082000A80FB11DA35ABF4F2C91848D90E0019663
:100830008F739927848FA689B7892C93A089B18952
:100840008C9180648C93938D848D981306C002885C
:10085000F389E02D80818F7D80830895EF92FF9250
:100860000F931F93CF93DF93EC0181E0888F9B8DD3
:100870008C8D981305C0E889F989808185FD24C095
:10088000F62E0B8D10E00F5F1F4F0F731127E02E18
:100890008C8DE8120CC00FB607FCFACFE889F989F5
:1008A000808185FFF5CFCE010E940D04F1CF8B8DA5
:1008B000FE01E80FF11DE35AFF4FF0820B8FEA892A
:1008C000FB898081806207C0EE89FF896083E889A7
:1008D000F98980818064808381E090E0DF91CF910D
:1008E0001F910F91FF90EF900895CF93DF93EC014C
:1008F000888D8823C9F0EA89FB89808185FD05C040
:10090000A889B9898C9186FD0FC00FB607FCF5CF79
:10091000808185FFF2CFA889B9898C9185FFEDCFC1
:10092000CE010E940D04E7CFDF91CF91089580E0C2
:1009300090E0892B21F00E940304811125C080E002
:1009400090E0892B41F080E090E0892B21F00E941B
:10095000000081111CC080E090E0892B41F080E014
:1009600090E0892B21F00E940000811113C080E0EB
:1009700090E0892BA1F080E090E0892B81F00E942B
:10098000000081110AC008950E940000D8CF0E9483
:100990000000E1CF0E940000EACF0C94000008950F
:1009A0008F929F92AF92BF920F931F93CF93DF933B
:1009B000CDB7DEB7A1970FB6F894DEBF0FBECDBF9F
:1009C00019A2423008F44AE08E010F5D1F4F842EB9
:1009D000912CA12CB12CA50194010E94FE07E62FB9
:1009E000B901CA0101501109EA3014F4E05D01C0F7
:1009F000E95CD801EC93232B242B252B61F70115FF
:100A0000110571F0F80101900020E9F73197AF016D
:100A1000401B510BB8018AE492E00E94AA0302C075
:100A200080E090E0A1960FB6F894DEBF0FBECDBF78
:100A3000DF91CF911F910F91BF90AF909F908F90BA
:100A40000895CF92DF92EF92FF92CF93DF936C01E4
:100A5000990FEE08FF08F7FE17C08DE20E949F0174
:100A6000EC0166277727CB016C197D098E099F0958
:100A70004AE00E94D0048C0F9D1FDF91CF91FF9020
:100A8000EF90DF90CF9008954AE0C701B601DF9163
:100A9000CF91FF90EF90DF90CF900C94D0040E9404
:100AA00028081F920F920FB60F9211242F933F9395
:100AB0008F939F93AF93BF93809142029091430293
:100AC000A0914402B09145023091410223E0230FEE
:100AD0002D3720F40196A11DB11D05C026E8230F76
:100AE0000296A11DB11D2093410280934202909372
:100AF0004302A0934402B093450280914602909134
:100B00004702A0914802B09149020196A11DB11D72
:100B10008093460290934702A0934802B093490203
:100B2000BF91AF919F918F913F912F910F900FBEE9
:100B30000F901F9018951F920F920FB60F921124CD
:100B40000BB60F922F933F934F935F936F937F93C7
:100B50008F939F93AF93BF93EF93FF938AE492E0B9
:100B60000E940D04FF91EF91BF91AF919F918F91E2
:100B70007F916F915F914F913F912F910F900BBE9D
:100B80000F900FBE0F901F9018951F920F920FB6E7
:100B90000F9211240BB60F922F938F939F93EF9385
:100BA000FF93E0915A02F0915B028081E091600234
:100BB000F091610282FD12C09081809163028F5F8B
:100BC0008F7320916402821751F0E0916302F0E08C
:100BD000E65BFD4F958F8093630201C08081FF919A
:100BE000EF919F918F912F910F900BBE0F900FBEA1
:100BF0000F901F901895789484B5826084BD84B559
:100C0000816084BD85B5826085BD85B5816085BD07
:100C100080916E00816080936E00109281008091BF
:100C20008100826080938100809181008160809347
:100C30008100809180008160809380008091B1006C
:100C400084608093B1008091B00081608093B00097
:100C500080919100826080939100809191008160E9
:100C600080939100809190008160809390008091AA
:100C7000A10082608093A1008091A1008160809397
:100C8000A1008091A00081608093A000809121014B
:100C900082608093210180912101816080932101F4
:100CA0008091200181608093200180917A0084608E
:100CB00080937A0080917A00826080937A0080919C
:100CC0007A00816080937A0080917A0080688093B6
:100CD0007A001092C100E0915A02F0915B0282E02A
:100CE0008083E0915602F09157021082E091580201
:100CF000F09159028FEC808310926202E0915E02C3
:100D0000F0915F0286E08083E0915C02F0915D02E9
:100D1000808180618083E0915C02F0915D0280813E
:100D200088608083E0915C02F0915D028081806840
:100D30008083E0915C02F0915D0280818F7D8083F1
:100D400060E08AE30E94270260E08BE30E942702B2
:100D500060E08CE30E94270260E08DE30E9427029E
:100D600064E670E080E090E00E94700304E212E02C
:100D7000C0E1D2E0F2E0C831DF0779F08881229645
:100D80000E942C03F801819391938F016AE070E037
:100D900080E090E00E947003EDCF61E089E00E9466
:100DA000270261E08AE00E94270261E085E00E945C
:100DB000270261E086E00E94270260E087E30E944C
:100DC000270260E086E30E94270262E088E30E9437
:100DD000270268EE73E080E090E00E94700387E3F2
:100DE0000E942C03EC01909323028093220286E35D
:100DF0000E942C039093210280932002CC0FDD1FD0
:100E0000D0931F02C0931E029C01220F331F309308
:100E10001D0220931C02F4EF8F2E99249394A8EEC8
:100E2000AA2EA3E0BA2EBFEBCB2ED12CC0E4EC2E21
:100E3000F12C44244A94512C6AE070E080E090E068
:100E40000E9470030CE212E0E80160E1662E62E0AD
:100E5000762E28E1621622E0720681F0F30180818D
:100E6000F2E06F0E711C0E942C03899399936AE043
:100E700070E080E090E00E947003EBCF10923402AB
:100E800082E50E949F0154E2652E52E0752EC0E07B
:100E9000D0E0F801219131918F01F301819191917D
:100EA0003F01880F991F61E0821793070CF060E003
:100EB000862F0C2E01C0880F0A94EAF79091340215
:100EC000892B8093340270E080E090E04AE00E9439
:100ED000D0042196C430D105E1F68CE40E949F0134
:100EE00042E050E068E172E08AE492E00E94AA03E6
:100EF0009092400280923F02B0923E02A0923D0248
:100F0000D0923C02C0923B02F0923A02E092390247
:100F100050923802409237021092360210923502F7
:100F20008FEB90E00E94210589E00E949F01809153
:100F3000390290913A020E94210589E00E949F01A6
:100F400080913702909138020E94210589E00E9429
:100F50009F0180913502909136020E9421058AE01E
:100F60000E949F0160913B0270913C0289E00E94C7
:100F700063026091390270913A028AE00E94630232
:100F8000609137027091380285E00E94630260919F
:100F900035027091360286E00E9463020E94970437
:100FA0004BCFEAE4F2E01382128288EE93E0A0E0F5
:100FB000B0E084839583A683B78384E092E0918335
:100FC000808385EC90E09587848784EC90E0978718
:100FD000868780EC90E0918B808B81EC90E0938B06
:100FE000828B82EC90E0958B848B86EC90E0978BE3
:100FF000868B118E128E138E148E0895A1E21A2EF6
:10100000AA1BBB1BFD010DC0AA1FBB1FEE1FFF1FAC
:10101000A217B307E407F50720F0A21BB30BE40BFC
:10102000F50B661F771F881F991F1A9469F7609543
:101030007095809590959B01AC01BD01CF010895FD
:10104000EE0FFF1F881F8BBF0790F691E02D1994BC
:0E10500081E090E0F8940C942D08F894FFCF06
:10105E00000000002E04AA03F703D503E90375046C
:0C106E003A003B003C003D000D0A000071
:00000001FF
