:100000000C9472000C949A000C949A000C949A0030
:100010000C949A000C949A000C949A000C949A00F8
:100020000C949A000C949A000C949A000C949A00E8
:100030000C949A000C949A000C949A000C949A00D8
:100040000C94DE030C949A000C944E040C94280437
:100050000C949A000C949A000C949A000C949A00B8
:100060000C949A000C949A0005A84CCDB2D44EB9C9
:100070003836A9020C50B9918688083CA6AAAA2A4B
:10008000BE000000803F0000000023002600290081
:1000900000000000240027002A00000000080002E1
:1000A000010000030407000000000000000001023E
:1000B00004081020408001020408102001020408F6
:1000C000102000000000250028002B000404040478
:1000D00004040404020202020202030303030303F2
:1000E000C504970711241FBECFEFD8E0DEBFCDBFF8
:1000F00011E0A0E0B1E0EEE1F8E102C005900D9260
:10010000A032B107D9F723E0A0E2B1E001C01D920F
:10011000AA34B207E1F710E0C1E7D0E004C02197AC
:10012000FE010E94CA0AC037D107C9F70E946B05B9
:100130000C94020C0C9400008F929F92AF92BF928D
:10014000CF92DF92EF92FF924B01AA24BB24E82DBD
:10015000C52ED62EE72EFF24FC2D342F20913803F8
:10016000222361F0829E40011124E92DC29E60018C
:100170001124FD2D429FD00111243B2FF0903E030E
:10018000E0903B03A0913903B0913A03FE1008C000
:10019000AC01440F551F840F951F8A0F9B1F14C07D
:1001A000880F991F880F991F8A0F9B1F472F55276C
:1001B00066277727DC01AF0DB11D222321F0429F76
:1001C000A0011124452F4C9320913B03DC01A20F89
:1001D000B11DEC9320913C03DC01A20FB11DFC93F7
:1001E00020913D03FC01E20FF11D3083FF90EF9061
:1001F000DF90CF90BF90AF909F908F90089590E048
:10020000FC01E656FF4F3491FC01E255FF4F24916B
:10021000FC01E453FF4FE491EE2309F43BC0332388
:1002200039F1333091F038F43130A9F0323001F542
:1002300084B58F7D12C0373091F03830A1F0343062
:10024000B9F4809180008F7D03C0809180008F770A
:10025000809380000DC084B58F7784BD09C08091E4
:10026000B0008F7703C08091B0008F7D8093B00085
:10027000F0E0EE0FFF1FEE53FF4FA591B4918FB743
:10028000F894EC91611103C020952E2301C02E2B10
:100290002C938FBF0895CF93DF9390E0FC01E2553C
:1002A000FF4F2491FC01E453FF4F8491882361F1B7
:1002B00090E0880F991FFC01E057FF4FC591D49142
:1002C000FC01EE53FF4FA591B491611109C09FB796
:1002D000F8948881209582238883EC912E230BC08B
:1002E000623061F49FB7F8943881822F8095832320
:1002F0008883EC912E2B2C939FBF06C08FB7F89468
:10030000E8812E2B28838FBFDF91CF9108953FB7CF
:10031000F8948091900290919102A0919202B091F4
:10032000930226B5A89B05C02F3F19F00196A11D89
:10033000B11D3FBFBA2FA92F982F8827820F911D7B
:10034000A11DB11DBC01CD0142E0660F771F881FC2
:10035000991F4A95D1F708950F931F93CF93DF9379
:10036000CDB7DEB729970FB6F894DEBF0FBECDBF6D
:100370008091390390913A03892B09F4A1C00E941E
:10038000870100913F031091400320914103309178
:100390004203DC01CB01801B910BA20BB30BC29774
:1003A000A105B10560F3F89480913503909136036F
:1003B0009A838983E0913903F0913A03DF01119622
:1003C0008081898790913103E0914303F091440348
:1003D00080914503992309F42EC09081982B98872A
:1003E0009081809589238F838F818C8388E08B8394
:1003F00058856F8149853B812C8189819A81508301
:1004000047FD252F3A952083262F39F0441F00C041
:1004100000006083000000C0F2CF38E04D9160839F
:100420000000019761F7F0934403E0934303498789
:100430003B832C8338C09081982B9887908180953E
:1004400089238F838F818E8388E08D8358856F8188
:1004500049853D812E8189819A81508347FD252FD1
:1004600000C000C0208300C000C000C000C000C0A9
:1004700060830000262F3A9541F0441F000000C021
:1004800000C000C000C000C0E8CF38E04D9100C0FF
:10049000608300C0019709F7F0934403E09343039E
:1004A00049873D832E839A83898378940E948701AC
:1004B00060933F0370934003809341039093420302
:1004C00029960FB6F894DEBF0FBECDBFDF91CF9156
:1004D0001F910F910895CF92DF92EF92FF920F93A9
:1004E0001F93CF93DF936C017A018B01C0E0D0E0C2
:1004F000CE15DF0589F0D8016D918D01D601ED9102
:10050000FC910190F081E02DC6010995892B11F431
:100510007E0102C02196ECCFC701DF91CF911F91E0
:100520000F91FF90EF90DF90CF900895FC01918D97
:10053000828D981761F0828DDF01A80FB11D5D9645
:100540008C91928D9F5F9F73928F90E008958FEFB3
:100550009FEF0895FC01918D828D981731F0828D67
:10056000E80FF11D858D90E008958FEF9FEF0895BE
:10057000FC01918D228D892F90E0805C9F4F821B22
:1005800091098F739927089584E992E00E94B80237
:1005900021E0892B09F420E0822F0895FC01848D4D
:1005A000DF01A80FB11DA35ABF4F2C91848D90E09D
:1005B00001968F739927848FA689B7892C93A08978
:1005C000B1898C9180648C93938D848D981306C02F
:1005D0000288F389E02D80818F7D80830895EF92DA
:1005E000FF920F931F93CF93DF93EC0181E0888FED
:1005F0009B8D8C8D981305C0E889F989808185FDD4
:1006000024C0F62E0B8D10E00F5F1F4F0F731127C4
:10061000E02E8C8DE8120CC00FB607FCFACFE889EB
:10062000F989808185FFF5CFCE010E94CE02F1CFFE
:100630008B8DFE01E80FF11DE35AFF4FF0820B8F07
:10064000EA89FB898081806207C0EE89FF89608327
:10065000E889F98980818064808381E090E0DF917E
:10066000CF911F910F91FF90EF900895CF93DF935B
:10067000EC01888D8823C9F0EA89FB89808185FD9A
:1006800005C0A889B9898C9186FD0FC00FB607FCFB
:10069000F5CF808185FFF2CFA889B9898C9185FF3C
:1006A000EDCFCE010E94CE02E7CFDF91CF9108952A
:1006B00080E090E0892B29F00E94C40281110C9403
:1006C00000000895009769F0FC0101900020E9F70F
:1006D0003197AF01481B590BBC0184E992E00C949F
:1006E0006B0280E090E008958F929F92AF92BF924C
:1006F0000F931F93CF93DF93CDB7DEB7A1970FB6BC
:10070000F894DEBF0FBECDBF19A2423008F44AE014
:100710008E010F5D1F4F842E912CA12CB12CA501B1
:1007200094010E94D107E62FB901CA0101501109B5
:10073000EA3014F4E05D01C0E95CD801EC93232BAE
:10074000242B252B61F7C8010E946203A1960FB6E6
:10075000F894DEBF0FBECDBFDF91CF911F910F91F7
:10076000BF90AF909F908F900895CF92DF92EF92BD
:10077000FF92CF93DF936B017C01E0919402F091A3
:1007800095020190F081E02D6DE284E992E00995F7
:10079000EC0166277727CB016C197D098E099F092B
:1007A0004AE00E9474038C0F9D1FDF91CF91FF9050
:1007B000EF90DF90CF9008950E94FD0B1F920F9253
:1007C0000FB60F9211242F933F938F939F93AF9364
:1007D000BF9380918C0290918D02A0918E02B09176
:1007E0008F0230918B0223E0230F2D3720F40196E6
:1007F000A11DB11D05C026E8230F0296A11DB11D44
:1008000020938B0280938C0290938D02A0938E0292
:10081000B0938F028091900290919102A0919202E8
:10082000B09193020196A11DB11D80939002909307
:100830009102A0939202B0939302BF91AF919F91C6
:100840008F913F912F910F900FBE0F901F90189591
:100850001F920F920FB60F9211242F933F934F9335
:100860005F936F937F938F939F93AF93BF93EF9318
:10087000FF9384E992E00E94CE02FF91EF91BF9135
:10088000AF919F918F917F916F915F914F913F9128
:100890002F910F900FBE0F901F9018951F920F92DF
:1008A0000FB60F9211242F938F939F93EF93FF9383
:1008B000E091A402F091A5028081E091AA02F0915A
:1008C000AB0282FD12C090818091AD028F5F8F7369
:1008D0002091AE02821751F0E091AD02F0E0EC56AB
:1008E000FD4F958F8093AD0201C08081FF91EF9104
:1008F0009F918F912F910F900FBE0F901F90189581
:10090000CF92DF92EF92FF920F931F93E82FF92F70
:1009100005C0015011092109310961F19081962327
:100920009417B9F305C0015011092109310911F1DA
:10093000908196239413F7CFC12CD12CE12CF12C6C
:100940000AC08FEFC81AD80AE80AF80A0C151D0564
:100950002E053F0579F080818623841791F36C2D55
:100960007D2D8E2D9F2D1F910F91FF90EF90DF9089
:10097000CF90089560E070E080E090E01F910F91CB
:10098000FF90EF90DF90CF900895CF93DF93109278
:1009900097021092960288EE93E0A0E0B0E0809378
:1009A000980290939902A0939A02B0939B0280E1DF
:1009B00091E0909395028093940285EC90E090935F
:1009C000A1028093A00284EC90E09093A302809314
:1009D000A20280EC90E09093A5028093A40281ECA7
:1009E00090E09093A7028093A60282EC90E090930F
:1009F000A9028093A80286EC90E09093AB028093CA
:100A0000AA021092AD021092AE021092AF021092A2
:100A1000B002109232031092380310923F031092EA
:100A20004003109241031092420381E080933E0301
:100A300080933B0310923C0392E090933D0380939C
:100A40003103C3E2D4E0D0933603C093350383E28D
:100A500094E00E94D00A90933A0380933903009760
:100A600069F0FC019E01119221503040E1F781E6CE
:100A700091E0909334038093330308C010923603BF
:100A800010923503109234031092330386E0809362
:100A9000370380913203882341F061E086E00E94B1
:100AA0004B0160E086E00E94FF00E2EDF0E0E4919F
:100AB000F0E0EE0FFF1FEE53FF4F8591949190935E
:100AC000440380934303E4EBF0E0E491E0934503B7
:100AD000DF91CF910895CF93DF9300D000D000D065
:100AE000CDB7DEB7789484B5826084BD84B581606B
:100AF00084BD85B5826085BD85B5816085BD8091E9
:100B00006E00816080936E00109281008091810060
:100B10008260809381008091810081608093810058
:100B2000809180008160809380008091B10084601A
:100B30008093B1008091B00081608093B00080917B
:100B40007A00846080937A0080917A00826080933A
:100B50007A0080917A00816080937A0080917A0097
:100B6000806880937A001092C1008091370387FDDE
:100B700008C061E00E944B0160E0809137030E9451
:100B8000FF0081E08093320361E088E00E944B0126
:100B900060E087E00E944B0161E08DE00E944B0124
:100BA000E091A402F091A50282E08083E091A0028E
:100BB000F091A1021082E091A202F091A30280E1E3
:100BC00080831092AC02E091A802F091A90286E025
:100BD0008083E091A602F091A702808180618083EA
:100BE000E091A602F091A702808188608083E09165
:100BF000A602F091A702808180688083E091A6021E
:100C0000F091A70280818F7D808313E2C12ED12CC9
:100C100001E6202E3324339481E6482E5524539444
:100C2000612C712C60E088E00E94FF0083E090E07E
:100C30000197F1F761E088E00E94FF00C60101978B
:100C4000F1F760E088E00E94FF00E5EBF0E06491DE
:100C5000E3EDF0E08491E82FF0E0EE0FFF1FEA579C
:100C6000FF4F8591949104E610E020E030E0462F9C
:100C70000E948004611571058105910549F0DC0130
:100C8000CB010196A11DB11DBC01CD019F7003C018
:100C900060E070E0CB0160932001709321018093AC
:100CA0002201909323010E94AC082DEC3CEC48E615
:100CB00052E40E9402080E947408609387027093B5
:100CC00088028093890290938A026F3A71058105A8
:100CD000910544F488248394912C9092050180928C
:100CE000040107C0F2E0AF2EB12CB0920501A09232
:100CF0000401C6010197F1F780910401909105016B
:100D00008130910551F0029709F00EC154E2E52EB1
:100D100051E0F52EA12CB12CC6C02FB7F8946091EC
:100D20008C0270918D0280918E0290918F022FBF64
:100D30000E94AA082FE632E143E85AE30E943809EC
:100D40000E94A50927E137EB41E559E30E943809E4
:100D5000609300017093010180930201909303015D
:100D60002FB7F89460918C0270918D0280918E0261
:100D700090918F022FBF0E94AA082091000130910C
:100D8000010140910201509103010E9438090E9423
:100D9000A50920E030E44CE156E40E9438090E94A5
:100DA00074089B01AC01205F384D4F4F5F4FA1E6A7
:100DB000B1E00E94C60720E23EE440E050E00E941D
:100DC000A707C9010196B1010E949B0A8C0190936B
:100DD000860280938502E4E2EE2EE1E0FE2E1E8282
:100DE0001D822D813E812017310739F0F701808166
:100DF00090E0059797FF03C009C08FEF90E08F3F09
:100E0000910529F024F08FEF90E001C080E0F70118
:100E100081937F0120913303309134038D809E8034
:100E200082169306F0F490E0A0E0B0E02227382F7D
:100E3000492F5A2F29833A834B835C83BC01552762
:100E4000442789809A80AB80BC80482959296A2927
:100E50007B29482B592B6A2B7B2B8D819E810E94ED
:100E60009C002D813E812F5F3F4F3E832D83213695
:100E7000314009F0B6CF0E94AC012EEF30E0D8012E
:100E80000E94AF0AA30192010E94A707CA01B901FB
:100E90006F5F7F4F8F4F9F4F97FF03C00E94B50337
:100EA0003FC04AE03BC0F701808190E0059797FD85
:100EB00007C08F3F910529F024F08FEF90E001C02B
:100EC00080E0F70181937F01209133033091340357
:100ED000A216B306A8F490E0A0E0B0E00027182F17
:100EE000292F3A2FBC0155274427402B512B622B29
:100EF000732B482B592B6A2B7B2BC5010E949C001E
:100F0000FFEFAF1ABF0A21E6A21621E0B20659F69A
:100F10000E94AC014AE060E070E0CB010E947403E3
:100F20008CE191E00E9462030E9458037BCE809185
:100F3000390390913A03009711F00E94650B80915C
:100F4000370387FD03C060E00C944B010895052E24
:100F500097FB1EF400940E94BE0757FD07D00E9425
:100F6000D10707FC03D04EF40C94BE075095409572
:100F7000309521953F4F4F4F5F4F08959095809545
:100F8000709561957F4F8F4F9F4F08950E94F30793
:100F9000A59F900DB49F900DA49F800D911D1124CD
:100FA0000895A1E21A2EAA1BBB1BFD010DC0AA1FAA
:100FB000BB1FEE1FFF1FA217B307E407F50720F0C2
:100FC000A21BB30BE40BF50B661F771F881F991F3D
:100FD0001A9469F760957095809590959B01AC0186
:100FE000BD01CF010895A29FB001B39FC001A39F8F
:100FF000700D811D1124911DB29F700D811D112452
:10100000911D08950E9416080C94FE080E94F7088E
:1010100058F00E94F00840F029F45F3F29F00C944A
:10102000E70851110C9432090C94ED080E940F0945
:1010300068F39923B1F3552391F3951B550BBB2707
:10104000AA2762177307840738F09F5F5F4F220F4C
:10105000331F441FAA1FA9F335D00E2E3AF0E0E843
:1010600032D091505040E695001CCAF72BD0FE2F8D
:1010700029D0660F771F881FBB1F26173707480721
:10108000AB07B0E809F0BB0B802DBF01FF279358D9
:101090005F4F3AF09E3F510578F00C94E7080C94AE
:1010A00032095F3FE4F3983ED4F3869577956795D0
:1010B000B795F7959F5FC9F7880F911D969587950E
:1010C00097F90895E1E0660F771F881FBB1F62172D
:1010D00073078407BA0720F0621B730B840BBA0BEB
:1010E000EE1F88F7E09508950E947B086894B1117F
:1010F0000C94320908950E94170988F09F5798F0C0
:10110000B92F9927B751B0F0E1F0660F771F881F0C
:10111000991F1AF0BA95C9F714C0B13091F00E9426
:101120003109B1E008950C943109672F782F882791
:10113000B85F39F0B93FCCF3869577956795B3954D
:10114000D9F73EF490958095709561957F4F8F4FBC
:101150009F4F0895E89409C097FB3EF490958095C1
:10116000709561957F4F8F4F9F4F9923A9F0F92F6D
:1011700096E9BB279395F695879577956795B795EB
:10118000F111F8CFFAF4BB0F11F460FF1BC06F5FD1
:101190007F4F8F4F9F4F16C0882311F096E911C0E3
:1011A000772321F09EE8872F762F05C0662371F004
:1011B00096E8862F70E060E02AF09A95660F771F18
:1011C000881FDAF7880F9695879597F9089597F90C
:1011D0009F6780E870E060E008959FEF80EC0895DD
:1011E00000240A9416161706180609060895002406
:1011F0000A9412161306140605060895092E039480
:10120000000C11F4882352F0BB0F40F4BF2B11F4F3
:1012100060FF04C06F5F7F4F8F4F9F4F089557FD52
:101220009058440F551F59F05F3F71F04795880F54
:1012300097FB991F61F09F3F79F0879508951216EB
:1012400013061406551FF2CF4695F1DF08C0161697
:1012500017061806991FF1CF869571056105089448
:101260000895E894BB2766277727CB0197F908955F
:101270000E944B090C94FE080E94F00838F00E946E
:10128000F70820F0952311F00C94E7080C94ED0872
:1012900011240C9432090E940F0970F3959FC1F339
:1012A000950F50E0551F629FF001729FBB27F00D14
:1012B000B11D639FAA27F00DB11DAA1F649F662769
:1012C000B00DA11D661F829F2227B00DA11D621FB8
:1012D000739FB00DA11D621F839FA00D611D221F72
:1012E000749F3327A00D611D231F849F600D211D56
:1012F000822F762F6A2F11249F5750409AF0F1F0D9
:1013000088234AF0EE0FFF1FBB1F661F771F881F41
:1013100091505040A9F79E3F510580F00C94E7088A
:101320000C9432095F3FE4F3983ED4F386957795A9
:101330006795B795F795E7959F5FC1F7FE2B880FE7
:10134000911D9695879597F908959F930E94AF09EF
:101350000F9007FCEE5F0C94D8090C94ED080E94E6
:101360001709D8F3E894E0E0BB279F57F0F02AED87
:101370003FE049EC06C0EE0FBB0F661F771F881FCA
:1013800028F0B23A62077307840728F0B25A620B5A
:10139000730B840BE3959A9572F7803830F49A9525
:1013A000BB0F661F771F881FD2F790480C94540A12
:1013B000EF93E0FF07C0A2EA2AED3FE049EC5FEBC4
:1013C0000E94FD090E94FE080F90039401FC9058B2
:1013D000E8E6F0E00C94600A0E94F00838F00E9401
:1013E000F70820F039F49F3F19F426F40C94ED0827
:1013F0000EF4E095E7FB0C94E708E92F0E940F0933
:1014000058F3BA17620773078407950720F079F439
:10141000A6F50C9431090EF4E0950B2EBA2FA02DF1
:101420000B01B90190010C01CA01A0011124FF2791
:10143000591B99F0593F50F4503E68F11A16F0408C
:10144000A22F232F342F4427585FF3CF469537958B
:101450002795A795F0405395C9F77EF41F16BA0B50
:10146000620B730B840BBAF09150A1F0FF0FBB1FFE
:10147000661F771F881FC2F70EC0BA0F621F731F47
:10148000841F48F4879577956795B795F7959E3FA4
:1014900008F0B0CF9395880F08F09927EE0F979535
:1014A000879508959F3F31F0915020F48795779567
:1014B0006795B795880F911D9695879597F908952B
:1014C0009F938F937F936F93FF93EF939B01AC0157
:1014D0000E943809EF91FF910E94740A2F913F9169
:1014E0004F915F910C943809DF93CF931F930F9323
:1014F000FF92EF92DF927B018C01689406C0DA2E96
:10150000EF010E944B09FE01E894A59125913591C8
:1015100045915591A6F3EF010E94FD09FE01970147
:10152000A801DA9469F7DF90EF90FF900F911F9177
:10153000CF91DF91089597FB072E16F4009407D002
:1015400077FD09D00E94B60A07FC05D03EF49095BD
:1015500081959F4F0895709561957F4F08950E94E2
:10156000F307B7FF0895821B930B0895AA1BBB1BBB
:1015700051E107C0AA1FBB1FA617B70710F0A61B93
:10158000B70B881F991F5A95A9F780959095BC01B4
:10159000CD010895EE0FFF1F0590F491E02D099401
:1015A000CF93DF938230910510F482E090E0E091D8
:1015B0004803F091490320E030E0C0E0D0E03097EC
:1015C00011F14081518148175907C0F04817590758
:1015D00061F482819381209719F09B838A832BC0C9
:1015E000909349038093480326C02115310519F0D3
:1015F0004217530718F49A01BE01DF01EF01028080
:10160000F381E02DDCCF2115310509F1281B390BC1
:101610002430310590F412968D919C9113976115A9
:10162000710521F0FB019383828304C090934903E9
:1016300080934803FD01329644C0FD01E20FF31F81
:1016400081939193225031092D933C933AC020917C
:10165000460330914703232B41F420910801309138
:1016600009013093470320934603209106013091EE
:1016700007012115310541F42DB73EB740910A010C
:1016800050910B01241B350BE0914603F091470369
:10169000E217F307A0F42E1B3F0B2817390778F049
:1016A000AC014E5F5F4F2417350748F04E0F5F1FA8
:1016B00050934703409346038193919302C0E0E027
:1016C000F0E0CF01DF91CF9108950F931F93CF9357
:1016D000DF93009709F48CC0FC01329713821282C9
:1016E00000914803109149030115110581F42081EF
:1016F0003181820F931F20914603309147032817B1
:10170000390779F5F0934703E093460371C0D80198
:1017100040E050E0AE17BF0750F412962D913C9177
:101720001397AD012115310509F1D901F3CF9D01C1
:10173000DA013383228360817181860F971F8217BC
:10174000930769F4EC0128813981260F371F2E5F3A
:101750003F4F318320838A819B8193838283452BF2
:1017600029F4F0934903E093480342C01396FC9395
:10177000EE931297ED01499159919E01240F351F67
:10178000E217F30771F480819181840F951F02960F
:1017900011969C938E938281938113969C938E9342
:1017A0001297E0E0F0E0D80112968D919C9113978A
:1017B000009719F0F8018C01F6CF8D919C9198015A
:1017C0002E5F3F4F820F931F2091460330914703B6
:1017D0002817390769F4309729F4109249031092B9
:1017E000480302C0138212821093470300934603FA
:1017F000DF91CF911F910F91089581E090E0F894CF
:101800000C94020C10E0C1E7D0E004C0FE010E947D
:0E181000CA0A2196C237D107C9F7F894FFCF54
:10181E0017B75139010000004A0380000000000094
:10182E00EF026B02B8029602AA0236030D0A0000FE
:00000001FF
