:100000000C9463000C948B000C948B000C9473057F
:100010000C9473050C9473050C948B000C948B005A
:100020000C948B000C948B000C948B000C948B0024
:100030000C948B000C948B000C948B000C948B0014
:100040000C94D1040C948B000C9441050C941B056A
:100050000C948B000C948B000C948B000C948B00F4
:100060000C948B000C948B000000000024002700EF
:100070002A0000000008000201000003040700003D
:1000800000000000000000000000250028002B00F8
:1000900000000000230026002900040404040404D6
:1000A0000404020202020202030303030303010227
:1000B00004081020408001020408102001020408F6
:1000C0001020ED053E0A11241FBECFEFD8E0DEBFA1
:1000D000CDBF22E0AEE4B1E001C01D92A538B20769
:1000E000E1F711E0A0E0B1E0ECEEF9E102C005902B
:1000F0000D92AE34B107D9F710E0C2E6D0E004C0EB
:100100002197FE010E94CF0AC136D107C9F70E948C
:10011000EE060C94E90C0C940000833081F028F476
:10012000813099F08230A1F008958730A9F08830AD
:10013000B9F08430D1F4809180008F7D03C080912C
:1001400080008F7780938000089584B58F7702C0F8
:1001500084B58F7D84BD08958091B0008F7703C0F2
:100160008091B0008F7D8093B0000895CF93DF938E
:10017000282F30E0F901EE58FF4F8491F901E25544
:10018000FF4FD491F901E656FF4FC491CC2391F073
:1001900081110E948D00EC2FF0E0EE0FFF1FE05761
:1001A000FF4FA591B491EC91ED2381E090E021F413
:1001B00080E002C080E090E0DF91CF9108951F932E
:1001C000CF93DF93282F30E0F901EE58FF4F849151
:1001D000F901E255FF4FD491F901E656FF4FC49162
:1001E000CC23C9F0162F81110E948D00EC2FF0E076
:1001F000EE0FFF1FEA57FF4FA591B4918FB7F89408
:10020000111105C09C91ED2FE095E92302C0EC91FE
:10021000ED2BEC938FBFDF91CF911F910895CF937A
:10022000DF9390E0FC01E255FF4F2491FC01E6567C
:10023000FF4F8491882361F190E0880F991FFC01A2
:10024000E859FF4FC591D491FC01EA57FF4FA591A2
:10025000B491611109C09FB7F894888120958223D9
:100260008883EC912E230BC0623061F49FB7F89421
:100270003881822F809583238883EC912E2B2C93B9
:100280009FBF06C08FB7F894E8812E2B28838FBFBD
:10029000DF91CF9108953FB7F89480919F0190919D
:1002A000A001A091A101B091A20126B5A89B05C013
:1002B0002F3F19F00196A11DB11D3FBFBA2FA92FE5
:1002C000982F8827820F911DA11DB11DBC01CD0162
:1002D00042E0660F771F881F991F4A95D1F708954E
:1002E0008F929F92AF92BF92CF92DF92EF92FF9246
:1002F0006B017C010E944B014B015C01C114D104D4
:10030000E104F104F1F00E944B01DC01CB018819FA
:100310009909AA09BB09883E9340A105B10570F36C
:1003200021E0C21AD108E108F10888EE880E83E0C6
:10033000981EA11CB11CC114D104E104F10419F7E9
:10034000DDCFFF90EF90DF90CF90BF90AF909F9068
:100350008F900895CF92DF92EF92FF920F931F93A9
:10036000CF93DF936C017A018B01C0E0D0E0CE1512
:10037000DF0589F0D8016D918D01D601ED91FC91D9
:100380000190F081E02DC6010995892B11F47E01C1
:1003900002C02196ECCFC701DF91CF911F910F9141
:1003A000FF90EF90DF90CF900895FC01918D828DAA
:1003B000981761F0828DDF01A80FB11D5D968C91B9
:1003C000928D9F5F9F73928F90E008958FEF9FEFC4
:1003D0000895FC01918D828D981731F0828DE80F80
:1003E000F11D858D90E008958FEF9FEF0895FC013A
:1003F000918D228D892F90E0805C9F4F821B910907
:100400008F739927089583EA91E00E94F70121E014
:10041000892B09F420E0822F0895FC01848DDF01EF
:10042000A80FB11DA35ABF4F2C91848D90E0019667
:100430008F739927848FA689B7892C93A089B18956
:100440008C9180648C93938D848D981306C0028860
:10045000F389E02D80818F7D80830895EF92FF9254
:100460000F931F93CF93DF93EC0181E0888F9B8DD7
:100470008C8D981305C0E889F989808185FD24C099
:10048000F62E0B8D10E00F5F1F4F0F731127E02E1C
:100490008C8DE8120CC00FB607FCFACFE889F989F9
:1004A000808185FFF5CFCE010E940D02F1CF8B8DAB
:1004B000FE01E80FF11DE35AFF4FF0820B8FEA892E
:1004C000FB898081806207C0EE89FF896083E889AB
:1004D000F98980818064808381E090E0DF91CF9111
:1004E0001F910F91FF90EF900895CF93DF93EC0150
:1004F000888D8823C9F0EA89FB89808185FD05C044
:10050000A889B9898C9186FD0FC00FB607FCF5CF7D
:10051000808185FFF2CFA889B9898C9185FFEDCFC5
:10052000CE010E940D02E7CFDF91CF91089580E0C8
:1005300090E0892B29F00E94030281110C940000A5
:10054000089520919001309191012817390771F495
:1005500090918E0180918F01981741F0E0918E016A
:10056000F0E0E25BFE4F808190E008958FEF9FEF17
:10057000089508951F93CF93DF93DC015C962D912E
:100580003C915D972115310539F481E090E0139697
:100590009C938E9312973DC05196ED91FC9152978A
:1005A00050969C915097892F80951FB75E964C91DD
:1005B0005E9741FB772770F941FD6095F894408183
:1005C000772311F0492B01C048234083E90121978B
:1005D000F1F748E0508160FF02C0592B01C0582359
:1005E0005083E9012197F1F76695415099F77723F8
:1005F00021F090818923808303C08081982B908390
:100600001FBF5C968D919C915D970197F1F721E05A
:1006100030E0C901DF91CF911F91089520919001A1
:10062000309191012817390771F480918F01209141
:100630008E0190E0805C9F4F821B910960E470E026
:100640000E949F0A089580E090E008952091900113
:100650003091910128173907B9F490918E0180915A
:100660008F01981789F0E0918E01F0E0E25BFE4F78
:10067000808120918E0130E02F5F3F4F2F73332711
:1006800020938E0190E008958FEF9FEF0895E09101
:100690009001F0919101E817F90769F4A389B489F1
:1006A0009C918589809589238C9310929101109259
:1006B000900181E0089580E008950F931F93CF93F8
:1006C000DF93EC018F85882331F08E850E94B60080
:1006D0000197D9F30EC00E944B01088919892A8914
:1006E0003B89DC01CB01801B910BA20BB30BB7FD47
:1006F000F2CFDF91CF911F910F910895CF92DF92AA
:10070000EF92FF92CF93DF93FC01278521110DC05B
:100710006A017B01EC010E944B01C60ED71EE81E48
:10072000F91EC88AD98AEA8AFB8ADF91CF91FF90A5
:10073000EF90DF90CF900895EF92FF920F931F9369
:10074000CF93DF931F92CDB7DEB7082F162F86E425
:1007500092E049830E945D0386E4E82E82E0F82E51
:10076000D70114968D919C911597DC01ED91FC9128
:100770000190F081E02D602F0995F701848195812A
:10078000DC01ED91FC910190F081E02D612F099544
:10079000F70184819581DC01ED91FC910190F0815C
:1007A000E02D4981642F099547EB56E060E070E049
:1007B000C7010F90DF91CF911F910F91FF90EF90A4
:1007C0000C947E031F93CF93DF93182F86E492E05F
:1007D0000E945D03C6E4D2E08C819D81DC01ED9135
:1007E000FC910190F081E02D6BE109958C819D8158
:1007F000DC01ED91FC910190F081E02D612F0995D4
:100800004AE754E060E070E0CE01DF91CF911F91A4
:100810000C947E03EF92FF920F931F93CF93DF937D
:1008200000D0CDB7DEB7082F162F86E492E02A83DA
:1008300049830E945D0386E4E82E82E0F82ED7010A
:1008400014968D919C911597DC01ED91FC9101908E
:10085000F081E02D602F0995F70184819581DC01FD
:10086000ED91FC910190F081E02D612F0995F70148
:1008700084819581DC01ED91FC910190F081E02D66
:100880004981642F0995F70184819581DC01ED91FF
:10089000FC910190F081E02D2A81622F099544EFAF
:1008A00058E060E070E0C7010F900F90DF91CF91AA
:1008B0001F910F91FF90EF900C947E03CF92DF92E7
:1008C000EF92FF921F93CF93DF93EC01162F0E94BC
:1008D0005D038C819D81DC01ED91FC910190F081A3
:1008E000E02D612F09951A3021F0888599858913AB
:1008F00028C08F81EA85AB85288D398D4A8D5B8D27
:10090000B0E08A3029F4AE0FB11D0E94B30A10C0C6
:100910000E944E0A6B017C012C893D894E895F89BA
:10092000AE2FB0E00E944E0A6C0D7D1D8E1D9F1DE6
:10093000AB01BC01435C5D4F6F4F7F4F18861AE0DF
:1009400006C08F5F88874DE352E060E070E0CE0123
:100950000E947E031F83DF91CF911F91FF90EF9044
:10096000DF90CF900895633111F00E945E0481E022
:1009700090E008956115710579F0FB010190002068
:10098000E9F73197AF01461B570BDC01ED91FC9164
:100990000280F381E02D099480E090E008950E94A8
:1009A000CC0C1F920F920FB60F9211242F933F93EE
:1009B0008F939F93AF93BF9380919B0190919C01E4
:1009C000A0919D01B0919E0130919A0123E0230FE7
:1009D0002D3720F40196A11DB11D05C026E8230F77
:1009E0000296A11DB11D20939A0180939B019093C3
:1009F0009C01A0939D01B0939E0180919F019091D5
:100A0000A001A091A101B091A2010196A11DB11D6B
:100A100080939F019093A001A093A101B093A201A4
:100A2000BF91AF919F918F913F912F910F900FBEEA
:100A30000F901F9018951F920F920FB60F921124CE
:100A40002F933F934F935F936F937F938F939F93D6
:100A5000AF93BF93EF93FF9383EA91E00E940D025F
:100A6000FF91EF91BF91AF919F918F917F916F9186
:100A70005F914F913F912F910F900FBE0F901F905C
:100A800018951F920F920FB60F9211242F938F93E8
:100A90009F93EF93FF93E091B301F091B4018081B4
:100AA000E091B901F091BA0182FD12C0908180916C
:100AB000BC018F5F8F732091BD01821751F0E091CF
:100AC000BC01F0E0ED55FE4F958F8093BC0101C055
:100AD0008081FF91EF919F918F912F910F900FBE89
:100AE0000F901F9018951F920F920FB60F9211241E
:100AF0002F933F934F935F936F937F938F939F9326
:100B0000AF93BF93EF93FF93E0919001F091910128
:100B1000309709F451C0968DA685B785858591FFDC
:100B200004C09C91892329F447C09C91892309F032
:100B300043C0A389B4899C918589809589238C932E
:100B4000868997890197F1F7608D718DA685B785A4
:100B5000558538E020E0CB010197F1F7822F90E036
:100B600095958795282F4C91452309F020683150A1
:100B700091F7868D81FD209580918F0190E00196FF
:100B80008F73992730918E01381749F0A0918F010A
:100B9000B0E0A25BBE4F2C9380938F0103C0868D83
:100BA0008160868F828D938D0197F1F7A389B48937
:100BB0009C918589892B8C93FF91EF91BF91AF9187
:100BC0009F918F917F916F915F914F913F912F9165
:100BD0000F900FBE0F901F9018951092A6011092C3
:100BE000A50188EE93E0A0E0B0E08093A701909388
:100BF000A801A093A901B093AA012CE031E03093A1
:100C0000A4012093A30125EC30E03093B0012093A0
:100C1000AF0124EC30E03093B2012093B10120EC1D
:100C200030E03093B4012093B30121EC30E03093F5
:100C3000B6012093B50122EC30E03093B801209347
:100C4000B70126EC30E03093BA012093B90110923D
:100C5000BC011092BD011092BE011092BF01109212
:100C60006502109264028093660290936702A093DB
:100C70006802B093690284E291E0909363028093EA
:100C80006202109279021092780210927B02109206
:100C90007A0210927D0210927C0210927F021092D2
:100CA0007E02609180026E7F6D7F60938002669508
:100CB000617081E0682786E00E94DF0061E086E0E5
:100CC0000E940F01E4EBF0E0E491E0937202E0EAAD
:100CD000F0E0E491F0E0EE0FFF1FEA57FF4F85913F
:100CE0009491909374028093730260E085E00E9477
:100CF0000F018091800281FD04C061E085E00E94C7
:100D0000DF0085E080936E02E3EBF0E0E491E09396
:100D10006F02EFE9F0E0E491F0E0EE0FFF1FE05723
:100D2000FF4F85919491909371028093700210927D
:100D30004902109248028CE191E09093470280931F
:100D4000460282E692E090934B0280934A028FEF34
:100D50008093540210925502109241021092400268
:100D600010924302109242021092450210924402E5
:100D700061E070E080E090E00E94020C009789F052
:100D800090934102809340021092430210924202DB
:100D90002091440230914502232BC1F4FC011082C2
:100DA00015C08091400290914102009711F00E947D
:100DB0006A0B10924102109240021092450210926A
:100DC000440210924302109242020895109245028A
:100DD0001092440262E371E00C94E20CCF93DF9333
:100DE000CDB7DEB7EC970FB6F894DEBF0FBECDBF20
:100DF000789484B5826084BD84B5816084BD85B5F6
:100E0000826085BD85B5816085BD80916E00816001
:100E100080936E00109281008091810082608093A7
:100E200081008091810081608093810080918000A9
:100E30008160809380008091B10084608093B100D4
:100E40008091B00081608093B00080917A008460CE
:100E500080937A0080917A00826080937A008091FA
:100E60007A00816080937A0080917A008068809314
:100E70007A001092C10061E083E00E940F0162E0FD
:100E800082E00E940F01E091B301F091B40182E091
:100E90008083E091AF01F091B0011082E091B10147
:100EA000F091B20180E180831092BB01E091B70123
:100EB000F091B80186E08083E091B501F091B60130
:100EC000808180618083E091B501F091B6018081DD
:100ED00088608083E091B501F091B60180818068DF
:100EE0008083E091B501F091B60180818F7D808390
:100EF00010927D0210927C0210927B0210927A0274
:100F000010927902109278028DEC90E090937F021B
:100F100080937E0290916E02963108F057C025E5CD
:100F200030E030937902209378022BEC30E030935C
:100F30007B0220937A0220E930E030937D022093F7
:100F40007C0220916800983050F031E09E3008F427
:100F500030E081E001C0880F3A95EAF701C084E0F3
:100F6000822B80936800983038F09E3040F09631A4
:100F700048F020E030E008C02DE630E005C02BE668
:100F800030E002C02CE630E0309376022093750208
:100F9000983030F481E001C0880F9A95EAF70EC0CE
:100FA000292F30E09E3018F42850310902C02E500D
:100FB000310981E001C0880F2A95EAF78093770212
:100FC00080917E0290917F020197F1F780917C02DF
:100FD00090917D02892B21F1809190019091910156
:100FE00022E082369207E1F0009711F00E94470359
:100FF000809180028E7F8093800210928F011092E8
:101000008E0182E692E09093910180939001E091AD
:101010007502F0917602908180917702892B80830E
:1010200040E251EA67E070E086E492E00E947E03CD
:1010300040E050E0BA0186E492E00E947E0386E43C
:1010400092E00E945D0380914A0290914B02DC0184
:10105000ED91FC910190F081E02D6FEF09954DE34A
:1010600052E060E070E086E492E00E947E0362E37A
:1010700070E080E090E00E94700120E040E068E3D2
:101080008BE10E940A0480E40E94E2038AE08093DC
:101090004D0210924E0280E280934F0288E18093CD
:1010A000500286E08093510282E38093520284E4EE
:1010B0000E94E20320E14CE068E084E00E940A0420
:1010C00020E04CE168E184E10E940A0487E30E9489
:1010D000E20348E268E78BE00E949C034AE463E293
:1010E00082E10E949C03809154028F3F59F062E09C
:1010F0000E940F0140E261E68DE10E949C0381E0C5
:101100008093550280E395E7A0E0B0E080935A0217
:1011100090935B02A0935C02B0935D0284E398E03D
:10112000A0E0B0E080935E0290935F02A093600223
:10113000B09361028FEF8093530240914C024B7F3A
:1011400040934C0261E28BE10E949C0380914C022F
:1011500084FD02C098E101C090E39093500285FDA8
:1011600002C080E201C080E180934F0283E490E0FE
:101170000E94D10C8334910529F08235910521F428
:1011800042E003C041E001C040E061E68BE10E9423
:101190009C036BE186E492E00E945E046BE786E4C8
:1011A00092E00E945E0461E086E492E00E945E04A8
:1011B00005E710E03BE1932E4AE0842E52E0E52E55
:1011C000F12CCC24C394D12C2FB7F89480919B019F
:1011D00090919C01A0919D01B0919E012FBF4091E3
:1011E0009401509195016091960170919701841B33
:1011F000950BA60BB70B4F97A105B105B0F1209148
:101200000001309101018091920190919301820F30
:10121000931F8F3F910538F48F3F910579F074F05B
:101220008FEF90E00BC0319521953109309301018A
:101230002093000197FFF0CF80E090E0909393011E
:10124000809392012FB7F89480919B0190919C011B
:10125000A0919D01B0919E012FBF80939401909326
:101260009501A0939601B0939701A0909201B09040
:10127000930161E083E00E940F01A114B10411F415
:1012800060E005C0BFEFAB16B10429F461E083E074
:101290000E94DF0043C0F80184918330F9F048F4E4
:1012A0008130B9F08230A1F584B5806284BDA8BCDC
:1012B00035C08730E9F0883019F1843049F58091E4
:1012C0008000806280938000B0928B00A0928A00A0
:1012D00025C084B5806884BDA7BC20C080918000F3
:1012E000806880938000B0928900A092880016C028
:1012F0008091B00080688093B000A092B3000EC0CF
:101300008091B00080628093B000A092B40006C0CB
:10131000F0E8AF16B1040CF0B9CFB2CFE3E3F1E0DF
:10132000DE019296892D01900D928A95E1F78091C8
:101330009801909199018130910541F08230910599
:1013400009F48FC0892B09F096C005C0CE018296A2
:101350005C01512C0BC082E00E94B600892B09F081
:101360008AC0D0929901C092980185C03501E09160
:10137000A301F091A4010190F081E02DD5016D91C0
:101380005D0183EA91E00995E091A301F091A40148
:101390000190F081E02D6CE283EA91E00995F30180
:1013A0008081082E000C990BAA0BBB0B19A2FE0121
:1013B000B196AC01BD014F7055276627772724E011
:1013C000B695A795979587952A95D1F731974A3085
:1013D00051056105710510F4405D01C0495C408311
:1013E0000097A105B10529F7BF0183EA91E00E94AA
:1013F000BA0460E371E083EA91E00E94BA04539476
:10140000FBE15F12B3CFBE016E5D7F4F86E492E0D9
:101410000E94BA0460E371E086E492E00E94BA049C
:1014200042E064E68BE10E949C03A091500220916F
:101430005E0230915F024091600250916102B0E023
:101440000E944E0AAB01BC0186E492E00E947E033A
:1014500080924D0210924E02F0929901E092980112
:101460000AC068EE73E080E090E00E947001109284
:101470009901109298010E949702A6CE8091400295
:10148000909141020E946A0B84E291E09093630282
:101490008093620282E692E00C9447030E94900AD5
:1014A000A59F900DB49F900DA49F800D911D1124B8
:1014B00008952F923F924F925F926F927F928F92F8
:1014C0009F92AF92BF92CF92DF92EF92FF920F93D3
:1014D0001F93CF93DF93CDB7DEB7CA1BDB0B0FB6DD
:1014E000F894DEBF0FBECDBF09942A88398848889A
:1014F0005F846E847D848C849B84AA84B984C88430
:10150000DF80EE80FD800C811B81AA81B981CE0F26
:10151000D11D0FB6F894DEBF0FBECDBFED0108950B
:10152000A29FB001B39FC001A39F700D811D112424
:10153000911DB29F700D811D1124911D089597FB7F
:10154000072E16F4009407D077FD09D00E94BB0A3D
:1015500007FC05D03EF4909581959F4F08957095B6
:1015600061957F4F0895B7FF0C944E0A0E944E0A72
:10157000821B930B0895AA1BBB1B51E107C0AA1F36
:10158000BB1FA617B70710F0A61BB70B881F991F24
:101590005A95A9F780959095BC01CD010895EE0F5D
:1015A000FF1F0590F491E02D0994CF93DF938230D3
:1015B000910510F482E090E0E0918302F0918402C2
:1015C00020E030E0C0E0D0E0309711F1408151815F
:1015D00048175907C0F04817590761F48281938171
:1015E000209719F09B838A832BC090938402809369
:1015F000830226C02115310519F04217530718F44C
:101600009A01BE01DF01EF010280F381E02DDCCF02
:101610002115310509F1281B390B2430310590F4CF
:1016200012968D919C9113976115710521F0FB0124
:101630009383828304C09093840280938302FD018C
:10164000329644C0FD01E20FF31F81939193225023
:1016500031092D933C933AC020918102309182024E
:10166000232B41F420910401309105013093820233
:10167000209381022091020130910301211531054F
:1016800041F42DB73EB74091060150910701241B4C
:10169000350BE0918102F0918202E217F307A0F48A
:1016A0002E1B3F0B2817390778F0AC014E5F5F4FB8
:1016B0002417350748F04E0F5F1F50938202409366
:1016C00081028193919302C0E0E0F0E0CF01DF91CD
:1016D000CF9108950F931F93CF93DF93009709F451
:1016E0008CC0FC0132971382128200918302109108
:1016F00084020115110581F420813181820F931F2D
:1017000020918102309182022817390779F5F093F0
:101710008202E093810271C0D80140E050E0AE1730
:10172000BF0750F412962D913C911397AD012115EE
:10173000310509F1D901F3CF9D01DA013383228309
:1017400060817181860F971F8217930769F4EC01FE
:1017500028813981260F371F2E5F3F4F3183208329
:101760008A819B8193838283452B29F4F0938402A1
:10177000E093830242C01396FC93EE931297ED011F
:10178000499159919E01240F351FE217F30771F417
:1017900080819181840F951F029611969C938E9360
:1017A0008281938113969C938E931297E0E0F0E0F0
:1017B000D80112968D919C911397009719F0F8011A
:1017C0008C01F6CF8D919C9198012E5F3F4F820F37
:1017D000931F20918102309182022817390769F402
:1017E000309729F4109284021092830202C013826F
:1017F00012821093820200938102DF91CF911F9198
:101800000F910895A0E0B0E0E8E0FCE00C945D0AE0
:10181000EC01009721F4CB010E94D50AB8C0FC016D
:10182000E60FF71F9C0122503109E217F30708F475
:10183000ACC0D9010D911C91119706171707B0F094
:101840000530110508F49FC0C80104978617970753
:1018500008F499C002501109061B170B019311934C
:101860006D937C93CF010E946A0B8DC05B01A01A1F
:10187000B10A4C01800E911EA0918302B0918402A6
:1018800040E050E0E12CF12C109709F44AC0A81573
:10189000B905D1F56D907C901197630182E0C80E77
:1018A000D11CCA14DB0480F1A3014A195B096A0147
:1018B00082E0C80ED11C1296BC9012971396AC9180
:1018C000B5E0CB16D10440F0B282A38351834083AC
:1018D000D9016D937C930AC00E5F1F4FC301800F27
:1018E000911FF90191838083EB2DFA2FE114F1040C
:1018F00031F0D7011396FC93EE93129744C0F09306
:101900008402E09383023FC08D919C911197481708
:10191000590708F4AC017D0112960D90BC91A02DE1
:10192000B3CF809181029091820288159905E1F4EC
:1019300046175707C8F48091020190910301009760
:1019400041F48DB79EB74091060150910701841B69
:10195000950BE817F907C8F4F0938202E09381022F
:10196000F901718360830FC0CB010E94D50A7C010D
:10197000009759F0A801BE010E94D90CCE010E9427
:101980006A0BC70104C0CE0102C080E090E0CDB771
:10199000DEB7EEE00C94790A81E090E0F8940C94C4
:1019A000E90C9111089581568A5108F480528558A6
:1019B0000895FB01DC0102C001900D92415050409E
:1019C000D8F70895FB01DC0101900D920020E1F7AA
:1019D000089510E0C2E6D0E004C0FE010E94CF0AE4
:0C19E0002196C336D107C9F7F894FFCF59
:1019EC000500000085028000000000002E02AA0104
:1019FC00F701D501E901750200000000B304AA014A
:101A0C0000000000BA02AA010E032603A102B902CB
:101A1C000D0A00C2BF44652064C3B36E64652073B5
:0E1A2C006163617320667565727A61733F00B5
:00000001FF
